:020000040800F2
:1000000078B500202102000829020008853F000879
:100010002D0200082F020008310200080000000035
:100020000000000000000000000000003302000893
:100030003502000800000000AF020008FD93000830
:100040003B0200083B0200083B020008F177000871
:100050003B0200083B0200083B0200083B0200088C
:100060003B0200083B0200083B0200083B0200087C
:100070003B0200083B0200083B0200083B0200086C
:100080003B0200083B0200083B0200083B0200085C
:100090008D9E00083B0200083B0200083B0200085E
:1000A0003B0200083B0200083B0200083B0200083C
:1000B0003B020008D19500083B0200083B02000803
:1000C0003B0200083B0200083B0200083B0200081C
:1000D0003B0200089D9B00083B0200083B02000811
:1000E0003B0200083B020008419D00083B0200085B
:1000F0003B0200083B0200083B0200083B020008EC
:100100003B0200083B020008059600083B0200087D
:100110003B0200083B0200083B0200083B020008CB
:100120003B0200083B0200083B0200083B020008BB
:1001300000F002F800F065F80AA090E8000C824494
:100140008344AAF10107DA4501D100F05AF8AFF271
:10015000090EBAE80F0013F0010F18BFFB1A43F0A5
:1001600001031847308A0300508A03000A444FF005
:10017000000C10F8013B13F0070408BF10F8014B06
:100180001D1108BF10F8015B641E05D010F8016B4B
:10019000641E01F8016BF9D113F0080F1EBF10F8AF
:1001A000014BAD1C0C1B09D16D1E58BF01F801CBD2
:1001B000FAD505E014F8016B01F8016B6D1EF9D555
:1001C0009142D6D37047000000230024002500266A
:1001D000103A28BF78C1FBD8520728BF30C148BFAA
:1001E0000B607047642901F08187782901F0BA8794
:1001F000732902F03082002070471FB51FBD10B573
:1002000010BD02F0C7FA1146FFF7F7FF14F082FCA9
:1002100002F0E5FA03B4FFF7F2FF03BC0AF0AAFA12
:100220000948804709480047FEE7FEE7FEE7FEE78A
:10023000FEE7FEE7FEE7FEE7FEE7FEE704480549C6
:10024000054A064B704700001D9400083101000864
:1002500078AF002078B5002078B1002078B1002078
:10026000EFF3108072B6704780F310887047204C0F
:10027000204D25604FF0000484F309881E4C4FF098
:10028000010525701D4C4FF08055256062B6FEE7D4
:1002900030B41A4C4FF08055256030BC704730B4F4
:1002A000164C4FF08055256030BC704700BF72B6C9
:1002B000EFF3098028B1203880E8F00F1049096871
:1002C000086000B50F4880475DF804EB0E480F4901
:1002D0000A7802700A480E490A680260106890E8BD
:1002E000F00F203080F309884EF0040E62B670479C
:1002F00020ED00E00000FFFF1B01002004ED00E006
:1003000034010020ED6E00081801002019010020C2
:100310003C01002010B5FF4800680AF017FBFE48BA
:1003200000680AF013FBFD4800680AF00FFBFC4868
:1003300000680AF00BFBFB4800680AF007FBFA486C
:1003400000680AF003FBF94800680AF0FFFA10BDE4
:1003500010B500244FF400700AF0FAFAED49086075
:100360000846006800B901244FF400700AF0F0FA62
:10037000E94908600846006800B901244FF400709C
:100380000AF0E6FAE54908600846006800B9012469
:10039000A0200AF0DDFAE24908600846006800B9CA
:1003A000012440200AF0D4FADE49086008460068BB
:1003B00000B9012440200AF0CBFADB490860084666
:1003C000006800B901244FF4F8700AF0C1FAD74967
:1003D00008600846006800B901240CB1FFF79AFFD5
:1003E000204610BD2DE9F04704460D461646701B09
:1003F00000EBD07105EB610954F8397004EBC901C9
:1004000048681EF0ABFF804654F8350044F83900C8
:1004100004EBC500406804EBC9014860A94605F13A
:10042000010A1DE054F83A0039461FF029F815D8A2
:1004300054F83A0044F8390004EBCA00406804EB71
:10044000C901486009F1010954F8390044F83A003B
:1004500004EBC900406804EBCA0148600AF1010AD4
:10046000B245DFDDA9EB0500012805DDA9F1010298
:1004700029462046FFF7B6FFA6EB0900012805DD57
:10048000324609F101012046FFF7ACFF44F839700C
:1004900040461EF0C9FF04EBC9014860BDE8F08783
:1004A0002DE9F84F04460D4616461F464FF000084A
:1004B00028E04FF0000920E04FF0000BDA4612E090
:1004C0000B9A0AFB029255F822100A9A08FB02A224
:1004D00054F822001FF008F8594600901EF0D4FD91
:1004E00083460AF1010A0A988245E9DB0B9808FB6A
:1004F000009046F820B009F101090B988145DBDB3B
:1005000008F10108B845D4DBBDE8F88F024612B9FE
:1005100009B900207047002A02DD09B90020F9E777
:10052000002903DD8A4201DD0120F3E7002A03DD13
:10053000914201D10220EDE7002A03DD8A4201DA6F
:100540000320E7E71AB9002901DD0420E2E7002AC9
:1005500008DA101E01DB034600E043428B4201DA59
:100560000520D7E7002A08DA101E01DB034600E069
:1005700043428B4201D10620CCE7002A0ADA101E42
:1005800001DB034600E043428B4203DD002901DD2D
:100590000720BFE719B9002A01DA0820BAE70029C5
:1005A00003DA914201DD0920B4E7002A03DA91421F
:1005B00001D10A20AEE7002A03DA914201DA0B20CA
:1005C000A8E71AB9002901DA0C20A3E700290ADA02
:1005D000081E01DB034600E04342934203DD002A8C
:1005E00001DD0D2096E7002908DA081E01DB03462D
:1005F00000E04342934201D10E208BE7002908DA44
:10060000081E01DB034600E04342934201DA0F205B
:1006100080E700207EE730B5034601B10AB900202B
:1006200030BD412901D0412A01D10020F8E7491EFF
:10063000521E03EBC20000EBE100047801F0070555
:100640000120A840044201D00120E9E70020E7E7AB
:100650002DE9FE4F04460D4616461F460020019028
:10066000781C8200002132480AF074F9781C82005C
:10067000002130480AF06EF94FF0000819E04FF001
:10068000000912E004EBC80000EBE900017809F072
:10069000070201209040014205D04FF07E510198A1
:1006A0001EF0F2FC019009F10109B145EADB08F105
:1006B0000108A845E3DB38461EF0B6FE8246014637
:1006C00001981EF055FD01900120029049E04FF085
:1006D000000AD0463AE04FF0000912E004EBC900EE
:1006E00000EBE800017808F0070201209040014289
:1006F00005D04FF07E5150461EF0C6FC824609F1EF
:100700000109A945EADB02981EF08EFE00900199CE
:1007100012E0000034050020380500203C050020D0
:100720004005002044050020480500204C0500201D
:10073000F0AE002004AF00201EF0D6FE83465146E6
:100740001EF09EFE00D804E008F10108701E40452E
:10075000C1DC00BFFD48029940F821800298401C8E
:100760000290781C02998142B1DB0120029035E0B1
:100770004FF0000AD14626E04FF0000812E004EBEB
:10078000C90000EBE800017808F007020120904062
:10079000014205D04FF07E5150461EF075FC824656
:1007A00008F10108B045EADB02981EF03DFE00901A
:1007B00001991EF099FE834651461EF061FE00D855
:1007C00004E009F10109681E4845D5DC00BFE04995
:1007D000029841F820900298401C0290781C0299DF
:1007E0008142C5DB0020029032E0029991FBF7F1D3
:1007F000D74A52F82120029991FBF7F1491CD44BBA
:1008000053F82110501800EBD0714910D14A1268EA
:10081000029B42F82310029991FBF7F207FB121199
:10082000CA4A52F82120029991FBF7F307FB1311F2
:10083000491CC64B53F82110501800EBD0714910D9
:10084000C54A1268029B42F823100298401C02908D
:1008500007FB07F002998842C7DCBDE8FE8F2DE94F
:10086000F34F8FB0402440200A901025AA000021A9
:10087000B94800680AF06EF8AA000021B54800687F
:100880000AF068F8042321460A9A0F98FFF7E0FE61
:10089000E2000021B14800680AF05CF800200B90EB
:1008A00060E3AC4801680B9851F820000290AA4818
:1008B00001680B9851F820000190029808304028F8
:1008C00001DD402001E002980830089001980830CE
:1008D000402801DD402001E0019808300690029890
:1008E000083801D5002001E00298083809900198E5
:1008F000083801D5002001E00198083807900998D0
:100900000E9027E307980D901CE3DDE90D120F9878
:10091000FFF781FE8146DDE90D12491C0F98FFF7B4
:100920007AFE022101FB0099DDE90D12891C0F9866
:10093000FFF771FE81440E9A921C0D990F98FFF7F4
:100940006AFEA9EB00090E9A921C0D99491C0F989A
:10095000FFF761FE022101FB10990E9A921C0D997E
:10096000891C0F98FFF757FEA9EB000007B2DDE9DD
:100970000D12891C0F98FFF74EFE81460E9A521CED
:100980000D99891C0F98FFF746FE022101FB009983
:100990000E9A921C0D99891C0F98FFF73CFE81441A
:1009A000DDE90D120F98FFF736FEA9EB00090E9A4C
:1009B000521C0D990F98FFF72EFE022101FB109992
:1009C0000E9A921C0D990F98FFF725FEA9EB0000D7
:1009D0000FFA80F8002F02DBB8F1000F00DA00BF39
:1009E00041463846FFF792FD0390039841100B985B
:1009F00001FB05060398401C40100B9900FB0510F5
:100A0000059002990E98401A083000EB0010019AE8
:100A10000D99891A08440830514951F82000049072
:100A2000039810281CD2DFE800F0081C4A629FB32C
:100A3000F2F0EFEEEDECEBEAE9E838461EF0F4FCFC
:100A4000824604991EF050FD81464448006850F8E3
:100A5000261048461EF018FB4049096841F8260058
:100A60006CE2A7EB08001EF0DFFC824604991EF042
:100A70003BFD81463948006850F8261048461EF074
:100A800003FB3649096841F8260040461EF0CCFCBD
:100A9000834634491EF028FD824604991EF024FD49
:100AA00081462E480268059852F8201048461EF0EC
:100AB000EBFA2A490968059A41F822003EE24046CD
:100AC0001EF0B2FC834627491EF00EFD82460499B3
:100AD0001EF00AFD81462148006850F8261048465D
:100AE0001EF0D2FA1D49096841F8260026E2384670
:100AF0001EF09AFC83461B491EF0F6FC82460499C0
:100B00001EF0F2FC81461548006850F82610484651
:100B10001EF0BAFA1149096841F82600A8EB07004F
:100B20001EF082FC824604991EF0DEFC81460B48D2
:100B30000268059852F8201048461EF0A5FA0749A9
:100B40000A68059942F82100F8E10000F0AE0020A3
:100B500004AF00204805002044050020380500208F
:100B6000A8E60208F704B53F40461EF05DFC824649
:100B700004991EF0B9FC8146FE48006850F8261022
:100B800048461EF081FAFB49096841F82600D5E184
:100B900007EB08001EF048FC824604991EF0A4FCF6
:100BA0008146F448006850F8261048461EF06CFA5A
:100BB000F049096841F82600B7F1000901DB494610
:100BC00001E0C9F1000108461EF02EFCEA49009040
:100BD0001EF08AFC834604991EF086FC8246E54896
:100BE0000068059A50F8221050461EF04DFAE1496F
:100BF0000968059A41F82200A0E166E14DE111E1A2
:100C0000F5E0BFE09FE069E04DE018E0FFE7404617
:100C10001EF00AFC8346D8491EF066FC8246049901
:100C20001EF062FC8146D348006850F82610484602
:100C30001EF02AFACF49096841F826007EE14046B5
:100C40001EF0F2FB8346CC491EF04EFC824604990E
:100C50001EF04AFC8146C748006850F826104846F6
:100C60001EF012FAC349096841F8260017EB08097B
:100C700001D4494601E0C9F1000108461EF0D4FB49
:100C8000834604991EF030FC8246BA480068059AF3
:100C900050F8221050461EF0F7F9B6490968059A37
:100CA00041F822004AE1B7F1000901DB494601E0C1
:100CB000C9F1000108461EF0B7FB834604991EF0F7
:100CC00013FC8246AB48006850F8261050461EF0D0
:100CD000DBF9A849096841F826002FE1A8EB0700D5
:100CE0001EF0A2FB824604991EF0FEFB8146A1483D
:100CF000006850F8261048461EF0C6F99D4909685C
:100D000041F82600B8F1000901DB494601E0C9F1CC
:100D1000000108461EF088FB974900901EF0E4FB96
:100D2000834604991EF0E0FB824692480068059ACB
:100D300050F8221050461EF0A7F98E490A6805990E
:100D400042F82100FAE0B8F1000901DB494601E070
:100D5000C9F1000108461EF067FB874900901EF0AC
:100D6000C3FB834604991EF0BFFB8246814800689E
:100D700050F8261050461EF087F97E49096841F860
:100D80002600DBE0B7F1000901DB494601E0C9F1CB
:100D9000000108461EF048FB774900901EF0A4FBB6
:100DA000834604991EF0A0FB82467248006850F802
:100DB000261050461EF068F96E49096841F8260071
:100DC000A7EB08001EF030FB824604991EF08CFB56
:100DD000814668480268059852F8201048461EF07F
:100DE00053F964490A68059942F82100A6E0B8F170
:100DF000000901DB494601E0C9F1000108461EF087
:100E000013FB834604991EF06FFB82465948006825
:100E100050F8261050461EF037F95649096841F837
:100E200026008BE017EB080901D4494601E0C9F11F
:100E3000000108461EF0F8FA834604991EF054FBA0
:100E400082464C48006850F8261050461EF01CF9A7
:100E50004849096841F82600B7F1000901DB494615
:100E600001E0C9F1000108461EF0DEFA4249009097
:100E70001EF03AFB834604991EF036FB82463D483D
:100E80000068059A50F8221050461EF0FDF83949C6
:100E90000A68059942F8210050E038461EF0C4FA6D
:100EA000834635491EF020FB824604991EF01CFB48
:100EB00081463048006850F8261048461EF0E4F895
:100EC0002C49096841F8260038E0B8F1000901DB37
:100ED000494601E0C9F1000108461EF0A5FA26497D
:100EE00000901EF001FB834604991EF0FDFA824635
:100EF0002048006850F8261050461EF0C5F81D49DD
:100F0000096841F8260017EB080901D4494601E0B9
:100F1000C9F1000108461EF087FA834604991EF0C5
:100F2000E3FA82461348006850F8261050461EF037
:100F3000ABF81049096841F8260000BF00BF0D98C2
:100F4000401C0D9006990D9888427FF7DEAC0E98F4
:100F5000401C0E9008990E9888427FF7D3AC0B98EE
:100F6000401C0B900B98A8427FF49BAC00200B9088
:100F70001FE0000038050020F704B53F00200C906A
:100F800011E0DDE90B0101FB0506FF49096851F895
:100F90002600FE4917F07CF8FD49096841F8260053
:100FA0000C98401C0C900C980828EADB0B98401C0D
:100FB0000B900B981028E1DB11B0BDE8F08F2DE904
:100FC000FF4F8BB004460D461E46199F0020079028
:100FD00090E2079805EB80000088ADF8280007989C
:100FE00005EB80004088ADF82A000798401C05EB0F
:100FF00080000088ADF824000798401C05EB8000B5
:101000004088ADF82600BDF92800BDF924108842BB
:1010100072D1BDF92A00089067E0002E41D04FF050
:10102000FF383AE04FF0FF30069031E0089810EBBF
:1010300008002AD4089800EB08011898814224DAA5
:10104000BDF92800069940181FD4BDF9281006984C
:101050000844B84219DABDF92810069808440590EA
:101060000898404404EBC000059900EBE1000078CB
:1010700001F007020121914008430899414404EB23
:10108000C101059A01EBE20108700698401C069028
:1010900006980228CAD108F10108B8F1020FC1D19F
:1010A00016E0BDF928000590089804EBC0010598EA
:1010B00001EBE0000078059901F007020121914061
:1010C0000843089904EBC102059902EBE10108709D
:1010D000BDF92600BDF92A10884203DD0898401C9E
:1010E000089002E00898401E0890BDF92610089864
:1010F000814292D1FBE1FFE7BDF92A00BDF926103C
:10110000884275D1BDF9280008906AE0002E42D0CF
:101110004FF0FF383BE04FF0FF30069032E0069989
:10112000089840182BD406990898084418998842C2
:1011300025DABDF92A0010EB080020D4BDF92A00F9
:101140004044B8421BDA0699089808440590BDF956
:101150002A00404404EBC001059801EBE000007850
:10116000059901F00702012191400843BDF92A10B9
:10117000414404EBC102059902EBE10108700698B5
:10118000401C069006980228C9D108F10108B8F160
:10119000020FC0D118E008980590BDF92A0004EBB1
:1011A000C001059801EBE0000178059800F0070206
:1011B000012090400143C8B2BDF92A1004EBC101DF
:1011C000059A01EBE2010870BDF92400BDF9281071
:1011D000884203DD0898401C089002E00898401EF1
:1011E0000890BDF92410089881428FD17FE1FFE774
:1011F000BDF92410BDF92820881A1EF015F9824681
:10120000BDF92610BDF92A20881A1EF00DF9834673
:1012100051461DF0ADFF81461DF00AFFCDE90201E8
:1012200021F00041CDE900015AA00CC800981DF042
:10123000CFFC13D2BDF92410BDF92820881A1EF066
:10124000F3F88146BDF92610BDF92A20881A1EF050
:10125000EBF8824649461DF08BFF12E0BDF92610DF
:10126000BDF92A20881A1EF0DFF88146BDF9241046
:10127000BDF92820881A1EF0D7F8824649461DF08D
:1012800077FF0490BDF92420BDF92830D01ABDF9AC
:101290002620BDF92A30D11A01D40B4600E04B427A
:1012A000002801DB024600E0424293426BDA002054
:1012B00008907EE008981EF0B7F8039004991EF09D
:1012C00013F983461EF04AF8BDF92A1000EB010914
:1012D000BDF92800089900EB010A002E3CD04FF020
:1012E000FF3835E04FF0FF3006902CE019EB080096
:1012F00026D409EB08001899884221DA06981AEBDF
:1013000000001DD406985044B84219DA0AF10100D1
:10131000059009EB080004EBC000059900EBE10023
:101320000178059800F00702012090400143C8B2FF
:1013300009EB080104EBC101059A01EBE201087019
:101340000698401C069006980228CFD108F10108A3
:10135000B8F1020FC6D113E0CDF814A004EBC90018
:10136000DDF814A000EBEA0001780AF00702012082
:1013700090400143C8B204EBC90101EBEA010870D7
:10138000BDF924000AE01EE03805002085EBD13EBF
:101390003C050020000000000000F03FBDF92810CF
:1013A000884203DD0898401C089002E00898401E1F
:1013B0000890BDF92400BDF92810401A0899884208
:1013C0007FF478AF92E0BDF92420BDF92830D01A1F
:1013D000BDF92620BDF92A30D11A01D40B4600E010
:1013E0004B42002801DB024600E0424293427DDB93
:1013F0000020089072E0BDF92A10089801EB00095E
:1014000008981EF011F8039004991EF06DF88346B9
:101410001DF0A4FFBDF9281000EB010A002E3CD0FE
:101420004FF0FF3835E04FF0FF3006902CE019EB1D
:10143000080026D409EB08011898814221DA0698A1
:101440001AEB00001DD406985044B84219DA0698E9
:101450005044059009EB080004EBC000059900EB2F
:10146000E1000178059800F0070201209040014357
:10147000C8B209EB080104EBC101059A01EBE201D6
:1014800008700698401C069006980228CFD108F1F3
:101490000108B8F1020FC6D113E0CDF814A004EB97
:1014A000C900DDF814A000EBEA0001780AF0070299
:1014B000012090400143C8B204EBC90101EBEA01ED
:1014C0000870BDF92600BDF92A10884203DD08988E
:1014D000401C089002E00898401E0890BDF92600C4
:1014E000BDF92A10411A0898814284D100BF07989B
:1014F000401C07900D98411E079881427FF469AD0A
:101500000FB0BDE8F08F2DE9F04F099C15464FF064
:10151000FF360F46B4464FF0000935E000EB890A6C
:10152000BAF902A0BA4504DA00EB890ABAF902A0B6
:1015300000E0BA46574600EB890ABAF900A0AA456E
:1015400004DA00EB890ABAF900A000E0AA46554681
:1015500000EB890ABAF902A0E24504DD00EB890A32
:10156000BAF902A000E0E246D44600EB890ABAF9D3
:1015700000A0B24504DD00EB890ABAF900A000E042
:10158000B246564609F10109DDF828A0D145C5DB70
:10159000ACEB070A0AF1010A93FBFAFA0AF1010E11
:1015A000A6EB050A0AF1010A94FBFAFA0AF101080E
:1015B0004FF000092BE000EB890ABAF902A0AAEB70
:1015C000070A0AFB03FAACEB070B0BF1010B9AFBC2
:1015D000FBFAF2440FFA8AFA00EB890BABF802A08F
:1015E00000EB890ABAF900A0AAEB050A0AFB04FA83
:1015F000A6EB050B0BF1010B9AFBFBFAC2440FFAA9
:101600008AFA00EB890BABF800A009F10109DDF8BB
:1016100028A0D145CFDBBDE8F08F2DE9FF4784B08E
:1016200014461D46BDF91000BDF91410884223D19F
:10163000002619E0BDF81000296804EB810108803C
:10164000BDF81200304400B2296804EB81014880E3
:101650002868401C2860BDF91600BDF912108842A8
:1016600001DD761C00E0761EBDF91600BDF91210F2
:10167000401AB042DED1E9E0BDF91200BDF9161002
:10168000884223D1002619E0BDF81200296804EB36
:1016900081014880BDF81000304400B2296804EB95
:1016A000810108802868401C2860BDF91400BDF93C
:1016B0001010884201DD761C00E0761EBDF9140092
:1016C000BDF91010401AB042DED1BFE0BDF91410D0
:1016D000BDF91020881A1DF0A7FE8146BDF916102D
:1016E000BDF91220881A1DF09FFE824649461DF062
:1016F0003FFD80461DF09CFCCDE9020121F0004138
:10170000CDE90001AFF274300CC800981DF060FA0A
:1017100013D2BDF91410BDF91020881A1DF084FEF3
:101720008046BDF91610BDF91220881A1DF07CFE06
:10173000814641461DF01CFD12E0BDF91610BDF9B1
:101740001220881A1DF070FE8046BDF91410BDF9F4
:101750001020881A1DF068FE814641461DF008FDE4
:101760000746BDF91420BDF91030D01ABDF9162076
:10177000BDF91230D11A01D40B4600E04B420028CB
:1017800001DB024600E0424293422FDC002625E0C6
:10179000BDF81000304400B2296804EB81010880D4
:1017A00030461DF041FE814639461DF09DFE8046C3
:1017B0001DF0D4FDBDF81210084400B2296804EBF6
:1017C000810148802868401C2860BDF91400BDF9DB
:1017D0001010884201DD761C00E0761EBDF9140071
:1017E000BDF91010401AB042D2D12EE0002625E0FB
:1017F000BDF81200304400B2296804EB8101488032
:1018000030461DF011FE814639461DF06DFE8046C2
:101810001DF0A4FDBDF81010084400B2296804EBC7
:10182000810108802868401C2860BDF91600BDF9B8
:101830001210884201DD761C00E0761EBDF916000C
:10184000BDF91210401AB042D2D100BF08B0BDE8B5
:10185000F0872DE9F84F04460D461646701E00EB42
:10186000D0714FEA6109A5EB09000090CA46A800B3
:1018700009F06EF88346AA002146584600F0C7FDDD
:10188000B54205DB06EBD6714910B6EB410101D13B
:10189000BDE8F88F4F463CE0002004EB870108804C
:1018A00004EB87014880CAF100081BE004EB8700C5
:1018B000008807EB08010BEB81010988084400B29E
:1018C00004EB8701088004EB8700408807EB0801E0
:1018D0000BEB81014988084400B204EB8701488082
:1018E00008F10108D045E1DD04EB8700B0F9000004
:1018F00090FBF6F000B204EB8701088004EB870050
:10190000B0F9020090FBF6F000B204EB87014880CA
:101910007F1C00988742BFDB584609F017F8B7E7ED
:101920002DE9FF4F91B004460D461E9E03278020EF
:1019300010900F9040200E900D9000200B900A9078
:101940008146802009900520049029462046049A6B
:10195000FFF77FFF4FF0010A29E004EB8A01B1F99C
:101960000010AAF1010204EB8202B2F90020881AE9
:1019700001D4014600E04142089104EB8A01B1F92B
:101980000210AAF1010204EB8202B2F90220881AC5
:1019900001D4014600E041420791DDE90710884289
:1019A00001DB089800E0079881440AF1010AAA4582
:1019B000D3DB4FEA890008F0CBFF80464FEA89026B
:1019C0000021404608F0C6FF4FF0000A15E00AF17A
:1019D000010004EB8001042203A800F018FD04EBD1
:1019E0008A01042202A800F012FD0AAB4246DDE99A
:1019F0000201FFF712FE0AF1010A681E5045E6D106
:101A00004FEA8900B0FBF7F0039008F0A1FF0C90BB
:101A10004FEA8900B0FBF7F00246002103900C98D2
:101A200008F098FF4FF0000A13E008EB8A000088E6
:101A3000DDE90B2101EB8201088008EB8A00408878
:101A4000DDE90B2101EB820148800B98401C0B90D3
:101A5000BA44CA45E9DB404608F078FF0B9B0E9A72
:101A6000CDE90023DDE90C03DDE90F12FFF74BFDA3
:101A70004FF400720021FD48006808F06BFFDDE9BB
:101A80000D23CDE900230123F848DDE90B2100688F
:101A9000FFF795FA0C9808F059FFF4480999006887
:101AA000FEF7DDFE2823099ACDE900230123F04843
:101AB000F0490268F0480068FEF7F2FC149801282B
:101AC00006D0022809D003280CD0042814D10EE037
:101AD000002006900A20059012E00A20069024209B
:101AE00005900DE0242006903E20059008E000209F
:101AF00006903E20059003E0002015B0BDE8F08F71
:101B000000BF4FF4F8720021DC48006808F022FFA3
:101B10004FF0000A40E04FF0000B30E0069A5244CC
:101B200002EB8202D64B03EB421252F82B10D04A42
:101B3000126852F82B001DF0ADFD0290069A524437
:101B400002EB8202CE4B03EB421252F82B10C84A32
:101B5000126852F82B001DF09DFD019002991DF0B6
:101B6000C3FC0390C548006850F83A1003981DF074
:101B70008BFAC249096841F83A000BF1010BBBF13D
:101B8000280FCBD150461DF04FFCBC49096801EB32
:101B9000CA0148600AF1010ADDE90501401A504511
:101BA000B9D1DDE90501401A421E0021B3480068A1
:101BB000FEF718FC4FF0000A0EE0B049096801EB8F
:101BC000CA0148681DF0CAFB06990844AD49085C83
:101BD00006F80A000AF1010A13988245EDDB00209D
:101BE00006F80A00307888E72DE9F84F04460D46DC
:101BF00016461F46DDF828804FF000094FF6FF7AA1
:101C0000D346012D02DCC846BDE8F88F4FF000092D
:101C10001CE004EB8900B0F9001009F1010004EBAD
:101C20008000B0F9000081420BD104EB8900B0F9CB
:101C3000021009F1010004EB8000B0F902008142BA
:101C400000D006E009F101001FFA80F9681E48453E
:101C5000DFDC00BF681E484500D1D5E74FF0000922
:101C600019E004EB8900B0F90000504504DA04EBF8
:101C7000890000881FFA80FA04EB8900B0F902009D
:101C8000584504DA04EB890040881FFA80FB09F10B
:101C900001001FFA80F9A945E3DB4FF0000915E0C8
:101CA00004EB89000088A0EB0A0000B204EB890174
:101CB000088004EB89004088A0EB0B0000B204EB25
:101CC0008901488009F101001FFA80F9A945E7DB85
:101CD0003B46324629462046CDF80080FFF720FEDD
:101CE00092E72DE9F84F4FF00009C3F80090012466
:101CF000EBE0A4F1010900EB8909B9F9005000EB10
:101D00008409B9F900A0CDF800A0A4F1010900EB05
:101D10008909B9F9026000EB8409B9F90270DDF8AC
:101D200000A0BAEB050901D4CA4601E0C9F1000AD6
:101D3000D446B7EB060901D4CA4601E0C9F1000A4E
:101D4000D646F44559DD4FF0000853E0DDF8009029
:101D5000A9450ADD05EB08090FFA89F9D3F800A0B7
:101D600002EB8A0AAAF8009009E0A5EB08090FFA2D
:101D700089F9D3F800A002EB8A0AAAF80090B742CA
:101D80001ADDD3F800A002EB8A0ABAF900A0BAEB78
:101D9000050901D4CA4601E0C9F1000A0AFB0EFA9E
:101DA0009AFBFCFAB2440FFA8AFAD3F800B002EBBD
:101DB0008B0BABF802A01AE0D3F800A002EB8A0A62
:101DC000BAF900A0BAEB050901D4CA4601E0C9F18D
:101DD000000A0AFB0EFA9AFBFCFAA6EB0A0A0FFAB3
:101DE0008AFAD3F800B002EB8B0BABF802A01B1DF4
:101DF00008F10108E045A9DB66E04FF0000861E06A
:101E0000B7420ADD06EB08090FFA89F9D3F800A0FA
:101E100002EB8A0AAAF8029009E0A6EB08090FFA79
:101E200089F9D3F800A002EB8A0AAAF80290DDF83B
:101E30000090A94528DDD3F800A002EB8A0ABAF980
:101E400002A0BAEB060901D4CA4601E0C9F1000AB2
:101E50000AFB0CFA9AFBFEFAAA440FFA8AFAD3F8A4
:101E600000B002EB8B0BABF800A028E0340500209B
:101E7000400500206CF002083C0500204C050020C5
:101E80006C4003082C670308D3F800A002EB8A0A11
:101E9000BAF902A0BAEB060901D4CA4601E0C9F1B9
:101EA000000A0AFB0CFA9AFBFEFAA5EB0A0A0FFAE3
:101EB0008AFAD3F800B002EB8B0BABF800A01B1D25
:101EC00008F10108F0459BDB641C8C42FFF611AF62
:101ED000BDE8F88F704753EA020C00F069802DE9E5
:101EE000F04B4FF00006002B1FBFB3FA83F503FA47
:101EF00005F424FA05F65E4012BF1643B2FA82F5E5
:101F000002FA05F4C5F120051EBF22FA05FC44EAD9
:101F10000C04203556EA044C4FEA144418BF641CE4
:101F20004FF000084FF00009904271EB030C39D3D9
:101F3000002919BFB1FA81F701FA07F6B0FA80F764
:101F400000FA07F6C7F120071EBF20FA07FC46EA91
:101F50000C062037B6FBF4FCA7EB0507103F07F093
:101F60001F0BCBF120060CFA0BFB2CFA06F644BF34
:101F7000B3460026202FA4BF5E464FF0000B5BEA5D
:101F8000060C08BF4FF0010B19EB0B09ABFB027CF1
:101F900048EB0608C01B06FB02CC0BFB03CC71EB25
:101FA0000C01C1E70B46024641464846BDE8F08BAE
:101FB00013B54FF000004FF00001AFF30080BDE813
:101FC0001C40704710B54C1084EA530404D54042BD
:101FD000C1F1000138BF491E1B4204D55242C3F172
:101FE000000338BF5B1EFFF776FF14F0804F04D06C
:101FF0004042C1F1000138BF491E14F0004F04D027
:102000005242C3F1000338BF5B1E10BD0FB4044938
:1020100010B503AA029800F023FB10BC5DF814FB76
:10202000340000200FB41CB5074B06AA7B44694658
:102030000090059800F0E5FA0020694600F0F4FAF7
:102040001CBC5DF814FB0000F905000070B50446E7
:1020500085690068C10601D5302600E02026C0074A
:1020600007D070BDD4E9012130469047206A401C5A
:1020700020626D1EF6D570BD70B504468569007886
:10208000C00707D170BDD4E9012120209047206A04
:10209000401C20626D1EF6D570BD70B50C4605461D
:1020A000012A05D02878800600D5EA69002302E0DD
:1020B000012305E05B1C934202D2E05C0028F9D1C9
:1020C000A869E618C01AA861286A18442862284638
:1020D000FFF7BCFF04E0D5E9012114F8010B90479C
:1020E000B442F8D32846FFF7C7FF70BD2DE9F04191
:1020F0000646002410687529314616A510D0AFF3A6
:102100000080002802DA404213A507E031688A0700
:1021100001D512A502E0490704D511A5012401E06B
:10212000AFF3008000210A2206F1240709E0B0FB8A
:10213000F2FCB0FBF2F302FB1C003030785418467E
:10214000491C0028F3D123462A463046BDE8F04119
:1021500000F0F9B9000000002D0000002B00000085
:102160002000000070B504460D4621461068AFF30C
:1021700000802188090502D50F4A7A4402E00E4A00
:102180007A440E32002104F1240305E000F00F062A
:102190000009965D5E54491C0028F7D12078002381
:1021A000000704D5702D02D009B102231132204658
:1021B000BDE8704000F0C7B9EC4503002DE9F05FC1
:1021C000894604464FF0000ADFF824B1FB44C0F80A
:1021D00020A02046E168884700287DD0252806D029
:1021E000D4E901219047206A401C2062F1E70025D4
:1021F0005F462046E16888472028064607DB312EE7
:1022000005D2B81910F8200C08B10543F1E7A8076A
:1022100001D525F00405C4F81CA00027C4F818A0B7
:102220002A2E09D0304608F09EFA38B304EB87080E
:10223000303EC8F8186019E059F8041B204604EB3A
:1022400087029161E1688847012F064618D1E0694D
:10225000002820DA25F020051DE0D8F8180000EB52
:10226000800006EB40003038C8F818002046E168CE
:102270008847064608F077FA0028EED1012F0AD0E9
:102280002E2E08D12046E16888477F1C0646022F83
:1022900045F02005C4DBA069002803DA404245F080
:1022A0000105A061E80701D025F01005A6B1A6F14F
:1022B0004100192802D8203645F400654A463146C7
:1022C000204625604D46FDF78DFF60B1012807D0FF
:1022D000ED1D25F0070000E007E000F1080978E7B0
:1022E00005F1040975E730467AE7206ABDE8F09FFA
:1022F000C245030030B505460B462A4613F8014B8C
:1023000012F8010B08B1A042F8D01CB1002802D08D
:102310006D1CF1E7284630BD40EA010310B59B076C
:102320000FD1042A0DD310C808C9121F9C42F8D03F
:1023300020BA19BA884201D9012010BD4FF0FF30F0
:1023400010BD1AB1D30703D0521C07E0002010BD06
:1023500010F8013B11F8014B1B1B07D110F8013B92
:1023600011F8014B1B1B01D1921EF1D1184610BD73
:1023700040EA0103024630B59B0710D14FF001340B
:1023800000E008C208C91D1B9D4315EAC41FF8D010
:1023900013F0FF0102F8011B0DD01B0AF8E711F83A
:1023A000013B002B02F8013B05D011F8013B002B4B
:1023B00002F8013BF3D130BD10B5431C02E010F828
:1023C000011B71B18107FAD14FF0013202C88C1A9A
:1023D0008C4314EAC211F9D0C01A0A0603D0C01EF9
:1023E00010BDC01A10BD0A0401D0801E10BD090224
:1023F000FCD0401E10BD421E12F8013F002BFBD145
:1024000011F8013B002B02F8013BF9D17047032A78
:1024100040F2308010F0030C00F0158011F8013B01
:10242000BCF1020F624498BF11F801CB00F8013BE8
:1024300038BF11F8013BA2F1040298BF00F801CBAC
:1024400038BF00F8013B11F0030300F01B81083A8C
:10245000C0F0088051F8043B083A51F804CBA0E8DA
:102460000810F5E7121D5CBF51F8043B40F8043B2F
:10247000AFF30080D20724BF11F8013B11F801CB64
:1024800048BF11F8012B24BF00F8013B00F801CB35
:1024900048BF00F8012B704702F0FF0343EA032214
:1024A00042EA024200F022B94FF0013C50F8042BFE
:1024B00051F8043B9A4221D1A2EB0C03934313EA57
:1024C000CC1317D150F8042B51F8043B9A4215D184
:1024D000A2EB0C03934313EACC130BD150F8042B5B
:1024E00051F8043B9A4209D1A2EB0C03934313EA3F
:1024F000CC13DBD04FF00000704700BFD01A01BAF8
:10250000B1FA81F101F0180122FA01F0CB40C1F1DA
:102510002001DBB2C0B2C01A2CFA01F3D11A9143E8
:1025200011EAC311E6D17047704770477047704792
:1025300010B500F0FBF8006810BD10B5044600F0BF
:10254000F5F8046010BD2DE9F0470D469946924616
:10255000044600F124080168880604D5E06921F0EA
:102560001001216000E00120A84201DD471B00E0CE
:102570000027A1697A1902EB0900081AA0612078E6
:10258000C00602D42046FFF761FD002608E0D4E92A
:1025900001211AF806009047206A401C761C206230
:1025A0004E45F4DB2078C0060AD52046FFF74EFDE5
:1025B00006E0D4E9012130209047206A401C2062C7
:1025C000381EA7F10107F4DC07E0D4E9012118F86F
:1025D00005009047206A401C2062281EA5F10105D5
:1025E000F3DC2046FFF748FD2078000602D50220E4
:1025F000BDE8F0870120FBE701694A1C0261087809
:10260000704700B58FB0CDE9013100210591054932
:102610007944CDE9031011466846FFF7CFFD0FB0AE
:1026200000BD0000E5FFFFFF0A6802F8010B0A6029
:10263000704710B5436913B1AFF3008001E0FFF7B5
:102640002CFD012010BD127800F124010A70002237
:102650004A700122EDE711684FF0FF32E9E7000010
:10266000074B70B50D467B44FFF7CBFF0446284669
:1026700000F060F810B14FF0FF3070BD204670BD23
:102680007FF3000010B5203AC0F00B80B1E818507D
:10269000203AA0E81850B1E81850A0E81850BFF44C
:1026A000F5AF5FEA027C24BFB1E81850A0E81850EB
:1026B00044BF18C918C0BDE810405FEA827C24BF3F
:1026C00051F8043B40F8043B08BF7047D20728BFCD
:1026D00031F8023B48BF11F8012B28BF20F8023B1C
:1026E00048BF00F8012B70474FF000020429C0F0EA
:1026F000128010F0030C00F02380CCF1040CBCF12C
:10270000020F18BF00F8012BA8BF20F8022BA1EB85
:102710000C0100F015B85FEAC17C24BF00F8012B62
:1027200000F8012B48BF00F8012B704700487047A4
:1027300018AF0020007B00F0800070474FF00002CF
:1027400000B5134694469646203922BFA0E80C50A7
:10275000A0E80C50B1F12001BFF4F7AF090728BF82
:10276000A0E80C5048BF0CC05DF804EB890028BFFE
:1027700040F8042B08BF704748BF20F8022B11F027
:10278000804F18BF00F8012B7047000000487047C9
:1027900018AF00207546FFF7F9FFAE460500694601
:1027A000534620F00700854618B020B5FDF746FDDA
:1027B000BDE820404FF000064FF000074FF0000842
:1027C0004FF0000B21F00701AC46ACE8C009ACE8C3
:1027D000C009ACE8C009ACE8C0098D46704710B527
:1027E0000446AFF300802046BDE81040FDF712BD5F
:1027F0000029816802D041F0010101E021F00101CE
:10280000816070470D4910B5884202D101214415FD
:102810000AE00B49884202D10121041504E009496C
:1028200088420AD10121CC03204604F009FE20464B
:10283000BDE81040002104F003BE10BD002401409B
:1028400000280140003C01400146002089684907FA
:1028500000D501207047C06C80B27047024600204E
:1028600012680A4200D001207047014600208968A2
:10287000090700D50120704710B542680E4B0C794E
:102880001A400B6842EA04221343436082680B4BF0
:102890001A40D1E9024323434C7942EA44021343EC
:1028A0008360C26A097C22F47002491EC9B242EAFE
:1028B0000151C16210BD0000FFFEF0FFFDF7F1FF06
:1028C00070B5072609290AD9C568A1F10A0404EBE5
:1028D0004404A640B543A3401D43C56007E0056915
:1028E00001EB4104A640B543A3401D4305611F23EE
:1028F000072A09D2446B521E02EB820293409C438A
:1029000091400C43446370BD0D2A09D2046BD21F61
:1029100002EB820293409C4391400C43046370BDE0
:10292000C46A0D3A02EB820293409C4391400C43EF
:10293000C46270BD816841F0080181607047002960
:10294000816802D041F4A00101E021F4A00181607E
:102950007047816841F00401816070470549002893
:10296000086802D040F4000001E020F40000086094
:10297000704700000824014010B5FF2000F022F845
:1029800055280AD05521FF2000F04DF8FF2000F017
:1029900019F8552801D0012010BD002010BD01F00C
:1029A00063BB70B515460E46044608E02046641C1D
:1029B000A4B200F007F86D1E06F8010BADB2002DB1
:1029C000F4D170BD10B5044601F0F2FB200AA0213D
:1029D00001EB4000C0B201F0BBFB01F02BFCE0B208
:1029E00001F0B6FB01F026FC01F0E2FBA12001F0B2
:1029F000AFFB01F01FFC002001F074FB044601F066
:102A0000F7FB204610BD70B514460D46064606E09D
:102A10002978304600F007F8761CB6B26D1C641EAB
:102A2000A4B2F5D270BD70B50D46044601F0C0FBEE
:102A3000200AA02101EB4000C0B201F089FB01F0A7
:102A4000F9FBE0B201F084FB01F0F4FB284601F051
:102A50007FFB01F0EFFB01F0CBFBBDE870400A20EB
:102A60000BF0E4B870B586B001214FF4017004F0AA
:102A7000DBFC4FF4004004F0C1FC0226ADF814600A
:102A800000248DF8174005A9194800F02BFE194DB8
:102A90002846FFF7B7FE4FF46020CDE902048DF819
:102AA000044000948DF805408DF810606946284672
:102AB000FFF7E2FE0120FFF751FF01212846FFF753
:102AC00097FE2846FFF736FF2846FFF7CEFE002880
:102AD000FAD12846FFF73DFF2846FFF7B5FE00284C
:102AE000FAD101212846FFF72AFF06B070BD000089
:102AF000000801400024014010B5012004F0ACFCA6
:102B0000BDE81040002004F0A7BC000008B5024951
:102B100008440090008808BD006C004008B5024AD7
:102B200010440090016008BD006C004010B578B101
:102B30004FF48054012805D002280FD11021012024
:102B400006F022F92146BDE81040022006F0D4B874
:102B50001021BDE81040012006F016B910BDC1B229
:102B6000000A40EA0120704710B5604B0020604C1D
:102B7000598803E05A68125C2254401C8842F9D3F9
:102B80005B48626820301F294260A268826007D0DB
:102B90000220FFF7CBFF00202060607B1A2221E09B
:102BA000E17B282901D02A290AD1D4F81100227DFD
:102BB00000BA20F0FF0010439860E08A40BAD86065
:102BC0004C4A2068904252D14B4A607B1268904236
:102BD00003D8A27B0AB1102A0DD90220FFF7A6FF65
:102BE000607B2422052106F069F90021BDE8104030
:102BF000012006F043B9252958D01ADC152971D0D7
:102C00000DDC08296ED005DCB9B3032936D00429C0
:102C10002DD163E00A2965D0122928D132E01A3972
:102C20000A2924D2DFE801F03632235E322323233F
:102C3000233E8A2956D00EDC552953D006DC28299C
:102C40003CD02A2940D02F2911D143E05A2925D040
:102C500088290CD146E0A82944D004DC8F2941D032
:102C60009E2904D13EE0AA293CD0AF293AD00220C7
:102C7000FFF75CFF607B2022B4E71BE0BDE810405B
:102C800005F0F4BABDE8104005F00EBABDE81040FA
:102C900005F0F8BABDE8104005F040BABDE81040B4
:102CA00005F036BABDE8104005F0AABABDE81040FC
:102CB00005F06EBABDE8104005F0E8BAD3E902129B
:102CC000BDE8104005F030BAD3E90212BDE810406B
:102CD00005F012BBBDE8104005F0F4BABDE81040A5
:102CE00005F0CAB9BDE8104005F0F8B92804002085
:102CF000C0AE002055534243900400202DE9F84F08
:102D00000020ADF800004BF6BF7648F280084A4D2F
:102D10004A4C40F68F7ADFF8289148F60F7B494FEE
:102D20002FE0088810F00F0089F8000032D007EB80
:102D30008001D1F8002CADF80020BDF8002012046D
:102D40000BD5D1F8002C02EA0A02C1F8002C3E494A
:102D500001EB800050F8040C8047BDF8000000062D
:102D60000FD599F8000007EB8001D1F8002C02EA9A
:102D70000B02C1F8002C354901EB800050F8040C1F
:102D800080472D4844300068314908800004C8D489
:102D9000BDE8F88F28682080208800F0300060802F
:102DA000208800F4405020802868304080F4005093
:102DB00080F0200040EA080028600888C00617D488
:102DC000296801EA0B01296001F060FA28E02188F6
:102DD000890401D580F400506188C90628D461882F
:102DE000890601D580F0200040EA08002860CFE77E
:102DF0002868ADF80000BDF80000000506D5296878
:102E000001EA0A01296006F06BF809E0BDF800004C
:102E10000004B6D5286800EA0A00286004F080FAA9
:102E2000286821883040C904D1D580F48050CEE78D
:102E300080F01000D3E70000005C00405603002043
:102E40004403002000500040740400205804002077
:102E50005404002070B50D4C0025C4F884510C4872
:102E6000016821F00F010160016841F00301016078
:102E7000C4F880510A2004F5C0740AF0F9FE01205C
:102E800060600A200AF0F4FE656070BD0000224216
:102E90000010014008B50121102004F0C5FA0320FC
:102EA000ADF8000010218DF803108DF8020069467E
:102EB000014800F017FC08BD0010014070B50D4C32
:102EC0000026C4F884610C48016821F00F010160FC
:102ED000016841F0030101600125C4F880510A2016
:102EE00004F5C0740AF0C4FE65600A200AF0C0FE52
:102EF000666070BD00002242001001402DE9F047DD
:102F0000814616480024016821F00F010160016824
:102F100041F008010160124E254627464FF0010896
:102F2000C6F884711E200AF0A3FEC6F884816006EC
:102F3000040ED6F8000108B1641CE4B26D1CEDB2B9
:102F4000082DEDD3B9F1000F04D0FFF783FF204621
:102F5000BDE8F087FFF7B2FFF9E70000001001407D
:102F6000000022422DE9F04105461248016821F097
:102F70000F010160016841F0030101600E4E00275E
:102F8000C6F884713C464FF00108E809C6F8800194
:102F90006806050EC6F884810A200AF069FEC6F8A4
:102FA00084710A200AF064FE641CE4B2082CECD39D
:102FB000BDE8F081001001400000224270B50D48CC
:102FC000016821F00F010160016841F00301016017
:102FD000094C0120C4F88001C4F884010A2004F5DA
:102FE000C0740AF045FE002525600A200AF040FE64
:102FF000656070BD001001400000224270B50D48B0
:10300000016821F00F010160016841F003010160D6
:10301000094C0020C4F88401C4F880010A2004F59A
:10302000C0740AF025FE012565600A200AF020FE22
:10303000256070BD001001400000224270B51348A9
:103040000024016821F00F010160016841F00801CE
:1030500001600F4D0126C5F8806130460AF008FE78
:10306000C5F8846101200AF003FE07E0641CE4B2A5
:10307000FA2C03D9FFF7C2FF012070BDD5F800017B
:103080000028F3D1C5F8840170BD00000010014094
:1030900000002242810008480844D0F8001C49047E
:1030A00009D5D0F8001C48F68F7211404CF280020E
:1030B0001143C0F8001C70470050004081000848D0
:1030C0000844D0F8001C490609D5D0F8001C48F681
:1030D0008F72114048F2C0021143C0F8001C7047C3
:1030E00000500040810006480844D0F8001C48F613
:1030F0008F62114048F280021143C0F8001C7047F3
:103100000050004070B516480024016821F00F01FE
:103110000160016841F008010160124D04E0641C87
:10312000E4B201200AF0A4FDD5F8000110B1C82CCA
:10313000F5D30DE0C82C0BD2002404E0641CE4B2EB
:1031400001200AF095FDD5F8000118B1F02C04D348
:10315000012070BDF02CF1D3FAE7002070BD000013
:10316000000801400000214270B500F0A9F800F00D
:1031700087F8FFF7C7FFCC2000F0B0F8BE2000F0C2
:10318000ADF800F06DF8044600F06AF8072805D99C
:10319000C043E143C0B2CCB2002500E0012504EBFE
:1031A000002000B21BF0E9FC0022054B1BF04CFD97
:1031B0001BF086FC00B2002D01D1404200B270BD70
:1031C0000000E43F38B50121042004F02DF901206E
:1031D000ADF8000010208DF803000320074C8DF897
:1031E00002006946204600F07DFA0121204600F0E9
:1031F000FCFA00F045F8FFF785FF38BD00080140F4
:1032000070B5154C206820F00F002060206840F059
:1032100003002060114D0020C5F88001022005F553
:10322000C0750AF025FD01202860206820F00F00FD
:103230002060206840F0080020600C200AF018FD93
:1032400055F8800C08B1012400E0002432200AF077
:103250000FFD204670BD0000000801400000214223
:1032600070B500250124FFF7CBFFC001641C40EAC4
:103270005500E4B2C5B2082CF5D9284670BD00004F
:103280000D4810B5016821F00F010160016841F09F
:1032900003010160094C0020C4F8800140F2EE20D7
:1032A00004F5C0740AF0E4FC01202060BDE8104081
:1032B0000F200AF0DDBC00000008014000002142A0
:1032C00010B5FFF7DDFFFFF71DFFCC2000F006F87B
:1032D000BDE81040442000F001B800002DE9F041A5
:1032E00005461448016821F00F010160016841F0B2
:1032F000030101600124104E0027A04615F0010FC4
:103300004FEA5505C6F8807106D002200AF0B0FCDD
:10331000C6F880813C2005E03C200AF0A9FCC6F8F4
:10332000808102200AF0A4FC641CE4B2082CE5D9D8
:10333000BDE8F08100080140000021422DE9F0477E
:10334000DFF89490254F4FF03008D9F8001001F1C4
:103350001005088A0E7A08B9042E04D0AC88A04261
:1033600015D8042614E01E480178012903D0072649
:10337000102038802BE01B4A002112681A4B1204DF
:1033800003EBD2325160A7F8008001701FE00226E3
:10339000844200D90446A968204688478246002016
:1033A00000F078FC01462246504606F0DDFD21463D
:1033B000002005F0DBFC2888001B2880688820445A
:1033C0006880A7F8008009494FF440500880D9F878
:1033D00000000672BDE8F087480300205803002073
:1033E00040030020505C0040006000405603002075
:1033F0002DE9F047224EDFF88C803027346834F80E
:10340000100FA168A9B100B3A588854200D905466F
:103410002846884781462088401B208060882844B1
:103420006080002000F00AFC01462A46484603F06E
:103430009BFF208848B114494FF440500880002178
:10344000084605F093FCA8F800702088A1888842FF
:1034500001D3032001E020B1052031680872BDE8E6
:10346000F087316806200872084900200968084A78
:10347000090402EBD1314860A8F80070EFE70000C2
:10348000480300205803002056030020505C0040F1
:1034900000600040F8B55D4C5D4D092620680027AE
:1034A00029684278062A05D0AAB1082A4DD00A2AEE
:1034B00050D06BE00278520668D18078012804D0A1
:1034C000022804D0032804D060E0C96956E0096AE4
:1034D00054E0496A52E04288B2BBC288022A55D100
:1034E00002798ABB0278530601D1838833B102F096
:1034F0007F02012A04D0022A0CD047E045493DE072
:103500008A69407900219047F0B92068807A0028C4
:10351000F4D13BE0417901F00F0001F070020B069D
:103520003D4901EB8001D1F8001C03D5C1F3011125
:10353000090102E0C1F301310903384B1B788342D2
:1035400024D90AB90029D9D120E0007840061DD13C
:10355000334913E0027802F07F02012A16D1827A01
:10356000A2B1428892B9027982B9C288012A0DD1EA
:103570008A6940790021904740B92A4931B12068D1
:103580004782816100208847002006E02968206882
:10359000096940788847032813D021680A8AA2F570
:1035A0007F43FF3B0BD002280ED06AB1087800069B
:1035B00026D5C888009082420AD9088218E00E7287
:1035C000F8BD20680672F8BD4FF008000872F8BD1B
:1035D0000ED22868144B90F82C00824201D21F7042
:1035E00006E0B2FBF0F400FB142008B901201870CB
:1035F000286890F82C008882BDE8F840FFF79EBE4E
:1036000003200872094900030880F8BD4803002020
:103610004C0300200592000800500040FC040020EC
:1036200099910008DD910008400300205603002016
:1036300002F096BE02F0D2BE014908607047000059
:103640001404014030B51A4A8379016853B31368F2
:103650008B431360111D0B680468A3430B60017951
:1036600011440B68046823430B60114B083319683D
:103670000468A14319601C1D21680568A9432160E5
:103680004179102905D011440A68006802430A6094
:1036900030BD196802681143196021680068014350
:1036A000216030BD0079104402688A43026030BD59
:1036B0000004014010B503A0FEF7A8FC0849032050
:1036C000086010BD75736220656E746572206C6F42
:1036D0007720706F776572206D6F64650D0A00004A
:1036E00024050020F0B5CC78002204F00F03E40696
:1036F00001D58C7823430C784FF00F0C14F0FF0F9A
:103700004FF0010E1BD005680E880EFA02F4264019
:10371000A64210D196000CFA06F725EA070703FA2D
:1037200006F5CE783D43282E02D0482E02D002E086
:10373000446100E00461521C082AE5D305600A8850
:10374000FF2A1CD94468002202F108060EFA06F589
:103750000E882E40AE420ED196000CFA06F7BC43FE
:1037600003FA06F7CE783C43282E00D14561CE7887
:10377000482E00D10561521C082AE5D34460F0BDF3
:10378000F0B5144C002801DAE36900E06368450DE8
:103790002E0185B2C0F30157B540C0F30342032F99
:1037A00005D0C6020AD503269640B34307E023F0AE
:1037B0007062636823F07063636002E0AB4343F0C0
:1037C000706201B12A43002801DAE261F0BD626053
:1037D000F0BD0000000001400246002092680A424D
:1037E00000D00120704741617047016170470000BF
:1037F000FEB50121102003F017FE0C20ADF80800E3
:1038000010208DF80B000320334E8DF80A0002A91A
:103810003046FFF767FF04213046FFF7E6FF082137
:103820003046FFF7E2FFFFF735FB2C4D0024C5F8CB
:10383000B4410A2005F5DA750AF0F8F9012028608C
:103840000A200AF0F3F90420ADF8080028208DF8CA
:103850000B0002A93046FFF745FF04213046FFF771
:10386000C2FF64200AF0E2F90422694648F24010DF
:1038700000F04AF88DF80440694619A0FEF7C6FB2F
:103880001AA16846FEF710FE08B10120FEBD022015
:103890008DF8000048F2400501226946284600F0F4
:1038A000A3F901226946E81D00F02EF89DF80010EA
:1038B000602905D20FA0FEF7A9FB012000F06EF9E8
:1038C0000A200AF0B3F98DF8004001226946284623
:1038D00000F08AF90020FEBD0010014000002242E5
:1038E0004354502049443A25730D0A003931343786
:1038F0000000000044656661756C74205665723A7C
:1039000025640D0A000000002DE9F04115460F4620
:103910000446FFF753FB2820FFF724FBFFF78EFB3D
:10392000200AFFF71FFBFFF789FBE0B2FFF71AFB46
:10393000FFF784FBFFF742FB2920FFF713FBFFF79C
:103940007DFB00246E1E09E0B44201D0012000E09E
:103950000020FFF7D3FA3855641CE4B2AC42F3D32D
:10396000BDE8F041FFF74ABB2DE9F14F874F002436
:103970004FF00A09387882B0401CC0B2B0FBF9F2AF
:1039800009FB1201824E2546387009B10A2871D20E
:1039900048F24E1B012202A95846FFF7B5FF9DF8D9
:1039A00008004FF0000801077ED000F00F01062943
:1039B0007AD2FF2088408DF80400C04340F0C00058
:1039C000744D86F820004FF0010A96F820100AFA8C
:1039D00004F0014269D070480422694630F81400AE
:1039E000FFF792FF96F8300000F0070008285CD23D
:1039F000DFE800F0040D187A414A632E9DF80110AB
:103A00009DF8000001F00F0100EB012114E09DF88A
:103A100001109DF8000001F00F0100EB0120698802
:103A2000091A52E09DF801109DF8000001F00F0105
:103A300000EB01202988091A06EB440081819DF8DA
:103A400003209DF8021002F00F0201EB022162E058
:103A50009DF803109DF8020001F00F0100EB01201A
:103A60002988091A06EB440081819DF800109DF811
:103A700001204AE06DE09DF801109DF8000001F082
:103A80000F0100EB012109E09DF801109DF80000F5
:103A900001F00F0100EB01206988091A06EB4400D0
:103AA000C1829DF8021001E044E035E09DF803205A
:103AB00002F00F0201EB022114E09DF801109DF8C5
:103AC000000001F00F0100EB012106EB4400C18270
:103AD0009DF803209DF8021002F00F0201EB022175
:103AE0002A88511A818117E09DF801109DF8000085
:103AF00001F00F0100EB01202988091A06EB4400B0
:103B000081819DF802109DF8032002F00F0201EB65
:103B100002216A88511AC182641CE4B2052CFFF4A8
:103B200054AFB189012519B9F08A08B98DF8088018
:103B300087F800809DF8080001060AD500F00F0004
:103B4000062806D28DF80480012201A9584600F00B
:103B50004BF89DF8080000F08F0080280ED196F8F1
:103B60002000010602D520F0800005E04FF6FF712D
:103B7000B181F18200F0E00086F820003878F0286A
:103B800001D987F800902846BDE8FE8F810000200B
:103B900044000020181000205411020808B500212C
:103BA0008DF800108DF801000E489DF80020435C50
:103BB000491C1A44C9B28DF80020B829F5D3D0B2F7
:103BC000C043401C8DF80000B822064948F2470067
:103BD00000F00AF80222694648F2FF0000F004F8FB
:103BE000002008BD9C1002082DE9F04115460E4644
:103BF00004460027FFF7E2F92820FFF7B3F9FFF7A3
:103C00001DFA200AFFF7AEF9FFF718FAE0B2FFF746
:103C1000A9F9FFF713FA002408E0305DFFF7A2F9D5
:103C2000FFF70CFA070003D1641CE4B2AC42F4D3F2
:103C3000FFF7E4F93846BDE8F0810000054909685E
:103C400089B201EBC000044901EB4000008980B259
:103C500070470000505C0040006000400549096862
:103C600089B201EBC000044901EB40008089C0F338
:103C700009007047505C004000600040044901EBBF
:103C80008000D0F8000CC0F3013000037047000042
:103C9000005000400449096889B201EBC0000349A3
:103CA00031F8100080B27047505C00400060004066
:103CB00010B50B4C0146072301222046FEF700FEFB
:103CC00001212046FEF73BFE02212046FEF7C6FDFD
:103CD0000028F9D02046BDE81040FEF7BCBD00002A
:103CE000002401402DE9F04100250E4607462C46F0
:103CF00008E03846FFF7DCFF0544052009F096FF91
:103D0000641CE4B2B442F4D3B5FBF6F080B2BDE873
:103D1000F08100002DE9F84F8B4682460A210120F0
:103D2000FFF7E0FF1AF040FF2E4A2F4B1AF08CFFEE
:103D3000DFF8B8802E4B464642461AF069FD1AF06D
:103D4000EFFE81B24FF47A70B1FBF0F4B1FBF0F208
:103D500000FB121064F30F0560F31F451AF024FFF7
:103D600081463246234B00911AF06EFF06460F46FD
:103D700020461AF019FF32463B461AF08DFC00220D
:103D80001D4B1BF06BF800221C4B1AF05DFF1C4A08
:103D90001C4B1AF03DFD1AF04DFC1B4904468842AD
:103DA00001DB0C4603E0B4F5000F00DA00244846BE
:103DB0004246104B00991AF047FF06460F46A8B23C
:103DC0001AF0F2FE32463B461AF066FC1AF032FC5C
:103DD000CAF8000020461BF007FB8BF80000BDE886
:103DE000F88F000085EB51B81E851A40FCA9F1D26E
:103DF0004D6210404D62503F00000A4000005940A3
:103E0000D0CCCCCCCCCCEC3F0000C8422DE9F0416A
:103E1000154602460C46680700D0012000EBD5008D
:103E20006843C1B210785378812809D3402B07D357
:103E3000FF2B05D0FF2803D07F2B0CD2403B0BE09B
:103E40000022104603E0521C04F8010BD2B28A4251
:103E5000F9D3BDE8F081413B8138DAB2C0B2C0EBA2
:103E6000401303EB801002EB40064E43FCF7F8F9D9
:103E700007460F480C2D04D0102D07D0182D0CD15B
:103E800010E0D0F809008119182203E0D0F81100E1
:103E900081192022204604F0A9FD3846BDE8F041F2
:103EA000FCF7E2B9D0F8190081194822F2E70000C6
:103EB00008A5002008B1044870470449012009689A
:103EC0000882002070470000900400204803002072
:103ED0000A4810B50168001D0468001D0068081834
:103EE0000BD00822064900F0FFF9054920460422BC
:103EF000BDE81040103100F0F7B910BDE8F7FF1F22
:103F00003A04002070B500252C461020FFF7D0FEA3
:103F1000284485B2012009F089FE641CE4B2142C07
:103F2000F3D31420B5FBF0F01AF03EFE4FF06632EA
:103F30000D4B1AF089FE1AF07DFB1BF079F80B4A45
:103F40000B4B1AF07FFF0B4A0B4B1AF061FC00225F
:103F50000A4B1AF0A1FB1AF06DFB09491BF0C4FAD9
:103F6000BDE870401BF0FAB966664A3FE17A14AECC
:103F700047E1F63F22FDF675E09C713F00003940B5
:103F80000000204110B519480024016818A0FEF770
:103F90003DF81648001D016818A0FEF737F81348D1
:103FA0000830016818A0FEF731F810481430016895
:103FB00018A0FEF72BF81A4AD2F8940190B100200D
:103FC000C2F894011749641CD2F8B401E4B258B1A4
:103FD0000020C2F8B4010020401C8842FCD3052C0C
:103FE000F1D310BD0120EBE70120F2E728ED00E05E
:103FF000434653523A2538580D0A0000484653525A
:104000003A2538580D0A0000444653523A2538588C
:104010000D0A0000414653523A2538580D0A000057
:1040200000002242FFFF1F0070B50D4C0025C4F8B0
:10403000AC510C48416821F470214160416841F461
:1040400040314160C4F8B051022004F5D67409F043
:104050000FFE01202060022009F00AFE256070BDDD
:10406000000022420010014008B50121102003F099
:10407000DBF94FF4C050ADF8000010208DF80300BC
:1040800003208DF8020069460448FFF72BFB044823
:104090000121C0F8AC11C0F8B01108BD00100140FA
:1040A0000000224270B50D4C0026C4F8AC610C48EB
:1040B000416821F470214160416841F44031416020
:1040C0000125C4F8B051022004F5D67409F0D0FDE2
:1040D0002560022009F0CCFD266070BD0000224260
:1040E000001001402DE9F04781461748002441683F
:1040F00021F470214160416841F400214160134E78
:10410000254627464FF00108C6F8AC71022009F099
:10411000AFFDC6F8AC816006040ED6F8300108B1D8
:10412000641CE4B2012009F0A3FD6D1CEDB2082D62
:10413000EAD3B9F1000F04D0FFF776FF2046BDE8BF
:10414000F087FFF7AFFFF9E70010014000002242BF
:104150002DE9F04105461448416821F47021416081
:10416000416841F440314160104E0027C6F8AC71FF
:104170003C464FF00108E809C6F8B0016806050E94
:10418000022009F075FDC6F8AC81022009F070FD2F
:10419000C6F8AC71022009F06BFD641CE4B2082C77
:1041A000E9D3BDE8F0810000001001400000224288
:1041B00070B50D48416821F470214160416841F4B7
:1041C00040314160094C0120C4F8B001C4F8AC0191
:1041D000042004F5D67409F04BFD00256560042029
:1041E00009F046FD256070BD00100140000022422C
:1041F0000E4810B5416821F470214160416841F4D6
:10420000403141600A4C0020C4F8AC01C4F8B00150
:10421000042004F5D67409F02BFD012020606060B5
:10422000BDE81040042009F023BD0000001001404B
:104230000000224270B513480024416821F4702127
:104240004160416841F4002141600F4D0126C5F8ED
:10425000B061304609F00CFDC5F8AC61012009F0F1
:1042600007FD07E0641CE4B2FA2C03D9FFF7C0FF96
:10427000012070BDD5F830010028F3D1C5F8AC019C
:1042800070BD0000001001400000224210B5134C28
:104290002068017A022904D0042902D0062905D019
:1042A00015E0FFF74BF82068007A11E04178052906
:1042B00009D10178490606D1C07804F0C9FC084844
:1042C0000068006A804707480068806880470820C7
:1042D00021680872BDE8104003F05CB84803002074
:1042E000500300204C030020F0B500230A243025A1
:1042F00037261F4610E0B4EB107F02D905EB107C87
:1043000001E006EB107C01F813C001EB430C000147
:104310005B1C8CF80170DBB29342ECD3F0BD8107DB
:104320000CD16421B0FBF1F201FB120141B94FF451
:10433000C871B0FBF1F201FB120008B10020704718
:104340000120704738B50121142003F06DF80121D8
:104350000B48FFF715FA4FF40040ADF80000482471
:104360008DF8034069460748FFF7BCF91020ADF807
:1043700000008DF8034069460348FFF7B3F938BDE4
:104380000002300000080140001001402DE9F0411A
:1043900001251C4C1C4EDFF87480EF0308B125701A
:1043A00001E0207848B110213046FFF715FA58B1E6
:1043B00039464046FFF710FA30B110213046FFF77A
:1043C0000BFA012815D01BE00A2009F02FFC002071
:1043D000207010213046FFF7FFF928B139464046DA
:1043E000FFF7FAF918B10BE00120BDE8F0810220D7
:1043F000FBE739464046FFF7EFF9012800D1257069
:104400000020F2E7380000200010014000080140C1
:10441000F0B50E490646002408884D8821464543DC
:10442000204601F057FA01F0C1FB09494FF48077AB
:104430004B15084A802006E00F614B611660486109
:1044400008610B61641CAC42F6D3F0BD181000206B
:10445000001001400C0C01402DE9F04F8346A2EB07
:104460000B00401C894685B2A3EB0900401C1FFAD3
:1044700080FA0024099E21E009EB040081B258462D
:1044800001F028FA01F092FB0E4900204B154FF481
:1044900080780D4A80270DE0C1F810804B6104FB45
:1044A000050C36F81CC0C2F800C04F610F610B61EB
:1044B000401C80B2A842EFD3641CA4B25445DBD3A5
:1044C000BDE8F08F001001400C0C0140184910B4F9
:1044D0008871184B8C7913F8302F02F0F80204F031
:1044E000070422431A704FF4F0724FF4487370B10E
:1044F00001280CD002280AD0032808D0042809D0AB
:10450000052807D0062805D0072803D004E00A8034
:104510004B8001E00B804A804FF430520A814FF407
:1045200028524A814FF42C528A8110BC01F02EB9D6
:10453000181000204400002000B501F0CBF901F074
:1045400035FB07484FF48071016141154161054A0F
:10455000054B12881A60802242610261016100BD30
:10456000001001403A0000200C0C01402DE9F74FEB
:10457000DFF8A89082468B46B9F80A0001F004FBE8
:10458000274C4FF48077276165156561DFF89480CB
:104590004FEA1A21C8F8001080266661266125615D
:1045A000B9F80A00401C80B201F0EEFA276165619B
:1045B0000AF0FF01C8F80010666126612561B9F8AC
:1045C0000C0001F0E1FA276165614FEA1B21C8F890
:1045D0000010666126612561B9F80C00401C80B2AC
:1045E00001F0D2FA276165610BF0FF01C8F80010F5
:1045F00066612661256167616561B9F80810C8F8D0
:104600000010666126612561276165610298C8F81E
:104610000000666126612561BDE8FE8F181000204C
:10462000001001400C0C01402DE9FF4F9846009806
:104630000C46101A401C86B24FF4807B114F4FF489
:1046400000794FF0800A0D9D18E02146009801F096
:1046500041F901F0ABFA0020DC464A460A4B5146CC
:1046600008E0C7F810C07A611D60796139613A616C
:10467000401C80B2B042F4D3641CA4B24445E4D9D7
:10468000BDE8FF8F001001400C0C01402DE9F84FF0
:104690000121192002F0C8FE0121FE48FFF770F841
:1046A0004FF4F864ADF8004010208DF803000320AB
:1046B000F94D8DF8020069462846FFF713F82146A8
:1046C0002846FFF792F8F54C4FF6FF75ADF800500D
:1046D00069462046FFF706F829462046FFF785F889
:1046E000322009F0A3FA0121002001F065FA3220FE
:1046F00009F09CFA4FF45A4001F046FA00F0C6FF68
:104700004FF45B4001F040FA00F0C0FFE44C05EAD2
:104710000020A0804FF45C4001F036FA00F0B6FFB4
:10472000A18845F210560843A080B0F5004F00D193
:10473000A680A188DBA0FDF769FCA088B0427DD1EE
:104740004FF470445521204601F036FA661CAA2128
:10475000304601F031FAA71C5221384601F02CFAFC
:104760004FF203080821404601F026FA4FF20409EF
:104770000121484601F020FA0D214FF4304001F0AC
:104780001BFA0D214BF2010001F016FA0D214BF23C
:10479000020001F011FA4FF4364A3421504601F07C
:1047A0000BFA34214BF2016001F006FA34214BF28E
:1047B000026001F001FA4FF4314B0D21584601F02F
:1047C000FBF90D214BF2011001F0F6F90D214BF22E
:1047D000021001F0F1F934214FF4374001F0ECF907
:1047E00034214BF2017001F0E7F934214BF20270F1
:1047F00001F0E2F900214FF4324001F0DDF900212F
:104800004BF2012001F0D8F900214BF2022001F017
:10481000D3F924214FF4384001F0CEF924214BF68E
:10482000010001F0C9F924214BF6020001F0C4F99E
:1048300001214FF43F4001F0BFF900E0FEE30F21FA
:104840004FF4334001F0B8F90F214BF2013001F081
:10485000B3F90F214BF2023001F0AEF934214FF4DD
:10486000394001F0A9F934214BF6011001F0A4F907
:1048700034214BF6021001F09FF908214FF4354026
:1048800001F09AF908214BF2015001F095F9082145
:104890004BF2025001F090F903214FF4424001F035
:1048A0008BF924214FF43A4001F086F924214BF68C
:1048B000012001F081F924214BF6022001F07CF95E
:1048C00000214FF43C4001F077F978214BF601408C
:1048D00001F072F900214BF6024001F06DF9002160
:1048E0004FF43D4001F068F978214BF6015001F09A
:1048F00063F900214BF6025001F05EF900214FF4FC
:104900003E4001F059F964214BF6016001F054F981
:1049100000214FF4514001F04FF933214DF20110C5
:1049200001F04AF900214DF2021001F045F934215D
:104930004DF2031001F040F900214DF2041001F096
:104940003BF93A214DF2051001F036F900214DF204
:10495000061001F031F94A214DF2071001F02CF94F
:1049600000214DF2081001F027F95C214DF20910E9
:1049700001F022F900214DF20A1001F01DF9812108
:104980004DF20B1001F018F900214DF20C1001F05E
:1049900013F9A6214DF20D1001F00EF900214DF290
:1049A0000E1001F009F9E5214DF20F1001F004F9A4
:1049B00001214DF2101001F0FFF813214DF21110FA
:1049C00001F0FAF801214DF2121001F0F5F854212E
:1049D0004DF2131001F0F0F801214DF2141001F026
:1049E000EBF882214DF2151001F0E6F801214DF2AD
:1049F000161001F0E1F8CA214DF2171001F0DCF8B1
:104A000002214DF2181001F0D7F800214DF21910D3
:104A100001F0D2F802214DF21A1001F0CDF8012177
:104A20004DF21B1001F0C8F802214DF21C1001F0EC
:104A3000C3F834214DF21D1001F0BEF802214DF2F1
:104A40001E1001F0B9F867214DF21F1001F0B4F803
:104A500002214DF2201001F0AFF884214DF2211017
:104A600001F0AAF802214DF2221001F0A5F8A421CC
:104A70004DF2231001F0A0F802214DF2241001F0B4
:104A80009BF8B7214DF2251001F096F802214DF266
:104A900026100FE00002300000100140000C014021
:104AA00018100020204C43442049443A25780D0A30
:104AB0000000000001F080F8CF214DF2271001F036
:104AC0007BF802214DF2281001F076F8DE214DF23C
:104AD000291001F071F802214DF22A1001F06CF852
:104AE000F2214DF22B1001F067F802214DF22C104B
:104AF00001F062F8FE214DF22D1001F05DF8032166
:104B00004DF22E1001F058F810214DF22F1001F047
:104B100053F803214DF2301001F04EF833214DF2DD
:104B2000311001F049F803214DF2321001F044F840
:104B30006D214DF2331001F03FF800214FF4524047
:104B400001F03AF833214DF2012001F035F800214F
:104B50004DF2022001F030F834214DF2032001F033
:104B60002BF800214DF2042001F026F83A214DF2F5
:104B7000052001F021F800214DF2062001F01CF87B
:104B80004A214DF2072001F017F800214DF20820CC
:104B900001F012F85C214DF2092001F00DF800211E
:104BA0004DF20A2001F008F881214DF20B2001F0AE
:104BB00003F800214DF20C2000F0FEFFA6214DF27B
:104BC0000D2000F0F9FF00214DF20E2000F0F4FF5F
:104BD000E5214DF20F2000F0EFFF01214DF21020F2
:104BE00000F0EAFF13214DF2112000F0E5FF012152
:104BF0004DF2122000F0E0FF54214DF2132000F09E
:104C0000DBFF01214DF2142000F0D6FF82214DF28E
:104C1000152000F0D1FF01214DF2162000F0CCFF4D
:104C2000CA214DF2172000F0C7FF02214DF21820D3
:104C300000F0C2FF00214DF2192000F0BDFF02215B
:104C40004DF21A2000F0B8FF01214DF21B2000F0B8
:104C5000B3FF02214DF21C2000F0AEFF34214DF2D3
:104C60001D2000F0A9FF02214DF21E2000F0A4FF3C
:104C700067214DF21F2000F09FFF02214DF22020FE
:104C800000F09AFF84214DF2212000F095FF0221CF
:104C90004DF2222000F090FFA4214DF2232000F0DD
:104CA0008BFF02214DF2242000F086FFB7214DF248
:104CB000252000F081FF02214DF2262000F07CFF2C
:104CC000CF214DF2272000F077FF02214DF228205E
:104CD00000F072FFDE214DF2292000F06DFF02216D
:104CE0004DF22A2000F068FFF2214DF22B2000F057
:104CF00063FF02214DF22C2000F05EFFFE214DF2F9
:104D00002D2000F059FF03214DF22E2000F054FF1A
:104D100010214DF22F2000F04FFF03214DF23020E3
:104D200000F04AFF33214DF2312000F045FF03210E
:104D30004DF2322000F040FF6D214DF2332000F0A3
:104D40003BFF00214FF4534000F036FF33214DF27A
:104D5000013000F031FF00214DF2023000F02CFF55
:104D600034214DF2033000F027FF00214DF20430D2
:104D700000F022FF3A214DF2053000F01DFF002126
:104D80004DF2063000F018FF4A214DF2073000F0D6
:104D900013FF00214DF2083000F00EFF5C214DF2B0
:104DA000093000F009FF00214DF20A3000F004FF45
:104DB00081214DF20B3000F0FFFE00214DF20C304E
:104DC00000F0FAFEA6214DF20D3000F0F5FE0021B4
:104DD0004DF20E3000F0F0FEE5214DF20F3000F004
:104DE000EBFE01214DF2103000F0E6FE13214DF2F2
:104DF000113000F0E1FE01214DF2123000F0DCFE36
:104E000054214DF2133000F0D7FE01214DF2143041
:104E100000F0D2FE82214DF2153000F0CDFE0121CE
:104E20004DF2163000F0C8FECA214DF2173000F0E6
:104E3000C3FE02214DF2183000F0BEFE00214DF2FB
:104E4000193000F0B9FE02214DF21A3000F0B4FE24
:104E500001214DF21B3000F0AFFE02214DF21C305B
:104E600000F0AAFE34214DF21D3000F0A5FE022113
:104E70004DF21E3000F0A0FE67214DF21F3000F011
:104E80009BFE02214DF2203000F096FE84214DF26F
:104E9000213000F091FE02214DF2223000F08CFE14
:104EA000A4214DF2233000F087FE02214DF2243080
:104EB00000F082FEB7214DF2253000F07DFE022188
:104EC0004DF2263000F078FECF214DF2273000F071
:104ED00073FE02214DF2283000F06EFEDE214DF20D
:104EE000293000F069FE02214DF22A3000F064FE04
:104EF000F2214DF22B3000F05FFE02214DF22C30FA
:104F000000F05AFEFE214DF22D3000F055FE032137
:104F10004DF22E3000F050FE10214DF22F3000F0F7
:104F20004BFE03214DF2303000F046FE33214DF2AE
:104F3000313000F041FE03214DF2323000F03CFEF2
:104F40006D214DF2333000F037FE00214FF4544014
:104F500000F032FE33214DF2014000F02DFE002121
:104F60004DF2024000F028FE34214DF2034000F0E3
:104F700023FE00214DF2044000F01EFE3A214DF2C6
:104F8000054000F019FE00214DF2064000F014FE2D
:104F90004A214DF2074000F00FFE00214DF208407B
:104FA00000F00AFE5C214DF2094000F005FE0021F0
:104FB0004DF20A4000F000FE81214DF20B4000F05E
:104FC000FBFD00214DF20C4000F0F6FDA6214DF254
:104FD0000D4000F0F1FD00214DF20E4000F0ECFD1F
:104FE000E5214DF20F4000F0E7FD01214DF21040A8
:104FF00000F0E2FD13214DF2114000F0DDFD012132
:105000004DF2124000F0D8FD54214DF2134000F053
:10501000D3FD01214DF2144000F0CEFD82214DF26E
:10502000154000F0C9FD01214DF2164000F0C4FD0D
:10503000CA214DF2174000F0BFFD00E00FE302214E
:105040004DF2184000F0B8FD00214DF2194000F07B
:10505000B3FD02214DF21A4000F0AEFD01214DF2E8
:105060001B4000F0A9FD02214DF21C4000F0A4FD00
:1050700034214DF21D4000F09FFD02214DF21E40F3
:1050800000F09AFD67214DF21F4000F095FD0221CE
:105090004DF2204000F090FD84214DF2214000F0BF
:1050A0008BFD02214DF2224000F086FDA4214DF23D
:1050B000234000F081FD02214DF2244000F07CFDF0
:1050C000B7214DF2254000F077FD02214DF2264038
:1050D00000F072FDCF214DF2274000F06DFD02215E
:1050E0004DF2284000F068FDDE214DF2294000F02D
:1050F00063FD02214DF22A4000F05EFDF2214DF2E7
:105100002B4000F059FD02214DF22C4000F054FDDF
:10511000FE214DF22D4000F04FFD03214DF22E40B7
:1051200000F04AFD10214DF22F4000F045FD032113
:105130004DF2304000F040FD33214DF2314000F09F
:105140003BFD03214DF2324000F036FD6D214DF262
:10515000334000F031FD00214FF4554000F02CFDAC
:1051600033214DF2015000F027FD00214DF2025095
:1051700000F022FD34214DF2035000F01DFD00210E
:105180004DF2045000F018FD3A214DF2055000F0A8
:1051900013FD00214DF2065000F00EFD4A214DF2A4
:1051A000075000F009FD00214DF2085000F004FD09
:1051B0005C214DF2095000F0FFFC00214DF20A5035
:1051C00000F0FAFC81214DF20B5000F0F5FC0021BB
:1051D0004DF20C5000F0F0FCA6214DF20D5000F005
:1051E000EBFC00214DF20E5000F0E6FCE5214DF203
:1051F0000F5000F0E1FC01214DF2105000F0DCFCFA
:1052000013214DF2115000F0D7FC01214DF2125044
:1052100000F0D2FC54214DF2135000F0CDFC0121DE
:105220004DF2145000F0C8FC82214DF2155000F0F0
:10523000C3FC01214DF2165000F0BEFCCA214DF214
:10524000175000F0B9FC02214DF2185000F0B4FCE8
:1052500000214DF2195000F0AFFC02214DF21A501E
:1052600000F0AAFC01214DF21B5000F0A5FC022128
:105270004DF21C5000F0A0FC34214DF21D5000F006
:105280009BFC02214DF21E5000F096FC67214DF26E
:105290001F5000F091FC02214DF2205000F08CFCD8
:1052A00084214DF2215000F087FC02214DF2225062
:1052B00000F082FCA4214DF2235000F07DFC02217D
:1052C0004DF2245000F078FCB7214DF2255000F04B
:1052D00073FC02214DF2265000F06EFCCF214DF2FE
:1052E000275000F069FC02214DF2285000F064FCC8
:1052F000DE214DF2295000F05FFC02214DF22A50D0
:1053000000F05AFCF2214DF22B5000F055FC022126
:105310004DF22C5000F050FCFE214DF22D5000F0CB
:105320004BFC03214DF22E5000F046FC10214DF2B3
:105330002F5000F041FC03214DF2305000F03CFCB6
:1053400033214DF2315000F037FC03214DF2325041
:1053500000F032FC6D214DF2335000F02DFC0021A5
:105360004FF4564000F028FC33214DF2016000F06C
:1053700023FC00214DF2026000F01EFC34214DF2AE
:10538000036000F019FC00214DF2046000F014FCF1
:105390003A214DF2056000F00FFC00214DF206604D
:1053A00000F00AFC4A214DF2076000F005FC0021E4
:1053B0004DF2086000F000FC5C214DF2096000F045
:1053C000FBFB00214DF20A6000F0F6FB81214DF25B
:1053D0000B6000F0F1FB00214DF20C6000F0ECFBE3
:1053E000A6214DF20D6000F0E7FB00214DF20E60AA
:1053F00000F0E2FBE5214DF20F6000F0DDFB012142
:105400004DF2106000F0D8FB13214DF2116000F056
:10541000D3FB01214DF2126000F0CEFB54214DF27E
:10542000136000F0C9FB01214DF2146000F0C4FBD1
:1054300082214DF2156000F0BFFB01214DF2166094
:1054400000F0BAFBCA214DF2176000F0B5FB022153
:105450004DF2186000F0B0FB00214DF2196000F031
:10546000ABFB02214DF21A6000F0A6FB01214DF2C8
:105470001B6000F0A1FB02214DF21C6000F09CFBC0
:1054800034214DF21D6000F097FB02214DF21E60A9
:1054900000F092FB67214DF21F6000F08DFB0221AE
:1054A0004DF2206000F088FB84214DF2216000F075
:1054B00083FB02214DF2226000F07EFBA4214DF21D
:1054C000236000F079FB02214DF2246000F074FBB0
:1054D000B7214DF2256000F06FFB02214DF22660EE
:1054E00000F06AFBCF214DF2276000F065FB02213E
:1054F0004DF2286000F060FBDE214DF2296000F0E3
:105500005BFB02214DF22A6000F056FBF2214DF2C6
:105510002B6000F051FB02214DF22C6000F04CFB9F
:10552000FE214DF22D6000F047FB03214DF22E606D
:1055300000F042FB10214DF22F6000F03DFB0321F3
:105540004DF2306000F038FB33214DF2316000F055
:1055500033FB03214DF2326000F02EFB6D214DF242
:10556000336000F029FB5521204600F025FBAA21DD
:10557000304600F021FB5221384600F01DFB082187
:10558000404600F019FB0021484600F015FBCC21F5
:10559000584600F011FB00214BF2011000F00CFB0B
:1055A0000521504600F008FB70214FF4374000F011
:1055B00003FB70214BF2017000F0FEFA01214FF461
:1055C000384000F0F9FA03214BF6010000F0F4FA3C
:1055D00003214BF6020000F0EFFA03214BF6030023
:1055E00000F0EAFA02214FF43C4000F0E5FA002115
:1055F0004BF6014000F0E0FA00214BF6024000F0CB
:10560000DBFAD0214FF4494000F0D6FA02214CF6E3
:10561000011000F0D1FA50214CF6021000F0CCFA43
:1056200050214CF6031000F0C7FA50214CF604103C
:1056300000F0C2FA00214FF4545000F0BDFA552199
:105640004FF4685000F0B8FA4FF4885000F09CFA1C
:10565000782008F00DFB4FF4245000F095FA00205C
:10566000FEF734FF04490120C1F8A8012846FEF7DF
:10567000CFFEBDE8F88F0000000022420346012063
:1056800000E05843491EC9B2FBD2704770B50F4CB9
:105690004FF088302060251D28600C4E00200C360D
:1056A00030600B49A015086142004A6140234B61FC
:1056B000281D00680B6180B20A614FF03331216010
:1056C00029604FF6FF71316070BD0000000C014091
:1056D000001001402DE9F043294A1388834202D982
:1056E00052888A4202D80020BDE8F08300F0F2F828
:1056F0004FF4385000F048FADFF888904FF08830C7
:10570000C9F8000009F1040420601E4D4FF6FF7334
:105710000C352B601C49A015086146004E614022E3
:105720004A610220401EC0B2FCD2164F08373868CA
:105730000A614A610220401EC0B2FCD238680A6188
:105740001FFA80FC4A610220401EC0B2FCD23868B9
:105750000A6180B20CF0FF0203EA02220E614FF0F0
:105760003331C9F8001021602B604FEADC214FEA89
:10577000C121920A41EA421141EAD020B4E7000077
:1057800018100020000C0140001001402DE9F047E6
:105790000021082812D2DFE800F0110406080A0CE4
:1057A0000E1080210AE0402108E0C02106E02021FF
:1057B00004E0602102E0A02100E0E0214FF4585015
:1057C00000F0FAF9404FB888A0F5AA41103978D115
:1057D000788900F0D9F93D4C4FF48078C4F81080F6
:1057E00065156561DFF8E8904FF0000AC9F800A080
:1057F00080266661266125617889401C80B200F0B0
:10580000C3F9C4F810806561C9F800A0666126611B
:1058100025617889801C80B200F0B6F9C4F8108048
:1058200065613888401E0112C9F800106661266162
:1058300025617889C01C80B200F0A6F9C4F81080F8
:1058400065613888401EC1B2C9F8001066612661E2
:105850002561B88900F098F9C4F810806561C9F82D
:1058600000A0666126612561B889401C80B200F005
:105870008BF9C4F810806561C9F800A066612661E3
:105880002561B889801C80B200F07EF9C4F81080D0
:1058900065617888401E0112C9F8001066612661B2
:1058A0002561B889C01C80B200F06EF9C4F8108080
:1058B00065617888401EC1B2C9F800106661266132
:1058C0002561BDE8F087000018100020001001409D
:1058D0000C0C01402DE9F04F214F82468B46788910
:1058E00000F052F91F4C4FF48078C4F81080651511
:1058F0006561DFF874904FEA1A21C9F8001080261C
:105900006661266125617889401C80B200F03CF90F
:10591000C4F8108065610AF0FF01C9F800106661E3
:1059200026612561B88900F02FF9C4F810806561FF
:105930004FEA1B21C9F80010666126612561B8890C
:10594000401C80B200F020F9C4F8108065610BF0B3
:10595000FF01C9F80010666126612561BDE8F08F7E
:1059600018100020001001400C0C01402DE9F84FE8
:1059700082461F460C468B46580700D0012000EB9C
:10598000D70079084843203AC0B202F0FF09002648
:10599000009041E00C2F10D0102F12D0182F3ED1C4
:1059A000204909EBC90001EB80004FF00008855D3C
:1059B00028060AD51C4802880BE009EB49001B4960
:1059C000F1E71B4901EB0910EFE70A9828B91648DF
:1059D000428821465046FEF7C9FD6806050E154867
:1059E000641CA4B24088A04219D9A4EB0B00B842B1
:1059F00009D10AF101001FFA80FA0E485C460188BD
:105A000051450CD906E008F1010000F0FF08B8F19B
:105A1000080FCDD3761CF6B200988642BAD3BDE803
:105A2000F88F00001E0302083A000020BAF80108AF
:105A30002EFD0108181000202DE9FF4F81B000272E
:105A4000DDF838B01D46924680463C46B9464FEADE
:105A50005B0627E0281B401EC1B20A20FFF70EFE9E
:105A6000BAFBF0F00A21B0FBF1F201FB120027B9FA
:105A7000691E8C4201DA48B101273030C2B206FB00
:105A8000048080B25B46CDF8009006E006FB0480FF
:105A900080B25B462022CDF800900299FFF766FFA6
:105AA000641CE4B2AC42D5D305B0BDE8F08F2DE95B
:105AB000F84F044600F0FF0810190D46DDE90A769C
:105AC0001FFA80FA58191FFA80F94FF0000B11E005
:105AD000544502D3E819444685B24D450FD23B46A2
