:020000040800F2
:1000000038F20120C5020008D3020008D50200081A
:10001000D7020008D9020008DB0200080000000037
:10002000000000000000000000000000DD020008E9
:10003000DF02000800000000E1020008E3020008FF
:10004000E5020008E5020008E5020008E5020008F4
:10005000E5020008E5020008E5020008E5020008E4
:10006000E5020008E5020008E5020008E5020008D4
:10007000E5020008E5020008E5020008691600082C
:10008000E5020008E5020008E5020008E5020008B4
:10009000E5020008E5020008E5020008E5020008A4
:1000A000E5020008E5020008E5020008E502000894
:1000B000E5020008BD73000835740008E502000879
:1000C000E5020008E5020008E5020008E502000874
:1000D000E502000891750008E5020008E502000845
:1000E000E5020008E5020008E5020008E502000854
:1000F000E5020008E5020008E5020008E502000844
:10010000E5020008755F000869740008E502000850
:10011000E5020008E5020008F9740008E50200089D
:10012000E5020008E5020008E5020008E502000813
:10013000E5020008E5020008E5020008E502000803
:10014000E5020008E5020008E5020008E5020008F3
:10015000E5020008E5020008E5020008E5020008E3
:10016000E5020008E5020008E5020008E5020008D3
:10017000E5020008E5020008E5020008E5020008C3
:10018000E5020008E502000800F002F800F08AF835
:100190000AA090E8000C82448344AAF10107DA45E2
:1001A00001D100F07FF8AFF2090EBAE80F0013F0AA
:1001B000010F18BFFB1A43F00103184728DE0100A6
:1001C00048DE01000A444FF0000C10F8013B13F028
:1001D000070408BF10F8014B1D1108BF10F8015BA0
:1001E000641E05D010F8016B641E01F8016BF9D193
:1001F00013F0080F1EBF10F8014BAD1C0C1B09D1EA
:100200006D1E58BF01F801CBFAD505E014F8016B5B
:1002100001F8016B6D1EF9D59142D6D370470000ED
:100220000023002400250026103A28BF78C1FBD8FF
:10023000520728BF30C148BF0B6070476E2900F0DD
:100240004781702900F01282692900F00581642934
:1002500000F00281752900F0FF806F2900F0AA816B
:10026000782900F0F6810368DB0928BF41F080019E
:10027000632900F08686732900F08B86E32900F05D
:10028000A986002070471FB519F04CFE01F008F94F
:1002900004000020002119F067FB401C60601FBDB6
:1002A00010B510BD01F0D6F81146FFF7ECFF14F0C1
:1002B000A9FC01F0F9F803B4FFF7F2FF03BC07F063
:1002C000BAFC00000B48016841F4700101600A4863
:1002D0000047FEE7FEE7FEE7FEE7FEE7FEE7FEE794
:1002E000FEE7FEE7FEE7000004480549034A054B28
:1002F0007047000088ED00E08901000838EA01201D
:1003000038F2012038EA0120704710B54C1084EA19
:10031000530404D54042C1F1000138BF491E1B42BD
:1003200004D55242C3F1000338BF5B1E00F031FD1B
:1003300014F0804F04D04042C1F1000138BF491E83
:1003400014F0004F04D05242C3F1000338BF5B1ECB
:1003500010BD00000FB4044910B503AA029800F0C4
:100360001DFE10BC5DF814FB080000200FB41CB586
:10037000074B06AA7B4469460090059800F0DFFD14
:100380000020694600F0EEFD1CBC5DF814FB000087
:10039000ED0B000070B5044685690068C10601D503
:1003A000302600E02026C00707D070BDD4E9012127
:1003B00030469047206A401C20626D1EF6D570BD05
:1003C00070B5044685690078C00707D170BDD4E9CF
:1003D000012120209047206A401C20626D1EF6D526
:1003E00070BD09684A0501D540B27047C905FCD502
:1003F00000B2704709684A0501D5C0B27047C90507
:10040000FCD580B2704770B50C460546012A05D070
:100410002878800600D5EA69002302E0012305E080
:100420005B1C934202D2E05C0028F9D1A869E6186F
:10043000C01AA861286A184428622846FFF7AAFF54
:1004400004E0D5E9012114F8010B9047B442F8D338
:100450002846FFF7B5FF70BD2DE9F04106460024A0
:1004600010687529314616A510D0FFF7BAFF00288D
:1004700002DA404213A507E031688A0701D512A5C8
:1004800002E0490704D511A5012401E0FFF7B2FFFE
:1004900000210A2206F1240709E0B0FBF2FCB0FBC0
:1004A000F2F302FB1C00303078541846491C002837
:1004B000F3D123462A463046BDE8F04100F0E0BCC7
:1004C000000000002D0000002B00000020000000B4
:1004D00011680268006A530501D508700AE0D30567
:1004E00001D5088006E0130603D5C217C1E9000252
:1004F00000E00860012070472DE9FF5F15468A463D
:100500000446DFF8AC80F8440027D8E900103E46E6
:10051000CDE9001010E03AF816106A4602A800F083
:10052000A9FD411C07D02178890603D5E269391855
:1005300091420DD80744761C2078800602D5E069E8
:10054000B84205DDAE42E6DB3AF816000028E2D1FB
:10055000A069C01BA0612046FFF71CFFD8E900106E
:10056000CDE90010002017E03AF818106A4602A8FA
:1005700000F080FDB0F1FF3F81460BD000250DF16A
:10058000080B05E0D4E901211BF8050090476D1C1C
:100590004D45F7D308F10100B0428046E4DB206A04
:1005A000384420622046FFF70BFFBDE8FF9F0000A4
:1005B000FAC4010070B5044621461068FFF71AFF1F
:1005C000002104F1240505E000F007023032C008E4
:1005D0006A54491C0028F7D12068002307A20507A8
:1005E00007D5800600D421B1E069012304A2401E92
:1005F000E0612046BDE8704000F042BC0000000011
:1006000030000000F0B40D460188090502D51B4CEE
:100610007C4402E0194C7C440E34002100F1240398
:1006200005E002F00F061209A65D5E54491C002A7F
:10063000F7D102780023120704D5702D06D009B136
:10064000022311342246F0BC00F01ABC01231034FE
:10065000F8E770B504460D4621461068FFF7CAFE5C
:10066000024629462046BDE87040CBE70368126881
:1006700043F0200303600823C361C3E7F8C301000C
:100680002DE9F05F894604464FF0000ADFF874B1A7
:10069000FB44C0F820A02046E1688847002874D0B9
:1006A000252806D0D4E901219047206A401C206209
:1006B000F1E700265F462046E16888472028054686
:1006C00007DB312D05D2781910F8200C08B106434C
:1006D000F1E7B00701D526F00406C4F81CA00027F6
:1006E000C4F818A02A2D09D0284607F09DFA38B37F
:1006F00004EB8708303DC8F8185019E059F8041B7E
:10070000204604EB87029161E1688847012F054686
:1007100018D1E069002820DA26F020061DE0D8F87C
:10072000180000EB800005EB40003038C8F81800D6
:100730002046E1688847054607F076FA0028EED1A2
:10074000012F0AD02E2D08D12046E16888477F1C52
:100750000546022F46F02006C4DBA069002803DA14
:10076000404246F00106A061F00701D026F01006D5
:100770006C2D0BD0682D09D04C2D39D06A2D35D079
:10078000742D35D07A2D33D016E038E0E1682F464D
:1007900020468847B842054609D16C2F26D04FF431
:1007A0008060E168064320468847054604E06C2FD8
:1007B0001AD04FF4807006430DB3A5F141001928FB
:1007C00002D8203546F400664A462946204626606F
:1007D0004E46FFF733FD80B101280BD0F61D26F001
:1007E000070000F1080956E74020E4E78020D8E739
:1007F0000020D6E706F104094DE7284652E7206AB3
:10080000BDE8F09FA0C301000FB400B58DB010A9E2
:10081000099000910B904FF0FF300A9000200C904F
:10082000064878440690064878446A4607900F992F
:1008300009A800F0EFFB0DB05DF814FB0F080000F5
:10084000270800002DE9FF5F1D464FF0FF3B914652
:100850004FF000085F46D5E90146A96901987F1C61
:100860008847296A824688470028F6D1BAF1FF3FB7
:100870000CD0002E24F4C06419DD600614D5BAF142
:100880002B0F09D0BAF12D0F0ED103E0584604B05A
:10089000BDE8F09F44F48064A96901987F1C8847F3
:1008A000761E8246002E02DDBAF1300F03D0B9F178
:1008B000000F26D032E0A969761E01987F1C44F40F
:1008C00000748847002E824605DDBAF1780F06D005
:1008D000BAF1580F03D0B9F1000F10D01EE0B9F1F2
:1008E000000F02D0B9F1100F18D1A969761E019836
:1008F0007F1C24F4007488478246102002E0082000
:1009000000E00A20814609E0A96908FB0908761E73
:1009100001987F1C44F4007488478246002E05DD50
:100920004946504600F062FB0028EDDAE96901987B
:100930008847A00502D46FF00100A8E7E00725D1A1
:10094000600613D5600502D5C8F1000000E04046FE
:1009500029680A1D2A600968220501D5087015E07A
:10096000220701D5088011E008600FE02868011D0A
:1009700029600068210502D580F8008006E0210783
:1009800002D5A0F8008001E0C0F8008038467EE77C
:100990002DE9FF5F4FF000089946144646469169DD
:1009A000D2E901A7DDF838B001988847054659EA31
:1009B0000B0005D009E0A1690198761C884705461F
:1009C000216A284688470028F5D1681C03D05FEAD1
:1009D000CA7005D015E04FF0FF3004B0BDE8F09FBD
:1009E0002068011D2160D0F800800AE05FEACA702B
:1009F00001D108F8015BA169761C01987F1E884728
:100A00000546002F1ADD681C18D0B9F1000F0DD073
:100A1000E81705EBD060421120F01F0059F82210B2
:100A20002A1A012090400142E0D107E0BBF1000FFB
:100A3000DCD12846216A88470028D7D0E16901988F
:100A40008847BBF1000F07D1002E05DD5FEACA70B1
:100A500002D1002188F80010A068B84203DDBBF184
:100A6000000F03D017B16FF00100B6E73046B4E7CE
:100A700040EA0103024630B59B0710D14FF0013424
:100A800000E008C208C91D1B9D4315EAC41FF8D029
:100A900013F0FF0102F8011B0DD01B0AF8E711F853
:100AA000013B002B02F8013B05D011F8013B002B64
:100AB00002F8013BF3D130BD421E12F8013F002B7A
:100AC000FBD111F8013B002B02F8013BF9D1704733
:100AD000032A40F2308010F0030C00F0158011F86A
:100AE000013BBCF1020F624498BF11F801CB00F842
:100AF000013B38BF11F8013BA2F1040298BF00F896
:100B000001CB38BF00F8013B11F0030300F0258052
:100B1000083AC0F0088051F8043B083A51F804CB79
:100B2000A0E80810F5E7121D5CBF51F8043B40F83F
:100B3000043BAFF30080D20724BF11F8013B11F84A
:100B400001CB48BF11F8012B24BF00F8013B00F88E
:100B500001CB48BF00F8012B704710B5203AC0F018
:100B60000B80B1E81850203AA0E81850B1E81850AE
:100B7000A0E81850BFF4F5AF5FEA027C24BFB1E8EB
:100B80001850A0E8185044BF18C918C0BDE810405C
:100B90005FEA827C24BF51F8043B40F8043B08BF65
:100BA0007047D20728BF31F8023B48BF11F8012B2C
:100BB00028BF20F8023B48BF00F8012B70474FF0D8
:100BC00000020429C0F0128010F0030C00F01B801A
:100BD000CCF1040CBCF1020F18BF00F8012BA8BF28
:100BE00020F8022BA1EB0C0100F00DB85FEAC17CEC
:100BF00024BF00F8012B00F8012B48BF00F8012B9F
:100C000070474FF0000200B51346944696462039CF
:100C100022BFA0E80C50A0E80C50B1F12001BFF4B5
:100C2000F7AF090728BFA0E80C5048BF0CC05DF81B
:100C300004EB890028BF40F8042B08BF704748BF69
:100C400020F8022B11F0804F18BF00F8012B7047DD
:100C500010B5044610F0030F08BF11F0030F40F069
:100C600015804FF0013E121FC0F20E8051F8043B78
:100C7000A3EB0E0C2CEA030C1CEACE1C08BF40F8B8
:100C8000043BF0D0A1F1040102F10402521E08DB82
:100C900011F8013B002B00F8013BF7D11146FFF79B
:100CA0008EFF204610BD00004FF0013C50F8042B91
:100CB00051F8043B9A4221D1A2EB0C03934313EA6F
:100CC000CC1317D150F8042B51F8043B9A4215D19C
:100CD000A2EB0C03934313EACC130BD150F8042B73
:100CE00051F8043B9A4209D1A2EB0C03934313EA57
:100CF000CC13DBD04FF00000704700BFD01A01BA10
:100D0000B1FA81F101F0180122FA01F0CB40C1F1F2
:100D10002001DBB2C0B2C01A2CFA01F3D11A914300
:100D200011EAC311E6D17047704770477047A0E8D9
:100D3000004FF0C040F804DB01B5AFF30080BDE820
:100D4000024001C10020A1EC068BA1EC02BBA1EC8A
:100D500006CBA1EC02FB704700F12C080C46B8EC66
:100D6000068BB8EC02BBB8EC06CBB8EC02FB00F18A
:100D70002C0858F8040DAFF3008058F8040D854690
:100D8000200008BF012038E9F00018E9004F704743
:100D9000704753EA020C00F069802DE9F04B4FF0E8
:100DA0000006002B1FBFB3FA83F503FA05F424FAFB
:100DB00005F65E4012BF1643B2FA82F502FA05F458
:100DC000C5F120051EBF22FA05FC44EA0C042035BB
:100DD00056EA044C4FEA144418BF641C4FF0000854
:100DE0004FF00009904271EB030C39D3002919BF71
:100DF000B1FA81F701FA07F6B0FA80F700FA07F6C0
:100E0000C7F120071EBF20FA07FC46EA0C06203770
:100E1000B6FBF4FCA7EB0507103F07F01F0BCBF167
:100E200020060CFA0BFB2CFA06F644BFB34600264C
:100E3000202FA4BF5E464FF0000B5BEA060C08BFF4
:100E40004FF0010B19EB0B09ABFB027C48EB0608DA
:100E5000C01B06FB02CC0BFB03CC71EB0C01C1E702
:100E60000B46024641464846BDE8F08B13B54FF0AD
:100E700000004FF00001AFF30080BDE81C40704758
:100E80002DE9F0470D4699469246044600F12408A4
:100E90000168880604D5E06921F01001216000E0B6
:100EA0000120A84201DD471B00E00027A1697A1953
:100EB00002EB0900081AA0612078C00602D420467F
:100EC000FFF768FA002608E0D4E901211AF80600C5
:100ED0009047206A401C761C20624E45F4DB207847
:100EE000C0060AD52046FFF755FA06E0D4E90121ED
:100EF00030209047206A401C2062381EA7F101076D
:100F0000F4DC07E0D4E9012118F805009047206AD5
:100F1000401C2062281EA5F10105F3DC2046FFF7E6
:100F20004FFA2078000602D50220BDE8F0870120A4
:100F3000FBE7000001694A1C02610878704700B5B0
:100F40008FB0CDE901310021059105497944CDE902
:100F5000031011466846FFF793FB0FB000BD000079
:100F6000E5FFFFFF0A6802F8010B0A60704710B541
:100F7000436913B1AFF3008001E0FFF744FA0120A9
:100F800010BD127800F124010A7000224A7001227B
:100F9000EDE711684FF0FF32E9E70000074B70B54D
:100FA0000D467B44FFF7CBFF0446284600F04EFA7F
:100FB00010B14FF0FF3070BD204670BD03B400008B
:100FC00010B5436913B1AFF3008001E0FFF794FA65
:100FD000012010BD128800F1240182840022C28405
:100FE0000122EDE711684FF0FF32E9E73A2800D21D
:100FF000303820F02002412A01D3A2F13700884284
:1010000001D34FF0FF30704702681144137801603C
:1010100018467047D16005497944516104497944C3
:10102000116200211161114600F056B8EDFFFFFF7B
:10103000A3000000426842B1016811F8013B23B1EE
:10104000521EC0E90012184670470121C160881E77
:10105000704742685AB1C368016843B983688B42DC
:1010600005D0491E521CC0E90012002070474FF005
:10107000FF30704770B516460C46054600F01AF86A
:10108000036893F80101012806D0FF2C0FD8185DE2
:1010900068B101202C7070BDD3F80701324621469B
:1010A00003F2071303442846BDE8704018474FF089
:1010B000FF3070BD10B500F0F3F9001D10BD00BF8A
:1010C000A988010010B50446FFF7F4FF0068005D31
:1010D00000F0010010BD00002DE9F34F4FF0000AB1
:1010E0000C4656468DB001200C9001F10C000B907F
:1010F00062690B9801219047051E2DD0252D2CD01B
:10110000216A8847C0B162690B9801219047216A22
:1011100088470028F7D16269411E0B98904700E08C
:10112000761CA1690D988847216A88470028F7D165
:10113000E1690D988847DBE7A1690D988847A842C7
:10114000074601D1761CD3E7E1690D9888477F1CDB
:1011500002D1BAF1000F6FD06BE162690B980027E2
:101160003D46394690472A2804D162690B980121EF
:1011700090470125DFF8D08262690B9801219047E2
:10118000A0F130010A290AD24745E5DC07EB8701C7
:1011900000EB4107303FDFD445F01005ECE7E906EE
:1011A00001D46FF000476C280AD04C2814D068286E
:1011B00015D06A280DD074281CD07A281AD01DE0CA
:1011C00062690B98012190476C2802D045F0040514
:1011D00014E045F002050DE045F020050AE06269E3
:1011E0000B9801219047682802D045F0080505E0DA
:1011F00045F4006562690B9801219047C4E90157E5
:1012000065283DD019DC58287AD00CDC452837D029
:1012100004DC252826D041289ED131E046282FD055
:10122000472899D12CE05B2877D0612828D0632803
:101230007CD0642823D15AE0F6E06F2848D008DC3F
:1012400066281DD067281BD0692821D06E2816D1AA
:1012500027E0702845D0732868D0752847D07828B3
:101260000DD14DE0A1690D988847252805463FF42A
:1012700069AFE1690D9888476D1C3FF46AAFD8E00B
:101280000D9923466A466FF00100AFF30080C5E078
:1012900045F0400023464FF000026060A80736D4B6
:1012A0003EE0E8077FF447AF2068011D2160006839
:1012B000290501D506701BE7290701D5068017E728
:1012C000A90703D5F117C0E9006111E706600FE730
:1012D00045F0400023464FF008026060A80716D48E
:1012E0001EE040F60E0125EA0100606016E045F0C0
:1012F000400023464FF00A026060A80707D40FE0C1
:1013000045F040006060A80708D5234610220D99DB
:101310006FF00100AFF3008080E007E01022234669
:101320000D996FF00100FFF78DFA77E04FF000099B
:1013300063284F46C8464B46CB4602D05B2806D0B2
:1013400038E0E80601D40120A060012732E062699C
:10135000D4F80CB00B98012190475E2807D14FF0CC
:10136000010949466269D4F80CB00B98904721698D
:1013700039B900210A4603AB43F82120491C08294A
:10138000FADBD8B3216949B308F1010862690B9807
:10139000012190475D28F4D1B9F1000F09D0002058
:1013A00003A951F82020D24341F82020401C0828EE
:1013B000F7DB03AB2069002820794FEA40701ED08C
:1013C0005B462246CDF80080CDE901970D990028B3
:1013D0006FF0010020DAAFF300801FE0C11703AA0D
:1013E00000EBD1614B1121F01F0102EB8302411A86
:1013F00013680120884003431360C7E719E00D9983
:10140000224600286FF00100009702DAAFF3008057
:1014100004E0FFF7BDFA01E0AFF3008000280ADA2C
:10142000401C06D10C9820B14FF0FF300FB0BDE842
:10143000F08F5046FAE7E90701D10AF1010A0644A4
:1014400000200C9054E60000CCCCCC0C007B00F0CB
:1014500080007047754600F031F8AE4605006946D9
:10146000534620F00700854618B020B5FEF73CFF34
:10147000BDE820404FF000064FF000074FF0000895
:101480004FF0000B21F00701AC46ACE8C009ACE816
:10149000C009ACE8C009ACE8C0098D46704700003F
:1014A00000487047F4E9012010B50446AFF300800E
:1014B0002046BDE81040FEF7FEBE00000048704721
:1014C000D4E9012000204FF48031084A02E013687B
:1014D0001B0602D4491EFAD200E029B1034A40F2A9
:1014E000FF51121D1160704703207047342C0140DA
:1014F000104A116811F0450FFBD00F4A4B0703D576
:101500000420106003207047C90702D0012010603A
:101510007047084924390968814201D0102070477A
:1015200040F2FF50106003482038006800F00800C7
:1015300070470000342C0140382C014030B5104D6C
:1015400000204FF480322C1F0BE0216811F0450F72
:1015500007D00AB14A0707D52968032041F00401E2
:101560000BE0521EF1D2F5E7C90704D0296801202B
:1015700041F00101296040F2FF51296030BD0000B7
:10158000382C01400949086810F0450FFBD041078D
:10159000074805D5016841F0040101600320704748
:1015A00040F2FF510160002070470000342C0140E0
:1015B000382C014030B50546194B00201A6812F04E
:1015C000450FFBD0174B540705D5186840F00400B1
:1015D0001860032030BDD20705D0186840F0010024
:1015E0001860012030BD0E4A243A1268AA4211D177
:1015F00040F2FF521A600A4A203A126812F4604F11
:1016000003D0910404D5132030BD120C0A8030BDE4
:10161000510401D5102030BD1104FCD50F2030BD80
:10162000342C0140382C014030B50E4D00204FF4D1
:1016300080322C1F0BE0216811F0450F07D00AB152
:101640004A0707D52968032041F0040108E0521E2B
:10165000F1D2F5E7490604D52968002041F04001A0
:10166000296030BD382C014005484168890606D5FF
:10167000C16841F02001C16002480068004770471E
:101680000060024028000020FCB500240D460646FC
:101690000094082201211020019404F06DFC102018
:1016A000FFF726FF002834D132040121372004F04F
:1016B00063FC3720FFF71CFF00282AD101230322F7
:1016C0000821401E04F06AFC00220121332004F0AE
:1016D00053FC3320FFF70CFF214A002819D1204B7F
:1016E00069464C3340F22A661768374208D11768BA
:1016F000BF02F9D51F6841F82470641C022CF3D393
:1017000011680B07174905D5086840F00800086004
:101710000420FCBD13689B0705D5086840F0020053
:1017200008600220FCBD13689B0605D5086840F0E0
:10173000200008600620FCBD1268920505D50868E7
:1017400040F4007008600720FCBD40F2FF520A60C0
:10175000009909BA6960019909BA2960FCBD0000C5
:10176000342C0140382C0140CB0810B500EB83002D
:10177000036A4907C90E0F248C40A3430362036A1E
:101780008A401343036210BD2DE9F04F9946DDE90D
:1017900009AC00234FF0010B4FF0030E0BFA03F5D9
:1017A00001EA0504AC422AD107685C000EFA04F68F
:1017B000B7430760076802FA04F847EA08070760BA
:1017C000012A01D0022A12D18768B7438760D0F876
:1017D00008800AFA04F748EA0708C0F80880476852
:1017E000AF434760476809FA03F52F434760C56870
:1017F000B543C560C5680CFA04F42543C5605B1C9D
:10180000102BCBD3BDE8F08F30B40C460146154603
:10181000500700D0012000EBD50010FB05F0C2B24C
:1018200008784B78812809D3402B07D3FF2B05D0AC
:10183000FF2803D07F2B0CD2403B0BE0002318463F
:1018400003E05B1C04F8010BDBB29342F9D330BC1C
:101850007047413B8138D9B2C0B2C0EB401303EBB3
:10186000801001EB4000504309490C2D0AD0102D87
:101870000BD0182DEBD1D1F819100144204630BC03
:1018800005F004BFD1F80910F7E7D1F81110F4E71B
:1018900078E9012070B51E4C256845F48045256027
:1018A0001B4C203C256845F480452560256825F4BF
:1018B00080452560174C002525800225261D358092
:1018C000258845F400652580258845EA0121218089
:1018D000218841EA00102080208840EAC200208050
:1018E00020882BB140F0010020805B1EDBB200E0BD
:1018F0002080208840EA430020800648183801886C
:1019000041F002010180208840F48060208070BD99
:10191000403802401C38004000210A22B0FBF2F09F
:1019200010B5194A0B4601EB810432F81440844289
:1019300003D0491CC9B20B29F5D31448046824F01C
:10194000806404600B291DD001EB810102EB410191
:101950004A8843EA82120B7942EA03720B4B8433C2
:101960001A60026842F08062026002681201FCD5CF
:10197000C888097A40EA0120054940F400700880CF
:10198000002010BD012010BDF8B60108003802404B
:1019900020380040274B30B41C6844F400141C600D
:1019A000254B1C6FE407FCD153F80C4F44F03D0469
:1019B0001C6021249C67214CDC66186759679A6675
:1019C00000205866586E40F040005866586E40F44B
:1019D00080705866586E5866586E40F4806058663D
:1019E000586E40F400605866586E40F400505866D7
:1019F000586E40F400305866586E40F480205866A7
:101A0000586E5866586E5866586E5866986F20F033
:101A100004009867986F20F003009867586E40F0B4
:101A20001000586602230F22002130BC084604F043
:101A300025BA000030380240006002400C380040F7
:101A40000248016F41F001010167704700600240E8
:101A50000248016F21F001010167704700600240F8
:101A60001CB50A48016841F002010160012402200E
:101A7000CDE9000400232246C0210548FFF784FE7B
:101A80000448C0F89842C0F89C421CBD303802405F
:101A900000040240008040422DE9F0410546144810
:101AA000016821F440410160016841F48041016016
:101AB000104E0027C6F898723C464FF00108E8091E
:101AC000C6F89C026806050E022008F0E1FFC6F881
:101AD0009882022008F0DCFFC6F89872022008F015
:101AE000D7FF641CE4B2082CE9D3BDE8F081000004
:101AF000000402400080404270B50D48016821F4A6
:101B000040410160016841F480410160094C0120BD
:101B1000C4F89C02C4F89802042004F5267408F066
:101B2000B7FF00256560042008F0B2FF256070BD96
:101B300000040240008040420E4810B5016821F4C4
:101B400040410160016841F4804101600A4C00207D
:101B5000C4F89802C4F89C02042004F5267408F026
:101B600097FF012020606060BDE81040042008F06D
:101B70008FBF0000000402400080404270B5124850
:101B80000024016821F440410160016801600F4DAB
:101B90000126C5F89C62304608F07AFFC5F89862C5
:101BA000012008F075FF07E0641CE4B2FA2C03D9A9
:101BB000FFF7C2FF012070BDD5F81C020028F3D149
:101BC000C5F8980270BD0000000402400080404249
:101BD00072B6704762B670471CB50446002000908C
:101BE00001901A480121008902040D2004F0C4F973
:101BF000174908680190024601E00A68019212F054
:101C0000450FFAD01348D10705D0016841F0010112
:101C1000016001201CBD510705D5016841F0040198
:101C2000016003201CBD0A49243909680D2901D02F
:101C300010201CBD40F2FF510160054820380068AB
:101C40000090C0F34320207000201CBD1400002031
:101C5000342C0140382C01401CB50848016841F083
:101C60001001016000200121CDE900010346024678
:101C700040210348FFF788FD1CBD000030380240BA
:101C80000010024070B50E4C0E4D012108B12170BC
:101C900001E0207810B1D5F8180220B1D5F818026B
:101CA00001280AD00AE00A2008F0D8FE002020709F
:101CB000D5F8180210B9012070BD2170002070BD48
:101CC00010000020000042422DE9F043174F064665
:101CD000002438887D884543B888A0F5D041043970
:101CE00002D1B879012807D00021084603F05AFE36
:101CF00004F094F80E4815E00020B8714FF02A095E
:101D0000A7F80A904FF02B08A7F80C80014603F0C3
:101D100049FE0120B871A7F80A80A7F80C90E7E700
:101D20000680641CAC42FBD3BDE8F0835003002066
:101D30000008006C2DE9F04F4A492A232B2489889A
:101D400045F2105A4FF4305B4FF4285E4FF448755B
:101D50004FF0F00C49F241394FF4A07745F21036BC
:101D60004FF4F07280B13F484FF00108494580F8C8
:101D700006800780A0F802C001D0B1423ED12C25D8
:101D800005814381848157E036484FF0000849457A
:101D900080F80680A0F800C0478006D0A1F5D04C9E
:101DA000BCF1040C01D0B1420CD12C25058143813A
:101DB000A1F5D0438481043B01D0B14244D10780D6
:101DC000428041E0514507D1A0F808B0A0F80AE0F0
:101DD0004FF42C5181810EE0A1F5C856633E06D028
:101DE0002221018120214181212181812CE02C218E
:101DF0000181448183810280458025E0A1F5D04C9A
:101E0000BCF1040C09D051450BD1A0F808B0A0F8E2
:101E10000AE04FF42C53838121E02C250581448175
:101E200009E0A1F5C85CBCF1630C12D02223038148
:101E30002123438120238381A1F5D043043B01D09A
:101E4000B14201D102804780BDE8F04F002003F08D
:101E5000A7BC4FF02C0CA0F808C0438184810580FA
:101E60004280E9E7500300202DE9F043414D9146BF
:101E70000C460246060AA9882846A1F51343408964
:101E80004FEA1428413B17D0A1F5A643103B13D0CD
:101E9000A1F5AA43103B13D02E46A1F5C857B3793C
:101EA0003688B61A761E633F23D0A1F5D047043F8B
:101EB0003AD0012B4DD04DE003F0A4FF304639E07D
:101EC00003F0A0FF304603F091FF6889401C80B208
:101ED00003F098FFD0B203F089FFA88903F092FFC6
:101EE000404603F083FFA889401C80B203F08AFFBC
:101EF0002BE003B9B2B203F085FF160A304603F0B7
:101F000075FFD0B203F072FF304603F06FFFD0B21E
:101F100003F06CFFA88903F075FF404603F066FFED
:101F2000E0B203F063FF0DE0012B00D1B2B203F089
:101F300069FF100A03F05AFFD0B203F057FFA889D7
:101F400003F060FF404603F051FFE0B203F04EFFA4
:101F500007E0B2B2114603F06BFFA889214603F0F7
:101F600067FF054928890880891CA1F80090BDE811
:101F7000F083000050030020FE07006C2DE9F843B9
:101F80001F4D1F468046AB88089EA3F5D0400438FD
:101F900002D1A879012807D0A2EB0800401C85B225
:101FA0000C46DFF8609028E02B880846991A002438
:101FB000AC713A462A24A3EB08036C812B27491EF7
:101FC0005B1EAF8189B29BB20096FFF7D7FF01205D
:101FD000A8716F81AC81BDE8F8832146404603F0CB
:101FE000E1FC03F01BFF0020494602E00E80401C8C
:101FF00080B2A842FAD3641CA4B2BC42EDD9EAE78D
:10200000500300200008006C2DE9FC5FFE480068CA
:10201000FD4940F078000860086840F0040008605E
:10202000F94808300068F84940F0010008310860BC
:1020300001210220CDE900010A4600238021F34856
:10204000FFF7A2FB01210320CDE90001F04C0023A2
:1020500002224CF233712046FFF796FB0121032048
:10206000CDE90001EB4D002302224FF68071284696
:10207000FFF78AFB01210320E74ECDE90001002391
:1020800002223046FFF780FB01210320CDE9000149
:102090000023022209033046FFF776FB0C220021C1
:1020A0002046FFF761FB0C2201212046FFF75CFB75
:1020B0000C2204212046FFF757FB0C220521204665
:1020C000FFF752FB0C2208212046FFF74DFB0C22A4
:1020D00009212046FFF748FB0C220A212046FFF782
:1020E00043FB0C220E212046FFF73EFB0C220F2162
:1020F0002046FFF739FB0C2207212846FFF734FB67
:102100000C2208212846FFF72FFB0C220921284624
:10211000FFF72AFB0C220A212846FFF725FB0C2299
:102120000B212846FFF720FB0C2211462846FFF71B
:102130001BFB0C220D212846FFF716FB0C220E215B
:102140002846FFF711FB0C220F212846FFF70CFB56
:102150000C2200213046FFF707FB0C2211463046C7
:10216000FFF702FB4FF020450020A861E861C5F8A9
:102170001C01A86940F48050A861A86940F480401F
:10218000A861A86940F01000A861E869E861E86901
:1021900040F00F00E861E86940F47050E861D5F85C
:1021A0001C01C5F81C01D5F81C0140F00900C5F858
:1021B0001C01D5F81C0140F40060C5F81C01A86999
:1021C00040F00100A861322008F048FC0121002005
:1021D00003F02EFE322008F041FC002003F0AEFA9E
:1021E000DFF838824FF6FF7B49F24136A8F8040049
:1021F00045F2103745F2105441F6631946F6040AC9
:10220000FF2804D3584502D0B0F5134F7ED1D32018
:1022100003F0F8FD03F088FAA8F8040003F084FA4C
:10222000A8F8040003F080FA0BEA00205A46A8F848
:10223000040003F079FAB8F804100843A8F8040081
:10224000B04273D0BF2003F0DDFD03F06DFAA8F8B3
:10225000040003F069FAA8F8040003F065FAA8F88E
:10226000040003F061FA02EA0020A8F8040003F079
:102270005BFAB8F804100843A8F80400504555D09C
:10228000D42003F0BFFD03F04FFAA8F8040003F0D8
:102290004BFAA8F8040003F047FA02EA0020A8F875
:1022A000040003F041FAB8F804100843A8F8040049
:1022B000B8423BD04FF45A4003F0A4FD03F034FA87
:1022C000A8F804004FF45B4003F09CFD03F02CFAE7
:1022D00002EA0020A8F804004FF45C4003F092FDED
:1022E00003F022FAB8F804100843A8F80400B0F587
:1022F000004F3ED0A04219D0A12003F083FD03F08F
:1023000013FAA8F8040003F00FFA00E00EE002EA66
:102310000020A8F8040003F007FAB8F804100843F6
:10232000A0F5AE41A8F8040061391FD080B2B042D8
:1023300005D0B84203D0A04201D048451CD1D5F801
:102340001C0120F00F00C5F81C01D5F81C0120F479
:102350007060C5F81C01D5F81C0140F00300C5F8F9
:102360001C01D5F81C0140F4007021E0A8F804908D
:10237000E5E7A8F80440E2E7504503D0A0F5454161
:10238000053917D1D5F81C0120F00F00C5F81C0144
:10239000D5F81C0120F47060C5F81C01D5F81C01AB
:1023A00040F00A00C5F81C01D5F81C0140F440605B
:1023B000C5F81C01B8F8041019A0FDF7CBFFB8F858
:1023C0000400B0427DD1CF2003F01CFD002003F0BB
:1023D0000DFDC12003F00AFD302003F007FDED20C4
:1023E00003F010FD642003F001FD032003F0FEFC68
:1023F000122003F0FBFC812003F0F8FCE82003F03E
:1024000001FD852014E00000303802400008024041
:10241000000C02400010024000180240500300204F
:10242000204C43442049443A25780D0A000000001E
:1024300003F0DCFC102003F0D9FC7A2003F0D6FC7A
:10244000CB2003F0DFFC392003F0D0FC2C2003F07C
:10245000CDFC002003F0CAFC342003F0C7FC0220AE
:1024600003F0C4FCF72003F0CDFC202003F0BEFCF9
:10247000EA2003F0C7FC002003F0B8FC002003F0C2
:10248000B5FCC02003F0BEFC1B2003F0AFFCC12054
:1024900003F0B8FC012003F0A9FCC52003F0B2FC56
:1024A000302003F0A3FC302003F0A0FCC72003F091
:1024B000A9FCB72003F09AFC362003F0A3FC4820C7
:1024C00000E0A7E003F092FC3A2003F09BFC5520CB
:1024D00003F08CFCB12003F095FC002003F086FC97
:1024E0001A2003F083FCB62003F08CFC0A2003F0D2
:1024F0007DFCA22003F07AFCF22003F083FC002094
:1025000003F074FC262003F07DFC012003F06EFC38
:10251000E02003F077FC0F2003F068FC2A2003F092
:1025200065FC282003F062FC082003F05FFC0E200D
:1025300003F05CFC082003F059FC542003F056FC27
:10254000A92003F053FC432003F050FC0A2003F0C1
:102550004DFC0F2003F04AFC002003F047FC002054
:1025600003F044FC002003F041FC002003F03EFC9B
:10257000E12003F047FC002003F038FC152003F0B5
:1025800035FC172003F032FC072003F02FFC11204C
:1025900003F02CFC062003F029FC2B2003F026FC82
:1025A000562003F023FC3C2003F020FC052003F020
:1025B0001DFC102003F01AFC0F2003F017FC3F2035
:1025C00003F014FC3F2003F011FC0F2003F00EFC7D
:1025D0002B2003F017FC002003F008FC002003F080
:1025E00005FC012003F002FC3F2003F0FFFB2A2042
:1025F00003F008FC002003F0F9FB002003F0F6FBD9
:10260000002003F0F3FBEF2003F0F0FB112003F0B8
:10261000F9FBA5E050457CD1112003F0F3FB142019
:1026200008F01CFAD02003F0EDFB072003F0DEFBDE
:10263000422003F0DBFB1D2003F0D8FBD12003F088
:10264000E1FB002003F0D2FB1A2003F0CFFB0920AE
:1026500003F0CCFBD22003F0D5FB012003F0C6FB36
:10266000222003F0C3FBC02003F0CCFB102003F0BA
:10267000BDFB3B2003F0BAFB002003F0B7FB0220B8
:1026800003F0B4FB112003F0B1FBC52003F0BAFB4B
:10269000032003F0ABFBC82003F0B4FB002003F0E1
:1026A000A5FB252003F0A2FB212003F09FFB0520C2
:1026B00003F09CFB002003F099FB0A2003F096FB3B
:1026C000652003F093FB252003F090FB772003F0B7
:1026D0008DFB502003F08AFB0F2003F087FB0020C6
:1026E00003F084FBF82003F08DFB012003F07EFB58
:1026F000FE2003F087FB002003F078FB022003F0AC
:1027000075FB202003F07EFB362003F07BFB0820C6
:1027100000E02BE003F06AFB3A2003F073FB552046
:1027200003F064FB2B2003F06DFB002003F05EFB45
:10273000002003F05BFB012003F058FB3F2003F077
:1027400055FB2A2003F05EFB002003F04FFB002026
:1027500003F04CFB012003F049FBDF2003F046FBB4
:10276000782008F07BF9292001F0FBBEB8427CD12B
:10277000ED2003F047FB012003F038FBFE2003F0BF
:1027800035FBEE2003F03EFBDE2003F02FFB212083
:1027900003F02CFBF12003F035FB012003F026FBB6
:1027A000DF2003F02FFB102003F020FBC42003F0F8
:1027B00029FB8F2003F01AFBC62003F023FB002027
:1027C00003F014FBE22003F011FBE22003F00EFB08
:1027D000E22003F00BFBBF2003F014FBAA2003F060
:1027E00005FBB02003F00EFB0D2003F0FFFA0020E4
:1027F00003F0FCFA0D2003F0F9FA002003F0F6FADA
:10280000112003F0F3FA002003F0F0FA192003F08E
:10281000EDFA002003F0EAFA212003F0E7FA0020A5
:1028200003F0E4FA2D2003F0E1FA002003F0DEFAD1
:102830003D2003F0DBFA002003F0D8FA5D2003F01E
:10284000D5FA002003F0D2FA5D2003F0CFFA002081
:1028500003F0CCFAB12003F0D5FA802003F0C6FAD9
:10286000002003F0C3FA8B2000E0FCE303F0BEFA83
:10287000002003F0BBFA962003F0B8FA002003F022
:10288000B5FAB22003F0BEFA002003F0AFFA002040
:1028900003F0ACFA022003F0A9FA002003F0A6FA34
:1028A000032003F0A3FA002003F0A0FAB32003F002
:1028B000A9FA002003F09AFA002003F097FA00200A
:1028C00003F094FA002003F091FA002003F08EFA4E
:1028D000002003F08BFA002003F088FA002003F0B8
:1028E00085FA002003F082FA002003F07FFA00202E
:1028F00003F07CFA002003F079FA002003F076FA66
:10290000002003F073FA002003F070FA002003F0B7
:102910006DFA002003F06AFA002003F067FA002045
:1029200003F064FA002003F061FA002003F05EFA7D
:10293000002003F05BFA002003F058FA002003F0B7
:1029400055FAB42003F05EFA8B2003F04FFA002012
:1029500003F04CFA962003F049FA002003F046FAFF
:10296000A12003F043FA002003F040FAB52003F061
:1029700049FA022003F03AFA002003F037FA032064
:1029800003F034FA002003F031FA042003F02EFAA9
:10299000002003F02BFAB62003F034FA002003F0F5
:1029A00025FA002003F022FAB72003F02BFA0020CA
:1029B00003F01CFA002003F019FA3F2003F016FA86
:1029C000002003F013FA5E2003F010FA002003F059
:1029D0000DFA642003F00AFA002003F007FA8C20B5
:1029E00003F004FA002003F001FAAC2003F0FEF932
:1029F000002003F0FBF9DC2003F0F8F9002003F0DD
:102A0000F5F9702003F0F2F9002003F0EFF99020BF
:102A100003F0ECF9002003F0E9F9EB2003F0E6F90C
:102A2000002003F0E3F9DC2003F0E0F9002003F0DC
:102A3000DDF9B82003F0E6F9002003F0D7F9002013
:102A400003F0D4F9002003F0D1F9002003F0CEF90F
:102A5000002003F0CBF9002003F0C8F9002003F0B8
:102A6000C5F9002003F0C2F9BA2003F0CBF9242005
:102A700003F0BCF9002003F0B9F9002003F0B6F927
:102A8000002003F0B3F9C12003F0BCF9202003F0CB
:102A9000ADF9002003F0AAF9542003F0A7F90020B3
:102AA00003F0A4F9FF2003F0A1F9002003F09EF940
:102AB000C22003F0A7F90A2003F098F9002003F0E0
:102AC00095F9042003F092F9002003F08FF9C32058
:102AD00003F098F93C2003F089F9002003F086F90F
:102AE0003A2003F083F9002003F080F9392003F045
:102AF0007DF9002003F07AF9372003F077F9002000
:102B000003F074F93C2003F071F9002003F06EF932
:102B1000362003F06BF9002003F068F9322003F04F
:102B200065F9002003F062F92F2003F05FF900201F
:102B300003F05CF92C2003F059F9002003F056F95A
:102B4000292003F053F9002003F050F9262003F068
:102B50004DF9002003F04AF9242003F047F9002042
:102B600003F044F9242003F041F9002003F03EF97A
:102B7000232003F03BF9002003F038F93C2003F058
:102B800035F9002003F032F9362003F02FF9002048
:102B900003F02CF9322003F029F9002003F026F984
:102BA0002F2003F023F9002003F020F92C2003F05C
:102BB0001DF9002003F01AF9292003F017F900206D
:102BC00003F014F9262003F011F9002003F00EF9A8
:102BD000242003F00BF9002003F008F9242003F06F
:102BE00005F9002003F002F9232003F0FFF800208C
:102BF00003F0FCF8C42003F005F9622003F0F6F8B6
:102C0000002003F0F3F8052003F0F0F8002003F0B3
:102C1000EDF8842003F0EAF8002003F0E7F8F02054
:102C200003F0E4F8002003F0E1F8182003F0DEF8E8
:102C3000002003F0DBF8A42003F0D8F8002003F014
:102C4000D5F8182003F0D2F8002003F0CFF8502078
:102C500003F0CCF8002003F0C9F80C2003F0C6F80C
:102C6000002003F0C3F8172003F0C0F8002003F0A1
:102C7000BDF8952003F0BAF8002003F0B7F8F32070
:102C800003F0B4F8002003F0B1F8E62003F0AEF84A
:102C9000002003F0ABF8C52003F0B4F8322003F0B5
:102CA000A5F8002003F0A2F8442003F09FF80020CC
:102CB00003F09CF8652003F099F8002003F096F8E3
:102CC000762003F093F8002003F090F8882003F0BA
:102CD0008DF8002003F08AF8C62003F093F8202036
:102CE00003F084F8002003F081F8172003F07EF849
:102CF000002003F07BF8012003F078F8002003F0B7
:102D000075F8C72003F07EF8002003F06FF800206C
:102D100003F06CF8002003F069F8002003F066F877
:102D2000C82003F06FF8002003F060F8002003F0E3
:102D30005DF8002003F05AF8002003F057F8C9208E
:102D400003F060F8002003F051F8002003F04EF883
:102D5000002003F04BF8002003F048F8002003F0B7
:102D600045F8002003F042F8002003F03FF800206F
:102D700003F03CF8002003F039F8002003F036F8A7
:102D8000002003F033F8002003F030F8002003F0B7
:102D90002DF8002003F02AF8002003F027F8002087
:102DA00003F024F8E02003F02DF8162003F01EF8BD
:102DB000002003F01BF81C2003F018F8002003F09B
:102DC00015F8212003F012F8002003F00FF8362048
:102DD00003F00CF8002003F009F8462003F006F891
:102DE000002003F003F8522003F000F8002002F066
:102DF000FDFF642002F0FAFF002002F0F7FF7A20C6
:102E000002F0F4FF002002F0F1FF8B2002F0EEFF51
:102E1000002002F0EBFF992002F0E8FF002002F012
:102E2000E5FFA82002F0E2FF002002F0DFFFB9205A
:102E300002F0DCFF002002F0D9FFC42002F0D6FF30
:102E4000002002F0D3FFCA2002F0D0FF002002F0E1
:102E5000CDFFD22002F0CAFF002002F0C7FFD92028
:102E600002F0C4FF002002F0C1FFE02002F0BEFF2C
:102E7000002002F0BBFFF32002F0B8FF002002F0B8
:102E8000B5FFE12002F0BEFF162002F0AFFF0020E8
:102E900002F0ACFF1C2002F0A9FF002002F0A6FF08
:102EA000222002F0A3FF002002F0A0FF362002F053
:102EB0009DFF002002F09AFF452002F097FF0020BE
:102EC00002F094FF522002F091FF002002F08EFFEA
:102ED000642002F08BFF002002F088FF7A2002F0CD
:102EE00085FF002002F082FF8B2002F07FFF002090
:102EF00002F07CFF992002F079FF002002F076FFBB
:102F0000A82002F073FF002002F070FFB92002F049
:102F10006DFF002002F06AFFC42002F067FF00206E
:102F200002F064FFCA2002F061FF002002F05EFFA1
:102F3000D22002F05BFF002002F058FFD82002F000
:102F400055FF002002F052FFE02002F04FFF00206A
:102F500002F04CFFF32002F049FF002002F046FF90
:102F6000E22002F04FFF052002F040FF002002F0B7
:102F70003DFF0B2002F03AFF002002F037FF1B203C
:102F800002F034FF002002F031FF342002F02EFF67
:102F9000002002F02BFF442002F028FF002002F066
:102FA00025FF4F2002F022FF002002F01FFF6120CA
:102FB00002F01CFF002002F019FF792002F016FF3A
:102FC000002002F013FF882002F010FF002002F022
:102FD0000DFF972002F00AFF002002F007FFA62055
:102FE00002F004FF002002F001FFB72002F0FEFE15
:102FF000002002F0FBFEC22002F0F8FE002002F0EA
:10300000F5FEC72002F0F2FE002002F0EFFED12014
:1030100002F0ECFE002002F0E9FED62002F0E6FE0F
:10302000002002F0E3FEDD2002F0E0FE002002F0CE
:10303000DDFEF32002F0DAFE002002F0D7FEE320EE
:1030400002F0E0FE052002F0D1FE002002F0CEFEEC
:103050000A2002F0CBFE002002F0C8FE1C2002F085
:10306000C5FE002000E0FDE202F0C0FE332002F0C9
:10307000BDFE002002F0BAFE442002F0B7FE0020A0
:1030800002F0B4FE502002F0B1FE002002F0AEFECD
:10309000622002F0ABFE002002F0A8FE782002F0D1
:1030A000A5FE002002F0A2FE882002F09FFE002074
:1030B00002F09CFE972002F099FE002002F096FE9E
:1030C000A62002F093FE002002F090FEB72002F04E
:1030D0008DFE002002F08AFEC22002F087FE002052
:1030E00002F084FEC72002F081FE002002F07EFE86
:1030F000D12002F07BFE002002F078FED52002F005
:1031000075FE002002F072FEDD2002F06FFE00204E
:1031100002F06CFEF32002F069FE002002F066FE71
:10312000E42002F06FFE012002F060FE002002F0B9
:103130005DFE012002F05AFE002002F057FE022040
:1031400002F054FE002002F051FE2A2002F04EFE52
:10315000002002F04BFE3C2002F048FE002002F06E
:1031600045FE4B2002F042FE002002F03FFE5D20B3
:1031700002F03CFE002002F039FE742002F036FE20
:10318000002002F033FE842002F030FE002002F026
:103190002DFE932002F02AFE002002F027FEA2203E
:1031A00002F024FE002002F021FEB32002F01EFEF9
:1031B000002002F01BFEBE2002F018FE002002F0EC
:1031C00015FEC42002F012FE002002F00FFECD20FA
:1031D00002F00CFE002002F009FED32002F006FEF1
:1031E000002002F003FEDD2002F000FE002002F0CD
:1031F000FDFDF32002F0FAFD002002F0F7FDE520CE
:1032000002F000FE002002F0F1FD002002F0EEFDD1
:10321000002002F0EBFD002002F0E8FD022002F0A9
:10322000E5FD002002F0E2FD292002F0DFFD002094
:1032300002F0DCFD3C2002F0D9FD002002F0D6FDBA
:103240004B2002F0D3FD002002F0D0FD5D2002F003
:10325000CDFD002002F0CAFD742002F0C7FD002061
:1032600002F0C4FD842002F0C1FD002002F0BEFD8A
:10327000932002F0BBFD002002F0B8FDA22002F076
:10328000B5FD002002F0B2FDB32002F0AFFD00203A
:1032900002F0ACFDBE2002F0A9FD002002F0A6FD68
:1032A000C42002F0A3FD002002F0A0FDCD2002F01A
:1032B0009DFD002002F09AFDD32002F097FD002032
:1032C00002F094FDDC2002F091FD002002F08EFD62
:1032D000F32002F08BFD002002F088FDE62002F0D2
:1032E00091FD112002F082FD002002F07FFD3420CC
:1032F00002F07CFD002002F079FD562002F076FD00
:10330000002002F073FD762002F070FD002002F034
:103310006DFD772002F06AFD002002F067FD662057
:1033200002F064FD002002F061FD882002F05EFDE5
:10333000002002F05BFD992002F058FD002002F011
:1033400055FDBB2002F052FD002002F04FFD9920F8
:1033500002F04CFD002002F049FD662002F046FD1F
:10336000002002F043FD552002F040FD002002F055
:103370003DFD552002F03AFD002002F037FD4520CA
:1033800002F034FD002002F031FD432002F02EFD5A
:10339000002002F02BFD442002F028FD002002F066
:1033A00025FDE72002F02EFD322002F01FFD002057
:1033B00002F01CFD552002F019FD002002F016FD60
:1033C000762002F013FD002002F010FD662002F0CE
:1033D0000DFD002002F00AFD672002F007FD00202D
:1033E00002F004FD672002F001FD002002F0FEFC67
:1033F000872002F0FBFC002002F0F8FC992002F08C
:10340000F5FC002002F0F2FCBB2002F0EFFC0020F3
:1034100002F0ECFC992002F0E9FC002002F0E6FC4E
:10342000772002F0E3FC002002F0E0FC442002F0F0
:10343000DDFC002002F0DAFC562002F0D7FC002070
:1034400002F0D4FC232002F0D1FC002002F0CEFCDC
:10345000332002F0CBFC002002F0C8FC452002F033
:10346000C5FC002002F0C2FCE82002F0CBFC0020EA
:1034700002F0BCFC002002F0B9FC992002F0B6FC7E
:10348000002002F0B3FC872002F0B0FC002002F024
:10349000ADFC882002F0AAFC002002F0A7FC7720F7
:1034A00002F0A4FC002002F0A1FC662002F09EFCC9
:1034B000002002F09BFC882002F098FC002002F023
:1034C00095FCAA2002F092FC002002F08FFCBB20A9
:1034D00002F08CFC002002F089FC992002F086FCAE
:1034E000002002F083FC662002F080FC002002F045
:1034F0007DFC552002F07AFC002002F077FC55207C
:1035000002F074FC002002F071FC442002F06EFC1A
:10351000002002F06BFC442002F068FC002002F066
:1035200065FC552002F062FC002002F05FFCE920FF
:1035300002F068FCAA2002F059FC002002F056FCC0
:10354000002002F053FC002002F050FC002002F0AA
:1035500059FCAA2002F04AFCCF2002F053FC0020C4
:1035600002F044FC002002F041FC002002F03EFC8E
:10357000002002F03BFC002002F038FC002002F0AA
:1035800035FC002002F032FC002002F02FFC00206D
:1035900002F02CFC002002F029FC002002F026FCA6
:1035A000002002F023FC002002F020FC002002F0AA
:1035B0001DFC002002F01AFC002002F017FC002085
:1035C00002F014FCF02002F01DFC002002F00EFCC2
:1035D000502002F00BFC002002F008FC002002F05A
:1035E00005FC002002F002FCF32002F00BFC00209E
:1035F00002F0FCFBF92002F005FC062002F0F6FBCD
:10360000102002F0F3FB292002F0F0FB002002F072
:10361000EDFB3A2002F0F6FB552002F0E7FB11200B
:1036200002F0F0FB642007F019FA292002F0EAFB0F
:10363000352002F0E7FB002002F0D8FB512002F019
:10364000E1FBFF2002F0D2FB532002F0DBFB2C2039
:1036500002F0CCFB552002F0D5FB822002F0C6FB25
:103660002C20FCE3A0427DD14FF470435521184635
:1036700002F0DEFB4FF20104AA21204602F0D8FB43
:10368000651C5221284602F0D3FBA61C08213046B7
:1036900002F0CEFBE71C0121384602F0C9FB0D21E8
:1036A0004FF4304002F0C4FB0D214BF2010002F058
:1036B000BFFB0D214BF2020002F0BAFB4FF436487B
:1036C0003421404602F0B4FB34214BF2016002F099
:1036D000AFFB34214BF2026002F0AAFB4FF43149F8
:1036E0000D21484602F0A4FB4BF2011A0D21504671
:1036F00002F09EFB0D214BF2021002F099FB3421E7
:103700004FF4374002F094FB34214BF2017002F089
:103710008FFB34214BF2027002F08AFB00214FF440
:10372000324002F085FB00214BF2012002F080FBC9
:1037300000214BF2022002F07BFB24214FF43840A1
:1037400002F076FB24214BF6010002F071FB2421EC
:103750004BF6020002F06CFB01214FF43F4002F0F7
:1037600067FB00E0FEE30F214FF4334002F060FB03
:103770000F214BF2013002F05BFB0F214BF20230C4
:1037800002F056FB34214FF4394002F051FB342152
:103790004BF6011002F04CFB34214BF6021002F004
:1037A00047FB08214FF4354002F042FB08214BF261
:1037B000015002F03DFB08214BF2025002F038FBB1
:1037C00003214FF4424002F033FB24214FF43A40EE
:1037D00002F02EFB24214BF6012002F029FB2421CC
:1037E0004BF6022002F024FB00214FF43C4002F093
:1037F0001FFB78214BF6014002F01AFB00214BF62B
:10380000024002F015FB00214FF43D4002F010FB96
:1038100078214BF6015002F00BFB00214BF60250D1
:1038200002F006FB00214FF43E4002F001FB642150
:103830004BF6016002F0FCFA00214FF4514002F017
:10384000F7FA33214DF2011002F0F2FA00214DF2A5
:10385000021002F0EDFA34214DF2031002F0E8FA02
:1038600000214DF2041002F0E3FA3A214DF2051066
:1038700002F0DEFA00214DF2061002F0D9FA4A21D8
:103880004DF2071002F0D4FA00214DF2081002F0B8
:10389000CFFA5C214DF2091002F0CAFA00214DF274
:1038A0000A1002F0C5FA81214DF20B1002F0C0FAA5
:1038B00000214DF20C1002F0BBFAA6214DF20D10C2
:1038C00002F0B6FA00214DF20E1002F0B1FAE52135
:1038D0004DF20F1002F0ACFA01214DF2101002F07F
:1038E000A7FA13214DF2111002F0A2FA01214DF2B4
:1038F000121002F09DFA54214DF2131002F098FAC2
:1039000001214DF2141002F093FA82214DF21510AC
:1039100002F08EFA01214DF2161002F089FACA2146
:103920004DF2171002F084FA02214DF2181002F045
:103930007FFA00214DF2191002F07AFA02214DF2BD
:103940001A1002F075FA01214DF21B1002F070FA04
:1039500002214DF21C1002F06BFA34214DF21D10C1
:1039600002F066FA02214DF21E1002F061FA6721A0
:103970004DF21F1002F05CFA02214DF2201002F00D
:1039800057FA84214DF2211002F052FA02214DF231
:10399000221002F04DFAA4214DF2231002F048FA51
:1039A00002214DF2241002F043FAB7214DF2251006
:1039B00002F03EFA02214DF2261002F039FACF2130
:1039C0004DF2271002F034FA02214DF2281002F0D5
:1039D0002FFADE214DF2291002F02AFA02214DF2CF
:1039E0002A1002F025FAF2214DF22B1002F020FAF3
:1039F00002214DF22C1002F01BFAFE214DF22D1087
:103A000002F016FA03214DF22E1002F011FA1021E5
:103A10004DF22F1002F00CFA03214DF2301002F09B
:103A200007FA33214DF2311002F002FA03214DF270
:103A3000321002F0FDF96D214DF2331002F0F8F969
:103A400000214FF4524002F0F3F933214DF20120EE
:103A500002F0EEF900214DF2022002F0E9F93421E2
:103A60004DF2032002F0E4F900214DF2042002F0AF
:103A7000DFF93A214DF2052002F0DAF900214DF28A
:103A8000062002F0D5F94A214DF2072002F0D0F9C4
:103A900000214DF2082002F0CBF95C214DF2092003
:103AA00002F0C6F900214DF20A2002F0C1F981218D
:103AB0004DF20B2002F0BCF900214DF20C2002F077
:103AC000B7F9A6214DF20D2002F0B2F900214DF216
:103AD0000E2002F0ADF9E5214DF20F2002F0A8F919
:103AE00001214DF2102002F0A3F913214DF2112013
:103AF00002F09EF901214DF2122002F099F95421B1
:103B00004DF2132002F094F901214DF2142002F03D
:103B10008FF982214DF2152002F08AF901214DF230
:103B2000162002F085F9CA214DF2172002F080F923
:103B300002214DF2182002F07BF900214DF21920EC
:103B400002F076F902214DF21A2002F071F90121FA
:103B50004DF21B2002F06CF902214DF21C2002F004
:103B600067F934214DF21D2002F062F902214DF275
:103B70001E2002F05DF967214DF21F2002F058F976
:103B800002214DF2202002F053F984214DF2212030
:103B900002F04EF902214DF2222002F049F9A4214F
:103BA0004DF2232002F044F902214DF2242002F0CC
:103BB0003FF9B7214DF2252002F03AF902214DF2EA
:103BC000262002F035F9CF214DF2272002F030F9FE
:103BD00002214DF2282002F02BF9DE214DF229209E
:103BE00002F026F902214DF22A2002F021F9F221F9
:103BF0004DF22B2002F01CF902214DF22C2002F094
:103C000017F9FE214DF22D2002F012F903214DF299
:103C10002E2002F00DF910214DF22F2002F008F9AC
:103C200003214DF2302002F003F933214DF231200F
:103C300002F0FEF803214DF2322002F0F9F86D2176
:103C40004DF2332002F0F4F800214FF4534002F01B
:103C5000EFF833214DF2013002F0EAF800214DF285
:103C6000023002F0E5F834214DF2033002F0E0F8C2
:103C700000214DF2043002F0DBF83A214DF205301C
:103C800002F0D6F800214DF2063002F0D1F84A21B8
:103C90004DF2073002F0CCF800214DF2083002F06E
:103CA000C7F85C214DF2093002F0C2F800214DF254
:103CB0000A3002F0BDF881214DF20B3002F0B8F865
:103CC00000214DF20C3002F0B3F8A6214DF20D3078
:103CD00002F0AEF800214DF20E3002F0A9F8E52115
:103CE0004DF20F3002F0A4F801214DF2103002F035
:103CF0009FF813214DF2113002F09AF801214DF294
:103D0000123002F095F854214DF2133002F090F881
:103D100001214DF2143002F08BF882214DF2153062
:103D200002F086F801214DF2163002F081F8CA2126
:103D30004DF2173002F07CF802214DF2183002F0FB
:103D400077F800214DF2193002F072F802214DF29D
:103D50001A3002F06DF801214DF21B3002F068F8C4
:103D600002214DF21C3002F063F834214DF21D3077
:103D700002F05EF802214DF21E3002F059F8672180
:103D80004DF21F3002F054F802214DF2203002F0C3
:103D90004FF884214DF2213002F04AF802214DF211
:103DA000223002F045F8A4214DF2233002F040F811
:103DB00002214DF2243002F03BF8B7214DF22530BC
:103DC00002F036F802214DF2263002F031F8CF2110
:103DD0004DF2273002F02CF802214DF2283002F08B
:103DE00027F8DE214DF2293002F022F802214DF2AF
:103DF0002A3002F01DF8F2214DF22B3002F018F8B3
:103E000002214DF22C3002F013F8FE214DF22D303C
:103E100002F00EF803214DF22E3002F009F81021C5
:103E20004DF22F3002F004F803214DF2303001F052
:103E3000FFFF33214DF2313001F0FAFF03214DF243
:103E4000323001F0F5FF6D214DF2333001F0F0FF1B
:103E500000214FF4544001F0EBFF332100E080E3F8
:103E60004DF2014001F0E4FF00214DF2024001F06B
:103E7000DFFF34214DF2034001F0DAFF00214DF263
:103E8000044001F0D5FF3A214DF2054001F0D0FF8A
:103E900000214DF2064001F0CBFF4A214DF20740D0
:103EA00001F0C6FF00214DF2084001F0C1FF5C2186
:103EB0004DF2094001F0BCFF00214DF20A4001F033
:103EC000B7FF81214DF20B4001F0B2FF00214DF20E
:103ED0000C4001F0ADFFA6214DF20D4001F0A8FF0E
:103EE00000214DF20E4001F0A3FFE5214DF20F40FD
:103EF00001F09EFF01214DF2104001F099FF1321C6
:103F00004DF2114001F094FF01214DF2124001F0F9
:103F10008FFF54214DF2134001F08AFF01214DF231
:103F2000144001F085FF82214DF2154001F080FF21
:103F300001214DF2164001F07BFFCA214DF21740DE
:103F400001F076FF02214DF2184001F071FF0021CF
:103F50004DF2194001F06CFF02214DF21A4001F0C0
:103F600067FF00E000E301214DF21B4001F060FF1C
:103F700002214DF21C4001F05BFF34214DF21D4047
:103F800001F056FF02214DF21E4001F051FF672162
:103F90004DF21F4001F04CFF02214DF2204001F094
:103FA00047FF84214DF2214001F042FF02214DF2F2
:103FB000224001F03DFFA4214DF2234001F038FFE3
:103FC00002214DF2244001F033FFB7214DF225408C
:103FD00001F02EFF02214DF2264001F029FFCF21F2
:103FE0004DF2274001F024FF02214DF2284001F05C
:103FF0001FFFDE214DF2294001F01AFF02214DF290
:104000002A4001F015FFF2214DF22B4001F010FF84
:1040100002214DF22C4001F00BFFFE214DF22D400C
:1040200001F006FF03214DF22E4001F001FF1021A7
:104030004DF22F4001F0FCFE03214DF2304001F023
:10404000F7FE33214DF2314001F0F2FE03214DF233
:10405000324001F0EDFE6D214DF2334001F0E8FEFB
:1040600000214FF4554001F0E3FE33214DF20150A1
:1040700001F0DEFE00214DF2025001F0D9FE3421A4
:104080004DF2035001F0D4FE00214DF2045001F036
:10409000CFFE3A214DF2055001F0CAFE00214DF24B
:1040A000065001F0C5FE4A214DF2075001F0C0FE56
:1040B00000214DF2085001F0BBFE5C214DF2095089
:1040C00001F0B6FE00214DF20A5001F0B1FE81214F
:1040D0004DF20B5001F0ACFE00214DF20C5001F0FE
:1040E000A7FEA6214DF20D5001F0A2FE00214DF2D7
:1040F0000E5001F09DFEE5214DF20F5001F098FEAB
:1041000001214DF2105001F093FE13214DF2115098
:1041100001F08EFE01214DF2125001F089FE542172
:104120004DF2135001F084FE01214DF2145001F0C4
:104130007FFE82214DF2155001F07AFE01214DF2F1
:10414000165001F075FECA214DF2175001F070FEB5
:1041500002214DF2185001F06BFE00214DF2195072
:1041600001F066FE02214DF21A5001F061FE0121BC
:104170004DF21B5001F05CFE02214DF21C5001F08B
:1041800057FE34214DF21D5001F052FE02214DF236
:104190001E5001F04DFE67214DF21F5001F048FE08
:1041A00002214DF2205001F043FE84214DF22150B6
:1041B00001F03EFE02214DF2225001F039FEA42111
:1041C0004DF2235001F034FE02214DF2245001F053
:1041D0002FFEB7214DF2255001F02AFE02214DF2AB
:1041E000265001F025FECF214DF2275001F020FE90
:1041F00002214DF2285001F01BFEDE214DF2295024
:1042000001F016FE02214DF22A5001F011FEF221BA
:104210004DF22B5001F00CFE02214DF22C5001F01A
:1042200007FEFE214DF22D5001F002FE03214DF25A
:104230002E5001F0FDFD10214DF22F5001F0F8FD40
:1042400003214DF2305001F0F3FD33214DF2315096
:1042500001F0EEFD03214DF2325001F0E9FD6D2138
:104260004DF2335001F0E4FD00214FF4564001F0CF
:10427000DFFD33214DF2016001F0DAFD00214DF246
:10428000026001F0D5FD34214DF2036001F0D0FD54
:1042900000214DF2046001F0CBFD3A214DF20560A2
:1042A00001F0C6FD00214DF2066001F0C1FD4A217A
:1042B0004DF2076001F0BCFD00214DF2086001F0F5
:1042C000B7FD5C214DF2096001F0B2FD00214DF215
:1042D0000A6001F0ADFD81214DF20B6001F0A8FDF7
:1042E00000214DF20C6001F0A3FDA6214DF20D60FE
:1042F00001F09EFD00214DF20E6001F099FDE521D7
:104300004DF20F6001F094FD01214DF2106001F0BB
:104310008FFD13214DF2116001F08AFD01214DF254
:10432000126001F085FD54214DF2136001F080FD13
:1043300001214DF2146001F07BFD82214DF21560E8
:1043400001F076FD01214DF2166001F071FDCA21E8
:104350004DF2176001F06CFD02214DF2186001F082
:1043600067FD00214DF2196001F062FD02214DF25E
:104370001A6001F05DFD01214DF21B6001F058FD56
:1043800002214DF21C6001F053FD34214DF21D60FD
:1043900001F04EFD02214DF21E6001F049FD672142
:1043A0004DF21F6001F044FD02214DF2206001F04A
:1043B0003FFD84214DF2216001F03AFD02214DF2D2
:1043C000226001F035FDA4214DF2236001F030FDA3
:1043D00002214DF2246001F02BFDB7214DF2256042
:1043E00001F026FD02214DF2266001F021FDCF21D2
:1043F0004DF2276001F01CFD02214DF2286001F012
:1044000017FDDE214DF2296001F012FD02214DF26F
:104410002A6001F00DFDF2214DF22B6001F008FD44
:1044200002214DF22C6001F003FDFE214DF22D60C2
:1044300001F0FEFC03214DF22E6001F0F9FC102189
:104440004DF22F6001F0F4FC03214DF2306001F0D9
:10445000EFFC33214DF2316001F0EAFC03214DF213
:10446000326001F0E5FC6D214DF2336001F0E0FCBB
:104470005521184601F0DCFCAA21204601F0D8FCA9
:104480005221284601F0D4FC0821304601F0D0FC2E
:104490000021384601F0CCFCCC21484601F0C8FC94
:1044A0000021504601F0C4FC0521404601F0C0FC4B
:1044B00070214FF4374001F0BBFC70214BF20170CA
:1044C00001F0B6FC01214FF4384001F0B1FC0321AA
:1044D0004BF6010001F0ACFC03214BF6020001F0A9
:1044E000A7FC03214BF6030001F0A2FC02214FF4CC
:1044F0003C4001F09DFC00214BF6014001F098FC8E
:1045000000214BF6024001F093FCD0214FF44940CA
:1045100001F08EFC02214CF6011001F089FC5021C3
:104520004CF6021001F084FC50214CF6031001F00F
:104530007FFC50214CF6041001F07AFC00214FF46E
:10454000545001F075FC55214FF4685001F070FC97
:104550004FF4885001F056FC782006F099FA4FF499
:10456000245001F04FFCFCE0A0F513414FF480749F
:104570004FF4E06640F2022740F23F184FF4274A1A
:1045800025397CD0F51DA0F51341283978D0A0F548
:1045900013414FF4887A203973D0A0F51341313993
:1045A00070D0A0F5A84108396DD0A0F5A8514FF4FE
:1045B000407A053968D0A0F53541053965D0A0F5B8
:1045C000454105397ED0A0F58A4131397BD0A0F52F
:1045D0008A41353978D04845C5D1E22001F012FC36
:1045E0001D2001F003FC022001F000FC042001F07A
:1045F000FDFB642006F04CFAE02001F003FC0120F2
:1046000001F0F4FB0A2006F029FAE02001F0FAFBA1
:10461000032001F0EBFB0C2006F020FA012001F052
:10462000F1FB0A2006F01AFAE62001F0EBFB2F203E
:1046300001F0DCFBFF2001F0D9FBFF2001F0D6FBED
:10464000B02001F0DFFB202001F0D0FB002001F0C2
:10465000CDFB032001F0CAFB40F21F3001F0C6FB86
:10466000012001F0C3FB40F2DF1001F0BFFB00208E
:1046700001F0BCFBB42001F0C5FB042006E07CE0A7
:1046800046E101E2A8E27DE3FEE3FEE301F0AEFBDA
:1046900040F21F4001F0AAFB002001F0A7FB2E20F2
:1046A00001F0A4FB002001F0A1FB002001F09EFB23
:1046B000002001F09BFB002001F098FBB62001F0E8
:1046C000A1FB02E0FDE3FDE3FDE3022001F08EFB30
:1046D0004FF4037001F08AFB002001F087FB1720E4
:1046E00001F084FB152001F081FB002001F07EFB2E
:1046F000002001F07BFBF02001F084FB032001F09F
:1047000075FB292001F07EFBD02001F07BFB00200F
:1047100001F06CFBBE2001F075FB052001F066FB8B
:10472000FE2001F063FB012001F060FB002001F09E
:104730005DFB002001F05AFB002001F057FBB82080
:1047400001F060FB032001F051FB012001F04EFB62
:10475000BA2001F057FB012001F048FB642000F073
:10476000F7FF0020FDF7E6FAFE490120C1F89C02A0
:104770005846BDE8FC5FFDF7A7BA47F6F001E52013
:1047800001F056FB2146012001F052FB3146022088
:1047900001F04EFB41F23001032001F049FB002102
:1047A000042001F045FB3946082001F041FB0021BF
:1047B000092001F03DFB00210A2001F039FB002116
:1047C0000C2001F035FB00210D2001F031FB002110
:1047D0000F2001F02DFB0021102001F029FB072103
:1047E000112001F025FB0021122001F021FB002106
:1047F000132001F01DFB0021072001F019FB41F2FD
:104800009061102001F014FB40F22721112001F0EB
:104810000FFB9D21122001F00BFB4FF4C851132018
:1048200001F006FB2521292001F002FB0D212B20A0
:1048300001F0FEFA0721302001F0FAFA40F20331CC
:10484000312001F0F5FA0321322001F0F1FA40F2B3
:104850000621352001F0ECFA0821362001F0E8FAB3
:1048600040F20641372001F0E3FA4FF4417138205D
:1048700001F0DEFA0721392001F0DAFA40F2026194
:104880003C2001F0D5FA08213D2001F0D1FA0021A9
:10489000502001F0CDFAEF21512001F0C9FA00219A
:1048A000522001F0C5FA4146532001F0C1FA5146A9
:1048B000602001F0BDFA0121612001F0B9FA002168
:1048C0006A2001F0B5FA0021802001F0B1FA002140
:1048D000812001F0ADFA0021822001F0A9FA002127
:1048E000832001F0A5FA0021842001F0A1FA002123
:1048F000852001F09DFA1021902001F099FA4FF4E3
:10490000C061922001F094FA40F233110720FCE3D9
:1049100041F28F01EC2001F08BFA41F23421EF20BB
:1049200001F086FA2146012001F082FA3146022088
:1049300001F07EFA41F23001032001F079FA002102
:10494000042001F075FA3946082001F071FA0021BF
:10495000092001F06DFA00210A2001F069FA012115
:104960000C2001F065FA00210D2001F061FA002110
:104970000F2001F05DFA0021102001F059FA072103
:10498000112001F055FA0021122001F051FA002106
:10499000132001F04DFA0121072001F049FA3220DD
:1049A00006F05CF841F29041102001F041FA40F22B
:1049B0002721112001F03CFA322006F04FF88A211D
:1049C000122001F035FA322006F048F84FF4D051A9
:1049D000132001F02DFA0621292001F029FA0D21DA
:1049E0002B2001F025FA322006F038F80021202093
:1049F00001F01EFA0021212001F01AFA322006F0FF
:104A00002DF80021302001F013FA40F2046131202A
:104A100001F00EFA40F20531322001F009FA0021CE
:104A2000352001F005FA40F60941362001F000FA80
:104A30004FF40171372001F0FBF940F201313820C9
:104A400001F0F6F92946392001F0F2F900213C2065
:104A500001F0EEF940F60A213D2001F0E9F932209B
:104A600005F0FCFF0021502001F0E2F9EF21512078
:104A700001F0DEF90021522001F0DAF9414653201D
:104A800001F0D6F9514652E10021084601F0D0F973
:104A90002146012001F0CCF93146022001F0C8F98D
:104AA00041F23001032001F0C3F90021042001F09C
:104AB000BFF93946082001F0BBF90021092001F0B7
:104AC000B7F900210A2001F0B3F901210C2001F00F
:104AD000AFF900210D2001F0ABF900210F2001F00A
:104AE000A7F9322005F0BAFF40F20111072001F0CA
:104AF0009FF9322005F0B2FF4FF48651102001F0EB
:104B000097F90721112001F093F9534651461220DD
:104B100001F08EF94FF43061132001F089F9002182
:104B2000292001F085F944F210012B2001F080F9D1
:104B30000021502001F07CF9EF21512001F078F99B
:104B40000021522001F074F94146532001F070F920
:104B50004FF41C51602001F06BF90121612001F03C
:104B600067F901E00000414200216A2001F060F98C
:104B70000021802001F05CF90021812001F058F92A
:104B80000021822001F054F90021832001F050F926
:104B90000021842001F04CF90021852001F048F922
:104BA0001021902001F044F90021922001F040F9F9
:104BB0000121932001F03CF91946952001F038F9C4
:104BC0000021972001F034F90021982001F030F9FC
:104BD00040F2731107207EE341F21401E72001F057
:104BE00027F92146012001F023F94FF4007102203A
:104BF00001F01EF941F23801032001F019F939469C
:104C0000082001F015F90021092001F011F9002117
:104C10000A2001F00DF900210C2001F009F9002112
:104C20000D2001F005F900210F2001F001F900210C
:104C3000102001F0FDF80721112001F0F9F8002102
:104C4000122001F0F5F80021132001F0F1F8C8203E
:104C500005F004FF41F29061102001F0E9F840F204
:104C60002721112001F0E4F8322005F0F7FE0C2195
:104C7000122001F0DDF8322005F0F0FE4FF4006163
:104C8000132001F0D5F81121292001F0D1F80B21D2
:104C90002B2001F0CDF8322005F0E0FE002120208D
:104CA00001F0C6F843464146212001F0C1F8002139
:104CB000302001F0BDF84FF483742146312001F01B
:104CC000B7F80021322001F0B3F84FF4017135201C
:104CD00001F0AEF841F20A61362001F0A9F8294648
:104CE000372001F0A5F82146382001F0A1F8294627
:104CF000392001F09DF840F202413C2001F098F883
:104D000040F60F413D2001F093F80021502001F0C2
:104D10008FF8EF21512001F08BF80021522001F093
:104D200087F81946532001F083F84FF41C51602096
:104D300001F07EF80121612001F07AF800216A205B
:104D400001F076F80021802001F072F80021812026
:104D500001F06EF80021822001F06AF80021832022
:104D600001F066F80021842001F062F8002185201E
:104D700001F05EF81021902001F05AF84FF4C06164
:104D80009220FCE32146012001F052F83146022036
:104D900001F04EF841F23001032001F049F8002102
:104DA000042001F045F840F20721082001F040F806
:104DB0000021092001F03CF800210A2001F038F818
:104DC00000210C2001F034F800210D2001F030F812
:104DD00000210F2001F02CF8142005F03FFE41F2D5
:104DE000B061102001F024F80121112001F020F819
:104DF0000121172001F01CF84FF49C71122001F0E2
:104E000017F84FF40061132001F012F8092129204E
:104E100001F00EF809212A2001F00AF80021A4204F
:104E200001F006F80021502001F002F8EF21512096
:104E300000F0FEFF0021522000F0FAFF414653200F
:104E400000F0F6FF4FF41C51602000F0F1FF01214B
:104E5000612000F0EDFF00216A2000F0E9FF002151
:104E6000802000F0E5FF0021812000F0E1FF00211B
:104E7000822000F0DDFF0021832000F0D9FF002117
:104E8000842000F0D5FF01E01EE028E1002185200C
:104E900000F0CEFF1321902000F0CAFF00219220E5
:104EA00000F0C6FF0321932000F0C2FF5146952079
:104EB00000F0BEFF40F27311072000F0B9FF32206E
:104EC00009E109E2D1E287E30021072000F0B0FF09
:104ED000322005F0C3FD4FF48E71122000F0A8FFC0
:104EE0000121A42000F0A4FF0F21082000F0A0FF62
:104EF00008210A2000F09CFF08210D2000F098FFF7
:104F00002946302000F094FF0721312000F090FF67
:104F100040F20361322000F08BFF3146332000F075
:104F200087FF3946342000F083FF0221352000F04E
:104F30007FFF41F60F71362000F07AFF29463720B7
:104F400000F076FF0021382000F072FF00213920A8
:104F500000F06EFF29463A2000F06AFF00213B2056
:104F600000F066FF07213C2000F062FF00213D2099
:104F700000F05EFF322005F071FD0121072000F0F6
:104F800057FF0121172000F053FF322005F066FD86
:104F90004FF4BD51102000F04BFF40F217211120BB
:104FA00000F046FF4FF48F71122000F041FF4FF4E4
:104FB0007061132000F03CFF00212A2000F038FF30
:104FC0000A21292000F034FF4FF49F71122000F0D5
:104FD0002FFF0021502000F02BFFEF21512000F087
:104FE00027FF0021522000F023FF4146532000F00C
:104FF0001FFF4FF41C51602000F01AFF01216120B7
:1050000000F016FF00216A2000F012FF002180202E
:1050100000F00EFF0021812000F00AFF0021822015
:1050200000F006FF0021832000F002FF0021842011
:1050300000F0FEFE0021852000F0FAFE13219020F2
:1050400000F0F6FE5146922000F0F2FE052193207A
:1050500000F0EEFE0021952000F0EAFE00219720EE
:1050600000F0E6FE0021982000F0E2FE214601203B
:1050700000F0DEFE3146022000F0DAFE41F2380197
:10508000032000F0D5FE0021042000F0D1FE002115
:105090000C2000F0CDFE00210F2000F0C9FE002101
:1050A000202000F0C5FE0021212000F0C1FE2121BA
:1050B000072000F0BDFE142005F0D0FC6121072080
:1050C00000F0B6FE142005F0C9FC40F27311072071
:1050D00000F0AEFE142005F0C1FCFFF742BB00213A
:1050E000084600F0A5FE0021084600F0A1FE0021C0
:1050F000084600F09DFE0021084600F099FE0121BF
:10510000A42000F095FE142000E0E0E005F0A6FCED
:105110004FF41C552946602000F08AFE39460820CD
:1051200000F086FE4FF40571302000F081FE43F25E
:105130001571312000F07CFE40F20461322000F055
:1051400077FE40F61661332000F072FE42F2112124
:10515000342000F06DFE4FF4A851352000F068FEB9
:1051600048F20751362000F063FE41F20741372034
:1051700000F05EFE41F20341382000F059FE20218C
:10518000392000F055FE1A21902000F051FE002138
:10519000102000F04DFE0721112000F049FE0021F3
:1051A000122000F045FE0021132000F041FE1420E3
:1051B00005F054FC4FF4E661102000F039FE40F297
:1051C0003711112000F034FE142005F047FC4FF495
:1051D000DC71122000F02CFE142005F03FFC4FF48F
:1051E0007061132000F024FE80212A2000F020FEB0
:1051F0004821292000F01CFE142005F02FFC214638
:10520000012000F015FE3146022000F011FE41F2AF
:105210003801032000F00CFE3946082000F008FE9B
:1052200000210A2000F004FE00210C2000F000FE06
:1052300000210D2000F0FCFD30210E2000F0F8FDD3
:105240000021502000F0F4FDEF21512000F0F0FD8E
:105250000021522000F0ECFD4146532000F0E8FD13
:105260002946602000F0E4FD0121612000F0E0FD0E
:1052700000216A2000F0DCFD1121902000F0D8FD13
:105280004FF4C061922000F0D3FD40F20241932020
:1052900000F0CEFD0221942000F0CAFD142005F09C
:1052A000DDFB0121072000F0C3FD142005F0D6FB33
:1052B0006121072000F0BCFD40F27311072000F0CF
:1052C000B7FD0021202000F0B3FD0021212000F0D7
:1052D000AFFD222100207CE10021084600F0A8FD5E
:1052E0000021084600F0A4FD142005F0B7FB0021C2
:1052F000084600F09DFD0021084600F099FD0021C0
:10530000084600F095FD0021084600F091FD0121BE
:10531000A42000F08DFD142005F0A0FB4FF41C51DB
:10532000602000F085FD40F60601082000F080FDB9
:1053300040F203731946302000F07AFD012131203C
:1053400000F076FD0421322000F072FD4FF48171EF
:10535000332000F06DFD55465146342000F068FDC5
:1053600040F20311352000F063FD1F21362000F0CC
:105370005FFD1946372000F05BFD0121382000F069
:1053800057FD0421392000F053FD1521902000F035
:105390004FFD4FF48261102000F04AFD40F247219A
:1053A000112000F045FD4FF4DE71122000F040FDA9
:1053B0004FF46061132000F03BFD782005F04EFBB8
:1053C0002146012000F034FD4FF40071022000F06E
:1053D0002FFD41F23001032000F02AFD08210A20B0
:1053E00000F026FD00210C2000F022FD20210E20DF
:1053F00000F01EFD00210F2000F01AFD00212020EA
:1054000000F016FD0021212000F012FD3D212A2090
:1054100000F00EFD142005F021FB2D21292000F0C5
:1054200007FD0021502000F003FD4DF2EF01512057
:1054300000F0FEFC0021522000F0FAFC414653200F
:1054400000F0F6FC0021612000F0F2FC00216A204F
:1054500000F0EEFC2946922000F0EAFC05219320A2
:1054600000F0E6FC2146FFF7B5BB0121002000F06B
:10547000DFFC0A2005F0F2FA41F22861102000F06A
:10548000D7FC0E21122000F0D3FC40F63921132066
:1054900000F0CEFC0A2005F0E1FA4021112000F0D6
:1054A000C7FC5021152000F0C3FC0A2005F0D6FAF5
:1054B0001E21122000F0BCFC0A2005F0CFFA4FF4A8
:1054C000B151102000F0B4FC42F63921132000F055
:1054D000AFFC0A2005F0C2FA2146012000F0A8FC2A
:1054E0005146022000F0A4FC41F23801032000F0F4
:1054F0009FFC3946082000F09BFC08210A2000F0A0
:1055000097FC0021302000F093FC40F20241312052
:1055100000F08EFC4FF48371322000F089FC40F2E1
:105520000351332000F084FC4FF48271342000F0EA
:105530007FFC40F20131352000F07AFC294636200C
:1055400000F076FC40F20531372000F071FC4FF49A
:105550000271382000F06CFC40F60B71392000F02D
:1055600067FC0221412000F063FC4FF41C516020D5
:1055700000F05EFC0121612000F05AFC00E0CEE06A
:105580004FF40471902000F053FC4FF48571922089
:1055900000F04EFC0421932000F04AFC2146A0209C
:1055A00000F046FC0121072000F042FC21210720E9
:1055B00000F03EFC2321072000F03AFC33210720B5
:1055C00000F036FC40F23311072000F031FC0021DE
:1055D000A02000F02DFC80E53021152000F028FCF3
:1055E00010219A2000F024FC2021112000F020FC42
:1055F00043F22841102000F01BFC0221122000F091
:1056000017FC41F23801132000F012FC282005F0AD
:1056100025FA1221084600F00BFC282005F01EFA9E
:1056200043F22041102000F003FC43F23801132024
:1056300000F0FEFB462005F011FA0021302000F0BA
:10564000F7FB40F20241312000F0F2FB40F207315B
:10565000322000F0EDFB4FF44171332000F0E8FB05
:105660000421342000F0E4FB40F20141352000F039
:10567000DFFB2946362000F0DBFB40F20531372006
:1056800000F0D6FB4FF4C2631946382000F0D0FB7F
:105690001946392000F0CCFB2146012000F0C8FB60
:1056A0005146022000F0C4FB41F23001032000F01B
:1056B000BFFB40F60801082000F0BAFB08210A20D1
:1056C00000F0B6FB4FF41C51602000F0B1FB01214B
:1056D000612000F0ADFB4FF49F71902000F0A8FB1B
:1056E0002146922000F0A4FB2146932000F0A0FB6D
:1056F0004FF44051A02000F09BFB1021A32000F0AC
:1057000097FB0121072000F093FB2121072000F0E7
:105710008FFB2321072000F08BFB3321072000F0B3
:1057200087FB40F233119EE6034808B50088ADF8C8
:105730000000BDF8000008BD0008006C10B500F0C6
:1057400061FB052005F0A4F9BDE81040FFF7ECBFB0
:1057500010B50246BE2000F055FB052000F046FBC8
:10576000104614F0CEFA9FED0C1B53EC112B14F0E5
:10577000DBFA14F099FA80B200F038FB012000F057
:1057800035FBFF2000F032FB002000F02FFBBDE8CE
:105790001040002000F02ABB66666666666604401C
:1057A000F0B57F4D00232946AA79898846F604077B
:1057B00041F66314012A01D02AB11DE0B9421BD081
:1057C000A14202D118E0A14216D1082814D2DFE884
:1057D00000F00406080A0C0E101206200CE0072048
:1057E0000AE0042008E0052006E0012004E0002093
:1057F00002E0032000E00220A1F5134C45F2103234
:1058000045F21056BCF1410C07D0B94205D0914287
:1058100003D0B14201D0A1427BD1082812D2DFE8E7
:1058200000F0110406080A0C0E1080230AE0402341
:1058300008E0C02306E0202304E0602302E0A02368
:1058400000E0E023B14202D14FF4585000E036208E
:10585000914205D0B14203D0A14201D043F00803E8
:10586000B94201D143F00203194600F0E1FAAA88D7
:10587000A2420AD098062888698802D5884202D3B5
:1058800003E0884201D9298068806889B24241D109
:1058900000F0B8FA002000F0A9FA6889401C80B234
:1058A00000F0B0FA002000F0A1FA6889801C80B2F4
:1058B00000F0A8FA2888401EC0F30F2000F096FAE6
:1058C0006889C01C80B200F09DFA2878401EC0B2E2
:1058D00000F08CFAA88900F095FA002000F086FA12
:1058E000A889401C80B200F08DFA002000F07EFAFA
:1058F000A889801C80B200F085FA6888401EC0F339
:105900000F2000F073FAA889C01C80B200F07AFA68
:1059100022E028E000F076FA002000F067FA00208C
:1059200000F064FA2888401EC0F30F2000F05EFAF1
:105930002878401EC0B200F059FAA88900F062FA37
:10594000002000F053FA002000F050FA6888401E52
:10595000C0F30F2000F04AFAA878BDE8F040401EDE
:10596000C0B200F043BA082812D2DFE800F0040603
:1059700008110A0C0E1030230AE0102308E020233F
:1059800006E0382304E0282302E0182300E008237F
:10599000BDE8F040032043F4805100F049BA000014
:1059A000500300202DE9F043DFF844810C46024605
:1059B000050AB8F804104046A1F5134340894FEAA0
:1059C0001429413B17D0A1F5A643103B13D04646FE
:1059D000A1F5D047B3793688B61A761E043F0ED0AB
:1059E000A1F5C857633F1ED0A1F5AA47103F57D075
:1059F000012B72D072E000F005FA284605E0012B79
:105A000000D1B2B200F0FEF9100A00F0EFF9D0B206
:105A100000F0ECF9B8F80C0000F0F4F9484600F09A
:105A2000E5F9E0B22AE06BB300F0ECF9284600F0AB
:105A3000DDF9D0B200F0DAF9B8F80000401EC0F38A
:105A40000F2000F0D3F998F80000401EC0B200F01B
:105A5000CDF9B8F80C0000F0D5F9484600F0C6F9C9
:105A6000E0B200F0C3F9B8F80200401EC0F30F2006
:105A700000F0BCF998F80200401EC0B2BDE8F04347
:105A800000F0B4B9B2B200F0BDF9002000F0AEF9F8
:105A9000002000F0ABF9100A00F0A8F9D0B2D6E768
:105AA00000F0B0F9284600F0A1F9B8F80A00401C4F
:105AB00080B200F0A7F9D0B200F098F9B8F80C0065
:105AC00000F0A0F9484600F091F9B8F80C00401C2D
:105AD00080B200F097F9A4E7FFE7B2B2114600F0F8
