:020000040800F2
:1000000020C3012089020008970200089902000815
:100010009B0200089D0200089F02000800000000EB
:10002000000000000000000000000000A102000825
:10003000A302000800000000A5020008A7020008B3
:10004000A9020008A9020008A9020008A9020008E4
:10005000A9020008A9020008A9020008A9020008D4
:10006000A9020008A9020008A9020008A9020008C4
:10007000A9020008A9020008A9020008A9020008B4
:10008000A9020008A9020008A9020008A9020008A4
:10009000A9020008A9020008A9020008A902000894
:1000A000A9020008A9020008A9020008A902000884
:1000B000A9020008A902000885740008A902000826
:1000C000A9020008A9020008A9020008A902000864
:1000D000A902000811750008A9020008A902000879
:1000E000A9020008A9020008A9020008A902000844
:1000F000A9020008A9020008A9020008A902000834
:10010000A902000845590008A9020008A902000830
:10011000A9020008A9020008A9020008A902000813
:10012000A9020008A9020008A9020008A902000803
:10013000A9020008A9020008A9020008A9020008F3
:10014000A9020008A9020008A9020008A9020008E3
:10015000A9020008A9020008A9020008A9020008D3
:10016000A9020008A9020008A9020008A9020008C3
:10017000A9020008A9020008A9020008A9020008B3
:10018000A9020008A902000800F002F800F06DF8CA
:100190000AA090E8000C82448344AAF10107DA45E2
:1001A00001D100F062F8AFF2090EBAE80F0013F0C7
:1001B000010F18BFFB1A43F001031847F0030100B9
:1001C000100401000A444FF0000C10F8013B13F03A
:1001D000070408BF10F8014B1D1108BF10F8015BA0
:1001E000641E05D010F8016B641E01F8016BF9D193
:1001F00013F0080F1EBF10F8014BAD1C0C1B09D1EA
:100200006D1E58BF01F801CBFAD505E014F8016B5B
:1002100001F8016B6D1EF9D59142D6D370470000ED
:100220000023002400250026103A28BF78C1FBD8FF
:10023000520728BF30C148BF0B607047642900F0E7
:10024000C780752900F0C480782900F0FD806329FB
:1002500000F07E83732900F08383002070471FB570
:100260000EF030F81FBD10B510BD00F0DDFB1146DB
:10027000FFF7F5FF0BF01AF900F0FBFB03B4FFF7F3
:10028000F2FF03BC07F003FB0B48016841F4700167
:1002900001600A480047FEE7FEE7FEE7FEE7FEE7EB
:1002A000FEE7FEE7FEE7FEE7FEE70000044805493B
:1002B000034A054B7047000088ED00E08901000803
:1002C00020BF012020C3012020BF0120704710B5AE
:1002D0004C1084EA530404D54042C1F1000138BFF8
:1002E000491E1B4204D55242C3F1000338BF5B1EB6
:1002F00000F054FA14F0804F04D04042C1F10001E4
:1003000038BF491E14F0004F04D05242C3F100031D
:1003100038BF5B1E10BD00000FB4044910B503AA1E
:10032000029800F021FB10BC5DF814FB04000020D3
:1003300070B5044685690068C10601D5302600E025
:100340002026C00707D070BDD4E901213046904770
:10035000206A401C20626D1EF6D570BD70B5044643
:1003600085690078C00707D170BDD4E9012120203C
:100370009047206A401C20626D1EF6D570BD70B596
:100380000C460546012A05D02878800600D5EA6982
:10039000002302E0012305E05B1C934202D2E05CF3
:1003A0000028F9D1A869E618C01AA861286A18447B
:1003B00028622846FFF7BCFF04E0D5E9012114F8C4
:1003C000010B9047B442F8D32846FFF7C7FF70BD32
:1003D0002DE9F0410646002410687529314616A51E
:1003E00010D0AFF30080002802DA404213A507E0E6
:1003F00031688A0701D512A502E0490704D511A585
:10040000012401E0AFF3008000210A2206F1240755
:1004100009E0B0FBF2FCB0FBF2F302FB1C00303051
:1004200078541846491C0028F3D123462A46304602
:10043000BDE8F04100F029BA000000002D000000E6
:100440002B0000002000000070B504460D46214638
:100450001068AFF300802188090502D50F4A7A445D
:1004600002E00E4A7A440E32002104F1240305E032
:1004700000F00F060009965D5E54491C0028F7D174
:1004800020780023000704D5702D02D009B1022383
:1004900011322046BDE8704000F0F7B9A6FF000019
:1004A0002DE9F05F894604464FF0000ADFF874B189
:1004B000FB44C0F820A02046E1688847002874D09B
:1004C000252806D0D4E901219047206A401C2062EB
:1004D000F1E700265F462046E16888472028054668
:1004E00007DB312D05D2781910F8200C08B106432E
:1004F000F1E7B00701D526F00406C4F81CA00027D8
:10050000C4F818A02A2D09D0284607F0B9F938B345
:1005100004EB8708303DC8F8185019E059F8041B5F
:10052000204604EB87029161E1688847012F054668
:1005300018D1E069002820DA26F020061DE0D8F85E
:10054000180000EB800005EB40003038C8F81800B8
:100550002046E1688847054607F092F90028EED169
:10056000012F0AD02E2D08D12046E16888477F1C34
:100570000546022F46F02006C4DBA069002803DAF6
:10058000404246F00106A061F00701D026F01006B7
:100590006C2D0BD0682D09D04C2D39D06A2D35D05B
:1005A000742D35D07A2D33D016E038E0E1682F462F
:1005B00020468847B842054609D16C2F26D04FF413
:1005C0008060E168064320468847054604E06C2FBA
:1005D0001AD04FF4807006430DB3A5F141001928DD
:1005E00002D8203546F400664A4629462046266051
:1005F0004E46FFF723FE80B101280BD0F61D26F0F2
:10060000070000F1080956E74020E4E78020D8E71A
:100610000020D6E706F104094DE7284652E7206A94
:10062000BDE8F09F7CFF000040EA0103024630B5C0
:100630009B0710D14FF0013400E008C208C91D1B10
:100640009D4315EAC41FF8D013F0FF0102F8011B07
:100650000DD01B0AF8E711F8013B002B02F8013B13
:1006600005D011F8013B002B02F8013BF3D130BD5E
:10067000421E12F8013F002BFBD111F8013B002B69
:1006800002F8013BF9D17047032A40F2308010F0A4
:10069000030C00F0158011F8013BBCF1020F62441D
:1006A00098BF11F801CB00F8013B38BF11F8013BAE
:1006B000A2F1040298BF00F801CB38BF00F8013B5B
:1006C00011F0030300F06281083AC0F0088051F88D
:1006D000043B083A51F804CBA0E80810F5E7121DD6
:1006E0005CBF51F8043B40F8043BAFF30080D207F5
:1006F00024BF11F8013B11F801CB48BF11F8012BC1
:1007000024BF00F8013B00F801CB48BF00F8012BE3
:10071000704700004FF0013C50F8042B51F8043BA7
:100720009A4221D1A2EB0C03934313EACC1317D1C5
:1007300050F8042B51F8043B9A4215D1A2EB0C035C
:10074000934313EACC130BD150F8042B51F8043B1C
:100750009A4209D1A2EB0C03934313EACC13DBD0EA
:100760004FF00000704700BFD01A01BAB1FA81F112
:1007700001F0180122FA01F0CB40C1F12001DBB2F7
:10078000C0B2C01A2CFA01F3D11A914311EAC31175
:10079000E6D17047704770477047704753EA020CC4
:1007A00000F069802DE9F04B4FF00006002B1FBFD1
:1007B000B3FA83F503FA05F424FA05F65E4012BF96
:1007C0001643B2FA82F502FA05F4C5F120051EBF00
:1007D00022FA05FC44EA0C04203556EA044C4FEAA0
:1007E000144418BF641C4FF000084FF000099042F9
:1007F00071EB030C39D3002919BFB1FA81F701FA63
:1008000007F6B0FA80F700FA07F6C7F120071EBF17
:1008100020FA07FC46EA0C062037B6FBF4FCA7EBEF
:100820000507103F07F01F0BCBF120060CFA0BFB5E
:100830002CFA06F644BFB3460026202FA4BF5E461E
:100840004FF0000B5BEA060C08BF4FF0010B19EBF1
:100850000B09ABFB027C48EB0608C01B06FB02CC75
:100860000BFB03CC71EB0C01C1E70B460246414682
:100870004846BDE8F08B13B54FF000004FF0000183
:10088000AFF30080BDE81C4070472DE9F0470D46EE
:1008900099469246044600F124080168880604D56A
:1008A000E06921F01001216000E00120A84201DD93
:1008B000471B00E00027A1697A1902EB0900081A1A
:1008C000A0612078C00602D42046FFF731FD002643
:1008D00008E0D4E901211AF806009047206A401C7C
:1008E000761C20624E45F4DB2078C0060AD52046EF
:1008F000FFF71EFD06E0D4E9012130209047206A71
:10090000401C2062381EA7F10107F4DC07E0D4E99F
:10091000012118F805009047206A401C2062281E1B
:10092000A5F10105F3DC2046FFF718FD207800064D
:1009300002D50220BDE8F0870120FBE710B543692E
:1009400013B1AFF3008001E0FFF719FD012010BDE6
:10095000127800F124010A7000224A700122EDE7AA
:1009600011684FF0FF32E9E7074B70B50D467B4445
:1009700000F043F80446284600F052F810B14FF05A
:10098000FF3070BD204670BD6B91000010B5203A5D
:10099000C0F00B80B1E81850203AA0E81850B1E838
:1009A0001850A0E81850BFF4F5AF5FEA027C24BFEE
:1009B000B1E81850A0E8185044BF18C918C0BDE8E5
:1009C00010405FEA827C24BF51F8043B40F8043BAE
:1009D00008BF7047D20728BF31F8023B48BF11F863
:1009E000012B28BF20F8023B48BF00F8012B7047BD
:1009F00001694A1C02610878704700B58FB0CDE9E3
:100A000001310021059105497944CDE903101146D2
:100A10006846FFF745FD0FB000BD0000E5FFFFFF92
:100A2000007B00F080007047754600F02BF8AE4662
:100A300005006946534620F00700854618B020B5EA
:100A4000FFF734FCBDE820404FF000064FF00007F0
:100A50004FF000084FF0000B21F00701AC46ACE866
:100A6000C009ACE8C009ACE8C009ACE8C0098D46D3
:100A7000704710B50446AFF300802046BDE8104033
:100A8000FFF7FCBB00487047BCBE012000224FF4BA
:100A9000803105E00A48006800F0800000B103E002
:100AA000081EA1F10101F5D100BF09B9032070476B
:100AB00040F2FF50024B1B1D18601046F7E7000084
:100AC000342C0140024605E01548016801F045005C
:100AD00000B100E0F8E700BF01F0040028B10420F5
:100AE0000F4B1B1D18600320704701F0010020B15F
:100AF00001200B4B1B1D1860F6E7094824380068DD
:100B0000904201D01020EFE740F2FF50044B1B1D34
:100B1000186003482038006808231840C0B2E3E793
:100B2000342C014010B500204FF4803205E0164B04
:100B3000196801F0450303B103E0131EA2F101029D
:100B4000F5D100BF12B101F004034BB103200E4BED
:100B50001B1D1B6843F004030B4C241D236010BDB8
:100B600001F0010343B10120074B1B1D1B6843F03B
:100B70000103054C241D236040F2FF53024C241D49
:100B8000236000BFEBE70000342C014005E00E4875
:100B9000016801F0450000B100E0F8E700BF01F096
:100BA000040048B10848001D006840F00400064AEF
:100BB000121D10600320704740F2FF50024A121DC0
:100BC00010600020F7E70000342C014070B50346A8
:100BD0000C46002505E02448026802F0450000B1FB
:100BE00000E0F8E700BF02F0040048B11E48001D15
:100BF000006840F004001C4E361D3060032070BDBC
:100C000002F0010048B11848001D006840F00100E2
:100C1000154E361D30600120F1E713482438006876
:100C2000984201D01020EAE740F2FF500E4E361DE8
:100C300030600D482038016801F4604018B9080C94
:100C400020802846DBE701F4005008B11320D6E7E6
:100C500001F4804008B11020D1E701F4004008B150
:100C60000F20CCE72846CAE7342C014010B50020FD
:100C70004FF4803205E0134B196801F0450303B1CE
:100C800003E0131EA2F10102F5D100BF12B101F081
:100C900004034BB103200B4B1B1D1B6843F00403E3
:100CA000084C241D236010BD01F0400343B1002017
:100CB000044B1B1D1B6843F04003024C241D2360A2
:100CC00000BFF0E7342C0140FCB507460D46002676
:100CD000002400200090019008220121102004F03F
:100CE00035FE1020FFF7EEFE04460CB12046FCBD99
:100CF0003A040121372004F029FE3720FFF7E2FEF5
:100D000004460CB12046F2E7012303220821101FFC
:100D100004F032FE00220121332004F017FE3320BC
:100D2000FFF7D0FE04460CB12046E0E70DE03C485A
:100D3000006800F4001040B139484C3000684DF8AC
:100D40002600761C022E00D306E03548006840F2EB
:100D50002A6108400028EAD000BF3148006800F04E
:100D6000080048B12E48001D006840F008002C49DA
:100D7000091D08600420BAE72948006800F0020055
:100D800048B12748001D006840F002002449091DB1
:100D900008600220ABE72248006800F0200048B15C
:100DA0001F48001D006840F020001D49091D086013
:100DB00006209CE71A48006800F4007048B1184803
:100DC000001D006840F400701549091D08600720E7
:100DD0008DE740F2FF501249091D08600098000697
:100DE000009901F47F4140EA0120009901F47F015C
:100DF00040EA1120009940EA1160686001980006FD
:100E0000019901F47F4140EA0120019901F47F0139
:100E100040EA1120019940EA11602860204666E707
:100E2000342C014030B5CC1000F1200353F82430AD
:100E30004C07E50E0F24AC40A343CD1000F1200475
:100E400044F82530CC1000F1200353F824304C072F
:100E5000E40E02FA04F42343CD1000F1200444F818
:100E6000253030BD2DE9F0470C46DDE9086700214B
:100E700000258C4600BF60E04FF0010808FA01F53C
:100E800004EA050CAC4557D1D0F800804FEA410A7E
:100E90004FF0030909FA0AF928EA0908C0F80080A6
:100EA000D0F800804FEA410902FA09F948EA090836
:100EB000C0F80080012A01D0022A27D1D0F808808A
:100EC0004FEA410A4FF0030909FA0AF928EA09082A
:100ED000C0F80880D0F808804FEA410906FA09F9FD
:100EE00048EA0908C0F80880D0F804904FF00108DB
:100EF00008FA01F829EA0809C0F80490D0F804803B
:100F000003FA01F948EA0908C0F80480D0F80C8017
:100F10004FEA410A4FF0030909FA0AF928EA0908D9
:100F2000C0F80C80D0F80C804FEA410907FA09F9A3
:100F300048EA0908C0F80C80491C10299CD3BDE878
:100F4000F08700002DE9F05F82460F4614462046E8
:100F5000E21704EB5272D2102146E31704EB5373ED
:100F6000DB10A4EBC3030BB1012300E000231A4400
:100F7000624302F0FF099AF800600AF1010082461C
:100F80000578812E05DB402D03DBFF2D01D0FF2EE0
:100F90000DD14FF0000B06E0002007F8010B0BF11C
:100FA000010000F0FF0BCB45F6DBBDE8F09F7F2D85
:100FB00003DAA5F14000C5B202E0A5F14100C5B2D7
:100FC000A6F18100C6B2BE2010FB065000FB09F856
:100FD0000C2C04D0102C0CD0182C1ED113E010486F
:100FE000D0F8090000EB08014A46384606F022FB1B
:100FF00013E00B48D0F8110000EB08014A463846D0
:1010000006F018FB09E00648D0F8190000EB0801CB
:101010004A46384606F00EFB00BF00BF00BFC4E7DB
:101020005CBE012072B6704762B670471CB50446BC
:1010300000200190009022480088020401210D2028
:1010400004F084FC1F480068009002E01D4800681E
:101050000090009800F045000028F7D0009800F0BC
:10106000010048B11748001D006840F00100154913
:10107000091D086001201CBD009800F0040048B163
:101080001048001D006840F004000E49091D08606A
:101090000320F0E70B48243800680D2801D0102009
:1010A000E9E740F2FF500749091D0860054820386C
:1010B000006801900198C0F3432020700020DAE717
:1010C00014000020342C01401CB50848006840F092
:1010D000100006490860012000210B460A46CDE9B0
:1010E000001040210248FFF7BDFE1CBD3038024011
:1010F0000010024010B5044614B101200D490870DB
:101100000C48007868B10C48006850B90A2007F014
:10111000B3F90020074908700748006838B9012072
:1011200010BD05480068012801D10249087000205F
:10113000F6E700000E0000201802424230B50146DA
:1011400001F01F04C1F34513CA0AE50205EB43157C
:101150001544A8B230BD000070B5044600261748FB
:101160000588408845431548808846F60401884232
:1011700016D112488079012812D100200F498871B8
:101180002A2048812B2088810021084604F050F94C
:1011900001200A4988712B2048812A20888103E098
:1011A0000021084604F044F904F0F6FA002602E0B3
:1011B00003480480761CAE42FAD370BD7002002052
:1011C0000008006C2DE9F84F07460D4690469946F9
:1011D000DDF828B0A8EB0700401C1FFA80FAA9EB45
:1011E0000500401C80B20090002414E0281981B250
:1011F000384604F01DF904F0CFFA002607E004FB9E
:101200000A603BF8100006490880701C86B25645FB
:10121000F5DB601C84B200988442E7DBBDE8F88F00
:101220000008006C10B50446002C66D16C4988712A
:10123000F02008804FF4A07048800846808849F26A
:10124000413188420BD06648808846F604018842C6
:1012500005D06348808845F2103188421AD12C208D
:101260005F4908812A2048812B2088810846808890
:1012700046F60401884205D05948808845F210316D
:10128000884206D14FF4A070554908804FF4F070A1
:101290004880A1E05248808845F21051884210D120
:1012A0004FF430504E4908814FF4285048814FF494
:1012B0002C5088814FF4F07008804FF448704880BB
:1012C0008AE04748808841F6631188420DD12C207E
:1012D000434908812B2048812A2088814FF4F070EF
:1012E00008804FF44870488076E022203C4908810D
:1012F00020204881212088816EE0012038498871B2
:101300004FF4A0700880F02048800846808849F299
:101310004131884205D03248808845F210318842F8
:1013200007D12C202E4908812A2048812B20888132
:101330003FE02B48808846F60401884207D12C20E4
:10134000274908812B2048812A20888131E02448C0
:10135000808845F21051884210D14FF43050204916
:1013600008814FF4285048814FF42C5088814FF465
:10137000487008804FF4F07048801AE01848808860
:1013800041F6631188420DD12C20154908812A208D
:1013900048812B2088814FF4487008804FF4F0700A
:1013A000488006E022200E49088121204881202023
:1013B00088810B48808846F60401884205D0084899
:1013C000808845F21031884206D14FF4F07004490C
:1013D00008804FF4A0704880002003F0B3FE10BDD9
:1013E0007002002070B504460D4616465A488088A3
:1013F00049F24131884205D05748808845F2103182
:10140000884214D15449488904F0BAF9201204F0F2
:10141000ABF9E0B204F0A8F94F49888904F0B0F9BB
:10142000281204F0A1F9E8B204F09EF98CE04A48D1
:10143000808845F21051884220D14749488904F0FC
:101440009FF9201204F090F943494989491C88B258
:1014500004F096F9E0B204F087F93F49888904F076
:101460008FF9281204F080F93B498989491C88B218
:1014700004F086F9E8B204F077F965E03648808830
:1014800041F66311884228D13348807920B9324827
:101490000088401E001B84B22F49488904F070F96F
:1014A000201204F061F9E0B204F05EF9201204F0B9
:1014B0005BF9E0B204F058F92749888904F060F933
:1014C000281204F051F9E8B204F04EF9281204F0A1
:1014D0004BF9E8B204F048F936E01F48808846F638
:1014E000040188421DD11C488079012804D11A4882
:1014F0000088401E001B84B21749488904F040F957
:10150000201204F031F9E0B204F02EF91249888972
:1015100004F036F9281204F027F9E8B204F024F9AF
:1015200012E00D488079012804D10B480088401E44
:10153000001B84B208494889214604F037F906495E
:101540008889294604F032F9034800890349088054
:10155000881C068070BD000070020020FE07006C31
:101560002DE9FC4F05460E4617469846DDF82C90AF
:10157000002001902748808846F60401884229D13E
:1015800024488079012825D1AB463546214800887A
:10159000C01B401E86B247461E480088A0EB0B00C9
:1015A000401E1FFA80F800201A4988712A204881BD
:1015B0002B20888143463A4631462846CDF8009094
:1015C000FFF7CEFF0120134988712B2048812A2084
:1015D00088811CE0781B401C80B20190344614E0E6
:1015E0002146284603F024FF04F0D6F84FF0000A05
:1015F00006E00948A0F800900AF101001FFA80FAFD
:1016000001988245F5DB601C84B24445E8DDBDE805
:10161000FC8F0000700200200008006C1CB5FE4822
:10162000006840F07800FC4908600846006840F017
:1016300004000860F8480830006840F00100F649EE
:10164000083108600120022100230246CDE9001084
:101650008021F248FFF706FC01200321002302222B
:10166000CDE900104CF23371ED48FFF7FBFB012090
:10167000032100230222CDE900104FF68071E948D2
:10168000FFF7F0FB0120032100230222CDE9001027
:101690000146E548FFF7E6FB012003210023022273
:1016A000CDE900100103E048FFF7DCFB0C2200212C
:1016B000DB48FFF7B7FB0C220121D948FFF7B2FB4B
:1016C0000C220421D648FFF7ADFB0C220521D4489B
:1016D000FFF7A8FB0C220821D148FFF7A3FB0C223F
:1016E0000921CF48FFF79EFB0C220A21CC48FFF7C7
:1016F00099FB0C220E21CA48FFF794FB0C220F2104
:10170000C748FFF78FFB0C220721C648FFF78AFB6B
:101710000C220821C348FFF785FB0C220921C14890
:10172000FFF780FB0C220A21BE48FFF77BFB0C224F
:101730000B21BC48FFF776FB0C221146B948FFF796
:1017400071FB0C220D21B748FFF76CFB0C220E2118
:10175000B448FFF767FB0C220F21B248FFF762FB8A
:101760000C220021B048FFF75DFB0C221146AE4869
:10177000FFF758FB00204FF020418861C861AB495A
:1017800008604FF02040806940F480504FF02041C5
:1017900088610846806940F4804088610846806915
:1017A00040F0100088610846C069C8610846C069F9
:1017B00040F00F00C8610846C06940F47050C8612D
:1017C0009A480068C1F81C010846D0F81C0140F096
:1017D0000900C1F81C010846D0F81C0140F4006063
:1017E000C1F81C010846806940F001008861322080
:1017F00006F042FE0121002003F0D8FF322006F05F
:101800003BFE002003F062FC8949888008468088FE
:10181000FF280ADB084680884FF6FF71884204D013
:1018200083488088B0F5134F7ED1D32003F0A8FF02
:1018300003F08CFB7E49888003F088FB7C4988801C
:1018400003F084FB7A498880084680884FF6FF7150
:1018500001EA00207649888003F078FB7449898882
:101860000843734988800846808849F2413188429C
:101870005AD0BF2003F084FF03F068FB6C498880D6
:1018800003F064FB6A49888003F060FB6849888044
:1018900003F05CFB66498880084680884FF6FF713C
:1018A00001EA00206249888003F050FB6049898882
:1018B00008435F4988800846808846F604018842CC
:1018C0007AD0D42003F05CFF03F040FB58498880B5
:1018D00003F03CFB5649888003F038FB544988806C
:1018E000084680884FF6FF7101EA00205049888041
:1018F00003F02CFB4E49898808434D4988800846EF
:10190000808845F21031884256D04FF45A4003F097
:1019100037FF03F01BFB464988804FF45B4003F020
:101920002FFF03F013FB00E046E0414988800846A2
:1019300080884FF6FF7101EA00203D4988804FF40E
:101940005C4003F01DFF03F001FB3949898808431F
:101950003749888008468088B0F5004F02D145F2AB
:10196000105088803248808845F21051884223D038
:10197000A12003F005FF03F0E9FA2D49888003F068
:10198000E5FA2B498880084680884FF6FF7101EA06
:1019900000202749888003F0D9FA2549898808431F
:1019A000234988800846808845F26171884203D1C6
:1019B00041F663101E4988801D48808849F24131F4
:1019C000884211D01A48808845F2103188420BD0E5
:1019D0001748808845F21051884205D01448808805
:1019E00041F6631188422CD11048006820F00F00A6
:1019F0004FF02041C1F81C010846D0F81C0120F42A
:101A00007060C1F81C010846D0F81C0140F00300CA
:101A1000C1F81C0108460DE03038024000080240C1
:101A2000000C024000100240001802401C0100A0FF
:101A300070020020D0F81C0140F40070C1F81C01B5
:101A400028E0FE48808846F60401884205D0FB481D
:101A500080884CF2055188421CD1F948006820F07A
:101A60000F004FF02041C1F81C010846D0F81C01BE
:101A700020F47060C1F81C010846D0F81C0140F049
:101A80000A00C1F81C010846D0F81C0140F440606F
:101A9000C1F81C01E9488188EAA0FEF73DFCE7484F
:101AA000808849F2413188427ED1CF2003F068FE20
:101AB000002003F059FEC12003F056FE302003F051
:101AC00053FEED2003F05CFE642003F04DFE032086
:101AD00003F04AFE122003F047FE812003F044FE8B
:101AE000E82003F04DFE852003F03EFE102003F0B9
:101AF0003BFE7A2003F038FECB2003F041FE392074
:101B000003F032FE2C2003F02FFE002003F02CFE09
:101B1000342003F029FE022003F026FEF72003F014
:101B20002FFE202003F020FEEA2003F029FE0020F3
:101B300003F01AFE002003F017FEC02003F020FE81
:101B40001B2003F011FEC12003F01AFE012003F058
:101B50000BFEC52003F014FE302003F005FE3020FC
:101B600003F002FEC72003F00BFEB72003F0FCFDDC
:101B7000362003F005FE482003F0F6FD3A2003F07E
:101B8000FFFD552003F0F0FDB12003F0F9FD00202A
:101B900003F0EAFD1A2003F0E7FDB62003F0F0FDA4
:101BA0000A2003F0E1FD00E097E0A22003F0DCFD55
:101BB000F22003F0E5FD002003F0D6FD262003F01F
:101BC000DFFD012003F0D0FDE02003F0D9FD0F2060
:101BD00003F0CAFD2A2003F0C7FD282003F0C4FD4E
:101BE000082003F0C1FD0E2003F0BEFD082003F025
:101BF000BBFD542003F0B8FDA92003F0B5FD432040
:101C000003F0B2FD0A2003F0AFFD0F2003F0ACFD9E
:101C1000002003F0A9FD002003F0A6FD002003F042
:101C2000A3FD002003F0A0FDE12003F0A9FD0020AA
:101C300003F09AFD152003F097FD172003F094FDA3
:101C4000072003F091FD112003F08EFD062003F024
:101C50008BFD2B2003F088FD562003F085FD3C20F2
:101C600003F082FD052003F07FFD102003F07CFDD2
:101C70000F2003F079FD3F2003F076FD3F2003F0B5
:101C800073FD0F2003F070FD2B2003F079FD002081
:101C900003F06AFD002003F067FD012003F064FDFE
:101CA0003F2003F061FD2A2003F06AFD002003F0CD
:101CB0005BFD002003F058FD002003F055FDEF20F0
:101CC00003F052FD112003F05BFD782006F0D4FBF9
:101CD000292003F055FD03F029B95848808846F6BD
:101CE000040188427ED1112003F04AFD142006F041
:101CF000C3FBD02003F044FD072003F035FD422054
:101D000003F032FD1D2003F02FFDD12003F038FD3C
:101D1000002003F029FD1A2003F026FD092003F01E
:101D200023FDD22003F02CFD012003F01DFD222015
:101D300003F01AFDC02003F023FD102003F014FD72
:101D40003B2003F011FD002003F00EFD022003F004
:101D50000BFD112003F008FDC52003F011FD032049
:101D600003F002FDC82003F00BFD002003F0FCFC93
:101D7000252003F0F9FC212003F0F6FC052003F0F8
:101D8000F3FC002003F0F0FC0A2003F0EDFC6520DA
:101D900003F0EAFC252003F0E7FC772003F0E4FCE5
:101DA000502003F0E1FC0F2003F0DEFC002003F0E4
:101DB000DBFCF82003F0E4FC012003F0D5FCFE205E
:101DC00003F0DEFC002003F0CFFC022003F0CCFC8B
:101DD000202003F0D5FC362003F0D2FC082003F0CD
:101DE000C3FC00E036E03A2003F0CAFC552003F0C3
:101DF000BBFC2B2003F0C4FC002003F0B5FC00204A
:101E000003F0B2FC012003F0AFFC3F2003F0ACFC78
:101E10002A2003F0B5FC002003F0A6FC002003F00C
:101E2000A3FC012003F0A0FCDF2003F09DFC782040
:101E300006F022FB292003F0A3FC4CE770020020EF
:101E40001C0100A0204C43442049443A25780D0A47
:101E500000000000FE48808845F21031884240F0C2
:101E60007C87ED2003F08CFC012003F07DFCFE203C
:101E700003F07AFCEE2003F083FCDE2003F074FC18
:101E8000212003F071FCF12003F07AFC012003F023
:101E90006BFCDF2003F074FC102003F065FCC42011
:101EA00003F06EFC8F2003F05FFCC62003F068FC9B
:101EB000002003F059FCE22003F056FCE22003F07E
:101EC00053FCE22003F050FCBF2003F059FCAA2091
:101ED00003F04AFCB02003F053FC0D2003F044FC57
:101EE000002003F041FC0D2003F03EFC002003F035
:101EF0003BFC112003F038FC002003F035FC1920D6
:101F000003F032FC002003F02FFC212003F02CFC16
:101F1000002003F029FC2D2003F026FC002003F014
:101F200023FC3D2003F020FC002003F01DFC5D207D
:101F300003F01AFC002003F017FC5D2003F014FCF2
:101F4000002003F011FCB12003F01AFC802003F004
:101F50000BFC002003F008FC8B2003F005FC0020A4
:101F600003F002FC962003F0FFFB002003F0FCFBD3
:101F7000B22003F005FC002003F0F6FB002003F084
:101F8000F3FB022003F0F0FB002003F0EDFB032045
:101F900003F0EAFB002003F0E7FBB32003F0F0FBC3
:101FA000002003F0E1FB002003F0DEFB002003F043
:101FB000DBFB002003F0D8FB002003F0D5FB002062
:101FC00003F0D2FB002003F0CFFB002003F0CCFB9A
:101FD000002003F0C9FB002003F0C6FB002003F043
:101FE000C3FB002003F0C0FB002003F0BDFB00207A
:101FF00003F0BAFB002003F0B7FB002003F0B4FBB2
:10200000002003F0B1FB002003F0AEFB002003F042
:10201000ABFB002003F0A8FB002003F0A5FB002091
:1020200003F0A2FB002003F09FFB002003F09CFBC9
:10203000B42003F0A5FB8B2003F096FB002003F0F7
:1020400093FB962003F090FB002003F08DFBA12072
:1020500003F08AFB002003F087FBB52003F090FB20
:10206000022003F081FB002003F07EFB032003F03D
:102070007BFB002003F078FB042003F075FB0020BD
:1020800003F072FBB62003F07BFB002003F06CFB37
:10209000002003F069FBB72003F072FB002003F07F
:1020A00063FB002003F060FB3F2003F05DFB00209A
:1020B00003F05AFB5E2003F057FB002003F054FBB3
:1020C000642003F051FB002003F04EFB8C2003F052
:1020D0004BFB002003F048FBAC2003F045FB002045
:1020E00003F042FBDC2003F03FFB002003F03CFB4D
:1020F000702003F039FB002003F036FB902003F042
:1021000033FB002003F030FBEB2003F02DFB00201D
:1021100003F02AFBDC2003F027FB002003F024FB64
:10212000B82003F02DFB002003F01EFB002003F07D
:102130001BFB002003F018FB002003F015FB002020
:1021400003F012FB002003F00FFB002003F00CFB58
:10215000002003F009FBBA2003F012FB242003F057
:1021600003FB002003F000FB002003F0FDFA002039
:1021700003F0FAFAC12003F003FB202003F0F4FA85
:10218000002003F0F1FA542003F0EEFA002003F0EF
:10219000EBFAFF2003F0E8FA002003F0E5FAC22092
:1021A00003F0EEFA0A2003F0DFFA002003F0DCFA75
:1021B000042003F0D9FA002003F0D6FAC32003F07C
:1021C000DFFA3C2003F0D0FA002003F0CDFA3A20E9
:1021D00003F0CAFA002003F0C7FA392003F0C4FA6A
:1021E000002003F0C1FA372003F0BEFA002003F00C
:1021F000BBFA3C2003F0B8FA002003F0B5FA362011
:1022000003F0B2FA002003F0AFFA322003F0ACFA88
:10221000002003F0A9FA2F2003F0A6FA002003F013
:10222000A3FA2C2003F0A0FA002003F09DFA292045
:1022300003F09AFA002003F097FA262003F094FAAC
:10224000002003F091FA242003F08EFA002001E030
:102250007002002003F088FA242003F085FA0020A1
:1022600003F082FA232003F07FFA002003F07CFAC7
:102270003C2003F079FA002003F076FA362003F0D0
:1022800073FA002003F070FA322003F06DFA002098
:1022900003F06AFA2F2003F067FA002003F064FAD3
:1022A0002C2003F061FA002003F05EFA292003F0ED
:1022B0005BFA002003F058FA262003F055FA0020BC
:1022C00003F052FA242003F04FFA002003F04CFAF6
:1022D000242003F049FA002003F046FA232003F0FB
:1022E00043FA002003F040FAC42003F049FA6220C8
:1022F00003F03AFA002003F037FA052003F034FA2D
:10230000002003F031FA842003F02EFA002003F0BD
:102310002BFAF02003F028FA002003F025FA182009
:1023200003F022FA002003F01FFAA42003F01CFAA5
:10233000002003F019FA182003F016FA002003F029
:1023400013FA502003F010FA002003F00DFA0C20CD
:1023500003F00AFA002003F007FA172003F004FA4A
:10236000002003F001FA952003F0FEF9002003F0AD
:10237000FBF9F32003F0F8F9002003F0F5F9E6206B
:1023800003F0F2F9002003F0EFF9C52003F0F8F9AB
:10239000322003F0E9F9002003F0E6F9442003F0CD
:1023A000E3F9002003F0E0F9652003F0DDF90020F7
:1023B00003F0DAF9762003F0D7F9002003F0D4F91E
:1023C000882003F0D1F9002003F0CEF9C62003F0F5
:1023D000D7F9202003F0C8F9002003F0C5F9172031
:1023E00003F0C2F9002003F0BFF9012003F0BCF9AB
:1023F000002003F0B9F9C72003F0C2F9002003F070
:10240000B3F9002003F0B0F9002003F0ADF900208B
:1024100003F0AAF9C82003F0B3F9002003F0A4F9EF
:10242000002003F0A1F9002003F09EF9002003F042
:102430009BF9C92003F0A4F9002003F095F90020CE
:1024400003F092F9002003F08FF9002003F08CF9DB
:10245000002003F089F9002003F086F9002003F042
:1024600083F9002003F080F9002003F07DF90020BB
:1024700003F07AF9002003F077F9002003F074F9F3
:10248000002003F071F9002003F06EF9002003F042
:102490006BF9002003F068F9E02003F071F91620D1
:1024A00003F062F9002003F05FF91C2003F05CF9EF
:1024B000002003F059F9212003F056F9002003F021
:1024C00053F9362003F050F9002003F04DF946206F
:1024D00003F04AF9002003F047F9522003F044F9D1
:1024E000002003F041F9642003F03EF9002003F0DE
:1024F0003BF97A2003F038F9002003F035F98B20FE
:1025000003F032F9002003F02FF9992003F02CF9A1
:10251000002003F029F9A82003F026F9002003F099
:1025200023F9B92003F020F9002003F01DF9C4209D
:1025300003F01AF9002003F017F9CA2003F014F988
:10254000002003F011F9D22003F00EF9002003F06F
:102550000BF9D92003F008F9002003F005F9E02079
:1025600003F002F9002003F0FFF8F32003F0FCF879
:10257000002003F0F9F8E12003F002F9162003F03F
:10258000F3F8002003F0F0F81C2003F0EDF8002031
:1025900003F0EAF8222003F0E7F8002003F0E4F863
:1025A000362003F0E1F8002003F0DEF8452003F0C8
:1025B000DBF8002003F0D8F8522003F0D5F8002013
:1025C00003F0D2F8642003F0CFF8002003F0CCF839
:1025D0007A2003F0C9F8002003F0C6F88B2003F03E
:1025E000C3F8002003F0C0F8992003F0BDF80020E4
:1025F00003F0BAF8A82003F0B7F8002003F0B4F80D
:10260000B92003F0B1F8002003F0AEF8C42003F0C5
:10261000ABF8002003F0A8F8CA2003F0A5F80020CA
:1026200003F0A2F8D22003F09FF8002003F09CF8FA
:10263000D82003F099F8002003F096F8E02003F08A
:1026400093F8002003F090F8F32003F08DF80020B9
:1026500003F08AF8E22003F093F8052003F084F8F1
:10266000002003F081F80B2003F07EF8002003F037
:102670007BF81B2003F078F8002003F075F8342075
:1026800003F072F8002003F06FF8442003F06CF8B8
:10269000002003F069F84F2003F066F8002003F0F3
:1026A00063F8612003F060F8002003F05DF8792002
:1026B00003F05AF8002003F057F8882003F054F88C
:1026C000002003F051F8972003F04EF8002003F0AB
:1026D0004BF8A62003F048F8002003F045F8B72097
:1026E00003F042F8002003F03FF8C22003F03CF86A
:1026F000002003F039F8C72003F036F8002003F07B
:1027000033F8D12003F030F8002003F02DF8D62064
:1027100003F02AF8002003F027F8DD2003F024F866
:10272000002003F021F8F32003F01EF8002003F04E
:102730001BF8E32003F024F8052003F015F800202F
:1027400003F012F80A2003F00FF8002003F00CF851
:102750001C2003F009F8002003F006F8332003F0F2
:1027600003F8002003F000F8442002F0FDFF0020F1
:1027700002F0FAFF502002F0F7FF002002F0F4FF11
:10278000622002F0F1FF002002F0EEFF782002F05C
:10279000EBFF002002F0E8FF882002F0E5FF0020B8
:1027A00002F0E2FF972002F0DFFF002002F0DCFFE2
:1027B000A62002F0D9FF002002F0D6FFB72002F0D9
:1027C000D3FF002002F0D0FFC22002F0CDFF002096
:1027D00002F0CAFFC72002F0C7FF002002F0C4FFCA
:1027E000D12002F0C1FF002002F0BEFFD52002F090
:1027F000BBFF002002F0B8FFDD2002F0B5FF002093
:1028000002F0B2FFF32002F0AFFF002002F0ACFFB5
:10281000E42002F0B5FF012002F0A6FF002002F044
:10282000A3FF012002F0A0FF002002F09DFF022084
:1028300002F09AFF002002F097FF2A2002F094FF96
:10284000002002F091FF3C2002F08EFF002002F0F9
:102850008BFF4B2002F088FF002002F085FF5D20F7
:1028600002F082FF002002F07FFF742002F07CFF64
:10287000002002F079FF842002F076FF002002F0B1
:1028800073FF932002F070FF002002F06DFFA22082
:1028900002F06AFF002002F067FFB32002F064FF3D
:1028A000002002F061FFBE2002F05EFF002002F077
:1028B0005BFFC42002F058FF002002F055FFCD203E
:1028C00002F052FF002002F04FFFD32002F04CFF35
:1028D000002002F049FFDD2002F046FF002002F058
:1028E00043FFF32002F040FF002002F03DFFE5200F
:1028F00002F046FF002002F037FF002002F034FF14
:10290000002002F031FF002002F02EFF022002F032
:102910002BFF002002F028FF292002F025FF0020D5
:1029200002F022FF3C2002F01FFF002002F01CFFFB
:102930004B2002F019FF002002F016FF5D2002F08C
:1029400013FF002002F010FF742002F00DFF0020A2
:1029500002F00AFF842002F007FF002002F004FFCB
:10296000932002F001FF002002F0FEFEA22002F000
:10297000FBFE002002F0F8FEB32002F0F5FE00207E
:1029800002F0F2FEBE2002F0EFFE002002F0ECFEAC
:10299000C42002F0E9FE002002F0E6FECD2002F0A5
:1029A000E3FE002002F0E0FED32002F0DDFE002076
:1029B00002F0DAFEDC2002F0D7FE002002F0D4FEA6
:1029C000F32002F0D1FE002002F0CEFEE62002F05D
:1029D000D7FE112002F0C8FE002002F0C5FE342010
:1029E00002F0C2FE002002F0BFFE562002F0BCFE44
:1029F000002002F0B9FE762002F0B6FE002002F0C0
:102A0000B3FE772002F0B0FE002002F0ADFE66209B
:102A100002F0AAFE002002F0A7FE882002F0A4FE29
:102A2000002002F0A1FE992002F09EFE002002F09C
:102A30009BFEBB2002F098FE002002F095FE99203C
:102A400002F092FE002002F08FFE662002F08CFE63
:102A5000002002F089FE552002F086FE002002F0E0
:102A600083FE552002F080FE002002F07DFE45200E
:102A700002F07AFE002002F077FE432002F074FE9E
:102A8000002002F071FE442002F06EFE002002F0F1
:102A90006BFEE72002F074FE322002F065FE00209B
:102AA00002F062FE552002F05FFE002002F05CFEA4
:102AB000762002F059FE002002F056FE662002F059
:102AC00053FE002002F050FE672002F04DFE002071
:102AD00002F04AFE672002F047FE002002F044FEAA
:102AE000872002F041FE002002F03EFE992002F015
:102AF0003BFE002002F038FEBB2002F035FE002035
:102B000002F032FE992002F02FFE002002F02CFE8F
:102B1000772002F029FE002002F026FE442002F079
:102B200023FE002002F020FE562002F01DFE0020B1
:102B300002F01AFE232002F017FE002002F014FE1D
:102B4000332002F011FE002002F00EFE452002F0BC
:102B50000BFE002002F008FEE82002F011FE00202B
:102B600002F002FE002002F0FFFD992002F0FCFDC1
:102B7000002002F0F9FD872002F0F6FD002002F0AF
:102B8000F3FD882002F0F0FD002002F0EDFD77203B
:102B900002F0EAFD002002F0E7FD662002F0E4FD0D
:102BA000002002F0E1FD882002F0DEFD002002F0AE
:102BB000DBFDAA2002F0D8FD002002F0D5FDBB20ED
:102BC00002F0D2FD002002F0CFFD992002F0CCFDF2
:102BD000002002F0C9FD662002F0C6FD002002F0D0
:102BE000C3FD552002F0C0FD002002F0BDFD5520C0
:102BF00002F0BAFD002002F0B7FD442002F0B4FD5F
:102C0000002002F0B1FD442002F0AEFD002002F0F1
:102C1000ABFD552002F0A8FD002002F0A5FDE92043
:102C200002F0AEFDAA2002F09FFD002002F09CFD04
:102C3000002002F099FD002002F096FD002002F035
:102C40009FFDAA2002F090FDCF2002F099FD002008
:102C500002F08AFD002002F087FD002002F084FDD2
:102C6000002002F081FD002002F07EFD002002F035
:102C70007BFD002002F078FD002002F075FD0020B1
:102C800002F072FD002002F06FFD002002F06CFDEA
:102C9000002002F069FD002002F066FD002002F035
:102CA00063FD002002F060FD002002F05DFD0020C9
:102CB00002F05AFDF02002F063FD002002F054FD06
:102CC000502002F051FD002002F04EFD002002F0E5
:102CD0004BFD002002F048FDF32002F051FD0020E2
:102CE00002F042FDF92002F04BFD062002F03CFD0F
:102CF000102002F039FD292002F036FD002002F0FC
:102D000033FD3A2002F03CFD552002F02DFD11204C
:102D100002F036FD642005F0AFFB292002F030FD03
:102D2000352002F02DFD002002F01EFD512002F0A2
:102D300027FDFF2002F018FD532002F021FD2C207A
:102D400002F012FD552002F01BFD822002F00CFD66
:102D50002C2002F015FD02F0E9B8FE48808845F20B
:102D6000105188427ED155214FF4704002F01EFD73
:102D7000AA214FF2010002F019FD52214FF2020088
:102D800002F014FD08214FF2030002F00FFD0121B3
:102D90004FF2040002F00AFD0D214FF4304002F022
:102DA00005FD0D214BF2010002F000FD0D214BF25B
:102DB000020002F0FBFC34214FF4364002F0F6FC36
:102DC00034214BF2016002F0F1FC34214BF202603D
:102DD00002F0ECFC0D214FF4314002F0E7FC0D2134
:102DE0004BF2011002F0E2FC0D214BF2021002F056
:102DF000DDFC34214FF4374002F0D8FC34214BF293
:102E0000017002F0D3FC34214BF2027002F0CEFCD0
:102E100000214FF4324002F0C9FC00214BF20120A6
:102E200002F0C4FC00214BF2022002F0BFFC24217E
:102E30004FF4384002F0BAFC24214BF6010002F0B6
:102E4000B5FC24214BF6020002F0B0FC01214FF446
:102E50003F4002F0ABFC0F214FF4334002F0A6FCE0
:102E60000F2100E0FEE34BF2013002F09FFC0F2146
:102E70004BF2023002F09AFC34214FF4394002F058
:102E800095FC34214BF6011002F090FC34214BF6F6
:102E9000021002F08BFC08214FF4354002F086FC52
:102EA00008214BF2015002F081FC08214BF2025044
:102EB00002F07CFC03214FF4424002F077FC242115
:102EC0004FF43A4002F072FC24214BF6012002F04C
:102ED0006DFC24214BF6022002F068FC00214FF427
:102EE0003C4002F063FC78214BF6014002F05EFCAE
:102EF00000214BF6024002F059FC00214FF43D4006
:102F000002F054FC78214BF6015002F04FFC0021F6
:102F10004BF6025002F04AFC00214FF43E4002F012
:102F200045FC64214BF6016002F040FC00214FF4A7
:102F3000514002F03BFC33214DF2011002F036FC0F
:102F400000214DF2021002F031FC34214DF2031049
:102F500002F02CFC00214DF2041002F027FC3A2173
:102F60004DF2051002F022FC00214DF2061002F095
:102F70001DFC4A214DF2071002F018FC00214DF211
:102F8000081002F013FC5C214DF2091002F00EFC57
:102F900000214DF20A1002F009FC81214DF20B10C4
:102FA00002F004FC00214DF20C1002F0FFFBA62100
:102FB0004DF20D1002F0FAFB00214DF20E1002F05E
:102FC000F5FBE5214DF20F1002F0F0FB01214DF26F
:102FD000101002F0EBFB13214DF2111002F0E6FB92
:102FE00001214DF2121002F0E1FB54214DF21310B9
:102FF00002F0DCFB01214DF2141002F0D7FB82211C
:103000004DF2151002F0D2FB01214DF2161002F024
:10301000CDFBCA214DF2171002F0C8FB02214DF280
:10302000181002F0C3FB00214DF2191002F0BEFB94
:1030300002214DF21A1002F0B9FB01214DF21B10D2
:1030400002F0B4FB02214DF21C1002F0AFFB342160
:103050004DF21D1002F0AAFB02214DF21E1002F0EB
:10306000A5FB67214DF21F1002F0A0FB02214DF2DB
:10307000201002F09BFB84214DF2211002F096FB00
:1030800002214DF2221002F091FBA4214DF22310F7
:1030900002F08CFB02214DF2241002F087FBB721D5
:1030A0004DF2251002F082FB02214DF2261002F0B3
:1030B0007DFBCF214DF2271002F078FB02214DF26B
:1030C000281002F073FBDE214DF2291002F06EFB96
:1030D00002214DF22A1002F069FBF2214DF22B1071
:1030E00002F064FB02214DF22C1002F05FFBFE2186
:1030F0004DF22D1002F05AFB03214DF22E1002F07A
:1031000055FB10214DF22F1002F050FB03214DF220
:10311000301002F04BFB33214DF2311002F046FB30
:1031200003214DF2321002F041FB6D214DF23310BC
:1031300002F03CFB00214FF4524002F037FB3321F8
:103140004DF2012002F032FB00214DF2022002F08C
:103150002DFB01E07002002034214DF2032002F02B
:1031600025FB00214DF2042002F020FB3A214DF214
:10317000052002F01BFB00214DF2062002F016FB99
:103180004A214DF2072002F011FB00214DF20820E8
:1031900002F00CFB5C214DF2092002F007FB00213C
:1031A0004DF20A2002F002FB81214DF20B2002F0C9
:1031B000FDFA00214DF20C2002F0F8FAA6214DF2A2
:1031C0000D2002F0F3FA00214DF20E2002F0EEFA8B
:1031D000E5214DF20F2002F0E9FA01214DF2102015
:1031E00002F0E4FA13214DF2112002F0DFFA01217E
:1031F0004DF2122002F0DAFA54214DF2132002F0BF
:10320000D5FA01214DF2142002F0D0FA82214DF2BC
:10321000152002F0CBFA01214DF2162002F0C6FA79
:10322000CA214DF2172002F0C1FA02214DF21820F6
:1032300002F0BCFA00214DF2192002F0B7FA022187
:103240004DF21A2002F0B2FA01214DF21B2002F0D9
:10325000ADFA02214DF21C2002F0A8FA34214DF201
:103260001D2002F0A3FA02214DF21E2002F09EFA68
:1032700067214DF21F2002F099FA02214DF2202021
:1032800002F094FA84214DF2212002F08FFA0221FB
:103290004DF2222002F08AFAA4214DF2232002F0FE
:1032A00085FA02214DF2242002F080FAB7214DF276
:1032B000252002F07BFA02214DF2262002F076FA58
:1032C000CF214DF2272002F071FA02214DF2282081
:1032D00002F06CFADE214DF2292002F067FA022199
:1032E0004DF22A2002F062FAF2214DF22B2002F078
:1032F0005DFA02214DF22C2002F058FAFE214DF227
:103300002D2002F053FA03214DF22E2002F04EFA46
:1033100010214DF22F2002F049FA03214DF2302006
:1033200002F044FA33214DF2312002F03FFA03213A
:103330004DF2322002F03AFA6D214DF2332002F0C4
:1033400035FA00214FF4534002F030FA33214DF2A8
:10335000013002F02BFA00214DF2023002F026FA81
:1033600034214DF2033002F021FA00214DF20430F5
:1033700002F01CFA3A214DF2053002F017FA002152
:103380004DF2063002F012FA4A214DF2073002F0F7
:103390000DFA00214DF2083002F008FA5C214DF2DE
:1033A000093002F003FA00214DF20A3002F0FEF972
:1033B00081214DF20B3002F0F9F900214DF20C3071
:1033C00002F0F4F9A6214DF20D3002F0EFF90021E0
:1033D0004DF20E3002F0EAF9E5214DF20F3002F025
:1033E000E5F901214DF2103002F0E0F913214DF220
:1033F000113002F0DBF901214DF2123002F0D6F962
:1034000054214DF2133002F0D1F901214DF2143064
:1034100002F0CCF982214DF2153002F0C7F90121FA
:103420004DF2163002F0C2F9CA214DF2173002F007
:10343000BDF902214DF2183002F0B8F900214DF229
:10344000193002F0B3F902214DF21A3002F0AEF950
:1034500001214DF21B3002F0A9F902214DF21C307E
:1034600002F0A4F934214DF21D3002F09FF902213F
:103470004DF21E3002F09AF967214DF21F3002F032
:1034800095F902214DF2203002F090F984214DF29D
:10349000213002F08BF902214DF2223002F086F940
:1034A000A4214DF2233002F081F902214DF22430A3
:1034B00002F07CF9B7214DF2253002F077F90221B4
:1034C0004DF2263002F072F9CF214DF2273002F092
:1034D0006DF902214DF2283002F068F9DE214DF23B
:1034E000293002F063F902214DF22A3002F05EF930
:1034F000F2214DF22B3002F059F902214DF22C301D
:1035000002F054F9FE214DF22D3002F04FF9032163
:103510004DF22E3002F04AF910214DF22F3002F018
:1035200045F903214DF2303002F040F933214DF2DC
:10353000313002F03BF903214DF2323002F036F91E
:103540006D214DF2333002F031F900214FF4544037
:1035500002F02CF933214DF2014002F027F900214D
:103560004DF2024002F022F934214DF2034002F004
:103570001DF900214DF2044002F018F93A214DF2F4
:10358000054002F013F900214DF2064002F00EF959
:103590004A214DF2074002F009F900214DF208409E
:1035A00002F004F95C214DF2094002F0FFF800211D
:1035B0004DF20A4002F0FAF881214DF20B4002F080
:1035C000F5F800214DF20C4002F0F0F8A6214DF282
:1035D0000D4002F0EBF800214DF20E4002F0E6F84B
:1035E000E5214DF20F4002F0E1F801214DF21040CB
:1035F00002F0DCF813214DF2114002F0D7F801215E
:103600004DF2124002F0D2F854214DF2134002F074
:10361000CDF801214DF2144002F0C8F882214DF29C
:10362000154002F0C3F801214DF2164002F0BEF839
:10363000CA214DF2174002F0B9F802214DF21840AC
:1036400002F0B4F800214DF2194002F0AFF8022167
:103650004DF21A4002F0AAF801214DF21B4002F08F
:10366000A5F800E004E302214DF21C4002F09EF8B0
:1036700034214DF21D4002F099F802214DF21E4016
:1036800002F094F867214DF21F4002F08FF80221FA
:103690004DF2204002F08AF884214DF2214002F0E0
:1036A00085F802214DF2224002F080F8A4214DF26B
:1036B000234002F07BF802214DF2244002F076F81C
:1036C000B7214DF2254002F071F802214DF226405B
:1036D00002F06CF8CF214DF2274002F067F802218A
:1036E0004DF2284002F062F8DE214DF2294002F04E
:1036F0005DF802214DF22A4002F058F8F2214DF215
:103700002B4002F053F802214DF22C4002F04EF80B
:10371000FE214DF22D4002F049F803214DF22E40DA
:1037200002F044F810214DF22F4002F03FF803213F
:103730004DF2304002F03AF833214DF2314002F0C0
:1037400035F803214DF2324002F030F86D214DF290
:10375000334002F02BF800214FF4554002F026F8D8
:1037600033214DF2015002F021F800214DF20250B8
:1037700002F01CF834214DF2035002F017F800213A
:103780004DF2045002F012F83A214DF2055002F0C9
:103790000DF800214DF2065002F008F84A214DF2D2
:1037A000075002F003F800214DF2085001F0FEFF2F
:1037B0005C214DF2095001F0F9FF00214DF20A5051
:1037C00001F0F4FF81214DF20B5001F0EFFF0021D9
:1037D0004DF20C5001F0EAFFA6214DF20D5001F020
:1037E000E5FF00214DF20E5001F0E0FFE5214DF222
:1037F0000F5001F0DBFF01214DF2105001F0D6FF18
:1038000013214DF2115001F0D1FF01214DF2125060
:1038100001F0CCFF54214DF2135001F0C7FF0121FC
:103820004DF2145001F0C2FF82214DF2155001F00B
:10383000BDFF01214DF2165001F0B8FFCA214DF233
:10384000175001F0B3FF02214DF2185001F0AEFF06
:1038500000214DF2195001F0A9FF02214DF21A503A
:1038600001F0A4FF01214DF21B5001F09FFF022146
:103870004DF21C5001F09AFF34214DF21D5001F021
:1038800095FF02214DF21E5001F090FF67214DF28D
:103890001F5001F08BFF02214DF2205001F086FFF6
:1038A00084214DF2215001F081FF02214DF222507E
:1038B00001F07CFFA4214DF2235001F077FF02219B
:1038C0004DF2245001F072FFB7214DF2255001F066
:1038D0006DFF02214DF2265001F068FFCF214DF21D
:1038E000275001F063FF02214DF2285001F05EFFE6
:1038F000DE214DF2295001F059FF02214DF22A50EC
:1039000001F054FFF2214DF22B5001F04FFF022144
:103910004DF22C5001F04AFFFE214DF22D5001F0E6
:1039200045FF03214DF22E5001F040FF10214DF2D2
:103930002F5001F03BFF03214DF2305001F036FFD4
:1039400033214DF2315001F031FF03214DF232505D
:1039500001F02CFF6D214DF2335001F027FF0021C3
:103960004FF4564001F022FF33214DF2016001F087
:103970001DFF00214DF2026001F018FF34214DF2CD
:10398000036001F013FF00214DF2046001F00EFF0F
:103990003A214DF2056001F009FF00214DF2066069
:1039A00001F004FF4A214DF2076001F0FFFE002103
:1039B0004DF2086001F0FAFE5C214DF2096001F061
:1039C000F5FE00214DF20A6001F0F0FE81214DF27A
:1039D0000B6001F0EBFE00214DF20C6001F0E6FE01
:1039E000A6214DF20D6001F0E1FE00214DF20E60C6
:1039F00001F0DCFEE5214DF20F6001F0D7FE012160
:103A00004DF2106001F0D2FE13214DF2116001F071
:103A1000CDFE01214DF2126001F0C8FE54214DF29D
:103A2000136001F0C3FE01214DF2146001F0BEFEEF
:103A300082214DF2156001F0B9FE01214DF21660B0
:103A400001F0B4FECA214DF2176001F0AFFE022171
:103A50004DF2186001F0AAFE00214DF2196001F04C
:103A6000A5FE02214DF21A6001F0A0FE01214DF2E7
:103A70001B6001F09BFE02214DF21C6001F096FEDE
:103A800034214DF21D6001F091FE02214DF21E60C5
:103A900001F08CFE67214DF21F6001F087FE0221CC
:103AA0004DF2206001F082FE84214DF2216001F090
:103AB0007DFE02214DF2226001F078FEA4214DF23C
:103AC000236001F073FE02214DF2246001F06EFECE
:103AD000B7214DF2256001F069FE02214DF226600A
:103AE00001F064FECF214DF2276001F05FFE02215C
:103AF0004DF2286001F05AFEDE214DF2296001F0FE
:103B000055FE02214DF22A6001F050FEF2214DF2E5
:103B10002B6001F04BFE02214DF22C6001F046FEBD
:103B2000FE214DF22D6001F041FE03214DF22E6089
:103B300001F03CFE10214DF22F6001F037FE032111
:103B40004DF2306001F032FE33214DF2316001F070
:103B50002DFE03214DF2326001F028FE6D214DF261
:103B6000336001F023FE55214FF4704001F01EFE3A
:103B7000AA214FF2010001F019FE52214FF202007A
:103B800001F014FE08214FF2030001F00FFE0021A6
:103B90004FF2040001F00AFECC214FF4314001F055
:103BA00005FE00214BF2011001F000FE05214FF44B
:103BB000364001F0FBFD70214FF4374001F0F6FD77
:103BC00070214BF2017001F0F1FD01214FF43840FA
:103BD00001F0ECFD03214BF6010001F0E7FD0321AC
:103BE0004BF6020001F0E2FD03214BF6030001F069
:103BF000DDFD02214FF43C4001F0D8FD00214BF6E1
:103C0000014001F0D3FD00214BF6024001F0CEFD52
:103C1000D0214FF4494001F0C9FD02214CF60110BA
:103C200001F0C4FD50214CF6021001F0BFFD5021FF
:103C30004CF6031001F0BAFD50214CF6041001F0CF
:103C4000B5FD00214FF4545001F0B0FD55214FF463
:103C5000685001F0ABFD4FF4885001F091FD7820E1
:103C600004F026FC4FF4245001F08AFD01F05EB907
:103C7000FE48808849F2253188427DD147F6F0011F
:103C8000E52001F093FD4FF48071012001F08EFDDD
:103C90004FF4E061022001F089FD41F23001032080
:103CA00001F084FD0021042001F080FD40F202219A
:103CB000082001F07BFD0021092001F077FD0021A3
:103CC0000A2001F073FD00210C2001F06FFD00219E
:103CD0000D2001F06BFD00210F2001F067FD002198
:103CE000102001F063FD0721112001F05FFD00218C
:103CF000122001F05BFD0021132001F057FD00218F
:103D0000072001F053FD41F29061102001F04EFDBB
:103D100040F22721112001F049FD9D21122001F0E0
:103D200045FD4FF4C851132001F040FD2521292005
:103D300001F03CFD0D212B2001F038FD0721302042
:103D400001F034FD40F20331312001F02FFD032159
:103D5000322001F02BFD40F20621352001F026FD36
:103D60000821362001F022FD40F20641372001F003
:103D70001DFD4FF4417100E058E0382001F016FDC0
:103D80000721392001F012FD40F202613C2001F0D0
:103D90000DFD08213D2001F009FD0021502001F01A
:103DA00005FDEF21512001F001FD0021522001F01D
:103DB000FDFC40F23F11532001F0F8FC4FF4274185
:103DC000602001F0F3FC0121612001F0EFFC0021F3
:103DD0006A2001F0EBFC0021802001F0E7FC0021CB
:103DE000812001F0E3FC0021822001F0DFFC0021B2
:103DF000832001F0DBFC0021842001F0D7FC0021AE
:103E0000852001F0D3FC1021902001F0CFFC4FF46D
:103E1000C061922001F0CAFC40F23311072001F08A
:103E2000C5FC2221002001F0C1FC1FE78F488088DB
:103E300049F2283188427DD141F28F01EC2001F016
:103E4000B5FC41F23421EF2001F0B0FC4FF4807159
:103E5000012001F0ABFC4FF4E061022001F0A6FC70
:103E600041F23001032001F0A1FC0021042001F007
:103E70009DFC40F20221082001F098FC002109205D
:103E800001F094FC00210A2001F090FC01210C209B
:103E900001F08CFC00210D2001F088FC00210F2096
:103EA00001F084FC0021102001F080FC072111208A
:103EB00001F07CFC0021122001F078FC002113208D
:103EC00001F074FC0121072001F070FC322004F0A5
:103ED000D3FA41F29041102001F068FC40F2272112
:103EE000112001F063FC322004F0C6FA8A2112206E
:103EF00001F05CFC322004F0BFFA4FF4D0511320E3
:103F000001F054FC0621292001F050FC0D212B204A
:103F100001F04CFC322004F0AFFA0021202001F027
:103F200045FC0021212001F041FC322004F0A4FADC
:103F3000002100E075E0302001F038FC40F204611F
:103F4000312001F033FC40F20531322001F02EFC2B
:103F50000021352001F02AFC40F60941362001F00D
:103F600025FC4FF40171372001F020FC40F20131B3
:103F7000382001F01BFC40F20771392001F016FCDB
:103F800000213C2001F012FC40F60A213D2001F006
:103F90000DFC322004F070FA0021502001F006FCE4
:103FA000EF21512001F002FC0021522001F0FEFB24
:103FB00040F23F11532001F0F9FB4FF427416020FC
:103FC00001F0F4FB0121612001F0F0FB00216A20E7
:103FD00001F0ECFB0021802001F0E8FB00218120B2
:103FE00001F0E4FB0021822001F0E0FB00218320AE
:103FF00001F0DCFB0021842001F0D8FB00218520AA
:1040000001F0D4FB1021902001F0D0FB4FF4C061EF
:10401000922001F0CBFB40F23311072001F0C6FBE8
:1040200024E61248808849F2203188427ED100215E
:10403000084601F0BBFB4FF48071012001F0B6FB94
:104040004FF4E061022001F0B1FB41F230010320A6
:1040500001F0ACFB0021042001F0A8FB40F202219A
:10406000082001F0A3FB0021092001E070020020DC
:1040700001F09CFB00210A2001F098FB01210C209B
:1040800001F094FB00210D2001F090FB00210F2096
:1040900001F08CFB322004F0EFF940F2011107200F
:1040A00001F084FB322004F0E7F94FF48651102030
:1040B00001F07CFB0721112001F078FB4FF488719F
:1040C000122001F073FB4FF43061132001F06EFBFE
:1040D0000021292001F06AFB44F210012B2001F09D
:1040E00065FB0021502001F061FBEF21512001F020
:1040F0005DFB0021522001F059FB40F23F1153209B
:1041000001F054FB4FF41C51602001F04FFB0121E2
:10411000612001F04BFB00216A2001F047FB0021E8
:10412000802001F043FB0021812000E030E001F01D
:104130003DFB0021822001F039FB0021832001F0AA
:1041400035FB0021842001F031FB0021852001F0A6
:104150002DFB1021902001F029FB0021922001F07D
:1041600025FB0121932001F021FB4FF4887195205C
:1041700001F01CFB0021972001F018FB0021982082
:1041800001F014FB40F27311072001F00FFB6DE505
:10419000FE48808849F2313188427DD141F21401D4
:1041A000E72001F003FB4FF48071012001F0FEFADB
:1041B0004FF40071022001F0F9FA41F238010320B6
:1041C00001F0F4FA40F20221082001F0EFFA002198
:1041D000092001F0EBFA00210A2001F0E7FA0021A2
:1041E0000C2001F0E3FA00210D2001F0DFFA00219C
:1041F0000F2001F0DBFA0021102001F0D7FA07218F
:10420000112001F0D3FA0021122001F0CFFA002191
:10421000132001F0CBFAC82004F02EF941F290618E
:10422000102001F0C3FA40F22721112001F0BEFA5C
:10423000322004F021F90C21122001F0B7FA3220CB
:1042400004F01AF94FF40061132001F0AFFA1121C4
:10425000292001F0ABFA0B212B2001F0A7FA322024
:1042600004F00AF90021202001F0A0FA40F23F11E9
:10427000212001F09BFA0021302001F097FA4FF441
:104280008371312001F092FA0021322001F08EFA80
:104290004FF40171352000E064E001F087FA41F24B
:1042A0000A61362001F082FA40F20771372001F0EE
:1042B0007DFA4FF48371382001F078FA40F20771EB
:1042C000392001F073FA40F202413C2001F06EFA0D
:1042D00040F60F413D2001F069FA0021502001F025
:1042E00065FAEF21512001F061FA0021522001F01E
:1042F0005DFA40F23F11532001F058FA4FF41C517F
:10430000602001F053FA0121612001F04FFA0021F1
:104310006A2001F04BFA0021802001F047FA0021C9
:10432000812001F043FA0021822001F03FFA0021B0
:10433000832001F03BFA0021842001F037FA0021AC
:10434000852001F033FA1021902001F02FFA4FF46C
:10435000C061922001F02AFA40F23311072001F0E7
:1043600025FA83E48948808845F2084188427DD156
:104370004FF48071012001F019FA4FF4E06102203E
:1043800001F014FA41F23001032001F00FFA00218C
:10439000042001F00BFA40F20721082001F006FA90
:1043A0000021092001F002FA00210A2001F0FEF9A3
:1043B00000210C2001F0FAF900210D2001F0F6F99E
:1043C00000210F2001F0F2F9142004F055F841F219
:1043D000B061102001F0EAF90121112001F0E6F9A5
:1043E0000121172001F0E2F94FF49C71122001F035
:1043F000DDF94FF40061132001F0D8F909212920DB
:1044000001F0D4F909212A2001F0D0F90021A420DB
:1044100001F0CCF90021502001F0C8F9EF21512022
:1044200001F0C4F90021522001F0C0F940F23F111F
:10443000532001F0BBF94FF41C51602001F0B6F994
:104440000121612001F0B2F900216A2001F0AEF9EA
:104450000021802001F0AAF90021812001F0A6F9B5
:104460000021822001F0A2F9002100E024E0832055
:1044700001F09CF90021842001F098F900218520A9
:1044800001F094F91321902001F090F9002192207D
:1044900001F08CF90321932001F088F94FF4887121
:1044A000952001F083F940F27311072001F07EF9A5
:1044B000322003F0E1FFB8E43448808841F205512E
:1044C00088427DD10021072001F070F9322003F0ED
:1044D000D3FF4FF48E71122001F068F90121A4205E
:1044E00001F064F90F21082001F060F908210A2089
:1044F00001F05CF908210D2001F058F940F2077134
:10450000302001F053F90721312001F04FF940F23A
:104510000361322001F04AF94FF4E061332001F0E9
:1045200045F940F20221342001F040F90221352002
:1045300001F03CF941F60F71362001F037F940F2F5
:104540000771372001F032F90021382001F02EF9EF
:104550000021392001F02AF940F207713A2001F0D8
:1045600025F900213B2001F021F907213C2001F031
:104570001DF900213D2001F019F9322003F07CFFE4
:104580000121072001F012F9012101E07002002051
:10459000172001F00BF9322003F06EFF4FF4BD51EC
:1045A000102001F003F940F21721112001F0FEF86C
:1045B0004FF48F71122001F0F9F84FF4706100E0B0
:1045C00098E0132001F0F2F800212A2001F0EEF823
:1045D0000A21292001F0EAF84FF49F71122001F01E
:1045E000E5F80021502001F0E1F8EF21512001F021
:1045F000DDF80021522001F0D9F840F23F1153209C
:1046000001F0D4F84FF41C51602001F0CFF80121E3
:10461000612001F0CBF800216A2001F0C7F80021E9
:10462000802001F0C3F80021812001F0BFF80021B3
:10463000822001F0BBF80021832001F0B7F80021AF
:10464000842001F0B3F80021852001F0AFF8132198
:10465000902001F0ABF84FF44071922001F0A6F8E1
:104660000521932001F0A2F80021952001F09EF889
:104670000021972001F09AF80021982001F096F887
:104680004FF48071012001F091F84FF4E0610220B5
:1046900001F08CF841F23801032001F087F8002185
:1046A000042001F083F800210C2001F07FF80021A4
:1046B0000F2001F07BF80021202001F077F8002185
:1046C000212001F073F82121072001F06FF8142058
:1046D00003F0D2FE6121072001F068F8142003F0F6
:1046E000CBFE40F27311072001F060F8142003F0B4
:1046F000C3FE95E4FE4880884BF2055188427CD188
:104700000021084601F052F80021084601F04EF859
:104710000021084601F04AF80021084601F046F859
:104720000121A42001F042F8142003F0A5FE4FF46B
:104730001C51602001F03AF840F20221082001F0FB
:1047400035F84FF40571302001F030F843F215715F
:10475000312001F02BF840F20461322001F026F8FC
:1047600040F61661332001F021F842F21121342085
:1047700001F01CF84FF4A851352001F017F848F269
:104780000751362001F012F841F20741372001F0BD
:104790000DF841F20341382001F008F820213920BA
:1047A00001F004F81A21902001F000F800211020F7
:1047B00000F0FCFF0721112000F0F8FF002112207B
:1047C00000F0F4FF0021132000F0F0FF142003F0AC
:1047D00053FE4FF4E661102000F0E8FF40F237117D
:1047E000112000F0E3FF142003F046FE4FF4DC71CB
:1047F000122000F0DBFF142000E085E003F03CFE17
:104800004FF47061132000F0D1FF80212A2000F0C6
:10481000CDFF4821292000F0C9FF142003F02CFE11
:104820004FF48071012000F0C1FF4FF4E0610220DD
:1048300000F0BCFF41F23801032000F0B7FF40F266
:104840000221082000F0B2FF00210A2000F0AEFF94
:1048500000210C2000F0AAFF00210D2000F0A6FF8F
:1048600030210E2000F0A2FF0021502000F09EFF1A
:10487000EF21512000F09AFF0021522000F096FF16
:1048800040F23F11532000F091FF4FF41C51602083
:1048900000F08CFF0121612000F088FF00216A20D8
:1048A00000F084FF1121902000F080FF4FF4C061E0
:1048B000922000F07BFF40F20241932000F076FF4F
:1048C0000221942000F072FF142003F0D5FD012195
:1048D000072000F06BFF142003F0CEFD61210720BC
:1048E00000F064FF40F27311072000F05FFF002129
:1048F000202000F05BFF0021212000F057FF222143
:10490000002000F053FF11E3794880884CF20551F4
:1049100088427CD10021084600F048FF002108466B
:1049200000F044FF142003F0A7FD0021084600F02A
:104930003DFF0021084600F039FF0021084600F045
:1049400035FF0021084600F031FF0121A42000F0CE
:104950002DFF142003F090FD4FF41C51602000F057
:1049600025FF40F60601082000F020FF40F2037109
:10497000302000F01BFF0121312000F017FF04213F
:10498000322000F013FF4FF48171332000F00EFF4E
:104990004FF44071342000F009FF40F2031135203C
:1049A00000F004FF1F21362000F000FF40F20371E9
:1049B000372000F0FBFE0121382000F0F7FE042133
:1049C000392000F0F3FE1521902000F0EFFE4FF4A7
:1049D0008261102000F0EAFE40F24721112000F031
:1049E000E5FE4FF4DE71122000F0E0FE4FF460614E
:1049F000132000F0DBFE782003F03EFD4FF48071C1
:104A0000012000F0D3FE4FF40071022000E052E0DC
:104A100000F0CCFE41F23001032000F0C7FE082177
:104A20000A2000F0C3FE00210C2000F0BFFE202170
:104A30000E2000F0BBFE00210F2000F0B7FE002189
:104A4000202000F0B3FE0021212000F0AFFE3D2128
:104A50002A2000F0ABFE142003F00EFD2D212920AA
:104A600000F0A4FE0021502000F0A0FE4DF2EF0166
:104A7000512000F09BFE0021522000F097FE40F2F2
:104A80003F11532000F092FE0021612000F08EFEC5
:104A900000216A2000F08AFE4FF44071922000F05D
:104AA00085FE0521932000F081FE4FF480710720E0
:104AB00000F07CFE3AE20E48808844F23151884290
:104AC0007ED10121002000F071FE0A2003F0D4FC09
:104AD00041F22861102000F069FE0E21122000F042
:104AE00065FE40F63921132000F060FE0A2001E047
:104AF0007002002003F0C0FC4021112000F056FE9F
:104B00005021152000F052FE0A2003F0B5FC1E21B2
:104B1000122000F04BFE0A2003F0AEFC4FF4B1511E
:104B2000102000F043FE42F63921132000F03EFE33
:104B30000A2003F0A1FC4FF48071012000F036FE42
:104B40004FF44071022000F031FE41F238010320A1
:104B500000F02CFE40F20221082000F027FE082180
:104B60000A2000F023FE0021302000F01FFE40F25A
:104B70000241312000F01AFE4FF48371322000F020
:104B800015FE40F20351332000F010FE4FF4827105
:104B9000342000F00BFE40F20131352000F006FE1B
:104BA00040F20771362000F001FE40F20531372057
:104BB00000F0FCFD4FF40271382000F0F7FD00E03A
:104BC0003EE040F60B71392000F0F0FD022141205B
:104BD00000F0ECFD4FF41C51602000F0E7FD0121D6
:104BE000612000F0E3FD4FF40471902000F0DEFD41
:104BF0004FF48571922000F0D9FD0421932000F03C
:104C0000D5FD4FF48071A02000F0D0FD01210720D8
:104C100000F0CCFD2121072000F0C8FD2321072052
:104C200000F0C4FD3321072000F0C0FD40F2331135
:104C3000072000F0BBFD0021A02000F0B7FD75E1CA
:104C4000C048808844F2355188427CD130211520FB
:104C500000F0ACFD10219A2000F0A8FD20211120C9
:104C600000F0A4FD43F22841102000F09FFD022136
:104C7000122000F09BFD41F23801132000F096FD58
:104C8000282003F0F9FB1221084600F08FFD2820B0
:104C900003F0F2FB43F22041102000F087FD43F2C5
:104CA0003801132000F082FD462003F0E5FB0021CF
:104CB000302000F07BFD40F20241312000F076FD13
:104CC00040F20731322000F071FD4FF44171332082
:104CD00000F06CFD0421342000F068FD40F2014139
:104CE000352000F063FD40F20771362000F05EFDD4
:104CF00040F20531372000F059FD4FF4C2613820F1
:104D000000F054FD4FF4C261392000F04FFD4FF424
:104D10008071012000F04AFD4FF44071022000F044
:104D200045FD41F23001032000F040FD40F608014E
:104D3000082000F03BFD08210A2000F037FD4FF469
:104D40001C51602000E033E000F030FD01216120C3
:104D500000F02CFD4FF49F71902000F027FD4FF4E0
:104D60008071922000F022FD4FF48071932000F0BA
:104D70001DFD4FF44051A02000F018FD1021A3208C
:104D800000F014FD0121072000F010FD2121072073
:104D900000F00CFD2321072000F008FD332107203F
:104DA00000F004FD40F23311072000F0FFFCBDE0ED
:104DB0006448808841F663118842F8D1E22000F00F
:104DC000DFFC1D2000F0D0FC022000F0CDFC042010
:104DD00000F0CAFC642003F06BFBE02000F0D0FC84
:104DE000012000F0C1FC0A2003F046FBE02000F0A7
:104DF000C7FC032000F0B8FC0C2003F03DFB0120B1
:104E000000F0BEFC0A2003F037FBE62000F0B8FCFF
:104E10002F2000F0A9FCFF2000F0A6FCFF2000F0EE
:104E2000A3FCB02000F0ACFC202000F09DFC002092
:104E300000F09AFC032000F097FC40F21F3000F0D5
:104E400093FC012000F090FC40F2DF1000F08CFC9D
:104E5000002000F089FCB42000F092FC042000F057
:104E600083FC40F21F4000F07FFC002000F07CFC3F
:104E70002E2000F079FC002000F076FC002000F0ED
:104E800073FC002000F070FC002000F06DFCB620E8
:104E900000F076FC022000F067FC4FF4037000F095
:104EA00063FC002000F060FC172000F05DFC152082
:104EB00000F05AFC002000F057FC002000F054FCE9
:104EC000F02000F05DFC032000F04EFC292000F0F3
:104ED00057FCD02000F054FC002000F045FCBE2020
:104EE00000F04EFC052000F03FFCFE2000F03CFCF2
:104EF000012000F039FC002000F036FC002000F01A
:104F000033FC002000F030FCB82000F039FC032016
:104F100000F02AFC012000F027FCBA2000F030FC51
:104F2000012000F021FC642000F0DCF80020FCF7F8
:104F300079F90120044908604FF6FF70FCF70CF97D
:104F40001CBD0000700200209C02414208B50348CD
:104F500000880090BDF8000008BD00000008006C4B
:104F60002DE9F04105460E4600240027A04656488C
:104F70000088A84203DD54484088B04202DC00208B
:104F8000BDE8F0813146284600F052FA4E4880884C
:104F900049F24131884211D04B48808846F60401DD
:104FA00088420BD04848808845F21031884205D0AD
:104FB0004548808841F66311884203D12E2000F0D5
:104FC000DFFB0DE04048808845F21051884204D153
:104FD0004FF4385000F0D4FB02E0222000F0D0FB68
:104FE0003948808849F22031884202D1022007F0F6
:104FF000D5FAFFF7ABFF04463348808841F66311CA
:10500000884201D12046BBE7022007F0C7FAFFF72C
:105010009DFF04462C48808849F2413188420BD0DC
:105020002948808845F21031884205D0264880887A
:1050300045F2105188420AD1022007F0AFFAFFF77B
:1050400085FF8046E7B24FF6FF7000EA07271E484B
:10505000808849F22531884216D01B48808844F266
:105060003551884210D018488088091F88420BD0DB
:10507000154880884BF20551884205D01248808837
:105080004CF20551884201D1204679E70E488088CC
:1050900049F2413188420BD00B48808845F21031EB
:1050A000884205D00848808845F21051884207D1CF
:1050B000E012C002B91240EA411040EAE8205FE77E
:1050C0002046FCF73BF85BE77002002010B5044671
:1050D000204600F055FB052003F0EAF9FFF736FF04
:1050E00010BD000070B52DED048B0446BE2000F00D
:1050F00047FB052000F038FB204608F0D2FF41ECCA
:10510000190B9FED0E0B53EC102B08F0DDFF41EC5B
:10511000180B08F099FF85B2284600F025FB012006
:1051200000F022FBFF2000F01FFB002000F01CFB22
:10513000002000F019FBBDEC048B70BD666666664E
:1051400066660440F0B5054600240027B74880791C
:1051500001280BD1B548808846F60401884205D065
:10516000B248808841F66311884208D1AF488079FF
:10517000F0B9AE48808841F66311884218D1082DF5
:1051800015D2DFE805F00406080A0C0E10120625F9
:105190000DE007250BE0042509E0052507E00125C2
:1051A00005E0002503E0032501E0022500BF00BF64
:1051B0009E48808849F24131884217D09B488088B8
:1051C00046F60401884211D09848808845F2103193
:1051D00088420BD09548808845F21051884205D00E
:1051E0009248808841F6631188427DD1082D1CD2F7
:1051F000DFE805F00406090C0F12151800BF14E0D3
:1052000044F0800411E044F040040EE044F0C00497
:105210000BE044F0200408E044F0600405E044F0B2
:10522000A00402E044F0E00400BF00BF7F48808893
:1052300045F21051884202D14FF4585700E036270A
:105240007A48808845F2103188420DD077488088AE
:1052500045F21051884207D07448808841F66311A6
:10526000884201D044F008047048808846F6040162
:10527000884201D144F002042146384600F096FAF3
:105280006A48808841F6631188421DD004F02000EE
:1052900068B16648008865494988884214DA6348DD
:1052A0000688408861490880084646800CE05F48CF
:1052B00000885E494988884206DD5C480688408847
:1052C0005A490880084646805848808845F210515F
:1052D000884254D15549488900F052FA002000F024
:1052E00043FA5249498900E078E0491C88B200F04D
:1052F00047FA002000F038FA4C494989891C88B2E5
:1053000000F03EFA49490988491EC1F30F2000F018
:105310002BFA46494989C91C88B200F031FA434941
:105320000978491EC8B200F01FFA4049888900F088
:1053300027FA002000F018FA3C498989491C88B2F4
:1053400000F01EFA002000F00FFA38498989891C04
:1053500088B200F015FA35494988491EC1F30F207B
:1053600000F002FA31498989C91C88B200F008FAB4
:105370002E498978491EC8B200F0F6F955E02B494C
:10538000488900F0FDF9002000F0EEF9002000F05F
:10539000EBF926490988491EC1F30F2000F0E4F912
:1053A00022490978491EC8B200F0DEF91F498889F0
:1053B00000F0E6F9002000F0D7F9002000F0D4F961
:1053C0001A494988491EC1F30F2000F0CDF9174949
:1053D0008978491EC8B200F0C7F926E0082D1CD212
:1053E000DFE805F004070A0D0F12151844F0300429
:1053F00013E044F0100410E044F020040DE000BF7E
:105400000BE044F0380408E044F0280405E044F0E0
:10541000180402E044F0080400BF00BF032744F46E
:1054200080542146384600F0C1F9F0BD70020020DA
:1054300030B504460D466748808849F241318842BC
:1054400005D06448808845F21031884214D1614902
:10545000488900F095F9201200F086F9E0B200F0DA
:1054600083F95C49888900F08BF9281200F07CF9F7
:10547000E8B200F079F9ABE05648808846F60401BE
:1054800088421DD153488079012804D151480088B1
:10549000401E001B84B24F49488900F071F9201268
:1054A00000F062F9E0B200F05FF94A49888900F043
:1054B00067F9281200F058F9E8B200F055F987E0D2
:1054C0004448808841F66311884247D14148807939
:1054D000A8B940480088401E001B84B23D49488955
:1054E00000F04EF9002000F03FF9002000F03CF9F8
:1054F000201200F039F9E0B200F036F916E0354933
:10550000488900F03DF9201200F02EF9E0B200F0D9
:105510002BF930490988491EC1F30F2000F024F906
:105520002C490978491EC8B200F01EF9294988891A
:1055300000F026F9281200F017F9E8B200F014F98B
:1055400024494988491EC1F30F2000F00DF9214973
:105550008978491EC8B200F007F939E01D488088F3
:1055600045F21051884220D11A49488900F008F9C3
:10557000201200F0F9F817494989491C88B200F057
:10558000FFF8E0B200F0F0F81249888900F0F8F86E
:10559000281200F0E9F80F498989491C88B200F007
:1055A000EFF8E8B200F0E0F812E00A48807901284C
:1055B00004D108480088401E001B84B20549488970
:1055C000214600F0F3F803498889294600F0EEF8F7
:1055D00030BD0000700200202DE9F84F80460E46D5
:1055E00017461C46B3462046E31704EB5373DB1003
:1055F00021464FEAE47C04EB5C7C4FEAEC0CA4EB24
:10560000CC0CBCF1000F02D04FF0010C01E04FF0C8
:10561000000C6344224604EBD27C4FEA6C0C03FB83
:105620000CF3DBB20093A7F12000C7B2002556E0CF
:105630000C2C07D107EB47002B4901EB800010F839
:10564000059013E0102C05D1284800EB071010F846
:1056500005900BE0182C07D107EBC700244901EB9C
:10566000800010F8059001E0BDE8F88F4FF0000AC7
:105670002FE009F0800030B11E48028831464046D4
:10568000FBF7B0FE07E00A9828B91B4802883146AC
:105690004046FBF7A7FE4FEA49604FEA1069701CCD
:1056A00086B216484088B04200DCDDE7A6EB0B006E
:1056B000A0420AD15E4608F101001FFA80F80F48A7
:1056C0000088404500DCCFE706E00AF1010000F069
:1056D000FF0ABAF1080FCCDB00BF681CC5B2009806
:1056E0008542A5DB00BFBFE7CEE2000842E7000825
:1056F00032ED00080A0000200C000020700200209B
:105700002DE9F84704460D4690469946DDE90967BC
:1057100004F0FF0A08EB04001FFA80F809EB05000B
:105720001FFA80F916E0444502DB5446A81985B2F9
:105730004D4500DB14E0002000903A7833462946BE
:105740002046FFF749FF304606EBD07104EB6101BC
:105750008CB27F1C38787E2802DC38782028E2DA88
:1057600000BFBDE8F887000001B5BDF8000000905B
:10577000BDF800000149088008BD00000008006C69
:1057800001B5BDF800000090BDF800000149088097
:1057900008BD0000FE07006C02480089024908802D
:1057A0007047000070020020FE07006C024A108063
:1057B000921C118070470000FE07006C1CB50C485D
:1057C000006840F040000A490860012003210023DE
:1057D0000246CDE900104FF410710648FBF742FB7A
:1057E0000120054908600549C1F8A4021CBD00005C
:1057F0003038024000180240980243420000434201
:105800002DE9F0410746884614461D46284600F01B
:1058100033F8C5F1040007FA00F60F20284100EA2A
:105820000800064306F00F06E21704EBD26252119D
:10583000920002F1E022D2F800212146E31704EBA6
:10584000D3635B11A4EB431C012303FA0CF31A434B
:105850002046E31704EBD3635B119B0003F1E023C5
:10586000C3F800210348005D40EA061001490855CD
:10587000BDE8F08100E400E00146072323EA0102CD
:105880001202054B18684FF6FF031840034B1843EC
:105890001043014B186070470CED00E00000FA0562
:1058A0004A0A52020243014B1A60704708ED00E0B9
:1058B0007CB50546002400200090019000260DB123
:1058C000022600E000261848006800F0007008B1C9
:1058D0000E207CBD1549098888B26946FBF7F4F9AA
:1058E00004460CB12046F4E7019800F48020C0B1D2
:1058F0000E48008802040121372000F027F83720E5
:10590000FBF7E0F804460CB12046E2E732460121FD
:10591000062000F01BF80620FBF7D4F804462046CA
:10592000D7E72520D5E70000142C01401400002003
:105930000146034A106820F0FF00084310607047DA
:10594000042C014000B500F041FC00BD10B5034639
:10595000084C2260241D20686FF30A0003F03F0406
:10596000204340EA811000BF40F48060014C241DB8
:10597000206010BD082C014070B504460B4D2C6012
:1059800021F07E45094E361D3560351D286820F012
:10599000F70040EA021000BF03F0010540EA4500AD
:1059A00040F00100351D286070BD0000242C01402E
:1059B00030B50346002000BF204C246804F00104E9
:1059C000002CF9D11D4C503C246844F074641B4DEC
:1059D000503D2C601A4C194D08352C602C1D23604D
:1059E00000242D1F2C6040EA821000BF00BF40F44D
:1059F000806040F4805040F4804040F4403040F4F7
:105A0000001040F4000040F000602C1F20600B4CA0
:105A10001434206820F0070040F0040040F0030038
:105A200020602C1F246844F020042D1F2C602C467D
:105A3000246844F001042C6030BD0000586402402A
:105A4000802C014030B50446002516480078032814
:105A500001D1272030BD1348007838B111480078B3
:105A6000012803D00F480078022818D1022C01D356
:105A70002720EFE7E0B2FFF71BFF05467DB90A4894
:105A8000006820F4C0500849086008460068A1B2C8
:105A900040EAC120044908600846006808602846BA
:105AA000D8E7000010000020042C0140F0B50146AA
:105AB00000200022BE4B1B7881F85630BD4B1B885E
:105AC000A1F85430BC4B1B681A0E93090B70C2F33B
:105AD00083034B7002F003038B70B74B1B68C3F357
