:020000040800F2
:1000000048050020310200083F02000841020008B4
:1000100043020008450200084702000800000000F3
:10002000000000000000000000000000490200087D
:100030004B020008000000004D0200084F020008BB
:100040005102000851020008510200085102000844
:100050005102000851020008510200085102000834
:100060005102000851020008510200085102000824
:100070005102000851020008510200085102000814
:100080005102000851020008510200085102000804
:1000900051020008510200085102000851020008F4
:1000A00051020008510200085102000851020008E4
:1000B00051020008510200085102000851020008D4
:1000C00051020008510200085102000851020008C4
:1000D00051020008854D0008510200085102000835
:1000E00051020008510200085102000851020008A4
:1000F0005102000851020008510200085102000894
:100100005102000851020008510200085102000883
:100110005102000851020008510200085102000873
:100120005102000851020008510200085102000863
:100130005102000851020008510200085102000853
:100140005102000851020008510200085102000843
:100150005102000851020008510200085102000833
:100160005102000851020008510200085102000823
:100170005102000851020008510200085102000813
:10018000510200085102000800F002F800F041F8A6
:100190000AA090E8000C82448344AAF10107DA45E2
:1001A00001D100F036F8AFF2090EBAE80F0013F0F3
:1001B000010F18BFFB1A43F001031847986A0000AB
:1001C000B86A0000103A24BF78C878C1FAD852073C
:1001D00024BF30C830C144BF04680C6070470000C1
:1001E0000023002400250026103A28BF78C1FBD840
:1001F000520728BF30C148BF0B607047782900F014
:100200008380002070471FB505F022F91FBD10B58F
:1002100010BD00F0D3F91146FFF7F5FF04F082FEA0
:1002200000F0F1F903B4FFF7F2FF03BC04F0F1FDB5
:100230000B48016841F4700101600A480047FEE77D
:10024000FEE7FEE7FEE7FEE7FEE7FEE7FEE7FEE786
:10025000FEE7000004480549034A054B70470000CB
:1002600088ED00E0890100084801002048050020D1
:1002700048010020704700000FB4044910B503AADC
:10028000029800F085F910BC5DF814FB0400002012
:100290000FB41CB5074B06AA7B446946009005982D
:1002A00000F05DF90020694600F06CF91CBC5DF8B7
:1002B00014FB0000E902000070B50446856900687F
:1002C000C10601D5302600E02026C00707D070BD4A
:1002D000D4E9012130469047206A401C20626D1EFF
:1002E000F6D570BD70B5044685690078C00707D1A2
:1002F00070BDD4E9012120209047206A401C206273
:100300006D1EF6D570BD000070B504460D46214641
:100310001068AFF300802188090502D50F4A7A449E
:1003200002E00E4A7A440E32002104F1240305E073
:1003300000F00F060009965D5E54491C0028F7D1B5
:1003400020780023000704D5702D02D009B10223C4
:1003500011322046BDE8704000F0A2B8F8680000F5
:100360002DE9F05F894604464FF0000ADFF824B11A
:10037000FB44C0F820A02046E168884700287DD0D3
:10038000252806D0D4E901219047206A401C20622C
:10039000F1E700255F462046E168884720280646A9
:1003A00007DB312E05D2B81910F8200C08B105432F
:1003B000F1E7A80701D525F00405C4F81CA0002723
:1003C000C4F818A02A2E09D0304604F01BFD38B31B
:1003D00004EB8708303EC8F8186019E059F8041B90
:1003E000204604EB87029161E1688847012F0646A9
:1003F00018D1E069002820DA25F020051DE0D8F8A2
:10040000180000EB800006EB40003038C8F81800F8
:100410002046E1688847064604F0F4FC0028EED147
:10042000012F0AD02E2E08D12046E16888477F1C74
:100430000646022F45F02005C4DBA069002803DA38
:10044000404245F00105A061E80701D025F0100504
:10045000A6B1A6F14100192802D8203645F400655E
:100460004A463146204625604D46FFF7C7FE60B13B
:10047000012807D0ED1D25F0070000E007E000F19E
:10048000080978E705F1040975E730467AE7206A3C
:10049000BDE8F09FCE680000704770477047704716
:1004A0002DE9F0470D4699469246044600F124088E
:1004B0000168880604D5E06921F01001216000E0A0
:1004C0000120A84201DD471B00E00027A1697A193D
:1004D00002EB0900081AA0612078C00602D4204669
:1004E000FFF7EAFE002608E0D4E901211AF8060029
:1004F0009047206A401C761C20624E45F4DB207831
:10050000C0060AD52046FFF7D7FE06E0D4E9012150
:1005100030209047206A401C2062381EA7F1010756
:10052000F4DC07E0D4E9012118F805009047206ABF
:10053000401C2062281EA5F10105F3DC2046FFF7D0
:10054000D1FE2078000602D50220BDE8F087012008
:10055000FBE7000001694A1C02610878704700B59A
:100560008FB0CDE901310021059105497944CDE9EC
:10057000031011466846FFF7F3FE0FB000BD000000
:10058000E5FFFFFF0A6802F8010B0A6070470000F0
:10059000074B70B50D467B44FFF7E1FF0446284644
:1005A00000F008F810B14FF0FF3070BD204670BD6C
:1005B0006F490000007B00F080007047754600F036
:1005C0002BF8AE4605006946534620F007008546E5
:1005D00018B020B5FFF73EFEBDE820404FF0000602
:1005E0004FF000074FF000084FF0000B21F007011B
:1005F000AC46ACE8C009ACE8C009ACE8C009ACE85E
:10060000C0098D46704710B50446AFF30080204600
:10061000BDE81040FFF706BE00487047E800002024
:1006200030B5CC1000F1200353F824304C07E50E10
:100630000F24AC40A343CD1000F1200444F8253032
:10064000CC1000F1200353F824304C07E40E02FADA
:1006500004F42343CD1000F1200444F8253030BDCC
:100660002DE9F0470C46DDE90867002100258C469E
:1006700000BF60E04FF0010808FA01F504EA050C3C
:10068000AC4557D1D0F800804FEA410A4FF003093A
:1006900009FA0AF928EA0908C0F80080D0F80080B1
:1006A0004FEA410902FA09F948EA0908C0F800804E
:1006B000012A01D0022A27D1D0F808804FEA410A46
:1006C0004FF0030909FA0AF928EA0908C0F8088076
:1006D000D0F808804FEA410906FA09F948EA090802
:1006E000C0F80880D0F804904FF0010808FA01F82B
:1006F00029EA0809C0F80490D0F8048003FA01F947
:1007000048EA0908C0F80480D0F80C804FEA410A92
:100710004FF0030909FA0AF928EA0908C0F80C8021
:10072000D0F80C804FEA410907FA09F948EA0908AC
:10073000C0F80C80491C10299CD3BDE8F08700004C
:1007400070B504460026174805884088454315487B
:10075000808846F60401884216D112488079012823
:1007600012D100200F4988712A2048812B208881CE
:100770000021084604F00CF801200A4988712B205A
:1007800048812A20888103E00021084604F000F80F
:1007900004F0B2F9002602E003480480761CAE4261
:1007A000FAD370BDD80000200008006C10B50446D4
:1007B000002C66D16C498871F02008804FF4A0703D
:1007C00048800846808849F2413188420BD066480B
:1007D000808846F60401884205D06348808845F247
:1007E000103188421AD12C205F4908812A20488183
:1007F0002B2088810846808846F60401884205D06F
:100800005948808845F21031884206D14FF4A070D3
:10081000554908804FF4F0704880A1E05248808824
:1008200045F21051884210D14FF430504E490881A2
:100830004FF4285048814FF42C5088814FF4F070C9
:1008400008804FF4487048808AE04748808841F625
:10085000631188420DD12C20434908812B20488107
:100860002A2088814FF4F07008804FF44870488047
:1008700076E022203C49088120204881212088817F
:100880006EE00120384988714FF4A0700880F02094
:1008900048800846808849F24131884205D0324874
:1008A000808845F21031884207D12C202E490881DA
:1008B0002A2048812B2088813FE02B48808846F6FB
:1008C0000401884207D12C20274908812B20488128
:1008D0002A20888131E02448808845F210518842DE
:1008E00010D14FF43050204908814FF428504881EE
:1008F0004FF42C5088814FF4487008804FF4F0700A
:1009000048801AE01848808841F6631188420DD16A
:100910002C20154908812A2048812B2088814FF4FA
:10092000487008804FF4F070488006E022200E499D
:10093000088121204881202088810B48808846F644
:100940000401884205D00848808845F21031884269
:1009500006D14FF4F070044908804FF4A07048802D
:10096000002003F09FFD10BDD800002070B50446A4
:100970000D4616465A48808849F24131884205D0D2
:100980005748808845F21031884214D1544948892B
:1009900004F0A6F8201204F097F8E0B204F094F8FE
:1009A0004F49888904F09CF8281204F08DF8E8B2C9
:1009B00004F08AF88CE04A48808845F21051884259
:1009C00020D14749488904F08BF8201204F07CF8C4
:1009D00043494989491C88B204F082F8E0B204F026
:1009E00073F83F49888904F07BF8281204F06CF80A
:1009F0003B498989491C88B204F072F8E8B204F0D6
:100A000063F865E03648808841F66311884228D152
:100A10003348807920B932480088401E001B84B2D8
:100A20002F49488904F05CF8201204F04DF8E0B238
:100A300004F04AF8201204F047F8E0B204F044F859
:100A40002749888904F04CF8281204F03DF8E8B2F0
:100A500004F03AF8281204F037F8E8B204F034F859
:100A600036E01F48808846F6040188421DD11C48A4
:100A70008079012804D11A480088401E001B84B2E6
:100A80001749488904F02CF8201204F01DF8E0B250
:100A900004F01AF81249888904F022F8281204F0A8
:100AA00013F8E8B204F010F812E00D48807901283C
:100AB00004D10B480088401E001B84B208494889B5
:100AC000214604F023F806498889294604F01EF8D7
:100AD0000348008903490880881C068070BD000017
:100AE000D8000020FE07006C1CB5FE48006840F0EE
:100AF0007800FC4908600846006840F0040008607F
:100B0000F8480830006840F00100F64908310860F4
:100B10000120022100230246CDE900108021F24885
:100B2000FFF79EFD0120032100230222CDE90010E2
:100B30004CF23371ED48FFF793FD012003210023B0
:100B40000222CDE900104FF68071E948FFF788FDD9
:100B50000120032100230222CDE900100146E548CF
:100B6000FFF77EFD0120032100230222CDE90010C2
:100B70000103E048FFF774FD0C220021DB48FFF77A
:100B80004FFD0C220121D948FFF74AFD0C22042118
:100B9000D648FFF745FD0C220521D448FFF740FD5C
:100BA0000C220821D148FFF73BFD0C220921CF4838
:100BB000FFF736FD0C220A21CC48FFF731FD0C224D
:100BC0000E21CA48FFF72CFD0C220F21C748FFF762
:100BD00027FD0C220721C648FFF722FD0C22082121
:100BE000C348FFF71DFD0C220921C148FFF718FD7E
:100BF0000C220A21BE48FFF713FD0C220B21BC4832
:100C0000FFF70EFD0C221146B948FFF709FD0C2233
:100C10000D21B748FFF704FD0C220E21B448FFF761
:100C2000FFFC0C220F21B248FFF7FAFC0C22002136
:100C3000B048FFF7F5FC0C221146AE48FFF7F0FC78
:100C400000204FF020418861C861AB4908604FF037
:100C50002040806940F480504FF020418861084670
:100C6000806940F4804088610846806940F0100047
:100C700088610846C069C8610846C06940F00F0035
:100C8000C8610846C06940F47050C8619A4800685D
:100C9000C1F81C010846D0F81C0140F00900C1F859
:100CA0001C010846D0F81C0140F40060C1F81C018A
:100CB0000846806940F001008861322004F0CCF8D9
:100CC0000121002003F022FF322004F0C5F80020AB
:100CD00003F0ACFB8949888008468088FF280ADB3E
:100CE000084680884FF6FF71884204D08348808888
:100CF000B0F5134F7ED1D32003F0F2FE03F08CFB4E
:100D00007E49888003F088FB7C49888003F084FB5F
:100D10007A498880084680884FF6FF7101EA0020F2
:100D20007649888003F078FB7449898808437349C1
:100D300088800846808849F2413188425AD0BF20D5
:100D400003F0CEFE03F068FB6C49888003F064FB7F
:100D50006A49888003F060FB6849888003F05CFB87
:100D600066498880084680884FF6FF7101EA0020B6
:100D70006249888003F050FB6049898808435F49D5
:100D800088800846808846F6040188427AD0D420BC
:100D900003F0A6FE03F040FB5849888003F03CFBBB
:100DA0005649888003F038FB54498880084680887B
:100DB0004FF6FF7101EA00205049888003F02CFBB8
:100DC0004E49898808434D4988800846808845F205
:100DD0001031884256D04FF45A4003F081FE03F0A0
:100DE0001BFB464988804FF45B4003F079FE03F01B
:100DF00013FB00E046E041498880084680884FF6B2
:100E0000FF7101EA00203D4988804FF45C4003F007
:100E100067FE03F001FB3949898808433749888018
:100E200008468088B0F5004F02D145F21050888006
:100E30003248808845F21051884223D0A12003F027
:100E40004FFE03F0E9FA2D49888003F0E5FA2B49BB
:100E50008880084680884FF6FF7101EA0020274904
:100E6000888003F0D9FA2549898808432349888076
:100E70000846808845F26171884203D141F66310CB
:100E80001E4988801D48808849F24131884211D02E
:100E90001A48808845F2103188420BD01748808864
:100EA00045F21051884205D01448808841F66311FC
:100EB00088422CD11048006820F00F004FF02041EC
:100EC000C1F81C010846D0F81C0120F47060C1F87C
:100ED0001C010846D0F81C0140F00300C1F81C01B9
:100EE00008460DE03038024000080240000C024085
:100EF00000100240001802401C0100A0D800002091
:100F0000D0F81C0140F40070C1F81C0128E0FE4834
:100F1000808846F60401884205D0FB4880884CF260
:100F2000055188421CD1F948006820F00F004FF0AD
:100F30002041C1F81C010846D0F81C0120F4706063
:100F4000C1F81C010846D0F81C0140F00A00C1F8A5
:100F50001C010846D0F81C0140F44060C1F81C0197
:100F6000E9488188EAA0FFF787F9E748808849F2D5
:100F7000413188427ED1CF2003F0B2FD002003F042
:100F8000A3FDC12003F0A0FD302003F09DFDED2066
:100F900003F0A6FD642003F097FD032003F094FD09
:100FA000122003F091FD812003F08EFDE82003F074
:100FB00097FD852003F088FD102003F085FD7A2041
:100FC00003F082FDCB2003F08BFD392003F07CFD84
:100FD0002C2003F079FD002003F076FD342003F08F
:100FE00073FD022003F070FDF72003F079FD20204F
:100FF00003F06AFDEA2003F073FD002003F064FDB6
:10100000002003F061FDC02003F06AFD1B2003F007
:101010005BFDC12003F064FD012003F055FDC520F8
:1010200003F05EFD302003F04FFD302003F04CFD57
:10103000C72003F055FDB72003F046FD362003F02E
:101040004FFD482003F040FD3A2003F049FD5520B4
:1010500003F03AFDB12003F043FD002003F034FD1E
:101060001A2003F031FDB62003F03AFD0A2003F008
:101070002BFD00E097E0A22003F026FDF22003F014
:101080002FFD002003F020FD262003F029FD012084
:1010900003F01AFDE02003F023FD0F2003F014FD00
:1010A0002A2003F011FD282003F00EFD082003F094
:1010B0000BFD0E2003F008FD082003F005FD542071
:1010C00003F002FDA92003F0FFFC432003F0FCFC29
:1010D0000A2003F0F9FC0F2003F0F6FC002003F0D7
:1010E000F3FC002003F0F0FC002003F0EDFC0020F6
:1010F00003F0EAFCE12003F0F3FC002003F0E4FC41
:10110000152003F0E1FC172003F0DEFC072003F0BC
:10111000DBFC112003F0D8FC062003F0D5FC2B20CB
:1011200003F0D2FC562003F0CFFC3C2003F0CCFCB3
:10113000052003F0C9FC102003F0C6FC0F2003F0CB
:10114000C3FC3F2003F0C0FC3F2003F0BDFC0F2098
:1011500003F0BAFC2B2003F0C3FC002003F0B4FC26
:10116000002003F0B1FC012003F0AEFC3F2003F0AF
:10117000ABFC2A2003F0B4FC002003F0A5FC002007
:1011800003F0A2FC002003F09FFCEF2003F09CFC86
:10119000112003F0A5FC782003F05EFE292003F067
:1011A0009FFC03F029B95848808846F6040188421C
:1011B0007ED1112003F094FC142003F04DFED020CA
:1011C00003F08EFC072003F07FFC422003F07CFC40
:1011D0001D2003F079FCD12003F082FC002003F0F5
:1011E00073FC1A2003F070FC092003F06DFCD22080
:1011F00003F076FC012003F067FC222003F064FC7E
:10120000C02003F06DFC102003F05EFC3B2003F0D7
:101210005BFC002003F058FC022003F055FC112079
:1012200003F052FCC52003F05BFC032003F04CFCF0
:10123000C82003F055FC002003F046FC252003F0F5
:1012400043FC212003F040FC052003F03DFC00207E
:1012500003F03AFC0A2003F037FC652003F034FC6D
:10126000252003F031FC772003F02EFC502003F002
:101270002BFC0F2003F028FC002003F025FCF820B5
:1012800003F02EFC012003F01FFCFE2003F028FCDD
:10129000002003F019FC022003F016FC202003F0CC
:1012A0001FFC362003F01CFC082003F00DFC00E0BE
:1012B00036E03A2003F014FC552003F005FC2B2007
:1012C00003F00EFC002003F0FFFB002003F0FCFB0A
:1012D000012003F0F9FB3F2003F0F6FB2A2003F086
:1012E000FFFB002003F0F0FB002003F0EDFB0120EA
:1012F00003F0EAFBDF2003F0E7FB782003F0ACFD0E
:10130000292003F0EDFB4CE7D80000201C0100A0D1
:10131000204C43442049443A25780D0A000000003F
:10132000FE48808845F21031884240F07C87ED20ED
:1013300003F0D6FB012003F0C7FBFE2003F0C4FB43
:10134000EE2003F0CDFBDE2003F0BEFB212003F0F6
:10135000BBFBF12003F0C4FB012003F0B5FBDF2051
:1013600003F0BEFB102003F0AFFBC42003F0B8FB7A
:101370008F2003F0A9FBC62003F0B2FB002003F08E
:10138000A3FBE22003F0A0FBE22003F09DFBE220A0
:1013900003F09AFBBF2003F0A3FBAA2003F094FB09
:1013A000B02003F09DFB0D2003F08EFB002003F026
:1013B0008BFB0D2003F088FB002003F085FB112040
:1013C00003F082FB002003F07FFB192003F07CFB7D
:1013D000002003F079FB212003F076FB002003F0CE
:1013E00073FB2D2003F070FB002003F06DFB3D200C
:1013F00003F06AFB002003F067FB5D2003F064FB51
:10140000002003F061FB5D2003F05EFB002003F091
:101410005BFBB12003F064FB802003F055FB002050
:1014200003F052FB8B2003F04FFB002003F04CFB3A
:10143000962003F049FB002003F046FBB22003F0A6
:101440004FFB002003F040FB002003F03DFB022097
:1014500003F03AFB002003F037FB032003F034FBDA
:10146000002003F031FBB32003F03AFB002003F02F
:101470002BFB002003F028FB002003F025FB0020BD
:1014800003F022FB002003F01FFB002003F01CFBF5
:10149000002003F019FB002003F016FB002003F0EE
:1014A00013FB002003F010FB002003F00DFB0020D5
:1014B00003F00AFB002003F007FB002003F004FB0D
:1014C000002003F001FB002003F0FEFA002003F0EF
:1014D000FBFA002003F0F8FA002003F0F5FA0020F0
:1014E00003F0F2FA002003F0EFFA002003F0ECFA28
:1014F000002003F0E9FA002003F0E6FAB42003F03C
:10150000EFFA8B2003F0E0FA002003F0DDFA9620DA
:1015100003F0DAFA002003F0D7FAA12003F0D4FA9E
:10152000002003F0D1FAB52003F0DAFA022003F02C
:10153000CBFA002003F0C8FA032003F0C5FA00201C
:1015400003F0C2FA042003F0BFFA002003F0BCFA53
:10155000B62003F0C5FA002003F0B6FA002003F02D
:10156000B3FAB72003F0BCFA002003F0ADFA002074
:1015700003F0AAFA3F2003F0A7FA002003F0A4FA30
:101580005E2003F0A1FA002003F09EFA642003F02D
:101590009BFA002003F098FA8C2003F095FA0020C3
:1015A00003F092FAAC2003F08FFA002003F08CFADB
:1015B000DC2003F089FA002003F086FA702003F0A3
:1015C00083FA002003F080FA902003F07DFA0020D7
:1015D00003F07AFAEB2003F077FA002003F074FAB4
:1015E000DC2003F071FA002003F06EFAB82003F05B
:1015F00077FA002003F068FA002003F065FA002073
:1016000003F062FA002003F05FFA002003F05CFAB6
:10161000002003F059FA002003F056FA002003F0EE
:1016200053FABA2003F05CFA242003F04DFA0020AC
:1016300003F04AFA002003F047FA002003F044FACE
:10164000C12003F04DFA202003F03EFA002003F001
:101650003BFA542003F038FA002003F035FAFF205B
:1016600003F032FA002003F02FFAC22003F038FA18
:101670000A2003F029FA002003F026FA042003F0E0
:1016800023FA002003F020FAC32003F029FA3C20BB
:1016900003F01AFA002003F017FA3A2003F014FAC4
:1016A000002003F011FA392003F00EFA002003F0B5
:1016B0000BFA372003F008FA002003F005FA3C206B
:1016C00003F002FA002003F0FFF9362003F0FCF9E2
:1016D000002003F0F9F9322003F0F6F9002003F0BE
:1016E000F3F92F2003F0F0F9002003F0EDF92C209E
:1016F00003F0EAF9002003F0E7F9292003F0E4F908
:10170000002003F0E1F9262003F0DEF9002003F0C9
:10171000DBF9242003F0D8F9002001E0D8000020F4
:1017200003F0D2F9242003F0CFF9002003F0CCF924
:10173000232003F0C9F9002003F0C6F93C2003F090
:10174000C3F9002003F0C0F9362003F0BDF90020F2
:1017500003F0BAF9322003F0B7F9002003F0B4F92E
:101760002F2003F0B1F9002003F0AEF92C2003F094
:10177000ABF9002003F0A8F9292003F0A5F9002017
:1017800003F0A2F9262003F09FF9002003F09CF952
:10179000242003F099F9002003F096F9242003F0A7
:1017A00093F9002003F090F9232003F08DF9002035
:1017B00003F08AF9C42003F093F9622003F084F95E
:1017C000002003F081F9052003F07EF9002003F0EA
:1017D0007BF9842003F078F9002003F075F9F020FC
:1017E00003F072F9002003F06FF9182003F06CF990
:1017F000002003F069F9A42003F066F9002003F04B
:1018000063F9182003F060F9002003F05DF950201F
:1018100003F05AF9002003F057F90C2003F054F9B3
:10182000002003F051F9172003F04EF9002003F0D7
:101830004BF9952003F048F9002003F045F9F32017
:1018400003F042F9002003F03FF9E62003F03CF9F1
:10185000002003F039F9C52003F042F9322003F0EB
:1018600033F9002003F030F9442003F02DF9002073
:1018700003F02AF9652003F027F9002003F024F98A
:10188000762003F021F9002003F01EF9882003F0F0
:101890001BF9002003F018F9C62003F021F92020DD
:1018A00003F012F9002003F00FF9172003F00CF9F0
:1018B000002003F009F9012003F006F9002003F0ED
:1018C00003F9C72003F00CF9002003F0FDF8002015
:1018D00003F0FAF8002003F0F7F8002003F0F4F822
:1018E000C82003F0FDF8002003F0EEF8002003F01C
:1018F000EBF8002003F0E8F8002003F0E5F8C92039
:1019000003F0EEF8002003F0DFF8002003F0DCF82D
:10191000002003F0D9F8002003F0D6F8002003F0EF
:10192000D3F8002003F0D0F8002003F0CDF8002019
:1019300003F0CAF8002003F0C7F8002003F0C4F851
:10194000002003F0C1F8002003F0BEF8002003F0EF
:10195000BBF8002003F0B8F8002003F0B5F8002031
:1019600003F0B2F8E02003F0BBF8162003F0ACF867
:10197000002003F0A9F81C2003F0A6F8002003F0D3
:10198000A3F8212003F0A0F8002003F09DF83620F2
:1019900003F09AF8002003F097F8462003F094F83B
:1019A000002003F091F8522003F08EF8002003F09D
:1019B0008BF8642003F088F8002003F085F87A2083
:1019C00003F082F8002003F07FF88B2003F07CF80E
:1019D000002003F079F8992003F076F8002003F056
:1019E00073F8A82003F070F8002003F06DF8B92018
:1019F00003F06AF8002003F067F8C42003F064F8ED
:101A0000002003F061F8CA2003F05EF8002003F024
:101A10005BF8D22003F058F8002003F055F8D920E5
:101A200003F052F8002003F04FF8E02003F04CF8E8
:101A3000002003F049F8F32003F046F8002003F0FB
:101A400043F8E12003F04CF8162003F03DF80020A5
:101A500003F03AF81C2003F037F8002003F034F8C4
:101A6000222003F031F8002003F02EF8362003F096
:101A70002BF8002003F028F8452003F025F800207B
:101A800003F022F8522003F01FF8002003F01CF8A6
:101A9000642003F019F8002003F016F87A2003F010
:101AA00013F8002003F010F88B2003F00DF800204D
:101AB00003F00AF8992003F007F8002003F004F877
:101AC000A82003F001F8002002F0FEFFB92002F088
:101AD000FBFF002002F0F8FFC42002F0F5FF002019
:101AE00002F0F2FFCA2002F0EFFF002002F0ECFF4C
:101AF000D22002F0E9FF002002F0E6FFD82002F039
:101B0000E3FF002002F0E0FFE02002F0DDFF002014
:101B100002F0DAFFF32002F0D7FF002002F0D4FF3A
:101B2000E22002F0DDFF052002F0CEFF002002F0EF
:101B3000CBFF0B2002F0C8FF002002F0C5FF1B20E6
:101B400002F0C2FF002002F0BFFF342002F0BCFF11
:101B5000002002F0B9FF442002F0B6FF002002F09E
:101B6000B3FF4F2002F0B0FF002002F0ADFF612074
:101B700002F0AAFF002002F0A7FF792002F0A4FFE4
:101B8000002002F0A1FF882002F09EFF002002F05A
:101B90009BFF972002F098FF002002F095FFA620FF
:101BA00002F092FF002002F08FFFB72002F08CFFBE
:101BB000002002F089FFC22002F086FF002002F020
:101BC00083FFC72002F080FF002002F07DFFD120BC
:101BD00002F07AFF002002F077FFD62002F074FFB7
:101BE000002002F071FFDD2002F06EFF002002F005
:101BF0006BFFF32002F068FF002002F065FFE32096
:101C000002F06EFF052002F05FFF002002F05CFF93
:101C10000A2002F059FF002002F056FF1C2002F0BB
:101C200053FF002002F050FF332002F04DFF002050
:101C300002F04AFF442002F047FF002002F044FF78
:101C4000502002F041FF002002F03EFF622002F02F
:101C50003BFF002002F038FF782002F035FF002023
:101C600002F032FF882002F02FFF002002F02CFF4C
:101C7000972002F029FF002002F026FFA62002F0A4
:101C800023FF002002F020FFB72002F01DFF0020FC
:101C900002F01AFFC22002F017FF002002F014FF2A
:101CA000C72002F011FF002002F00EFFD12002F049
:101CB0000BFF002002F008FFD52002F005FF0020F6
:101CC00002F002FFDD2002F0FFFE002002F0FCFE29
:101CD000F32002F0F9FE002002F0F6FEE42002F00C
:101CE000FFFE012002F0F0FE002002F0EDFE0120D8
:101CF00002F0EAFE002002F0E7FE022002F0E4FE1D
:101D0000002002F0E1FE2A2002F0DEFE002002F0B8
:101D1000DBFE3C2002F0D8FE002002F0D5FE4B2076
:101D200002F0D2FE002002F0CFFE5D2002F0CCFED9
:101D3000002002F0C9FE742002F0C6FE002002F06E
:101D4000C3FE842002F0C0FE002002F0BDFE9320FE
:101D500002F0BAFE002002F0B7FEA22002F0B4FEAC
:101D6000002002F0B1FEB32002F0AEFE002002F02F
:101D7000ABFEBE2002F0A8FE002002F0A5FEC420AB
:101D800002F0A2FE002002F09FFECD2002F09CFE99
:101D9000002002F099FED32002F096FE002002F00F
:101DA00093FEDD2002F090FE002002F08DFEF32075
:101DB00002F08AFE002002F087FEE52002F090FE8D
:101DC000002002F081FE002002F07EFE002002F0E2
:101DD0007BFE002002F078FE022002F075FE00205B
:101DE00002F072FE292002F06FFE002002F06CFE6D
:101DF0003C2002F069FE002002F066FE4B2002F05B
:101E000063FE002002F060FE5D2002F05DFE002017
:101E100002F05AFE742002F057FE002002F054FE39
:101E2000842002F051FE002002F04EFE932002F0CA
:101E30004BFE002002F048FEA22002F045FE0020EA
:101E400002F042FEB32002F03FFE002002F03CFE12
:101E5000BE2002F039FE002002F036FEC42002F05F
:101E600033FE002002F030FECD2002F02DFE0020D7
:101E700002F02AFED32002F027FE002002F024FE0A
:101E8000DC2002F021FE002002F01EFEF32002F012
:101E90001BFE002002F018FEE62002F021FE1120B9
:101EA00002F012FE002002F00FFE342002F00CFEC1
:101EB000002002F009FE562002F006FE002002F08B
:101EC00003FE762002F000FE002002F0FDFD7720E8
:101ED00002F0FAFD002002F0F7FD662002F0F4FDAA
:101EE000002002F0F1FD882002F0EEFD002002F05B
:101EF000EBFD992002F0E8FD002002F0E5FDBB209B
:101F000002F0E2FD002002F0DFFD992002F0DCFD8E
:101F1000002002F0D9FD662002F0D6FD002002F07C
:101F2000D3FD552002F0D0FD002002F0CDFD55205C
:101F300002F0CAFD002002F0C7FD452002F0C4FDFA
:101F4000002002F0C1FD432002F0BEFD002002F09F
:101F5000BBFD442002F0B8FD002002F0B5FDE720F3
:101F600002F0BEFD322002F0AFFD002002F0ACFD19
:101F7000552002F0A9FD002002F0A6FD762002F017
:101F8000A3FD002002F0A0FD662002F09DFD0020D0
:101F900002F09AFD672002F097FD002002F094FD08
:101FA000672002F091FD002002F08EFD872002F0F4
:101FB0008BFD002002F088FD992002F085FD0020B5
:101FC00002F082FDBB2002F07FFD002002F07CFDCC
:101FD000992002F079FD002002F076FD772002F0D2
:101FE00073FD002002F070FD442002F06DFD002022
:101FF00002F06AFD562002F067FD002002F064FD49
:10200000232002F061FD002002F05EFD332002F08B
:102010005BFD002002F058FD452002F055FD002038
:1020200002F052FDE82002F05BFD002002F04CFDC2
:10203000002002F049FD992002F046FD002002F048
:1020400043FD872002F040FD002002F03DFD882086
:1020500002F03AFD002002F037FD772002F034FD57
:10206000002002F031FD662002F02EFD002002F07B
:102070002BFD882002F028FD002002F025FDAA207B
:1020800002F022FD002002F01FFDBB2002F01CFD2B
:10209000002002F019FD992002F016FD002002F048
:1020A00013FD662002F010FD002002F00DFD55200A
:1020B00002F00AFD002002F007FD552002F004FDA9
:1020C000002002F001FD442002F0FEFC002002F09E
:1020D000FBFC442002F0F8FC002002F0F5FC552047
:1020E00002F0F2FC002002F0EFFCE92002F0F8FC24
:1020F000AA2002F0E9FC002002F0E6FC002002F039
:10210000E3FC002002F0E0FC002002F0E9FCAA2041
:1021100002F0DAFCCF2002F0E3FC002002F0D4FC55
:10212000002002F0D1FC002002F0CEFC002002F0E2
:10213000CBFC002002F0C8FC002002F0C5FC00200F
:1021400002F0C2FC002002F0BFFC002002F0BCFC48
:10215000002002F0B9FC002002F0B6FC002002F0E2
:10216000B3FC002002F0B0FC002002F0ADFC002027
:1021700002F0AAFC002002F0A7FC002002F0A4FC60
:10218000F02002F0ADFC002002F09EFC502002F096
:102190009BFC002002F098FC002002F095FC00203F
:1021A00002F092FCF32002F09BFC002002F08CFC79
:1021B000F92002F095FC062002F086FC102002F0C7
:1021C00083FC292002F080FC002002F07DFC3A20F4
:1021D00002F086FC552002F077FC112002F080FC12
:1021E000642002F039FE292002F07AFC352002F04A
:1021F00077FC002002F068FC512002F071FCFF2007
:1022000002F062FC532002F06BFC2C2002F05CFC1C
:10221000552002F065FC822002F056FC2C2002F0D2
:102220005FFC02F0E9B8FE48808845F21051884210
:102230007ED155214FF4704002F068FCAA214FF284
:10224000010002F063FC52214FF2020002F05EFC3A
:1022500008214FF2030002F059FC01214FF2040063
:1022600002F054FC0D214FF4304002F04FFC0D21E0
:102270004BF2010002F04AFC0D214BF2020002F089
:1022800045FC34214FF4364002F040FC34214BF23F
:10229000016002F03BFC34214BF2026002F036FC9C
:1022A0000D214FF4314002F031FC0D214BF20110B1
:1022B00002F02CFC0D214BF2021002F027FC34211D
:1022C0004FF4374002F022FC34214BF2017002F04F
:1022D0001DFC34214BF2027002F018FC00214FF477
:1022E000324002F013FC00214BF2012002F00EFC00
:1022F00000214BF2022002F009FC24214FF4384067
:1023000002F004FC24214BF6010002F0FFFB242123
:102310004BF6020002F0FAFB01214FF43F4002F0BD
:10232000F5FB0F214FF4334002F0F0FB0F2100E0EA
:10233000FEE34BF2013002F0E9FB0F214BF20230D9
:1023400002F0E4FB34214FF4394002F0DFFB34218A
:102350004BF6011002F0DAFB34214BF6021002F0CA
:10236000D5FB08214FF4354002F0D0FB08214BF299
:10237000015002F0CBFB08214BF2025002F0C6FBE9
:1023800003214FF4424002F0C1FB24214FF43A40B4
:1023900002F0BCFB24214BF6012002F0B7FB242104
:1023A0004BF6022002F0B2FB00214FF43C4002F059
:1023B000ADFB78214BF6014002F0A8FB00214BF663
:1023C000024002F0A3FB00214FF43D4002F09EFBCF
:1023D00078214BF6015002F099FB00214BF6025098
:1023E00002F094FB00214FF43E4002F08FFB642189
:1023F0004BF6016002F08AFB00214FF4514002F0DD
:1024000085FB33214DF2011002F080FB00214DF2DB
:10241000021002F07BFB34214DF2031002F076FB38
:1024200000214DF2041002F071FB3A214DF205102B
:1024300002F06CFB00214DF2061002F067FB4A210E
:102440004DF2071002F062FB00214DF2081002F07D
:102450005DFB5C214DF2091002F058FB00214DF2AA
:102460000A1002F053FB81214DF20B1002F04EFBDB
:1024700000214DF20C1002F049FBA6214DF20D1087
:1024800002F044FB00214DF20E1002F03FFBE5216B
:102490004DF20F1002F03AFB01214DF2101002F044
:1024A00035FB13214DF2111002F030FB01214DF2EA
:1024B000121002F02BFB54214DF2131002F026FBF8
:1024C00001214DF2141002F021FB82214DF2151072
:1024D00002F01CFB01214DF2161002F017FBCA217D
:1024E0004DF2171002F012FB02214DF2181002F00B
:1024F0000DFB00214DF2191002F008FB02214DF2F4
:102500001A1002F003FB01214DF21B1002F0FEFA3B
:1025100002214DF21C1002F0F9FA34214DF21D1087
:1025200002F0F4FA02214DF21E1002F0EFFA6721D8
:102530004DF21F1002F0EAFA02214DF2201002F0D3
:10254000E5FA84214DF2211002F0E0FA02214DF269
:10255000221002F0DBFAA4214DF2231002F0D6FA89
:1025600002214DF2241002F0D1FAB7214DF22510CC
:1025700002F0CCFA02214DF2261002F0C7FACF2168
:102580004DF2271002F0C2FA02214DF2281002F09B
:10259000BDFADE214DF2291002F0B8FA02214DF207
:1025A0002A1002F0B3FAF2214DF22B1002F0AEFA2B
:1025B00002214DF22C1002F0A9FAFE214DF22D104D
:1025C00002F0A4FA03214DF22E1002F09FFA10211E
:1025D0004DF22F1002F09AFA03214DF2301002F062
:1025E00095FA33214DF2311002F090FA03214DF2A9
:1025F000321002F08BFA6D214DF2331002F086FAA0
:1026000000214FF4524002F081FA33214DF20120B3
:1026100002F07CFA00214DF2022002F077FA01E08C
:10262000D800002034214DF2032002F06FFA00217F
:102630004DF2042002F06AFA3A214DF2052002F030
:1026400065FA00214DF2062002F060FA4A214DF2AF
:10265000072002F05BFA00214DF2082002F056FA42
:102660005C214DF2092002F051FA00214DF20A20BE
:1026700002F04CFA81214DF20B2002F047FA0021C2
:102680004DF20C2002F042FAA6214DF20D2002F08C
:102690003DFA00214DF20E2002F038FAE5214DF20C
:1026A0000F2002F033FA01214DF2102002F02EFA31
:1026B00013214DF2112002F029FA01214DF21220CE
:1026C00002F024FA54214DF2132002F01FFA0121E6
:1026D0004DF2142002F01AFA82214DF2152002F078
:1026E00015FA01214DF2162002F010FACA214DF21E
:1026F000172002F00BFA02214DF2182002F006FA20
:1027000000214DF2192002F001FA02214DF21A20A7
:1027100002F0FCF901214DF21B2002F0F7F9022131
:102720004DF21C2002F0F2F934214DF21D2002F08E
:10273000EDF902214DF21E2002F0E8F967214DF279
:102740001F2002F0E3F902214DF2202002F0DEF911
:1027500084214DF2212002F0D9F902214DF22220EC
:1027600002F0D4F9A4214DF2232002F0CFF9022186
:102770004DF2242002F0CAF9B7214DF2252002F0D3
:10278000C5F902214DF2262002F0C0F9CF214DF209
:10279000272002F0BBF902214DF2282002F0B6F901
:1027A000DE214DF2292002F0B1F902214DF22A205A
:1027B00002F0ACF9F2214DF22B2002F0A7F9022130
:1027C0004DF22C2002F0A2F9FE214DF22D2002F054
:1027D0009DF903214DF22E2002F098F910214DF2BF
:1027E0002F2002F093F903214DF2302002F08EF9F0
:1027F00033214DF2312002F089F903214DF23220CC
:1028000002F084F96D214DF2332002F07FF90021AE
:102810004FF4534002F07AF933214DF2013002F0C7
:1028200075F900214DF2023002F070F934214DF2B9
:10283000033002F06BF900214DF2043002F066F92A
:102840003A214DF2053002F061F900214DF20630D7
:1028500002F05CF94A214DF2073002F057F90021ED
:102860004DF2083002F052F95C214DF2093002F0CD
:102870004DF900214DF20A3002F048F981214DF264
:102880000B3002F043F900214DF20C3002F03EF91A
:10289000A6214DF20D3002F039F900214DF20E3033
:1028A00002F034F9E5214DF20F3002F02FF9012149
:1028B0004DF2103002F02AF913214DF2113002F0DE
:1028C00025F901214DF2123002F020F954214DF288
:1028D000133002F01BF901214DF2143002F016F909
:1028E00082214DF2153002F011F901214DF216301E
:1028F00002F00CF9CA214DF2173002F007F902215B
:102900004DF2183002F002F900214DF2193002F0B8
:10291000FDF802214DF21A3002F0F8F801214DF2D3
:102920001B3002F0F3F802214DF21C3002F0EEF8F9
:1029300034214DF21D3002F0E9F802214DF21E3033
:1029400002F0E4F867214DF21F3002F0DFF80221B7
:102950004DF2203002F0DAF884214DF2213002F0FD
:10296000D5F802214DF2223002F0D0F8A4214DF228
:10297000233002F0CBF802214DF2243002F0C6F8E9
:10298000B7214DF2253002F0C1F802214DF2263078
:1029900002F0BCF8CF214DF2273002F0B7F8022147
:1029A0004DF2283002F0B2F8DE214DF2293002F06B
:1029B000ADF802214DF22A3002F0A8F8F2214DF2D2
:1029C0002B3002F0A3F802214DF22C3002F09EF8D9
:1029D000FE214DF22D3002F099F803214DF22E30F8
:1029E00002F094F810214DF22F3002F08FF80321FD
:1029F0004DF2303002F08AF833214DF2313002F0DE
:102A000085F803214DF2323002F080F86D214DF24D
:102A1000333002F07BF800214FF4544002F076F896
:102A200033214DF2014002F071F800214DF20240D5
:102A300002F06CF834214DF2034002F067F80021F7
:102A40004DF2044002F062F83A214DF2054002F0E6
:102A50005DF800214DF2064002F058F84A214DF28F
:102A6000074002F053F800214DF2084002F04EF802
:102A70005C214DF2094002F049F800214DF20A4074
:102A800002F044F881214DF20B4002F03FF80021A2
:102A90004DF20C4002F03AF8A6214DF20D4002F042
:102AA00035F800214DF20E4002F030F8E5214DF2EC
:102AB0000F4002F02BF801214DF2104002F026F8F1
:102AC00013214DF2114002F021F801214DF2124084
:102AD00002F01CF854214DF2134002F017F80121C6
:102AE0004DF2144002F012F882214DF2154002F02E
:102AF0000DF801214DF2164002F008F8CA214DF2FE
:102B0000174002F003F802214DF2184001F0FEFFD9
:102B100000214DF2194001F0F9FF02214DF21A4057
:102B200001F0F4FF01214DF21B4001F0EFFF00E046
:102B300004E302214DF21C4001F0E8FF34214DF284
:102B40001D4001F0E3FF02214DF21E4001F0DEFFC7
:102B500067214DF21F4001F0D9FF02214DF22040C4
:102B600001F0D4FF84214DF2214001F0CFFF02217A
:102B70004DF2224001F0CAFFA4214DF2234001F0A2
:102B8000C5FF02214DF2244001F0C0FFB7214DF2F4
:102B9000254001F0BBFF02214DF2264001F0B6FFB7
:102BA000CF214DF2274001F0B1FF02214DF2284024
:102BB00001F0ACFFDE214DF2294001F0A7FF022118
:102BC0004DF22A4001F0A2FFF2214DF22B4001F01C
:102BD0009DFF02214DF22C4001F098FFFE214DF2A5
:102BE0002D4001F093FF03214DF22E4001F08EFFA6
:102BF00010214DF22F4001F089FF03214DF23040AA
:102C000001F084FF33214DF2314001F07FFF0321B9
:102C10004DF2324001F07AFF6D214DF2334001F068
:102C200075FF00214FF4554001F070FF33214DF244
:102C3000015001F06BFF00214DF2025001F066FFE0
:102C400034214DF2035001F061FF00214DF2045098
:102C500001F05CFF3A214DF2055001F057FF0021D1
:102C60004DF2065001F052FF4A214DF2075001F09B
:102C70004DFF00214DF2085001F048FF5C214DF25C
:102C8000095001F043FF00214DF20A5001F03EFFD0
:102C900081214DF20B5001F039FF00214DF20C5013
:102CA00001F034FFA6214DF20D5001F02FFF00215D
:102CB0004DF20E5001F02AFFE5214DF20F5001F0C8
:102CC00025FF01214DF2105001F020FF13214DF29C
:102CD000115001F01BFF01214DF2125001F016FFBF
:102CE00054214DF2135001F011FF01214DF2145007
:102CF00001F00CFF82214DF2155001F007FF012178
:102D00004DF2165001F002FFCA214DF2175001F0AA
:102D1000FDFE02214DF2185001F0F8FE00214DF2A7
:102D2000195001F0F3FE02214DF21A5001F0EEFEAF
:102D300001214DF21B5001F0E9FE02214DF21C5021
:102D400001F0E4FE34214DF21D5001F0DFFE0221BE
:102D50004DF21E5001F0DAFE67214DF21F5001F0D6
:102D6000D5FE02214DF2205001F0D0FE84214DF21B
:102D7000215001F0CBFE02214DF2225001F0C6FE9F
:102D8000A4214DF2235001F0C1FE02214DF2245046
:102D900001F0BCFEB7214DF2255001F0B7FE022133
:102DA0004DF2265001F0B2FECF214DF2275001F036
:102DB000ADFE02214DF2285001F0A8FEDE214DF2B9
:102DC000295001F0A3FE02214DF22A5001F09EFE8F
:102DD000F2214DF22B5001F099FE02214DF22C50C0
:102DE00001F094FEFE214DF22D5001F08FFE0321E3
:102DF0004DF22E5001F08AFE10214DF22F5001F0BD
:102E000085FE03214DF2305001F080FE33214DF25A
:102E1000315001F07BFE03214DF2325001F076FE7D
:102E20006D214DF2335001F071FE00214FF45640F8
:102E300001F06CFE33214DF2016001F067FE0021CC
:102E40004DF2026001F062FE34214DF2036001F0A8
:102E50005DFE00214DF2046001F058FE3A214DF272
:102E6000056001F053FE00214DF2066001F04EFEB8
:102E70004A214DF2076001F049FE00214DF2086041
:102E800001F044FE5C214DF2096001F03FFE00219B
:102E90004DF20A6001F03AFE81214DF20B6001F023
:102EA00035FE00214DF20C6001F030FEA6214DF2FE
:102EB0000D6001F02BFE00214DF20E6001F026FEA8
:102EC000E5214DF20F6001F021FE01214DF210606D
:102ED00001F01CFE13214DF2116001F017FE0121DB
:102EE0004DF2126001F012FE54214DF2136001F018
:102EF0000DFE01214DF2146001F008FE82214DF219
:102F0000156001F003FE01214DF2166001F0FEFD97
:102F1000CA214DF2176001F0F9FD02214DF218604F
:102F200001F0F4FD00214DF2196001F0EFFD0221E6
:102F30004DF21A6001F0EAFD01214DF21B6001F033
:102F4000E5FD02214DF21C6001F0E0FD34214DF25F
:102F50001D6001F0DBFD02214DF21E6001F0D6FD87
:102F600067214DF21F6001F0D1FD02214DF220607A
:102F700001F0CCFD84214DF2216001F0C7FD02215A
:102F80004DF2226001F0C2FDA4214DF2236001F058
:102F9000BDFD02214DF2246001F0B8FDB7214DF2D4
:102FA000256001F0B3FD02214DF2266001F0AEFD77
:102FB000CF214DF2276001F0A9FD02214DF22860DA
:102FC00001F0A4FDDE214DF2296001F09FFD0221F8
:102FD0004DF22A6001F09AFDF2214DF22B6001F0D2
:102FE00095FD02214DF22C6001F090FDFE214DF285
:102FF0002D6001F08BFD03214DF22E6001F086FD66
:1030000010214DF22F6001F081FD03214DF230605F
:1030100001F07CFD33214DF2316001F077FD032199
:103020004DF2326001F072FD6D214DF2336001F01E
:103030006DFD55214FF4704001F068FDAA214FF25B
:10304000010001F063FD52214FF2020001F05EFD2C
:1030500008214FF2030001F059FD00214FF2040056
:1030600001F054FDCC214FF4314001F04FFD00211F
:103070004BF2011001F04AFD05214FF4364001F0FA
:1030800045FD70214FF4374001F040FD70214BF2B7
:10309000017001F03BFD01214FF4384001F036FD95
:1030A00003214BF6010001F031FD03214BF6020034
:1030B00001F02CFD03214BF6030001F027FD022156
:1030C0004FF43C4001F022FD00214BF6014001F09D
:1030D0001DFD00214BF6024001F018FDD0214FF4F8
:1030E000494001F013FD02214CF6011001F00EFDE4
:1030F00050214CF6021001F009FD50214CF603104E
:1031000001F004FD50214CF6041001F0FFFC0021F9
:103110004FF4545001F0FAFC55214FF4685001F07F
:10312000F5FC4FF4885001F0DBFC782001F0B0FE94
:103130004FF4245001F0D4FC01F05EB9FE488088C1
:1031400049F2253188427DD147F6F001E52001F0B2
:10315000DDFC4FF48071012001F0D8FC4FF4E061F8
:10316000022001F0D3FC41F23001032001F0CEFC3B
:103170000021042001F0CAFC40F20221082001F0E5
:10318000C5FC0021092001F0C1FC00210A2001F04A
:10319000BDFC00210C2001F0B9FC00210D2001F044
:1031A000B5FC00210F2001F0B1FC0021102001F03E
:1031B000ADFC0721112001F0A9FC0021122001F033
:1031C000A5FC0021132001F0A1FC0021072001F043
:1031D0009DFC41F29061102001F098FC40F2272103
:1031E000112001F093FC9D21122001F08FFC4FF47F
:1031F000C851132001F08AFC2521292001F086FC0A
:103200000D212B2001F082FC0721302001F07EFCF3
:1032100040F20331312001F079FC0321322001F02A
:1032200075FC40F20621352001F070FC08213620A3
:1032300001F06CFC40F20641372001F067FC4FF4CE
:10324000417100E058E0382001F060FC072139208E
:1032500001F05CFC40F202613C2001F057FC0821C7
:103260003D2001F053FC0021502001F04FFCEF21E4
:10327000512001F04BFC0021522001F047FC40F2AC
:103280003F11532001F042FC4FF42741602001F030
:103290003DFC0121612001F039FC00216A2001F090
:1032A00035FC0021802001F031FC0021812001F05B
:1032B0002DFC0021822001F029FC0021832001F057
:1032C00025FC0021842001F021FC0021852001F053
:1032D0001DFC1021902001F019FC4FF4C0619220D8
:1032E00001F014FC40F23311072001F00FFC222101
:1032F000002001F00BFC1FE78F48808849F228313D
:1033000088427DD141F28F01EC2001F0FFFB41F2B8
:103310003421EF2001F0FAFB4FF48071012001F01D
:10332000F5FB4FF4E061022001F0F0FB41F23001C7
:10333000032001F0EBFB0021042001F0E7FB40F249
:103340000221082001F0E2FB0021092001F0DEFB50
:1033500000210A2001F0DAFB01210C2001F0D6FB4C
:1033600000210D2001F0D2FB00210F2001F0CEFB47
:103370000021102001F0CAFB0721112001F0C6FB3B
:103380000021122001F0C2FB0021132001F0BEFB3E
:103390000121072001F0BAFB322001F05DFD41F26E
:1033A0009041102001F0B2FB40F22721112001F0E2
:1033B000ADFB322001F050FD8A21122001F0A6FB66
:1033C000322001F049FD4FF4D051132001F09EFB53
:1033D0000621292001F09AFB0D212B2001F096FBFC
:1033E000322001F039FD0021202001F08FFB002167
:1033F000212001F08BFB322001F02EFD002100E0A6
:1034000075E0302001F082FB40F20461312001F0D0
:103410007DFB40F20531322001F078FB00213520A0
:1034200001F074FB40F60941362001F06FFB4FF4C8
:103430000171372001F06AFB40F20131382001F0C0
:1034400065FB40F20771392001F060FB00213C2050
:1034500001F05CFB40F60A213D2001F057FB3220D1
:1034600001F0FAFC0021502001F050FBEF21512027
:1034700001F04CFB0021522001F048FB40F23F11CB
:10348000532001F043FB4FF42741602001F03EFB45
:103490000121612001F03AFB00216A2001F036FB96
:1034A0000021802001F032FB0021812001F02EFB61
:1034B0000021822001F02AFB0021832001F026FB5D
:1034C0000021842001F022FB0021852001F01EFB59
:1034D0001021902001F01AFB4FF4C061922001F0FE
:1034E00015FB40F23311072001F010FB24E61248CF
:1034F000808849F2203188427ED10021084601F0BF
:1035000005FB4FF48071012001F000FB4FF4E061F6
:10351000022001F0FBFA41F23001032001F0F6FA3B
:103520000021042001F0F2FA40F20221082001F00B
:10353000EDFA0021092001E0D800002001F0E6FAB0
:1035400000210A2001F0E2FA01210C2001F0DEFA4C
:1035500000210D2001F0DAFA00210F2001F0D6FA47
:10356000322001F079FC40F20111072001F0CEFA7F
:10357000322001F071FC4FF48651102001F0C6FAA0
:103580000721112001F0C2FA4FF48871122001F0D6
:10359000BDFA4FF43061132001F0B8FA0021292060
:1035A00001F0B4FA44F210012B2001F0AFFA00212F
:1035B000502001F0ABFAEF21512001F0A7FA0021D1
:1035C000522001F0A3FA40F23F11532001F09EFA7D
:1035D0004FF41C51602001F099FA0121612001F0A3
:1035E00095FA00216A2001F091FA0021802001F073
:1035F0008DFA0021812000E030E001F087FA0021FF
:10360000822001F083FA0021832001F07FFA00215B
:10361000842001F07BFA0021852001F077FA102147
:10362000902001F073FA0021922001F06FFA01213D
:10363000932001F06BFA4FF48871952001F066FA3F
:103640000021972001F062FA0021982001F05EFA33
:1036500040F27311072001F059FA6DE5FE488088A9
:1036600049F2313188427DD141F21401E72001F065
:103670004DFA4FF48071012001F048FA4FF40071C7
:10368000022001F043FA41F23801032001F03EFA32
:1036900040F20221082001F039FA0021092001F04E
:1036A00035FA00210A2001F031FA00210C2001F046
:1036B0002DFA00210D2001F029FA00210F2001F040
:1036C00025FA0021102001F021FA0721112001F034
:1036D0001DFA0021122001F019FA0021132001F037
:1036E00015FAC82001F0B8FB41F29061102001F0FA
:1036F0000DFA40F22721112001F008FA322001F0E2
:10370000ABFB0C21122001F001FA322001F0A4FBE6
:103710004FF40061132001F0F9F91121292001F083
:10372000F5F90B212B2001F0F1F9322001F094FB87
:103730000021202001F0EAF940F23F11212001F0A0
:10374000E5F90021302001F0E1F94FF483713120D7
:1037500001F0DCF90021322001F0D8F94FF40171B9
:10376000352000E064E001F0D1F941F20A61362031
:1037700001F0CCF940F20771372001F0C7F94FF49E
:103780008371382001F0C2F940F20771392001F04D
:10379000BDF940F202413C2001F0B8F940F60F417A
:1037A0003D2001F0B3F90021502001F0AFF9EF21E5
:1037B000512001F0ABF90021522001F0A7F940F2AD
:1037C0003F11532001F0A2F94FF41C51602001F089
:1037D0009DF90121612001F099F900216A2001F091
:1037E00095F90021802001F091F90021812001F05C
:1037F0008DF90021822001F089F90021832001F058
:1038000085F90021842001F081F90021852001F053
:103810007DF91021902001F079F94FF4C0619220D8
:1038200001F074F940F23311072001F06FF983E4DD
:103830008948808845F2084188427DD14FF48071E3
:10384000012001F063F94FF4E061022001F05EF91C
:1038500041F23001032001F059F90021042001F068
:1038600055F940F20721082001F050F90021092004
:1038700001F04CF900210A2001F048F900210C2048
:1038800001F044F900210D2001F040F900210F2042
:1038900001F03CF9142001F0DFFA41F2B061102090
:1038A00001F034F90121112001F030F90121172034
:1038B00001F02CF94FF49C71122001F027F94FF41C
:1038C0000061132001F022F90921292001F01EF9DD
:1038D00009212A2001F01AF90021A42001F016F98B
:1038E0000021502001F012F9EF21512001F00EF9D2
:1038F0000021522001F00AF940F23F11532001F05B
:1039000005F94FF41C51602001F000F901216120FC
:1039100001F0FCF800216A2001F0F8F80021802075
:1039200001F0F4F80021812001F0F0F8002182205C
:1039300001F0ECF8002100E024E0832001F0E6F83B
:103940000021842001F0E2F80021852001F0DEF85A
:103950001321902001F0DAF80021922001F0D6F82E
:103960000321932001F0D2F84FF48871952001F0E3
:10397000CDF840F27311072001F0C8F8322001F0B1
:103980006BFAB8E43448808841F2055188427DD111
:103990000021072001F0BAF8322001F05DFA4FF45F
:1039A0008E71122001F0B2F80121A42001F0AEF8CE
:1039B0000F21082001F0AAF808210A2001F0A6F83A
:1039C00008210D2001F0A2F840F20771302001F02B
:1039D0009DF80721312001F099F840F2036132206F
:1039E00001F094F84FF4E061332001F08FF840F2D9
:1039F0000221342001F08AF80221352001F086F8F6
:103A000041F60F71362001F081F840F2077137203E
:103A100001F07CF80021382001F078F800213920ED
:103A200001F074F840F207713A2001F06FF80021BC
:103A30003B2001F06BF807213C2001F067F80021E2
:103A40003D2001F063F8322001F006FA0121072041
:103A500001F05CF8012101E0D8000020172001F0FE
:103A600055F8322001F0F8F94FF4BD51102001F063
:103A70004DF840F21721112001F048F84FF48F71F2
:103A8000122001F043F84FF4706100E098E0132039
:103A900001F03CF800212A2001F038F80A21292001
:103AA00001F034F84FF49F71122001F02FF800213B
:103AB000502001F02BF8EF21512001F027F80021D0
:103AC000522001F023F840F23F11532001F01EF87C
:103AD0004FF41C51602001F019F80121612001F020
:103AE00015F800216A2001F011F80021802001F072
:103AF0000DF80021812001F009F80021822001F059
:103B000005F80021832001F001F80021842000F055
:103B1000FDFF0021852000F0F9FF1321902000F027
:103B2000F5FF4FF44071922000F0F0FF0521932043
:103B300000F0ECFF0021952000F0E8FF0021972025
:103B400000F0E4FF0021982000F0E0FF4FF48071C6
:103B5000012000F0DBFF4FF4E061022000F0D6FF0F
:103B600041F23801032000F0D1FF0021042000F0D1
:103B7000CDFF00210C2000F0C9FF00210F2000F034
:103B8000C5FF0021202000F0C1FF0021212000F00E
:103B9000BDFF2121072000F0B9FF142001F05CF9DE
:103BA0006121072000F0B2FF142001F055F940F226
:103BB0007311072000F0AAFF142001F04DF995E4DD
:103BC000FE4880884BF2055188427CD1002108468E
:103BD00000F09CFF0021084600F098FF00210846F5
:103BE00000F094FF0021084600F090FF0121A4207E
:103BF00000F08CFF142001F02FF94FF41C516020CD
:103C000000F084FF40F20221082000F07FFF4FF413
:103C10000571302000F07AFF43F21571312000F079
:103C200075FF40F20461322000F070FF40F616612B
:103C3000332000F06BFF42F21121342000F066FFC8
:103C40004FF4A851352000F061FF48F207513620AB
:103C500000F05CFF41F20741372000F057FF41F2CE
:103C60000341382000F052FF2021392000F04EFFA0
:103C70001A21902000F04AFF0021102000F046FF9A
:103C80000721112000F042FF0021122000F03EFF2A
:103C90000021132000F03AFF142001F0DDF84FF46A
:103CA000E661102000F032FF40F23711112000F0E1
:103CB0002DFF142001F0D0F84FF4DC71122000F039
:103CC00025FF142000E085E001F0C6F84FF4706194
:103CD000132000F01BFF80212A2000F017FF48214D
:103CE000292000F013FF142001F0B6F84FF4807182
:103CF000012000F00BFF4FF4E061022000F006FF0E
:103D000041F23801032000F001FF40F202210820B7
:103D100000F0FCFE00210A2000F0F8FE00210C203B
:103D200000F0F4FE00210D2000F0F0FE30210E2006
:103D300000F0ECFE0021502000F0E8FEEF215120C1
:103D400000F0E4FE0021522000F0E0FE40F23F11BE
:103D5000532000F0DBFE4FF41C51602000F0D6FE33
:103D60000121612000F0D2FE00216A2000F0CEFE89
:103D70001121902000F0CAFE4FF4C061922000F0A3
:103D8000C5FE40F20241932000F0C0FE02219420C3
:103D900000F0BCFE142001F05FF80121072000F0C4
:103DA000B5FE142001F058F86121072000F0AEFEA6
:103DB00040F27311072000F0A9FE0021202000F03E
:103DC000A5FE0021212000F0A1FE2221002000F00C
:103DD0009DFE11E3794880884CF2055188427CD1E0
:103DE0000021084600F092FE0021084600F08EFEF9
:103DF000142001F031F80021084600F087FE002170
:103E0000084600F083FE0021084600F07FFE0021F6
:103E1000084600F07BFE0121A42000F077FE14206C
:103E200001F01AF84FF41C51602000F06FFE40F6CC
:103E30000601082000F06AFE40F20371302000F015
:103E400065FE0121312000F061FE0421322000F0E6
:103E50005DFE4FF48171332000F058FE4FF4407145
:103E6000342000F053FE40F20311352000F04EFEE6
:103E70001F21362000F04AFE40F20371372000F087
:103E800045FE0121382000F041FE0421392000F0D8
:103E90003DFE1521902000F039FE4FF48261102084
:103EA00000F034FE40F24721112000F02FFE4FF4C5
:103EB000DE71122000F02AFE4FF46061132000F042
:103EC00025FE782000F0C8FF4FF48071012000F03B
:103ED0001DFE4FF40071022000E052E000F016FEDB
:103EE00041F23001032000F011FE08210A2000F009
:103EF0000DFE00210C2000F009FE20210E2000F014
:103F000005FE00210F2000F001FE0021202000F01E
:103F1000FDFD0021212000F0F9FD3D212A2000F0C7
:103F2000F5FD142000F098FF2D21292000F0EEFD72
:103F30000021502000F0EAFD4DF2EF01512000F089
:103F4000E5FD0021522000F0E1FD40F23F11532039
:103F500000F0DCFD0021612000F0D8FD00216A2086
:103F600000F0D4FD4FF44071922000F0CFFD052108
:103F7000932000F0CBFD4FF48071072000F0C6FDC8
:103F80003AE20E48808844F2315188427ED10121C4
:103F9000002000F0BBFD0A2000F05EFF41F2286126
:103FA000102000F0B3FD0E21122000F0AFFD40F60E
:103FB0003921132000F0AAFD0A2001E0D8000020DA
:103FC00000F04AFF4021112000F0A0FD50211520F3
:103FD00000F09CFD0A2000F03FFF1E21122000F09F
:103FE00095FD0A2000F038FF4FF4B151102000F089
:103FF0008DFD42F63921132000F088FD0A2000F0E3
:104000002BFF4FF48071012000F080FD4FF44071D0
:10401000022000F07BFD41F23801032000F076FD24
:1040200040F20221082000F071FD08210A2000F072
:104030006DFD0021302000F069FD40F20241312089
:1040400000F064FD4FF48371322000F05FFD40F218
:104050000351332000F05AFD4FF48271342000F0F8
:1040600055FD40F20131352000F050FD40F207715E
:10407000362000F04BFD40F20531372000F046FDC0
:104080004FF40271382000F041FD00E03EE040F6C0
:104090000B71392000F03AFD0221412000F036FD7D
:1040A0004FF41C51602000F031FD0121612000F02F
:1040B0002DFD4FF40471902000F028FD4FF4857120
:1040C000922000F023FD0421932000F01FFD4FF407
:1040D0008071A02000F01AFD0121072000F016FDDC
:1040E0002121072000F012FD2321072000F00EFD02
:1040F0003321072000F00AFD40F23311072000F0C1
:1041000005FD0021A02000F001FD75E1C048808878
:1041100044F2355188427CD13021152000F0F6FC64
:1041200010219A2000F0F2FC2021112000F0EEFC7A
:1041300043F22841102000F0E9FC0221122000F097
:10414000E5FC41F23801132000F0E0FC282000F0EB
:1041500083FE1221084600F0D9FC282000F07CFEE6
:1041600043F22041102000F0D1FC43F2380113202B
:1041700000F0CCFC462000F06FFE0021302000F063
:10418000C5FC40F20241312000F0C0FC40F2073192
:10419000322000F0BBFC4FF44171332000F0B6FC3C
:1041A0000421342000F0B2FC40F20141352000F03F
:1041B000ADFC40F20771362000F0A8FC40F205315A
:1041C000372000F0A3FC4FF4C261382000F09EFCC1
:1041D0004FF4C261392000F099FC4FF48071012046
:1041E00000F094FC4FF44071022000F08FFC41F28B
:1041F0003001032000F08AFC40F60801082000F09E
:1042000085FC08210A2000F081FC4FF41C5160203D
:1042100000E033E000F07AFC0121612000F076FC40
:104220004FF49F71902000F071FC4FF48071922048
:1042300000F06CFC4FF48071932000F067FC4FF4A9
:104240004051A02000F062FC1021A32000F05EFC91
:104250000121072000F05AFC2121072000F056FC24
:104260002321072000F052FC3321072000F04EFCF0
:1042700040F23311072000F049FCBDE0644880881B
:1042800041F663118842F8D1E22000F029FC1D209C
:1042900000F01AFC022000F017FC042000F014FCCF
:1042A000642000F0F5FDE02000F01AFC012000F091
:1042B0000BFC0A2000F0D0FDE02000F011FC0320F0
:1042C00000F002FC0C2000F0C7FD012000F008FC0B
:1042D0000A2000F0C1FDE62000F002FC2F2000F0D3
:1042E000F3FBFF2000F0F0FBFF2000F0EDFBB0201F
:1042F00000F0F6FB202000F0E7FB002000F0E4FBDC
:10430000032000F0E1FB40F21F3000F0DDFB012054
:1043100000F0DAFB40F2DF1000F0D6FB002000F0E6
:10432000D3FBB42000F0DCFB042000F0CDFB40F216
:104330001F4000F0C9FB002000F0C6FB2E2000F05B
:10434000C3FB002000F0C0FB002000F0BDFB0020FC
:1043500000F0BAFB002000F0B7FBB62000F0C0FB75
:10436000022000F0B1FB4FF4037000F0ADFB002021
:1043700000F0AAFB172000F0A7FB152000F0A4FB1B
:10438000002000F0A1FB002000F09EFBF02000F0D8
:10439000A7FB032000F098FB292000F0A1FBD02010
:1043A00000F09EFB002000F08FFBBE2000F098FB89
:1043B000052000F089FBFE2000F086FB012000F0C4
:1043C00083FB002000F080FB002000F07DFB00203C
:1043D00000F07AFBB82000F083FB032000F074FBB0
:1043E000012000F071FBBA2000F07AFB012000F000
:1043F0006BFB642000F026F80020FCF7D7F90120C1
:10440000044908604FF6FF70FCF79AF91CBD0000E4
:10441000D80000209C02414208B503480088009063
:10442000BDF8000008BD00000008006C10B504468F
:10443000204600F055FB052000F02AFDFFF7ECFFB9
:1044400010BD000070B52DED048B0446BE2000F0B9
:1044500047FB052000F038FB204600F0E8FE41EC69
:10446000190B9FED0E0B53EC102B00F0F3FE41ECFB
:10447000180B00F0AFFE85B2284600F025FB0120A6
:1044800000F022FBFF2000F01FFB002000F01CFBCF
:10449000002000F019FBBDEC048B70BD66666666FB
:1044A00066660440F0B5054600240027B7488079C9
:1044B00001280BD1B548808846F60401884205D012
:1044C000B248808841F66311884208D1AF488079AC
:1044D000F0B9AE48808841F66311884218D1082DA2
:1044E00015D2DFE805F00406080A0C0E10120625A6
:1044F0000DE007250BE0042509E0052507E001256F
:1045000005E0002503E0032501E0022500BF00BF10
:104510009E48808849F24131884217D09B48808864
:1045200046F60401884211D09848808845F210313F
:1045300088420BD09548808845F21051884205D0BA
:104540009248808841F6631188427DD1082D1CD2A3
:10455000DFE805F00406090C0F12151800BF14E07F
:1045600044F0800411E044F040040EE044F0C00444
:104570000BE044F0200408E044F0600405E044F05F
:10458000A00402E044F0E00400BF00BF7F48808840
:1045900045F21051884202D14FF4585700E03627B7
:1045A0007A48808845F2103188420DD0774880885B
:1045B00045F21051884207D07448808841F6631153
:1045C000884201D044F008047048808846F604010F
:1045D000884201D144F002042146384600F096FAA0
:1045E0006A48808841F6631188421DD004F020009B
:1045F00068B16648008865494988884214DA63488A
:104600000688408861490880084646800CE05F487B
:1046100000885E494988884206DD5C4806884088F3
:104620005A490880084646805848808845F210510B
:10463000884254D15549488900F052FA002000F0D0
:1046400043FA5249498900E078E0491C88B200F0F9
:1046500047FA002000F038FA4C494989891C88B291
:1046600000F03EFA49490988491EC1F30F2000F0C5
:104670002BFA46494989C91C88B200F031FA4349EE
:104680000978491EC8B200F01FFA4049888900F035
:1046900027FA002000F018FA3C498989491C88B2A1
:1046A00000F01EFA002000F00FFA38498989891CB1
:1046B00088B200F015FA35494988491EC1F30F2028
:1046C00000F002FA31498989C91C88B200F008FA61
:1046D0002E498978491EC8B200F0F6F955E02B49F9
:1046E000488900F0FDF9002000F0EEF9002000F00C
:1046F000EBF926490988491EC1F30F2000F0E4F9BF
:1047000022490978491EC8B200F0DEF91F4988899C
:1047100000F0E6F9002000F0D7F9002000F0D4F90D
:104720001A494988491EC1F30F2000F0CDF91749F5
:104730008978491EC8B200F0C7F926E0082D1CD2BE
:10474000DFE805F004070A0D0F12151844F03004D5
:1047500013E044F0100410E044F020040DE000BF2A
:104760000BE044F0380408E044F0280405E044F08D
:10477000180402E044F0080400BF00BF032744F41B
:1047800080542146384600F0C1F9F0BDD800002021
:1047900030B504460D466748808849F24131884269
:1047A00005D06448808845F21031884214D16149AF
:1047B000488900F095F9201200F086F9E0B200F087
:1047C00083F95C49888900F08BF9281200F07CF9A4
:1047D000E8B200F079F9ABE05648808846F604016B
:1047E00088421DD153488079012804D1514800885E
:1047F000401E001B84B24F49488900F071F9201215
:1048000000F062F9E0B200F05FF94A49888900F0EF
:1048100067F9281200F058F9E8B200F055F987E07E
:104820004448808841F66311884247D141488079E5
:10483000A8B940480088401E001B84B23D49488901
:1048400000F04EF9002000F03FF9002000F03CF9A4
:10485000201200F039F9E0B200F036F916E03549DF
:10486000488900F03DF9201200F02EF9E0B200F086
:104870002BF930490988491EC1F30F2000F024F9B3
:104880002C490978491EC8B200F01EF929498889C7
:1048900000F026F9281200F017F9E8B200F014F938
:1048A00024494988491EC1F30F2000F00DF9214920
:1048B0008978491EC8B200F007F939E01D488088A0
:1048C00045F21051884220D11A49488900F008F970
:1048D000201200F0F9F817494989491C88B200F004
:1048E000FFF8E0B200F0F0F81249888900F0F8F81B
:1048F000281200F0E9F80F498989491C88B200F0B4
:10490000EFF8E8B200F0E0F812E00A4880790128F8
:1049100004D108480088401E001B84B2054948891C
:10492000214600F0F3F803498889294600F0EEF8A3
:1049300030BD0000D80000202DE9F84F80460E461B
:1049400017461C46B3462046E31704EB5373DB10AF
:1049500021464FEAE47C04EB5C7C4FEAEC0CA4EBD0
:10496000CC0CBCF1000F02D04FF0010C01E04FF075
:10497000000C6344224604EBD27C4FEA6C0C03FB30
:104980000CF3DBB20093A7F12000C7B2002556E07C
:104990000C2C07D107EB47002B4901EB800010F8E6
:1049A000059013E0102C05D1284800EB071010F8F3
:1049B00005900BE0182C07D107EBC700244901EB49
:1049C000800010F8059001E0BDE8F88F4FF0000A74
:1049D0002FE009F0800030B11E4802883146404681
:1049E000FBF7C4FF07E00A9828B91B480288314644
:1049F0004046FBF7BBFF4FEA49604FEA1069701C65
:104A000086B216484088B04200DCDDE7A6EB0B001A
:104A1000A0420AD15E4608F101001FFA80F80F4853
:104A20000088404500DCCFE706E00AF1010000F015
:104A3000FF0ABAF1080FCCDB00BF681CC5B20098B2
:104A40008542A5DB00BFBFE75A540008CE580008D6
:104A5000BE5E00080A0000200C000020D8000020E4
:104A60002DE9F84704460D4690469946DDE9096769
:104A700004F0FF0A08EB04001FFA80F809EB0500B8
:104A80001FFA80F916E0444502DB5446A81985B2A6
:104A90004D4500DB14E0002000903A78334629466B
:104AA0002046FFF749FF304606EBD07104EB610169
:104AB0008CB27F1C38787E2802DC38782028E2DA35
:104AC00000BFBDE8F887000001B5BDF80000009008
:104AD000BDF800000149088008BD00000008006C16
:104AE00001B5BDF800000090BDF800000149088044
:104AF00008BD0000FE07006C0248008902490880DA
:104B000070470000D8000020FE07006C024A1080A9
:104B1000921C118070470000FE07006C1CB50C4809
:104B2000006840F040000A4908600120032100238A
:104B30000246CDE900104FF410710648FBF790FDD6
:104B40000120054908600549C1F8A4021CBD000008
:104B500030380240001802409802434200004342AD
:104B60002DE9F0410746884614461D46284600F0C8
:104B700033F8C5F1040007FA00F60F20284100EAD7
:104B80000800064306F00F06E21704EBD26252114A
:104B9000920002F1E022D2F800212146E31704EB53
:104BA000D3635B11A4EB431C012303FA0CF31A43F8
:104BB0002046E31704EBD3635B119B0003F1E02372
:104BC000C3F800210348005D40EA0610014908557A
:104BD000BDE8F08100E400E00146072323EA01027A
:104BE0001202054B18684FF6FF031840034B184399
:104BF0001043014B186070470CED00E00000FA050F
:104C00004A0A52020243014B1A60704708ED00E065
:104C1000F0B504460D4616461F461448006840F09D
:104C200001001249086000201049083108600F484F
:104C300000680F4908400D4908600E48091D0860CA
:104C4000081F006820F48020091F08600020074921
:104C50000C3108603B4632462946204600F00CF8ED
:104C600000210846FFF7CCFFF0BD000000380240ED
:104C7000FFFFF6FE10300024F0B504460D4600217B
:104C800000203D4E366846F480363B4F3E6001E0E2
:104C90004E1CB1B2384E366806F400361EB941F6E5
:104CA000FF76B142F4DB41F6FF76B14201D101203B
:104CB00060E0314E4036366846F080562E4F403721
:104CC0003E602E4E366846F440462C4F3E602A4EDB
:104CD0000836366846F41446274F08373E60264E9D
:104CE000366826F08076244F3E6045EA8416012718
:104CF000C7EB520746EA074646EA036646F48006D3
:104D00001D4F3F1D3E603E1F366846F080763F1FB8
:104D10003E6000BF184E366806F00076002EF9D0CF
:104D2000174E366846F48076154F3E603E4636682C
:104D300046F400763E603E46366846F480663E6045
:104D40003E46366846F005063E600B4E083636682D
:104D500026F00306084F08373E603E46366846F0A8
:104D600002063E6000BF044E0836366806F00C06A8
:104D7000082EF8D1F0BD000000380240007000405D
:104D8000003C02401C49098801F0200109B31A497E
:104D90008988C8B21949098801F40041C9B917497D
:104DA000098801F4804161B10A2803D00021134A27
:104DB000118020E01149098841F400410F4A118017
:104DC00019E00D2806D10D49098841F480410B4AAC
:104DD000118010E009490988C1F30D01084A5054B7
:104DE00006490988491C054A118011460988C729C6
:104DF00001DD0021118070470010014008000020F3
:104E00001000002030380A2801D20120704700200D
:104E10007047014600BF70474FF0E021096921F05B
:104E200004014FF0E0221161C21700EB5272C2F38D
:104E3000C702074B1A701946097801EB4102C2EB11
:104E4000C1114FF6FF7202EAC101024A1180704798
:104E5000000000200200002070B504464FF40770E7
:104E600094FBF0F0C6B24FF4077094FBF0F100FB36
:104E7000114085B205E04FF4077000F027F8701E6E
:104E8000C6B2002EF7D115B1284600F01FF870BD4C
:104E900001460D4A12784A434FF0E0235A6100223E
:104EA0009A6101221A6100BF4FF0E022106900F000
:104EB00001021AB100F48032002AF5D000224FF02E
:104EC000E0231A619A6170470000002001460D4AF4
:104ED00012884A434FF0E0235A6100229A6101226E
:104EE0001A6100BF4FF0E022106900F001021AB110
:104EF00000F48032002AF5D000224FF0E0231A613E
:104F00009A6170470200002000BF054A128802F033
:104F10004002002AF9D0C2B2014B9A8070470000CB
:104F20000010014086B000240723022208214FF41C
:104F3000A870FFF76DFEA820FFF76EFF4FF4E13178
:104F4000542000F0C7F8FFF7E9FDFBF7CDFD4FF463
:104F500078404B4908804B4882884BA103A8FBF757
:104F600097F98BE00C2C41D2DFE804F0060B0F130D
:104F7000181D22272C31363B4FF6FF70FBF7E0FB64
:104F800034E00020FBF7DCFB30E01F20FBF7D8FB10
:104F90002CE04FF47840FBF7D3FB27E04FF61F00DF
:104FA000FBF7CEFB22E04FF4FC60FBF7C9FB1DE0F2
:104FB00047F6FF70FBF7C4FB18E04FF6E070FBF715
:104FC000BFFB13E04FF60740FBF7BAFB0EE048F2D9
:104FD0003040FBF7B5FB09E04CF21860FBF7B0FB83
:104FE00004E04BF64040FBF7ABFB00BF00BF4FF4C3
:104FF00078402349088027A018210B46D222CDE90A
:10500000001028211E20FFF72BFD27A010210B46A2
:10501000C822CDE9001046211E20FFF721FD25A062
:1050200010210B46C822CDE900105A211E20FFF79F
:1050300017FD03A810210B46C822CDE900106E21F0
:105040001E20FFF70DFD1FA00C210B46C822CDE945
:10505000001082211E20FFF703FD601CC4B20C2C3F
:1050600000D100241A48006808B9012000E000209F
:10507000174908604FF47A70FFF7EEFE72E7000000
:105080000A000020D80000204C43442049443A251F
:10509000303458004578706C6F7265722053544DEF
:1050A00033324634000000005446544C43442054EC
:1050B0004553540041544F4D40414C49454E544591
:1050C0004B000000323031342F352F340000000007
:1050D00098024342F0B52DED028B83B005460E4693
:1050E000384905FB01F000EE100AF8EE400A3001E5
:1050F00000EE100AB8EE400A80EE801AB0EE418A47
:10510000BCEEC80A10EE100A84B200EE104AB8EEE7
:10511000400A38EE400AF3EE000A20EE200ABCEE08
:10512000C00A10EE107A4FF6FF7000EA0414E0197E
:1051300084B22548006840F00100234908602248F5
:105140001430006840F010001F491431086001203D
:10515000022100230A46CDE900104FF4C0611B482C
:10516000FBF77EFA072209211848FBF759FA0722B4
:105170000A211648FBF754FA15480481808920F467
:105180000040134988810846808940F008008881E2
:105190000846808940F0040088810846808940F0F4
:1051A000200088810223252203210846FFF7D8FC2E
:1051B0000748808940F400500549888103B0BDEC60
:1051C000028BF0BD40420F00303802400000024028
:1051D000001001404FEA1153A3F58063D3F11E0381
:1051E000A8BFD3F1200C08DB4FF0004242EAC122F5
:1051F00052EA505232FA03F0704709420BD4102B96
:10520000C4BF0020704703F5787CBCF1FF3F05D098
:105210004FF0FF3070474FF00000704770B500F05E
:10522000C3F800BF4992248000207047F0E7B0FA2D
:1052300080F310FA03F10AD0C3F11D0303F5806374
:105240004FEA41504FEA035202EBD12170474FF031
:1052500000007047DFF848C170B51CEA111E1EBF80
:105260001CEA13159EEA0C0F95EA0C0F00F06F80F4
:1052700081EA030423EA4C134EEAD47E21EA4C115E
:1052800041F4801143F48013AE44A1FB024CA0FB17
:105290000365AEF17F7E361955EB0C05A1FB034C7F
:1052A0004CF10003A0FB021C16EB0C06654153F108
:1052B0000003094218BF46F0010613F4007F0BD12A
:1052C0004FEA03314FEA0530340341EA155140EA11
:1052D00016506FF003020AE04FEAC3214FEAC520DF
:1052E000F40241EA555140EA56506FF0020202EBD7
:1052F0002E4201EB025585EACE710AD05FEA440CDA
:1053000018BF24F0004450F1000041F1000120EAF0
:10531000D47040F2FE7C624500D270BDA84214BF3A
:105320004FF080444FF04044002E08BF0024BEF1EF
:10533000806FA8BFA1F1C041BDE8704080F28280BB
:105340004FF0000001F1C04101F0004170479EEABA
:105350000C0F0CEA131518BF95EA0C0F06D04FF08E
:10536000000081EA030E0EF0004170BD00F01CF851
:105370008900013E00F007B800F009B84FEA430C7D
:105380005FEA5C5C08D081EA030100F05BB84FEA99
:10539000410C5FEA5C5CF6D14FF0000001497047B8
:1053A0000000FF070000F87F0EF1020E2EF0030E42
:1053B0005EF8046B364205D4012A43EB030515F56C
:1053C000001F12D8012841EB010C1CF5001F0CD85E
:1053D0000ED14FEAD17C15F5001F0CEB4C0C0CF1F3
:1053E000020C08BF4CEBD37C04E04FF0080C01E04A
:1053F0004FEAD37C0CEB4C0526FA05F606F00706BF
:10540000B6F1040C06D20EEB860CBDE870404CF0F1
:10541000010C6047DFE80CF0090B02024FF000417D
:105420004FF00000A1F5002170BD1946104601287B
:1054300051EB010418BFD4F5001484BF002001F023
:10544000004170BD0808A0F500114FEA3101704716
:105450004FF04070E1EE100A7047000000000000BD
:10546000000000000000000000003F4000000000BD
:105470000000000030004000300040000000090043
:105480000BC03D000BC03D00090018C024407FE068
:10549000224031800000180024C01B000D803240E3
:1054A000018003801C4027401C8007400040100002
:1054B000600000000000000000000000000000008C
:1054C0001F80204040200000402020401F8000001E
:1054D0000000090006001F8006000900000004000B
:1054E00004003F8004000400000000100060000081
:1054F0000000000000000400040004000400040098
:10550000000000000040000000000000000000203B
:1055100001C006003800400000001F8020402040ED
:1055200020401F800000000010403FC000400000ED
:10553000000018C021402240244018400000108084
:105540002040244024401B80000002000D00110078
:105550003FC0014000003C80244024402440238080
:1055600000001F80244024403440038000003000AD
:10557000200027C03800200000001B802440244069
:1055800024401B8000001C0022C0224022401F80BB
:1055900000000000000008400000000000000000C3
:1055A00000000460000000000000000004000A0089
:1055B000110020804040090009000900090009008D
:1055C000000000004040208011000A000400180084
:1055D000200023402400180000001F8020402740A6
:1055E00029401F400000004007C039000F0001C0E3
:1055F000004020403FC0244024401B8000001F800A
:105600002040204020403080000020403FC020400B
:1056100020401F80000020403FC024402E4030C06A
:10562000000020403FC024402E00300000000F004A
:105630001080204022403380020020403FC0040000
:1056400004003FC02040204020403FC02040204078
:1056500000000060202020203FC0200020002040CB
:105660003FC024400B0030C0204020403FC02040BD
:105670000040004000C03FC03C0003C03C003FC0B1
:10568000000020403FC00C4023003FC020001F808E
:105690002040204020401F80000020403FC0244088
:1056A0002400180000001F802140214020E01FA09E
:1056B000000020403FC02440260019C0004018C010
:1056C00024402440224031800000300020403FC070
:1056D00020403000000020003F80004000403F801C
:1056E000200020003E0001C00700380020003800E4
:1056F00007C03C0007C038000000204039C0060049
:1057000039C0204000002000384007C03840200049
:105710000000304021C02640384020C0000000007A
:1057200000007FE0402040200000000070000C00DE
:105730000380004000000000402040207FE0000087
:1057400000000000200040002000000000000010C9
:1057500000100010001000100010000000004000B9
:10576000000000000000000002800540054003C06A
:10577000004020003FC004400440038000000000BF
:105780000380044004400640000000000380044001
:1057900024403FC000400000038005400540034016
:1057A0000000000004401FC02440244020000000EE
:1057B00002E0055005500650042020403FC0044040
:1057C000040003C000400000044027C00040000067
:1057D000000000100010041027E00000000020402E
:1057E0003FC00140070004C00440204020403FC0AB
:1057F00000400040000007C0040007C0040003C0D0
:105800000000044007C00440040003C00040000042
:1058100003800440044003800000041007F004509B
:10582000044003800000000003800440045007F09F
:105830000010044007C00240040004000000000003
:1058400006400540054004C00000000004001F8021
:10585000044000400000040007800040044007C0EE
:1058600000400400070004C0018006000400060098
:1058700001C0070001C006000000044006C001008E
:1058800006C0044000000410071004E00180060078
:1058900004000000044005C0064004400000000071
:1058A000000004007BE04020000000000000000039
:1058B000FFF000000000000040207BE0040000003A
:1058C0000000400080004000200020004000000058
:1058D00000000000000000000000000000000000C8
:1058E000000000001FCC000C0000000000000000C1
:1058F0000800300060000800300060000000022056
:1059000003FC1E20022003FC1E20022000000000D9
:105910000E1811043FFF10840C78000000000F00E7
:1059200010840F3800C007781884007800000078D1
:105930000F8410C411240E9800E4008400080800AD
:10594000680070000000000000000000000000007F
:105950000000000007E018182004400200000000CA
:1059600040022004181807E0000000000000024078
:10597000024001800FF001800240024000000080E0
:10598000008000800FF8008000800080000000018F
:10599000000D000E000000000000000000000000EC
:1059A0000080008000800080008000800080000077
:1059B000000C000C000000000000000000000000CF
:1059C000000600180060018006001800200000009A
:1059D00007F0080810041004080807F00000000091
:1059E000080408041FFC000400040000000000007C
:1059F0000E0C10141024104411840E0C0000000032
:105A00000C1810041104110412880C70000000001E
:105A100000E00320042408241FFC002400000000F0
:105A20001F981084110411041088107000000000E9
:105A300007F00888110411041888007000000000A5
:105A40001C00100010FC13001C00100000000000DF
:105A50000E3811441084108411440E3800000000E8
:105A60000700088C10441044088807F0000000006C
:105A700000000000030C030C000000000000000008
:105A8000000000010106000000000000000000000E
:105A900000800140022004100808100400000220C9
:105AA000022002200220022002200220000000002A
:105AB00010040808041002200140008000000000CB
:105AC0000E001200100C106C10800F00000003E09C
:105AD0000C1813E4142417C4082807D0000000048D
