:020000040800F2
:10000000800500203D0200084B0200084D02000858
:100010004F020008510200085302000800000000CF
:100020000000000000000000000000005502000871
:100030005702000800000000590200085B02000897
:100040005D0200085D0200085D0200085D02000814
:100050005D0200085D0200085D0200085D02000804
:100060005D0200085D0200085D0200085D020008F4
:100070005D0200085D0200085D0200085D020008E4
:100080005D0200085D0200085D0200085D020008D4
:100090005D0200085D0200085D0200085D020008C4
:1000A0005D0200085D0200085D0200085D020008B4
:1000B0005D0200085D0200085D0200085D020008A4
:1000C0005D0200085D0200085D0200085D02000894
:1000D0005D020008215600085D0200085D0200086C
:1000E0005D0200085D0200085D0200085D02000874
:1000F0005D0200085D0200085D0200085D02000864
:100100005D0200085D0200085D0200085D02000853
:100110005D0200085D0200085D0200085D02000843
:100120005D0200085D0200085D0200085D02000833
:100130005D0200085D0200085D0200085D02000823
:100140005D0200085D0200085D0200085D02000813
:100150005D0200085D0200085D0200085D02000803
:100160005D0200085D0200085D0200085D020008F3
:100170005D0200085D0200085D0200085D020008E3
:100180005D0200085D02000800F002F800F047F888
:100190000AA090E8000C82448344AAF10107DA45E2
:1001A00001D100F03CF8AFF2090EBAE80F0013F0ED
:1001B000010F18BFFB1A43F0010318472476000013
:1001C00044760000103A24BF78C878C1FAD85207A4
:1001D00024BF30C830C144BF04680C6070470000C1
:1001E0000023002400250026103A28BF78C1FBD840
:1001F000520728BF30C148BF0B607047642900F028
:10020000AB80782900F0E480732900F0BC810020E5
:1002100070471FB505F084FE1FBD10B510BD00F07E
:10022000E5F91146FFF7F5FF05F02AFC00F003FAA7
:1002300003B4FFF7F2FF03BC05F032FA0B48016884
:1002400041F4700101600A480047FEE7FEE7FEE75F
:10025000FEE7FEE7FEE7FEE7FEE7FEE7FEE700005B
:1002600004480549034A054B7047000088ED00E04B
:100270008901000880010020800500208001002005
:10028000704700000FB4044910B503AA029800F0AB
:100290007FF910BC5DF814FB040000202DE9F0414B
:1002A0000E460446002020622046E168884730B3AD
:1002B000252805D0D4E901219047206A401CF2E7A7
:1002C000E168204600278847050018D0A5F14100C5
:1002D000192802D820354FF40067324629462046B7
:1002E0002760FFF78BFF40B1012804D0F61D26F0F0
:1002F00007060836D8E7361DD6E72846DAE7206A2B
:10030000BDE8F08170B50C460546012A05D0287875
:10031000800600D5EA69002302E0012305E05B1CAA
:10032000934202D2E05C0028F9D1A869E618C01A0D
:10033000A861286A184428622846AFF3008004E0C8
:10034000D5E9012114F8010B9047B442F8D32846AF
:10035000AFF3008070BD00002DE9F0410646002497
:1003600010687529314616A510D0AFF3008000281B
:1003700002DA404213A507E031688A0701D512A5C9
:1003800002E0490704D511A5012401E0AFF3008084
:1003900000210A2206F1240709E0B0FBF2FCB0FBC1
:1003A000F2F302FB1C00303078541846491C002838
:1003B000F3D123462A463046BDE8F04100F078B834
:1003C000000000002D0000002B00000020000000B5
:1003D00070B504460D4621461068AFF300802188B1
:1003E000090502D50F4A7A4402E00E4A7A440E32D9
:1003F000002104F1240305E000F00F060009965DDA
:100400005E54491C0028F7D120780023000704D54A
:10041000702D02D009B1022311322046BDE8704090
:1004200000F046B8CC7300004FF0013C50F8042BAC
:1004300051F8043B9A4221D1A2EB0C03934313EAF7
:10044000CC1317D150F8042B51F8043B9A4215D124
:10045000A2EB0C03934313EACC130BD150F8042BFB
:1004600051F8043B9A4209D1A2EB0C03934313EADF
:10047000CC13DBD04FF00000704700BFD01A01BA98
:10048000B1FA81F101F0180122FA01F0CB40C1F17B
:100490002001DBB2C0B2C01A2CFA01F3D11A914389
:1004A00011EAC311E6D17047704770477047704733
:1004B0002DE9F0470D4699469246044600F124087E
:1004C0000168880604D5E06921F01001216000E090
:1004D0000120A84201DD471B00E00027A1697A192D
:1004E00002EB0900081AA0612078C00602D4204659
:1004F000AFF30080002608E0D4E901211AF80600D5
:100500009047206A401C761C20624E45F4DB207820
:10051000C0060AD52046AFF3008006E0D4E90121E9
:1005200030209047206A401C2062381EA7F1010746
:10053000F4DC07E0D4E9012118F805009047206AAF
:10054000401C2062281EA5F10105F3DC2046AFF314
:1005500000802078000602D50220BDE8F087012047
:10056000FBE710B5436913B1AFF3008001E0FFF77B
:10057000C9FE012010BD127800F124010A7000228A
:100580004A700122EDE711684FF0FF32E9E7000001
:10059000074B70B50D467B4400F011F80446284621
:1005A00000F020F810B14FF0FF3070BD204670BD54
:1005B0002353000001694A1C02610878704700B5A6
:1005C0008FB0CDE901310021059105497944CDE98C
:1005D000031011466846FFF761FE0FB000BD000032
:1005E000E5FFFFFF007B00F080007047754600F0DC
:1005F0002BF8AE4605006946534620F007008546B5
:1006000018B020B5FFF72CFEBDE820404FF00006E3
:100610004FF000074FF000084FF0000B21F00701EA
:10062000AC46ACE8C009ACE8C009ACE8C009ACE82D
:10063000C0098D46704710B50446AFF300802046D0
:10064000BDE81040FFF7F4BD004870471C010020D2
:1006500010B5022005F0F6F810BD000010B500201E
:100660000F4908600F48006820F440700D49086089
:100670000846006840F480700860FFF7E9FF00203A
:100680000949C1F89002FFF7E3FF0120044908601F
:10069000FFF7DEFF00200449C1F8940210BD0000FE
:1006A0009402414200080240000041421CB5084843
:1006B000006840F00400064908600120032100237F
:1006C0000246CDE900103021024800F029F91CBD96
:1006D000303802400008024010B500200F49086081
:1006E0000F48006820F440700D4908600846006813
:1006F00040F480700860FFF7ABFF01200949C1F8A2
:100700009002FFF7A5FF012004490860FFF7A0FF52
:1007100000200449C1F8940210BD00009402414237
:10072000000802400000414270B50546002415480B
:10073000006820F4407013490860084600680860AB
:100740001E2005F07FF8002612E000200E49086008
:10075000FFF77EFF01200D49C1F894026006040EE8
:1007600009488438006808B1601CC4B2701CC6B265
:10077000082EEADB15B9FFF7AFFF01E0FFF76EFFC8
:10078000204670BD000802409402414200004142F0
:1007900070B504461348006820F4407011490860A1
:1007A0000846006840F48070086000200E49086028
:1007B000FFF74EFF002512E0E0090B49091F086012
:1007C0006006040E01200949C1F89402FFF740FFBA
:1007D000002005490860FFF73BFF681CC5B2082DE3
:1007E000EADB70BD00080240940241420000414231
:1007F00010B50F48006820F440700D4908600846A5
:10080000006840F48070086001200A4908600A49C5
:10081000C1F894021E2005F015F800200549086073
:10082000FFF716FF00200449C1F8940210BD000034
:1008300000080240900241420000414210B50E48BB
:10084000006820F440700C4908600846006840F4D5
:10085000807008600120094908601E2004F0F2FF42
:1008600000200749C1F89002FFF7F2FE012003497A
:10087000091F086010BD00000008024094024142B8
:100880000000414210B500241248006820F4407076
:100890001049086008460068086001200E49086099
:1008A0000E49C1F89402FFF7D3FE09E0601CC4B200
:1008B000FA2C03DDFFF7C2FF012010BDFFF7C8FED1
:1008C0000548803800680028F0D10349091D0860F8
:1008D00000BFF2E70008024090024142000041429E
:1008E00030B5CC1000F1200353F824304C07E50E4E
:1008F0000F24AC40A343CD1000F1200444F8253070
:10090000CC1000F1200353F824304C07E40E02FA17
:1009100004F42343CD1000F1200444F8253030BD09
:100920002DE9F0470C46DDE90867002100258C46DB
:1009300000BF60E04FF0010808FA01F504EA050C79
:10094000AC4557D1D0F800804FEA410A4FF0030977
:1009500009FA0AF928EA0908C0F80080D0F80080EE
:100960004FEA410902FA09F948EA0908C0F800808B
:10097000012A01D0022A27D1D0F808804FEA410A83
:100980004FF0030909FA0AF928EA0908C0F80880B3
:10099000D0F808804FEA410906FA09F948EA09083F
:1009A000C0F80880D0F804904FF0010808FA01F868
:1009B00029EA0809C0F80490D0F8048003FA01F984
:1009C00048EA0908C0F80480D0F80C804FEA410AD0
:1009D0004FF0030909FA0AF928EA0908C0F80C805F
:1009E000D0F80C804FEA410907FA09F948EA0908EA
:1009F000C0F80C80491C10299CD3BDE8F08700008A
:100A00001FB53948006840F00200374908600120EE
:100A100000210B460A46CDE9001001463348FFF796
:100A20007FFF0120032100230246CDE900100221AF
:100A30002E48FFF775FFFFF739FE00202C490860AC
:100A40000A2004F0E3FE01202A49C1F884020A20AA
:100A500004F0DCFE002000900346024601210190D4
:100A60002248FFF75DFF642004F0D0FE042202A9B3
:100A700048F2401000F054F800208DF80C0002A954
:100A80001DA0FFF7FFFB1FA102A8FFF7CDFC48BB8D
:100A900002208DF80800012202A948F2400000F06F
:100AA0009FF9012202A948F2470000F039F89DF8A9
:100AB0000800602807DA9DF8081014A0FFF7E2FB91
:100AC000012000F05FF90A2004F0A0FE00208DF85C
:100AD0000800012202A948F2400000F081F900203C
:100AE00004B010BD0120FBE7303802400004024092
:100AF00084824042008040424354502049443A2579
:100B0000730D0A0039313437000000004465666116
:100B1000756C74205665723A25640D0A0000000059
:100B20002DE9F04105460F461646FFF761FE2820E5
:100B3000FFF72EFEFFF7A6FE2812FFF729FEFFF7AC
:100B4000A1FEE8B2FFF724FEFFF79CFEFFF750FE80
:100B50002920FFF71DFEFFF795FE00240BE0711E14
:100B6000A14201D0012100E000210846FFF7DCFD91
:100B70003855601CC4B2B442F1DBFFF75FFEBDE83C
:100B8000F081000071B583B0002400267948007818
:100B9000401C78490870084600780A2190FBF1F261
:100BA00001FB120018B1734800780A287EDA01228E
:100BB00003A948F24E10FFF7B3FF9DF80C0000F0B8
:100BC000800068B19DF80C0000F00F00062807DADD
:100BD00000200190012201A948F24E1000F000F916
:100BE0009DF80C0000F00F0000285FD09DF80C006D
:100BF00000F00F000628D9DA9DF80C0000F00F0174
:100C0000FF208840C0B201905B4890F820509DF8CA
:100C10000400C043C0B240F0C000574981F8200032
:100C2000084681898182C18AC183002446E05248F6
:100C300090F820000121A140084020B34F4931F82D
:100C40001400042202A9FFF76BFF4B4890F8300014
:100C500000F00100C0B19DF808009DF8091000EBFC
:100C6000012081B24448163020F814109DF80A0083
:100C70009DF80B1000EB0120C0F5487081B23E4892
:100C80000C3020F8141017E09DF808009DF80910AA
:100C900000EB012081B238480C3020F814109DF888
:100CA0000A009DF80B1000EB012000E036E081B255
:100CB0003148163020F81410601CC4B2052CB6DB85
:100CC00001262D4880892E490988884205DC2A485A
:100CD000C08A2B49498888421DDD9DF80C0000F030
:100CE0000F0001280ADD2448C0892349888108466D
:100CF000008BC88200201F4908700FE01E48808AC0
:100D00001D4988810846C08BC88280200390084610
:100D100080F8205002E00020164908709DF80C0071
:100D200000F08F0080281AD1134890F8200000F0BE
:100D3000800040B1104890F8200020F080000E495B
:100D400081F820000BE04FF6FF700B498881C882C4
:100D5000084690F8200000F0E00081F820000548E7
:100D60000078F02802DD0A2002490870304604B0FD
:100D700070BD00000E00002010000020AC770008BD
:100D80000C01002038B50546002400208DF8000035
:100D90008DF8015000BF09E09DF800000F49095D82
:100DA0000844C0B28DF80000601CC4B2B82CF3D364
:100DB0009DF80000C043401CC0B28DF80000B8226E
:100DC000064948F2470000F00BF80222694648F253
:100DD000FF0000F005F8002038BD0000F4760008A0
:100DE0002DE9F04104460E4617464FF00008FFF784
:100DF000FFFC2820FFF7CCFCFFF744FD2012FFF793
:100E0000C7FCFFF73FFDE0B2FFF7C2FCFFF73AFD7A
:100E100000250BE0705DFFF7BBFCFFF733FD80465C
:100E2000B8F1000F00D003E0681CC5B2BD42F1DB91
:100E300000BFFFF703FD4046BDE8F0811CB5104838
:100E4000006840F001000E4908600846006840F064
:100E500010000860012000210B460A46CDE9001071
:100E60001C210848FFF75CFD022000210B460A46C2
:100E7000CDE9001001210448FFF752FD1CBD000020
:100E800030380240001002400000024070B50446B5
:100E9000002617480588408845431548808846F64F
:100EA0000401884216D112488079012812D100200D
:100EB0000F4988712A2048812B208881002108460B
:100EC00004F06AF801200A4988712B2048812A2001
:100ED000888103E00021084604F05EF804F010FA6F
:100EE000002602E003480480761CAE42FAD370BDAF
:100EF0000C0100200008006C10B50446002C66D1DF
:100F00006C498871F02008804FF4A0704880084632
:100F1000808849F2413188420BD06648808846F685
:100F20000401884205D06348808845F21031884228
:100F30001AD12C205F4908812A2048812B208881E2
:100F40000846808846F60401884205D059488088C2
:100F500045F21031884206D14FF4A07055490880FF
:100F60004FF4F0704880A1E05248808845F210515B
:100F7000884210D14FF430504E4908814FF4285028
:100F800048814FF42C5088814FF4F07008804FF462
:100F9000487048808AE04748808841F6631188425B
:100FA0000DD12C20434908812B2048812A2088819B
:100FB0004FF4F07008804FF44870488076E02220AB
:100FC0003C49088120204881212088816EE0012051
:100FD000384988714FF4A0700880F0204880084696
:100FE000808849F24131884205D03248808845F2F4
:100FF0001031884207D12C202E4908812A204881AF
:101000002B2088813FE02B48808846F604018842E7
:1010100007D12C20274908812B2048812A2088814C
:1010200031E02448808845F21051884210D14FF4B5
:101030003050204908814FF4285048814FF42C50FB
:1010400088814FF4487008804FF4F07048801AE0AF
:101050001848808841F6631188420DD12C2015492B
:1010600008812A2048812B2088814FF4487008800D
:101070004FF4F070488006E022200E4908812120BC
:101080004881202088810B48808846F604018842E8
:1010900005D00848808845F21031884206D14FF4C7
:1010A000F070044908804FF4A0704880002003F0DD
:1010B000FDFD10BD0C01002070B504460D4616461E
:1010C0005A48808849F24131884205D05748808883
:1010D00045F21031884214D15449488904F004F98A
:1010E000201204F0F5F8E0B204F0F2F84F498889D4
:1010F00004F0FAF8281204F0EBF8E8B204F0E8F88B
:101100008CE04A48808845F21051884220D14749F6
:10111000488904F0E9F8201204F0DAF843494989D3
:10112000491C88B204F0E0F8E0B204F0D1F83F497D
:10113000888904F0D9F8281204F0CAF83B49898953
:10114000491C88B204F0D0F8E8B204F0C1F865E0B8
:101150003648808841F66311884228D13348807927
:1011600020B932480088401E001B84B22F494889AC
:1011700004F0BAF8201204F0ABF8E0B204F0A8F8DA
:10118000201204F0A5F8E0B204F0A2F827498889FB
:1011900004F0AAF8281204F09BF8E8B204F098F8DA
:1011A000281204F095F8E8B204F092F836E01F48EF
:1011B000808846F6040188421DD11C4880790128A8
:1011C00004D11A480088401E001B84B21749488980
:1011D00004F08AF8201204F07BF8E0B204F078F80A
:1011E0001249888904F080F8281204F071F8E8B2F6
:1011F00004F06EF812E00D488079012804D10B4804
:101200000088401E001B84B208494889214604F02A
:1012100081F806498889294604F07CF8034800894A
:1012200003490880881C068070BD00000C01002066
:10123000FE07006C2DE9FC4F05460E461746984602
:10124000DDF82C90002001902748808846F60401A4
:10125000884229D124488079012825D1AB463546DA
:1012600021480088C01B401E86B247461E480088A1
:10127000A0EB0B00401E1FFA80F800201A4988716D
:101280002A2048812B20888143463A463146284609
:10129000CDF80090FFF7CEFF0120134988712B2075
:1012A00048812A2088811CE0781B401C80B2019074
:1012B000344614E02146284603F06EFE04F020F880
:1012C0004FF0000A06E00948A0F800900AF101007A
:1012D0001FFA80FA01988245F5DB601C84B2444510
:1012E000E8DDBDE8FC8F00000C0100200008006C68
:1012F0001CB5FE48006840F07800FC4908600846CC
:10130000006840F004000860F8480830006840F0C9
:101310000100F6490831086001200221002302463D
:10132000CDE900108021F248FFF7FAFA01200321ED
:1013300000230222CDE900104CF23371ED48FFF793
:10134000EFFA0120032100230222CDE900104FF61D
:101350008071E948FFF7E4FA01200321002302220B
:10136000CDE900100146E548FFF7DAFA0120032134
:1013700000230222CDE900100103E048FFF7D0FA74
:101380000C220021DB48FFF7ABFA0C220121D948DF
:10139000FFF7A6FA0C220421D648FFF7A1FA0C2287
:1013A0000521D448FFF79CFA0C220821D148FFF709
:1013B00097FA0C220921CF48FFF792FA0C220A2152
:1013C000CC48FFF78DFA0C220E21CA48FFF788FAA5
:1013D0000C220F21C748FFF783FA0C220721C648C9
:1013E000FFF77EFA0C220821C348FFF779FA0C2296
:1013F0000921C148FFF774FA0C220A21BE48FFF701
:101400006FFA0C220B21BC48FFF76AFA0C22114636
:10141000B948FFF765FA0C220D21B748FFF760FACB
:101420000C220E21B448FFF75BFA0C220F21B248C0
:10143000FFF756FA0C220021B048FFF751FA0C22B0
:101440001146AE48FFF74CFA00204FF0204188616A
:10145000C861AB4908604FF02040806940F480507B
:101460004FF0204188610846806940F480408861DF
:101470000846806940F0100088610846C069C8616C
:101480000846C06940F00F00C8610846C06940F4D2
:101490007050C8619A480068C1F81C010846D0F82D
:1014A0001C0140F00900C1F81C010846D0F81C01DD
:1014B00040F40060C1F81C010846806940F001005A
:1014C0008861322004F0A2F90121002003F022FFFC
:1014D000322004F09BF9002003F0ACFB894988809E
:1014E00008468088FF280ADB084680884FF6FF718F
:1014F000884204D083488088B0F5134F7ED1D32032
:1015000003F0F2FE03F08CFB7E49888003F088FB39
:101510007C49888003F084FB7A498880084680886B
:101520004FF6FF7101EA00207649888003F078FBCE
:10153000744989880843734988800846808849F23D
:10154000413188425AD0BF2003F0CEFE03F068FB41
:101550006C49888003F064FB6A49888003F060FB73
:101560006849888003F05CFB66498880084680886B
:101570004FF6FF7101EA00206249888003F050FBBA
:101580006049898808435F4988800846808846F614
:10159000040188427AD0D42003F0A6FE03F040FB79
:1015A0005849888003F03CFB5649888003F038FB9B
:1015B00054498880084680884FF6FF7101EA002070
:1015C0005049888003F02CFB4E49898808434D49D7
:1015D00088800846808845F21031884256D04FF402
:1015E0005A4003F081FE03F01BFB464988804FF40C
:1015F0005B4003F079FE03F013FB00E046E0414955
:101600008880084680884FF6FF7101EA00203D4936
:1016100088804FF45C4003F067FE03F001FB39491A
:10162000898808433749888008468088B0F5004F8C
:1016300002D145F2105088803248808845F210511E
:10164000884223D0A12003F04FFE03F0E9FA2D4990
:10165000888003F0E5FA2B498880084680884FF699
:10166000FF7101EA00202749888003F0D9FA254953
:1016700089880843234988800846808845F261713B
:10168000884203D141F663101E4988801D48808836
:1016900049F24131884211D01A48808845F2103110
:1016A00088420BD01748808845F21051884205D0F7
:1016B0001448808841F6631188422CD11048006894
:1016C00020F00F004FF02041C1F81C010846D0F86F
:1016D0001C0120F47060C1F81C010846D0F81C0100
:1016E00040F00300C1F81C0108460DE0303802400C
:1016F00000080240000C02400010024000180240A6
:101700001C0100A00C010020D0F81C0140F4007066
:10171000C1F81C0128E0FE48808846F60401884292
:1017200005D0FB4880884CF2055188421CD1F9480D
:10173000006820F00F004FF02041C1F81C0108465E
:10174000D0F81C0120F47060C1F81C010846D0F8E4
:101750001C0140F00A00C1F81C010846D0F81C0129
:1017600040F44060C1F81C01E9488188EAA0FEF716
:1017700089FDE748808849F2413188427ED1CF20F7
:1017800003F0B2FD002003F0A3FDC12003F0A0FD93
:10179000302003F09DFDED2003F0A6FD642003F052
:1017A00097FD032003F094FD122003F091FD8120AA
:1017B00003F08EFDE82003F097FD852003F088FDFF
:1017C000102003F085FD7A2003F082FDCB2003F08A
:1017D0008BFD392003F07CFD2C2003F079FD0020E7
:1017E00003F076FD342003F073FD022003F070FD5A
:1017F000F72003F079FD202003F06AFDEA2003F0D2
:1018000073FD002003F064FD002003F061FDC020A3
:1018100003F06AFD1B2003F05BFDC12003F064FDB3
:10182000012003F055FDC52003F05EFD302003F0DC
:101830004FFD302003F04CFDC72003F055FDB720CD
:1018400003F046FD362003F04FFD482003F040FD35
:101850003A2003F049FD552003F03AFDB12003F092
:1018600043FD002003F034FD1A2003F031FDB620C3
:1018700003F03AFD0A2003F02BFD00E097E0A220E0
:1018800003F026FDF22003F02FFD002003F020FDE1
:10189000262003F029FD012003F01AFDE02003F0CB
:1018A00023FD0F2003F014FD2A2003F011FD282052
:1018B00003F00EFD082003F00BFD0E2003F008FDE1
:1018C000082003F005FD542003F002FDA92003F0D9
:1018D000FFFC432003F0FCFC0A2003F0F9FC0F207E
:1018E00003F0F6FC002003F0F3FC002003F0F0FC12
:1018F000002003F0EDFC002003F0EAFCE12003F0FF
:10190000F3FC002003F0E4FC152003F0E1FC1720B9
:1019100003F0DEFC072003F0DBFC112003F0D8FC11
:10192000062003F0D5FC2B2003F0D2FC562003F058
:10193000CFFC3C2003F0CCFC052003F0C9FC1020B8
:1019400003F0C6FC0F2003F0C3FC3F2003F0C0FCF3
:101950003F2003F0BDFC0F2003F0BAFC2B2003F066
:10196000C3FC002003F0B4FC002003F0B1FC012014
:1019700003F0AEFC3F2003F0ABFC2A2003F0B4FCE4
:10198000002003F0A5FC002003F0A2FC002003F0DF
:101990009FFCEF2003F09CFC112003F0A5FC7820B5
:1019A00003F034FF292003F09FFC03F029B95848C5
:1019B000808846F6040188427ED1112003F094FC11
:1019C000142003F023FFD02003F08EFC072003F047
:1019D0007FFC422003F07CFC1D2003F079FCD12029
:1019E00003F082FC002003F073FC1A2003F070FC6B
:1019F000092003F06DFCD22003F076FC012003F0F7
:101A000067FC222003F064FCC02003F06DFC102072
:101A100003F05EFC3B2003F05BFC002003F058FC6D
:101A2000022003F055FC112003F052FCC52003F006
:101A30005BFC032003F04CFCC82003F055FC0020A5
:101A400003F046FC252003F043FC212003F040FC7A
:101A5000052003F03DFC002003F03AFC0A2003F0CF
:101A600037FC652003F034FC252003F031FC77209F
:101A700003F02EFC502003F02BFC0F2003F028FC79
:101A8000002003F025FCF82003F02EFC012003F0D9
:101A90001FFCFE2003F028FC002003F019FC0220AC
:101AA00003F016FC202003F01FFC362003F01CFC82
:101AB000082003F00DFC00E036E03A2003F014FCAF
:101AC000552003F005FC2B2003F00EFC002003F052
:101AD000FFFB002003F0FCFB012003F0F9FB3F209B
:101AE00003F0F6FB2A2003F0FFFB002003F0F0FBDD
:101AF000002003F0EDFB012003F0EAFBDF2003F000
:101B0000E7FB782003F082FE292003F0EDFB4CE791
:101B10000C0100201C0100A0204C43442049443A01
:101B200025780D0A00000000FE48808845F210313B
:101B3000884240F07C87ED2003F0D6FB012003F0C3
:101B4000C7FBFE2003F0C4FBEE2003F0CDFBDE203C
:101B500003F0BEFB212003F0BBFBF12003F0C4FB2C
:101B6000012003F0B5FBDF2003F0BEFB102003F0E3
:101B7000AFFBC42003F0B8FB8F2003F0A9FBC62005
:101B800003F0B2FB002003F0A3FBE22003F0A0FB74
:101B9000E22003F09DFBE22003F09AFBBF2003F05C
:101BA000A3FBAA2003F094FBB02003F09DFB0D20C3
:101BB00003F08EFB002003F08BFB0D2003F088FB6D
:101BC000002003F085FB112003F082FB002003F0CE
:101BD0007FFB192003F07CFB002003F079FB212020
:101BE00003F076FB002003F073FB2D2003F070FB65
:101BF000002003F06DFB3D2003F06AFB002003F0A2
:101C000067FB5D2003F064FB002003F061FB5D20B7
:101C100003F05EFB002003F05BFBB12003F064FBEC
:101C2000802003F055FB002003F052FB8B2003F0D3
:101C30004FFB002003F04CFB962003F049FB0020F3
:101C400003F046FBB22003F04FFB002003F040FB03
:101C5000002003F03DFB022003F03AFB002003F0DC
:101C600037FB032003F034FB002003F031FBB320EB
:101C700003F03AFB002003F02BFB002003F028FBCD
:101C8000002003F025FB002003F022FB002003F0DE
:101C90001FFB002003F01CFB002003F019FB0020B9
:101CA00003F016FB002003F013FB002003F010FBF1
:101CB000002003F00DFB002003F00AFB002003F0DE
:101CC00007FB002003F004FB002003F001FB0020D1
:101CD00003F0FEFA002003F0FBFA002003F0F8FA0C
:101CE000002003F0F5FA002003F0F2FA002003F0E0
:101CF000EFFA002003F0ECFA002003F0E9FA0020EC
:101D000003F0E6FAB42003F0EFFA8B2003F0E0FAD8
:101D1000002003F0DDFA962003F0DAFA002003F049
:101D2000D7FAA12003F0D4FA002003F0D1FAB520AD
:101D300003F0DAFA022003F0CBFA002003F0C8FA2D
:101D4000032003F0C5FA002003F0C2FA042003F0D8
:101D5000BFFA002003F0BCFAB62003F0C5FA002059
:101D600003F0B6FA002003F0B3FAB72003F0BCFA90
:101D7000002003F0ADFA002003F0AAFA3F2003F0A0
:101D8000A7FA002003F0A4FA5E2003F0A1FA0020D5
:101D900003F09EFA642003F09BFA002003F098FA07
:101DA0008C2003F095FA002003F092FAAC2003F0A7
:101DB0008FFA002003F08CFADC2003F089FA00206F
:101DC00003F086FA702003F083FA002003F080FA13
:101DD000902003F07DFA002003F07AFAEB2003F064
:101DE00077FA002003F074FADC2003F071FA002087
:101DF00003F06EFAB82003F077FA002003F068FAD7
:101E0000002003F065FA002003F062FA002003F0DE
:101E10005FFA002003F05CFA002003F059FA00207A
:101E200003F056FA002003F053FABA2003F05CFAEC
:101E3000242003F04DFA002003F04AFA002003F0BA
:101E400047FA002003F044FAC12003F04DFA2020A5
:101E500003F03EFA002003F03BFA542003F038FA76
:101E6000002003F035FAFF2003F032FA002003F0DF
:101E70002FFAC22003F038FA0A2003F029FA0020D2
:101E800003F026FA042003F023FA002003F020FADE
:101E9000C32003F029FA3C2003F01AFA002003F0D3
:101EA00017FA3A2003F014FA002003F011FA39204F
:101EB00003F00EFA002003F00BFA372003F008FAC3
:101EC000002003F005FA3C2003F002FA002003F0A2
:101ED000FFF9362003F0FCF9002003F0F9F9322075
:101EE00003F0F6F9002003F0F3F92F2003F0F0F9E6
:101EF000002003F0EDF92C2003F0EAF9002003F0B4
:101F0000E7F9292003F0E4F9002003F0E1F92620A5
:101F100003F0DEF9002003F0DBF9242003F0D8F908
:101F2000002001E00C01002003F0D2F9242003F08E
:101F3000CFF9002003F0CCF9232003F0C9F90020E9
:101F400003F0C6F93C2003F0C3F9002003F0C0F908
:101F5000362003F0BDF9002003F0BAF9322003F077
:101F6000B7F9002003F0B4F92F2003F0B1F90020F5
:101F700003F0AEF92C2003F0ABF9002003F0A8F930
:101F8000292003F0A5F9002003F0A2F9262003F090
:101F90009FF9002003F09CF9242003F099F9002018
:101FA00003F096F9242003F093F9002003F090F950
:101FB000232003F08DF9002003F08AF9C42003F0F8
:101FC00093F9622003F084F9002003F081F90520E1
:101FD00003F07EF9002003F07BF9842003F078F908
:101FE000002003F075F9F02003F072F9002003F0EF
:101FF0006FF9182003F06CF9002003F069F9A420B0
:1020000003F066F9002003F063F9182003F060F98B
:10201000002003F05DF9502003F05AF9002003F08E
:1020200057F90C2003F054F9002003F051F9172060
:1020300003F04EF9002003F04BF9952003F048F926
:10204000002003F045F9F32003F042F9002003F0EB
:102050003FF9E62003F03CF9002003F039F9C520F0
:1020600003F042F9322003F033F9002003F030F995
:10207000442003F02DF9002003F02AF9652003F035
:1020800027F9002003F024F9762003F021F900203D
:1020900003F01EF9882003F01BF9002003F018F963
:1020A000C62003F021F9202003F012F9002003F0EC
:1020B0000FF9172003F00CF9002003F009F90120B3
:1020C00003F006F9002003F003F9C72003F00CF930
:1020D000002003F0FDF8002003F0FAF8002003F0E0
:1020E000F7F8002003F0F4F8C82003F0FDF8002012
:1020F00003F0EEF8002003F0EBF8002003F0E8F81E
:10210000002003F0E5F8C92003F0EEF8002003F00A
:10211000DFF8002003F0DCF8002003F0D9F80020FD
:1021200003F0D6F8002003F0D3F8002003F0D0F835
:10213000002003F0CDF8002003F0CAF8002003F0DF
:10214000C7F8002003F0C4F8002003F0C1F8002015
:1021500003F0BEF8002003F0BBF8002003F0B8F84D
:10216000002003F0B5F8002003F0B2F8E02003F0FF
:10217000BBF8162003F0ACF8002003F0A9F81C20EF
:1021800003F0A6F8002003F0A3F8212003F0A0F844
:10219000002003F09DF8362003F09AF8002003F0A9
:1021A00097F8462003F094F8002003F091F85220AD
:1021B00003F08EF8002003F08BF8642003F088F819
:1021C000002003F085F87A2003F082F8002003F065
:1021D0007FF88B2003F07CF8002003F079F8992039
:1021E00003F076F8002003F073F8A82003F070F8ED
:1021F000002003F06DF8B92003F06AF8002003F026
:1022000067F8C42003F064F8002003F061F8CA20E6
:1022100003F05EF8002003F05BF8D22003F058F8DA
:10222000002003F055F8D92003F052F8002003F005
:102230004FF8E02003F04CF8002003F049F8F320B9
:1022400003F046F8002003F043F8E12003F04CF8D7
:10225000162003F03DF8002003F03AF81C2003F0AC
:1022600037F8002003F034F8222003F031F8002082
:1022700003F02EF8362003F02BF8002003F028F8A6
:10228000452003F025F8002003F022F8522003F047
:102290001FF8002003F01CF8642003F019F8002058
:1022A00003F016F87A2003F013F8002003F010F87A
:1022B0008B2003F00DF8002003F00AF8992003F0BA
:1022C00007F8002003F004F8A82003F001F800202C
:1022D00002F0FEFFB92002F0FBFF002002F0F8FF41
:1022E000C42002F0F5FF002002F0F2FFCA2002F045
:1022F000EFFF002002F0ECFFD22002F0E9FF002007
:1023000002F0E6FFD82002F0E3FF002002F0E0FF39
:10231000E02002F0DDFF002002F0DAFFF32002F0FF
:10232000D7FF002002F0D4FFE22002F0DDFF0520FD
:1023300002F0CEFF002002F0CBFF0B2002F0C8FF1E
:10234000002002F0C5FF1B2002F0C2FF002002F0B7
:10235000BFFF342002F0BCFF002002F0B9FF442090
:1023600002F0B6FF002002F0B3FF4F2002F0B0FFF2
:10237000002002F0ADFF612002F0AAFF002002F071
:10238000A7FF792002F0A4FF002002F0A1FF88201F
:1023900002F09EFF002002F09BFF972002F098FFC2
:1023A000002002F095FFA62002F092FF002002F02C
:1023B0008FFFB72002F08CFF002002F089FFC220BF
:1023C00002F086FF002002F083FFC72002F080FFAA
:1023D000002002F07DFFD12002F07AFF002002F001
:1023E00077FFD62002F074FF002002F071FFDD209D
:1023F00002F06EFF002002F06BFFF32002F068FF96
:10240000002002F065FFE32002F06EFF052002F0DD
:102410005FFF002002F05CFF0A2002F059FF00205D
:1024200002F056FF1C2002F053FF002002F050FF84
:10243000332002F04DFF002002F04AFF442002F05A
:1024400047FF002002F044FF502002F041FF00202F
:1024500002F03EFF622002F03BFF002002F038FF56
:10246000782002F035FF002002F032FF882002F0D1
:102470002FFF002002F02CFF972002F029FF002000
:1024800002F026FFA62002F023FF002002F020FF2A
:10249000B72002F01DFF002002F01AFFC22002F058
:1024A00017FF002002F014FFC72002F011FF0020E8
:1024B00002F00EFFD12002F00BFF002002F008FF17
:1024C000D52002F005FF002002F002FFDD2002F01F
:1024D000FFFE002002F0FCFEF32002F0F9FE0020D7
:1024E00002F0F6FEE42002F0FFFE012002F0F0FE12
:1024F000002002F0EDFE012002F0EAFE002002F0D2
:10250000E7FE022002F0E4FE002002F0E1FE2A20B5
:1025100002F0DEFE002002F0DBFE3C2002F0D8FEDE
:10252000002002F0D5FE4B2002F0D2FE002002F087
:10253000CFFE5D2002F0CCFE002002F0C9FE742028
:1025400002F0C6FE002002F0C3FE842002F0C0FEAE
:10255000002002F0BDFE932002F0BAFE002002F03F
:10256000B7FEA22002F0B4FE002002F0B1FEB320BC
:1025700002F0AEFE002002F0ABFEBE2002F0A8FE8C
:10258000002002F0A5FEC42002F0A2FE002002F00E
:102590009FFECD2002F09CFE002002F099FED32089
:1025A00002F096FE002002F093FEDD2002F090FE85
:1025B000002002F08DFEF32002F08AFE002002F0DF
:1025C00087FEE52002F090FE002002F081FE002050
:1025D00002F07EFE002002F07BFE002002F078FE7A
:1025E000022002F075FE002002F072FE292002F0A7
:1025F0006FFE002002F06CFE3C2002F069FE00201D
:1026000002F066FE4B2002F063FE002002F060FE46
:102610005D2002F05DFE002002F05AFE742002F000
:1026200057FE002002F054FE842002F051FE0020EC
:1026300002F04EFE932002F04BFE002002F048FE16
:10264000A22002F045FE002002F042FEB32002F07C
:102650003FFE002002F03CFEBE2002F039FE0020CA
:1026600002F036FEC42002F033FE002002F030FEFD
:10267000CD2002F02DFE002002F02AFED32002F031
:1026800027FE002002F024FEDC2002F021FE0020C4
:1026900002F01EFEF32002F01BFE002002F018FEE6
:1026A000E62002F021FE112002F012FE002002F0CE
:1026B0000FFE342002F00CFE002002F009FE56202E
:1026C00002F006FE002002F003FE762002F000FE7B
:1026D000002002F0FDFD772002F0FAFD002002F05C
:1026E000F7FD662002F0F4FD002002F0F1FD8820E5
:1026F00002F0EEFD002002F0EBFD992002F0E8FD73
:10270000002002F0E5FDBB2002F0E2FD002002F017
:10271000DFFD992002F0DCFD002002F0D9FD6620EB
:1027200002F0D6FD002002F0D3FD552002F0D0FDCE
:10273000002002F0CDFD552002F0CAFD002002F07D
:10274000C7FD452002F0C4FD002002F0C1FD43207A
:1027500002F0BEFD002002F0BBFD442002F0B8FDF7
:10276000002002F0B5FDE72002F0BEFD322002F0AD
:10277000AFFD002002F0ACFD552002F0A9FD0020C5
:1027800002F0A6FD762002F0A3FD002002F0A0FDDD
:10279000662002F09DFD002002F09AFD672002F005
:1027A00097FD002002F094FD672002F091FD0020CB
:1027B00002F08EFD872002F08BFD002002F088FDE4
:1027C000992002F085FD002002F082FDBB2002F07E
:1027D0007FFD002002F07CFD992002F079FD0020B1
:1027E00002F076FD772002F073FD002002F070FD0C
:1027F000442002F06DFD002002F06AFD562002F038
:1028000067FD002002F064FD232002F061FD00203E
:1028100002F05EFD332002F05BFD002002F058FD67
:10282000452002F055FD002002F052FDE82002F0A4
:102830005BFD002002F04CFD002002F049FD9920D4
:1028400002F046FD002002F043FD872002F040FD2B
:10285000002002F03DFD882002F03AFD002002F049
:1028600037FD772002F034FD002002F031FD6620B4
:1028700002F02EFD002002F02BFD882002F028FD42
:10288000002002F025FDAA2002F022FD002002F027
:102890001FFDBB2002F01CFD002002F019FD992055
:1028A00002F016FD002002F013FD662002F010FD7C
:1028B000002002F00DFD552002F00AFD002002F07C
:1028C00007FD552002F004FD002002F001FD442028
:1028D00002F0FEFC002002F0FBFC442002F0F8FCB9
:1028E000002002F0F5FC552002F0F2FC002002F07E
:1028F000EFFCE92002F0F8FCAA2002F0E9FC00203D
:1029000002F0E6FC002002F0E3FC002002F0E0FC14
:10291000002002F0E9FCAA2002F0DAFCCF2002F04D
:10292000E3FC002002F0D4FC002002F0D1FC0020E7
:1029300002F0CEFC002002F0CBFC002002F0C8FC2C
:10294000002002F0C5FC002002F0C2FC002002F0D2
:10295000BFFC002002F0BCFC002002F0B9FC00200B
:1029600002F0B6FC002002F0B3FC002002F0B0FC44
:10297000002002F0ADFC002002F0AAFC002002F0D2
:10298000A7FC002002F0A4FCF02002F0ADFC002027
:1029900002F09EFC502002F09BFC002002F098FC0C
:1029A000002002F095FC002002F092FCF32002F0DF
:1029B0009BFC002002F08CFCF92002F095FC062024
:1029C00002F086FC102002F083FC292002F080FC3B
:1029D000002002F07DFC3A2002F086FC552002F037
:1029E00077FC112002F080FC642002F00FFF292008
:1029F00002F07AFC352002F077FC002002F068FC3F
:102A0000512002F071FCFF2002F062FC532002F022
:102A10006BFC2C2002F05CFC552002F065FC82204F
:102A200002F056FC2C2002F05FFC02F0E9B8FE48F0
:102A3000808845F2105188427ED155214FF4704074
:102A400002F068FCAA214FF2010002F063FC52215F
:102A50004FF2020002F05EFC08214FF2030002F088
:102A600059FC01214FF2040002F054FC0D214FF4F7
:102A7000304002F04FFC0D214BF2010002F04AFC05
:102A80000D214BF2020002F045FC34214FF4364098
:102A900002F040FC34214BF2016002F03BFC342197
:102AA0004BF2026002F036FC0D214FF4314002F08F
:102AB00031FC0D214BF2011002F02CFC0D214BF2E8
:102AC000021002F027FC34214FF4374002F022FCC0
:102AD00034214BF2017002F01DFC34214BF20270E4
:102AE00002F018FC00214FF4324002F013FC0021E8
:102AF0004BF2012002F00EFC00214BF2022002F00A
:102B000009FC24214FF4384002F004FC24214BF648
:102B1000010002F0FFFB24214BF6020002F0FAFB59
:102B200001214FF43F4002F0F5FB0F214FF43340F9
:102B300002F0F0FB0F2100E0FEE34BF2013002F067
:102B4000E9FB0F214BF2023002F0E4FB34214FF499
:102B5000394002F0DFFB34214BF6011002F0DAFBC2
:102B600034214BF6021002F0D5FB08214FF435401A
:102B700002F0D0FB08214BF2015002F0CBFB082100
:102B80004BF2025002F0C6FB03214FF4424002F028
:102B9000C1FB24214FF43A4002F0BCFB24214BF648
:102BA000012002F0B7FB24214BF6022002F0B2FB19
:102BB00000214FF43C4002F0ADFB78214BF6014080
:102BC00002F0A8FB00214BF6024002F0A3FB00211B
:102BD0004FF43D4002F09EFB78214BF6015002F08D
:102BE00099FB00214BF6025002F094FB00214FF4B8
:102BF0003E4002F08FFB64214BF6016002F08AFB3D
:102C000000214FF4514002F085FB33214DF20110B9
:102C100002F080FB00214DF2021002F07BFB342118
:102C20004DF2031002F076FB00214DF2041002F089
:102C300071FB3A214DF2051002F06CFB00214DF2C0
:102C4000061002F067FB4A214DF2071002F062FB0A
:102C500000214DF2081002F05DFB5C214DF20910DD
:102C600002F058FB00214DF20A1002F053FB8121C3
:102C70004DF20B1002F04EFB00214DF20C1002F051
:102C800049FBA6214DF20D1002F044FB00214DF24C
:102C90000E1002F03FFBE5214DF20F1002F03AFB5F
:102CA00001214DF2101002F035FB13214DF21110ED
:102CB00002F030FB01214DF2121002F02BFB5421E7
:102CC0004DF2131002F026FB01214DF2141002F018
:102CD00021FB82214DF2151002F01CFB01214DF267
:102CE000161002F017FBCA214DF2171002F012FB6A
:102CF00002214DF2181002F00DFB00214DF21910C7
:102D000002F008FB02214DF21A1002F003FB012130
:102D10004DF21B1002F0FEFA02214DF21C1002F0DF
:102D2000F9FA34214DF21D1002F0F4FA02214DF2AD
:102D30001E1002F0EFFA67214DF21F1002F0EAFABE
:102D400002214DF2201002F0E5FA84214DF221100B
:102D500002F0E0FA02214DF2221002F0DBFAA42187
:102D60004DF2231002F0D6FA02214DF2241002F0A7
:102D7000D1FAB7214DF2251002F0CCFA02214DF222
:102D8000261002F0C7FACF214DF2271002F0C2FA46
:102D900002214DF2281002F0BDFADE214DF2291079
:102DA00002F0B8FA02214DF22A1002F0B3FAF22131
:102DB0004DF22B1002F0AEFA02214DF22C1002F06F
:102DC000A9FAFE214DF22D1002F0A4FA03214DF2D2
:102DD0002E1002F09FFA10214DF22F1002F09AFAF5
:102DE00003214DF2301002F095FA33214DF23110EB
:102DF00002F090FA03214DF2321002F08BFA6D21AD
:102E00004DF2331002F086FA00214FF4524002F0E6
:102E100081FA33214DF2012002F07CFA00214DF2BB
:102E2000022002F077FA01E00C01002034214DF27B
:102E3000032002F06FFA00214DF2042002F06AFA3A
:102E40003A214DF2052002F065FA00214DF20620EC
:102E500002F060FA4A214DF2072002F05BFA0021ED
:102E60004DF2082002F056FA5C214DF2092002F0E2
:102E700051FA00214DF20A2002F04CFA81214DF264
:102E80000B2002F047FA00214DF20C2002F042FA2A
:102E9000A6214DF20D2002F03DFA00214DF20E2048
:102EA00002F038FAE5214DF20F2002F033FA012149
:102EB0004DF2102002F02EFA13214DF2112002F0F3
:102EC00029FA01214DF2122002F024FA54214DF288
:102ED000132002F01FFA01214DF2142002F01AFA19
:102EE00082214DF2152002F015FA01214DF2162033
:102EF00002F010FACA214DF2172002F00BFA02215B
:102F00004DF2182002F006FA00214DF2192002F0CD
:102F100001FA02214DF21A2002F0FCF901214DF2D2
:102F20001B2002F0F7F902214DF21C2002F0F2F909
:102F300034214DF21D2002F0EDF902214DF21E2048
:102F400002F0E8F967214DF21F2002F0E3F90221B7
:102F50004DF2202002F0DEF984214DF2212002F012
:102F6000D9F902214DF2222002F0D4F9A4214DF228
:102F7000232002F0CFF902214DF2242002F0CAF9F9
:102F8000B7214DF2252002F0C5F902214DF226208D
:102F900002F0C0F9CF214DF2272002F0BBF9022147
:102FA0004DF2282002F0B6F9DE214DF2292002F080
:102FB000B1F902214DF22A2002F0ACF9F2214DF2D2
:102FC0002B2002F0A7F902214DF22C2002F0A2F9E9
:102FD000FE214DF22D2002F09DF903214DF22E200D
:102FE00002F098F910214DF22F2002F093F90321FD
:102FF0004DF2302002F08EF933214DF2312002F0F3
:1030000089F903214DF2322002F084F96D214DF24D
:10301000332002F07FF900214FF4534002F07AF997
:1030200033214DF2013002F075F900214DF20230EA
:1030300002F070F934214DF2033002F06BF90021F7
:103040004DF2043002F066F93A214DF2053002F0FB
:1030500061F900214DF2063002F05CF94A214DF28F
:10306000073002F057F900214DF2083002F052F912
:103070005C214DF2093002F04DF900214DF20A3089
:1030800002F048F981214DF20B3002F043F90021A2
:103090004DF20C3002F03EF9A6214DF20D3002F057
:1030A00039F900214DF20E3002F034F9E5214DF2EC
:1030B0000F3002F02FF901214DF2103002F02AF901
:1030C00013214DF2113002F025F901214DF2123099
:1030D00002F020F954214DF2133002F01BF90121C6
:1030E0004DF2143002F016F982214DF2153002F043
:1030F00011F901214DF2163002F00CF9CA214DF2FE
:10310000173002F007F902214DF2183002F002F9EF
:1031100000214DF2193002F0FDF802214DF21A3073
:1031200002F0F8F801214DF21B3002F0F3F8022111
:103130004DF21C3002F0EEF834214DF21D3002F059
:10314000E9F802214DF21E3002F0E4F867214DF259
:103150001F3002F0DFF802214DF2203002F0DAF8E1
:1031600084214DF2213002F0D5F802214DF22230B7
:1031700002F0D0F8A4214DF2233002F0CBF8022166
:103180004DF2243002F0C6F8B7214DF2253002F09E
:10319000C1F802214DF2263002F0BCF8CF214DF2E9
:1031A000273002F0B7F802214DF2283002F0B2F8D1
:1031B000DE214DF2293002F0ADF802214DF22A3025
:1031C00002F0A8F8F2214DF22B3002F0A3F8022110
:1031D0004DF22C3002F09EF8FE214DF22D3002F01F
:1031E00099F803214DF22E3002F094F810214DF29F
:1031F0002F3002F08FF803214DF2303002F08AF8C0
:1032000033214DF2313002F085F803214DF2323096
:1032100002F080F86D214DF2333002F07BF800218E
:103220004FF4544002F076F833214DF2014002F0A1
:1032300071F800214DF2024002F06CF834214DF299
:10324000034002F067F800214DF2044002F062F8FA
:103250003A214DF2054002F05DF800214DF20640A2
:1032600002F058F84A214DF2074002F053F80021CD
:103270004DF2084002F04EF85C214DF2094002F098
:1032800049F800214DF20A4002F044F881214DF244
:103290000B4002F03FF800214DF20C4002F03AF8EA
:1032A000A6214DF20D4002F035F800214DF20E40FE
:1032B00002F030F8E5214DF20F4002F02BF8012129
:1032C0004DF2104002F026F813214DF2114002F0A9
:1032D00021F801214DF2124002F01CF854214DF268
:1032E000134002F017F801214DF2144002F012F8D9
:1032F00082214DF2154002F00DF801214DF21640E9
:1033000002F008F8CA214DF2174002F003F802213A
:103310004DF2184001F0FEFF00214DF2194001F07E
:10332000F9FF02214DF21A4001F0F4FF01214DF2A4
:103330001B4001F0EFFF00E004E302214DF21C40CE
:1033400001F0E8FF34214DF21D4001F0E3FF0221BE
:103350004DF21E4001F0DEFF67214DF21F4001F0EB
:10336000D9FF02214DF2204001F0D4FF84214DF21B
:10337000214001F0CFFF02214DF2224001F0CAFFAF
:10338000A4214DF2234001F0C5FF02214DF224405B
:1033900001F0C0FFB7214DF2254001F0BBFF022133
:1033A0004DF2264001F0B6FFCF214DF2274001F04B
:1033B000B1FF02214DF2284001F0ACFFDE214DF2B9
:1033C000294001F0A7FF02214DF22A4001F0A2FF9F
:1033D000F2214DF22B4001F09DFF02214DF22C40D5
:1033E00001F098FFFE214DF22D4001F093FF0321E3
:1033F0004DF22E4001F08EFF10214DF22F4001F0D2
:1034000089FF03214DF2304001F084FF33214DF25A
:10341000314001F07FFF03214DF2324001F07AFF8D
:103420006D214DF2334001F075FF00214FF45540FE
:1034300001F070FF33214DF2015001F06BFF0021CC
:103440004DF2025001F066FF34214DF2035001F0BD
:1034500061FF00214DF2045001F05CFF3A214DF272
:10346000055001F057FF00214DF2065001F052FFC8
:103470004A214DF2075001F04DFF00214DF2085056
:1034800001F048FF5C214DF2095001F043FF00219B
:103490004DF20A5001F03EFF81214DF20B5001F038
:1034A00039FF00214DF20C5001F034FFA6214DF2FE
:1034B0000D5001F02FFF00214DF20E5001F02AFFB8
:1034C000E5214DF20F5001F025FF01214DF2105082
:1034D00001F020FF13214DF2115001F01BFF0121DB
:1034E0004DF2125001F016FF54214DF2135001F02D
:1034F00011FF01214DF2145001F00CFF82214DF219
:10350000155001F007FF01214DF2165001F002FFA6
:10351000CA214DF2175001F0FDFE02214DF2185064
:1035200001F0F8FE00214DF2195001F0F3FE0221E6
:103530004DF21A5001F0EEFE01214DF21B5001F048
:10354000E9FE02214DF21C5001F0E4FE34214DF25F
:103550001D5001F0DFFE02214DF21E5001F0DAFE97
:1035600067214DF21F5001F0D5FE02214DF220508F
:1035700001F0D0FE84214DF2215001F0CBFE02215A
:103580004DF2225001F0C6FEA4214DF2235001F06D
:10359000C1FE02214DF2245001F0BCFEB7214DF2D4
:1035A000255001F0B7FE02214DF2265001F0B2FE87
:1035B000CF214DF2275001F0ADFE02214DF22850EF
:1035C00001F0A8FEDE214DF2295001F0A3FE0221F8
:1035D0004DF22A5001F09EFEF2214DF22B5001F0E7
:1035E00099FE02214DF22C5001F094FEFE214DF285
:1035F0002D5001F08FFE03214DF22E5001F08AFE76
:1036000010214DF22F5001F085FE03214DF2305074
:1036100001F080FE33214DF2315001F07BFE032199
:103620004DF2325001F076FE6D214DF2335001F033
:1036300071FE00214FF4564001F06CFE33214DF233
:10364000016001F067FE00214DF2026001F062FEB0
:1036500034214DF2036001F05DFE00214DF2046063
:1036600001F058FE3A214DF2056001F053FE0021B1
:103670004DF2066001F04EFE4A214DF2076001F066
:1036800049FE00214DF2086001F044FE5C214DF23C
:10369000096001F03FFE00214DF20A6001F03AFEA0
:1036A00081214DF20B6001F035FE00214DF20C60DE
:1036B00001F030FEA6214DF20D6001F02BFE00213D
:1036C0004DF20E6001F026FEE5214DF20F6001F093
:1036D00021FE01214DF2106001F01CFE13214DF27C
:1036E000116001F017FE01214DF2126001F012FE8F
:1036F00054214DF2136001F00DFE01214DF21460D2
:1037000001F008FE82214DF2156001F003FE012157
:103710004DF2166001F0FEFDCA214DF2176001F076
:10372000F9FD02214DF2186001F0F4FD00214DF287
:10373000196001F0EFFD02214DF21A6001F0EAFD7F
:1037400001214DF21B6001F0E5FD02214DF21C60EC
:1037500001F0E0FD34214DF21D6001F0DBFD02219E
:103760004DF21E6001F0D6FD67214DF21F6001F0A1
:10377000D1FD02214DF2206001F0CCFD84214DF2FB
:10378000216001F0C7FD02214DF2226001F0C2FD6F
:10379000A4214DF2236001F0BDFD02214DF2246011
:1037A00001F0B8FDB7214DF2256001F0B3FD022113
:1037B0004DF2266001F0AEFDCF214DF2276001F001
:1037C000A9FD02214DF2286001F0A4FDDE214DF299
:1037D000296001F09FFD02214DF22A6001F09AFD5F
:1037E000F2214DF22B6001F095FD02214DF22C608B
:1037F00001F090FDFE214DF22D6001F08BFD0321C3
:103800004DF22E6001F086FD10214DF22F6001F087
:1038100081FD03214DF2306001F07CFD33214DF23A
:10382000316001F077FD03214DF2326001F072FD4D
:103830006D214DF2336001F06DFD55214FF4704064
:1038400001F068FDAA214FF2010001F063FD522151
:103850004FF2020001F05EFD08214FF2030001F07B
:1038600059FD00214FF2040001F054FDCC214FF42A
:10387000314001F04FFD00214BF2011001F04AFDF3
:1038800005214FF4364001F045FD70214FF43740DB
:1038900001F040FD70214BF2017001F03BFD012170
:1038A0004FF4384001F036FD03214BF6010001F0E2
:1038B00031FD03214BF6020001F02CFD03214BF6F4
:1038C000030001F027FD02214FF43C4001F022FDEE
:1038D00000214BF6014001F01DFD00214BF6024096
:1038E00001F018FDD0214FF4494001F013FD0221F1
:1038F0004CF6011001F00EFD50214CF6021001F0C3
:1039000009FD50214CF6031001F004FD50214CF646
:10391000041001F0FFFC00214FF4545001F0FAFCB8
:1039200055214FF4685001F0F5FC4FF4885001F038
:10393000DBFC782001F086FF4FF4245001F0D4FC2A
:1039400001F05EB9FE48808849F2253188427DD178
:1039500047F6F001E52001F0DDFC4FF48071012015
:1039600001F0D8FC4FF4E061022001F0D3FC41F2F9
:103970003001032001F0CEFC0021042001F0CAFC3C
:1039800040F20221082001F0C5FC0021092001F0CD
:10399000C1FC00210A2001F0BDFC00210C2001F037
:1039A000B9FC00210D2001F0B5FC00210F2001F031
:1039B000B1FC0021102001F0ADFC0721112001F025
:1039C000A9FC0021122001F0A5FC0021132001F028
:1039D000A1FC0021072001F09DFC41F29061102024
:1039E00001F098FC40F22721112001F093FC9D2169
:1039F000122001F08FFC4FF4C851132001F08AFC13
:103A00002521292001F086FC0D212B2001F082FCCC
:103A10000721302001F07EFC40F20331312001F01B
:103A200079FC0321322001F075FC40F2062135209B
:103A300001F070FC0821362001F06CFC40F20641D8
:103A4000372001F067FC4FF4417100E058E0382066
:103A500001F060FC0721392001F05CFC40F20261BA
:103A60003C2001F057FC08213D2001F053FC0021CF
:103A7000502001F04FFCEF21512001F04BFC0021C0
:103A8000522001F047FC40F23F11532001F042FC6C
:103A90004FF42741602001F03DFC0121612001F03D
:103AA00039FC00216A2001F035FC0021802001F062
:103AB00031FC0021812001F02DFC0021822001F049
:103AC00029FC0021832001F025FC0021842001F045
:103AD00021FC0021852001F01DFC1021902001F027
:103AE00019FC4FF4C061922001F014FC40F2331134
:103AF000072001F00FFC2221002001F00BFC1FE742
:103B00008F48808849F2283188427DD141F28F0167
:103B1000EC2001F0FFFB41F23421EF2001F0FAFB31
:103B20004FF48071012001F0F5FB4FF4E0610220B9
:103B300001F0F0FB41F23001032001F0EBFB00212A
:103B4000042001F0E7FB40F20221082001F0E2FB33
:103B50000021092001F0DEFB00210A2001F0DAFB40
:103B600001210C2001F0D6FB00210D2001F0D2FB39
:103B700000210F2001F0CEFB0021102001F0CAFB34
:103B80000721112001F0C6FB0021122001F0C2FB29
:103B90000021132001F0BEFB0121072001F0BAFB38
:103BA000322001F033FE41F29041102001F0B2FBCF
:103BB00040F22721112001F0ADFB322001F026FE5A
:103BC0008A21122001F0A6FB322001F01FFE4FF4E3
:103BD000D051132001F09EFB0621292001F09AFB11
:103BE0000D212B2001F096FB322001F00FFE002169
:103BF000202001F08FFB0021212001F08BFB3220DF
:103C000001F004FE002100E075E0302001F082FBAD
:103C100040F20461312001F07DFB40F20531322099
:103C200001F078FB0021352001F074FB40F60941DA
:103C3000362001F06FFB4FF40171372001F06AFB71
:103C400040F20131382001F065FB40F20771392064
:103C500001F060FB00213C2001F05CFB40F60A21F2
:103C60003D2001F057FB322001F0D0FD0021502013
:103C700001F050FBEF21512001F04CFB00215220BC
:103C800001F048FB40F23F11532001F043FB4FF499
:103C90002741602001F03EFB0121612001F03AFB49
:103CA00000216A2001F036FB0021802001F032FB68
:103CB0000021812001F02EFB0021822001F02AFB4F
:103CC0000021832001F026FB0021842001F022FB4B
:103CD0000021852001F01EFB1021902001F01AFB2D
:103CE0004FF4C061922001F015FB40F23311072020
:103CF00001F010FB24E61248808849F22031884206
:103D00007ED10021084601F005FB4FF480710120AF
:103D100001F000FB4FF4E061022001F0FBFA41F2F8
:103D20003001032001F0F6FA0021042001F0F2FA3C
:103D300040F20221082001F0EDFA0021092001E003
:103D40000C01002001F0E6FA00210A2001F0E2FA5D
:103D500001210C2001F0DEFA00210D2001F0DAFA39
:103D600000210F2001F0D6FA322001F04FFD40F281
:103D70000111072001F0CEFA322001F047FD4FF487
:103D80008651102001F0C6FA0721112001F0C2FA75
:103D90004FF48871122001F0BDFA4FF43061132006
:103DA00001F0B8FA0021292001F0B4FA44F2100120
:103DB0002B2001F0AFFA0021502001F0ABFAEF21E7
:103DC000512001F0A7FA0021522001F0A3FA40F29D
:103DD0003F11532001F09EFA4FF41C51602001F076
:103DE00099FA0121612001F095FA00216A2001F081
:103DF00091FA0021802001F08DFA0021812000E05D
:103E000030E001F087FA0021822001F083FA0021DE
:103E1000832001F07FFA0021842001F07BFA002149
:103E2000852001F077FA1021902001F073FA00212B
:103E3000922001F06FFA0121932001F06BFA4FF408
:103E40008871952001F066FA0021972001F062FA4E
:103E50000021982001F05EFA40F27311072001F072
:103E600059FA6DE5FE48808849F2313188427DD1AA
:103E700041F21401E72001F04DFA4FF48071012066
:103E800001F048FA4FF40071022001F043FA41F2C8
:103E90003801032001F03EFA40F20221082001F02F
:103EA00039FA0021092001F035FA00210A2001F039
:103EB00031FA00210C2001F02DFA00210D2001F033
:103EC00029FA00210F2001F025FA0021102001F02D
:103ED00021FA0721112001F01DFA0021122001F022
:103EE00019FA0021132001F015FAC82001F08EFC08
:103EF00041F29061102001F00DFA40F227211120CB
:103F000001F008FA322001F081FC0C21122001F0AE
:103F100001FA322001F07AFC4FF40061132001F025
:103F2000F9F91121292001F0F5F90B212B2001F0DD
:103F3000F1F9322001F06AFC0021202001F0EAF9B9
:103F400040F23F11212001F0E5F90021302001F07D
:103F5000E1F94FF48371312001F0DCF900213220C6
:103F600001F0D8F94FF40171352000E064E001F070
:103F7000D1F941F20A61362001F0CCF940F2077123
:103F8000372001F0C7F94FF48371382001F0C2F9EE
:103F900040F20771392001F0BDF940F202413C20A6
:103FA00001F0B8F940F60F413D2001F0B3F90021CE
:103FB000502001F0AFF9EF21512001F0ABF90021C1
:103FC000522001F0A7F940F23F11532001F0A2F96D
:103FD0004FF41C51602001F09DF90121612001F096
:103FE00099F900216A2001F095F90021802001F063
:103FF00091F90021812001F08DF90021822001F04A
:1040000089F90021832001F085F90021842001F045
:1040100081F90021852001F07DF91021902001F027
:1040200079F94FF4C061922001F074F940F2331134
:10403000072001F06FF983E48948808845F2084140
:1040400088427DD14FF48071012001F063F94FF473
:10405000E061022001F05EF941F23001032001F03D
:1040600059F90021042001F055F940F207210820F8
:1040700001F050F90021092001F04CF900210A203B
:1040800001F048F900210C2001F044F900210D2035
:1040900001F040F900210F2001F03CF9142001F05B
:1040A000B5FB41F2B061102001F034F9012111207B
:1040B00001F030F90121172001F02CF94FF49C7127
:1040C000122001F027F94FF40061132001F022F9CA
:1040D0000921292001F01EF909212A2001F01AF9ED
:1040E0000021A42001F016F90021502001F012F95E
:1040F000EF21512001F00EF90021522001F00AF9C0
:1041000040F23F11532001F005F94FF41C5160209B
:1041100001F000F90121612001F0FCF800216A2082
:1041200001F0F8F80021802001F0F4F8002181204E
:1041300001F0F0F80021822001F0ECF8002100E00D
:1041400024E0832001F0E6F80021842001F0E2F869
:104150000021852001F0DEF81321902001F0DAF82B
:104160000021922001F0D6F80321932001F0D2F82B
:104170004FF48871952001F0CDF840F273110720BB
:1041800001F0C8F8322001F041FBB8E434488088DF
:1041900041F2055188427DD10021072001F0BAF893
:1041A000322001F033FB4FF48E71122001F0B2F88F
:1041B0000121A42001F0AEF80F21082001F0AAF897
:1041C00008210A2001F0A6F808210D2001F0A2F82C
:1041D00040F20771302001F09DF80721312001F0F5
:1041E00099F840F20361322001F094F84FF4E06155
:1041F000332001F08FF840F20221342001F08AF8D8
:104200000221352001F086F841F60F71362001F0C9
:1042100081F840F20771372001F07CF80021382046
:1042200001F078F80021392001F074F840F20771AC
:104230003A2001F06FF800213B2001F06BF80721D4
:104240003C2001F067F800213D2001F063F83220A6
:1042500001F0DCFA0121072001F05CF8012101E006
:104260000C010020172001F055F8322001F0CEFAA1
:104270004FF4BD51102001F04DF840F217211120EC
:1042800001F048F84FF48F71122001F043F84FF419
:10429000706100E098E0132001F03CF800212A2032
:1042A00001F038F80A21292001F034F84FF49F7109
:1042B000122001F02FF80021502001F02BF8EF21FF
:1042C000512001F027F80021522001F023F840F29C
:1042D0003F11532001F01EF84FF41C51602001F0F3
:1042E00019F80121612001F015F800216A2001F080
:1042F00011F80021802001F00DF80021812001F04B
:1043000009F80021822001F005F80021832001F046
:1043100001F80021842000F0FDFF0021852000F03D
:10432000F9FF1321902000F0F5FF4FF44071922027
:1043300000F0F0FF0521932000F0ECFF0021952014
:1043400000F0E8FF0021972000F0E4FF0021982012
:1043500000F0E0FF4FF48071012000F0DBFF4FF42C
:10436000E061022000F0D6FF41F23801032000F0A6
:10437000D1FF0021042000F0CDFF00210C2000F02F
:10438000C9FF00210F2000F0C5FF0021202000F010
:10439000C1FF0021212000F0BDFF2121072000F0F6
:1043A000B9FF142001F032FA6121072000F0B2FFBA
:1043B000142001F02BFA40F27311072000F0AAFF3D
:1043C000142001F023FA95E4FE4880884BF2055151
:1043D00088427CD10021084600F09CFF002108465D
:1043E00000F098FF0021084600F094FF00210846E5
:1043F00000F090FF0121A42000F08CFF142001F0B8
:1044000005FA4FF41C51602000F084FF40F20221B5
:10441000082000F07FFF4FF40571302000F07AFF94
:1044200043F21571312000F075FF40F20461322033
:1044300000F070FF40F61661332000F06BFF42F28F
:104440001121342000F066FF4FF4A851352000F010
:1044500061FF48F20751362000F05CFF41F207414E
:10446000372000F057FF41F20341382000F052FF9F
:104470002021392000F04EFF1A21902000F04AFF41
:104480000021102000F046FF0721112000F042FF1C
:104490000021122000F03EFF0021132000F03AFF1F
:1044A000142001F0B3F94FF4E661102000F032FF60
:1044B00040F23711112000F02DFF142001F0A6F971
:1044C0004FF4DC71122000F025FF142000E085E09D
:1044D00001F09CF94FF47061132000F01BFF802164
:1044E0002A2000F017FF4821292000F013FF142094
:1044F00001F08CF94FF48071012000F00BFF4FF4B4
:10450000E061022000F006FF41F23801032000F0D4
:1045100001FF40F20221082000F0FCFE00210A20E9
:1045200000F0F8FE00210C2000F0F4FE00210D2028
:1045300000F0F0FE30210E2000F0ECFE00215020B3
:1045400000F0E8FEEF21512000F0E4FE00215220AF
:1045500000F0E0FE40F23F11532000F0DBFE4FF48C
:104560001C51602000F0D6FE0121612000F0D2FE37
:1045700000216A2000F0CEFE1121902000F0CAFE3A
:104580004FF4C061922000F0C5FE40F2024193203A
:1045900000F0C0FE0221942000F0BCFE142001F0C7
:1045A00035F90121072000F0B5FE142001F02EF9A5
:1045B0006121072000F0AEFE40F27311072000F0E9
:1045C000A9FE0021202000F0A5FE0021212000F0FE
:1045D000A1FE2221002000F09DFE11E37948808891
:1045E0004CF2055188427CD10021084600F092FE31
:1045F0000021084600F08EFE142001F007F900218A
:10460000084600F087FE0021084600F083FE0021E6
:10461000084600F07FFE0021084600F07BFE0121E5
:10462000A42000F077FE142001F0F0F84FF41C51A4
:10463000602000F06FFE40F60601082000F06AFEE0
:1046400040F20371302000F065FE0121312000F0BE
:1046500061FE0421322000F05DFE4FF481713320B1
:1046600000F058FE4FF44071342000F053FE40F249
:104670000311352000F04EFE1F21362000F04AFEC7
:1046800040F20371372000F045FE0121382000F090
:1046900041FE0421392000F03DFE1521902000F05C
:1046A00039FE4FF48261102000F034FE40F24721C1
:1046B000112000F02FFE4FF4DE71122000F02AFED0
:1046C0004FF46061132000F025FE782001F09EF881
:1046D0004FF48071012000F01DFE4FF400710220A4
:1046E00000E052E000F016FE41F23001032000F03D
:1046F00011FE08210A2000F00DFE00210C2000F020
:1047000009FE20210E2000F005FE00210F2000F000
:1047100001FE0021202000F0FDFD0021212000F0FD
:10472000F9FD3D212A2000F0F5FD142001F06EF87E
:104730002D21292000F0EEFD0021502000F0EAFD9F
:104740004DF2EF01512000F0E5FD0021522000F074
:10475000E1FD40F23F11532000F0DCFD002161201B
:1047600000F0D8FD00216A2000F0D4FD4FF4407124
:10477000922000F0CFFD0521932000F0CBFD4FF4F7
:104780008071072000F0C6FD3AE20E48808844F2AE
:10479000315188427ED10121002000F0BBFD0A206A
:1047A00001F034F841F22861102000F0B3FD0E2131
:1047B000122000F0AFFD40F63921132000F0AAFDD1
:1047C0000A2001E00C01002001F020F84021112016
:1047D00000F0A0FD5021152000F09CFD0A2001F002
:1047E00015F81E21122000F095FD0A2001F00EF8A8
:1047F0004FF4B151102000F08DFD42F63921132005
:1048000000F088FD0A2001F001F84FF480710120CA
:1048100000F080FD4FF44071022000F07BFD41F27A
:104820003801032000F076FD40F20221082000F05C
:1048300071FD08210A2000F06DFD0021302000F0FC
:1048400069FD40F20241312000F064FD4FF48371B4
:10485000322000F05FFD40F20351332000F05AFD9A
:104860004FF48271342000F055FD40F201313520C3
:1048700000F050FD40F20771362000F04BFD40F291
:104880000531372000F046FD4FF40271382000F06A
:1048900041FD00E03EE040F60B71392000F03AFDAA
:1048A0000221412000F036FD4FF41C51602000F041
:1048B00031FD0121612000F02DFD4FF404719020A5
:1048C00000F028FD4FF48571922000F023FD0421B3
:1048D000932000F01FFD4FF48071A02000F01AFD1E
:1048E0000121072000F016FD2121072000F012FD14
:1048F0002321072000F00EFD3321072000F00AFDE0
:1049000040F23311072000F005FD0021A02000F047
:1049100001FD75E1C048808844F2355188427CD160
:104920003021152000F0F6FC10219A2000F0F2FC56
:104930002021112000F0EEFC43F22841102000F06D
:10494000E9FC0221122000F0E5FC41F238011320BD
:1049500000F0E0FC282000F059FF1221084600F08A
:10496000D9FC282000F052FF43F22041102000F033
:10497000D1FC43F23801132000F0CCFC462000F0BB
:1049800045FF0021302000F0C5FC40F202413120FB
:1049900000F0C0FC40F20731322000F0BBFC4FF4C5
:1049A0004171332000F0B6FC0421342000F0B2FC49
:1049B00040F20141352000F0ADFC40F20771362095
:1049C00000F0A8FC40F20531372000F0A3FC4FF4C2
:1049D000C261382000F09EFC4FF4C261392000F023
:1049E00099FC4FF48071012000F094FC4FF4407169
:1049F000022000F08FFC41F23001032000F08AFC1D
:104A000040F60801082000F085FC08210A2000F08B
:104A100081FC4FF41C51602000E033E000F07AFC90
:104A20000121612000F076FC4FF49F71902000F08E
:104A300071FC4FF48071922000F06CFC4FF4807197
:104A4000932000F067FC4FF44051A02000F062FC7E
:104A50001021A32000F05EFC0121072000F05AFC89
:104A60002121072000F056FC2321072000F052FCF2
:104A70003321072000F04EFC40F23311072000F0F4
:104A800049FCBDE06448808841F663118842F8D152
:104A9000E22000F029FC1D2000F01AFC022000F0AA
:104AA00017FC042000F014FC642000F0CBFEE02092
:104AB00000F01AFC012000F00BFC0A2000F0A6FE1A
:104AC000E02000F011FC032000F002FC0C2000F0BC
:104AD0009DFE012000F008FC0A2000F097FEE62071
:104AE00000F002FC2F2000F0F3FBFF2000F0F0FBB1
:104AF000FF2000F0EDFBB02000F0F6FB202000F0DE
:104B0000E7FB002000F0E4FB032000F0E1FB40F2B3
:104B10001F3000F0DDFB012000F0DAFB40F2DF1077
:104B200000F0D6FB002000F0D3FBB42000F0DCFB4B
:104B3000042000F0CDFB40F21F4000F0C9FB002034
:104B400000F0C6FB2E2000F0C3FB002000F0C0FBED
:104B5000002000F0BDFB002000F0BAFB002000F0B8
:104B6000B7FBB62000F0C0FB022000F0B1FB4FF411
:104B7000037000F0ADFB002000F0AAFB172000F04E
:104B8000A7FB152000F0A4FB002000F0A1FB0020F3
:104B900000F09EFBF02000F0A7FB032000F098FB44
:104BA000292000F0A1FBD02000F09EFB002000F0A7
:104BB0008FFBBE2000F098FB052000F089FBFE2053
:104BC00000F086FB012000F083FB002000F080FB5A
:104BD000002000F07DFB002000F07AFBB82000F000
:104BE00083FB032000F074FB012000F071FBBA206E
:104BF00000F07AFB012000F06BFB642000F026F847
:104C00000020FCF779F90120044908604FF6FF7095
:104C1000FCF73CF91CBD00000C0100209C02414245
:104C200008B5034800880090BDF8000008BD0000EA
:104C30000008006C10B50446204600F055FB052026
:104C400000F000FEFFF7ECFF10BD000070B52DED89
:104C5000048B0446BE2000F047FB052000F038FB23
:104C6000204601F04CF841EC190B9FED0E0B53EC74
:104C7000102B01F057F841EC180B01F013F885B236
:104C8000284600F025FB012000F022FBFF2000F069
:104C90001FFB002000F01CFB002000F019FBBDEC06
:104CA000048B70BD6666666666660440F0B50546B0
:104CB00000240027B748807901280BD1B5488088A7
:104CC00046F60401884205D0B248808841F6631157
:104CD000884208D1AF488079F0B9AE48808841F663
:104CE0006311884218D1082D15D2DFE805F00406BB
:104CF000080A0C0E101206250DE007250BE004250E
:104D000009E0052507E0012505E0002503E003256E
:104D100001E0022500BF00BF9E48808849F2413172
:104D2000884217D09B48808846F60401884211D0FB
:104D30009848808845F2103188420BD09548808889
:104D400045F21051884205D09248808841F663119F
:104D500088427DD1082D1CD2DFE805F00406090C3D
:104D60000F12151800BF14E044F0800411E044F065
:104D700040040EE044F0C0040BE044F0200408E0DE
:104D800044F0600405E044F0A00402E044F0E004D4
:104D900000BF00BF7F48808845F21051884202D191
:104DA0004FF4585700E036277A48808845F2103192
:104DB00088420DD07748808845F21051884207D04C
:104DC0007448808841F66311884201D044F0080499
:104DD0007048808846F60401884201D144F00204FC
:104DE0002146384600F096FA6A48808841F66311F9
:104DF00088421DD004F0200068B1664800886549EB
:104E00004988884214DA63480688408861490880E6
:104E1000084646800CE05F4800885E494988884221
:104E200006DD5C48068840885A4908800846468066
:104E30005848808845F21051884254D155494889D4
:104E400000F052FA002000F043FA5249498900E08C
:104E500078E0491C88B200F047FA002000F038FAE8
:104E60004C494989891C88B200F03EFA49490988B1
:104E7000491EC1F30F2000F02BFA46494989C91C8D
:104E800088B200F031FA43490978491EC8B200F0EF
:104E90001FFA4049888900F027FA002000F018FA2C
:104EA0003C498989491C88B200F01EFA002000F0B4
:104EB0000FFA38498989891C88B200F015FA3549FA
:104EC0004988491EC1F30F2000F002FA314989894F
:104ED000C91C88B200F008FA2E498978491EC8B268
:104EE00000F0F6F955E02B49488900F0FDF9002063
:104EF00000F0EEF9002000F0EBF926490988491E80
:104F0000C1F30F2000F0E4F922490978491EC8B224
:104F100000F0DEF91F49888900F0E6F9002000F072
:104F2000D7F9002000F0D4F91A494988491EC1F385
:104F30000F2000F0CDF917498978491EC8B200F05A
:104F4000C7F926E0082D1CD2DFE805F004070A0D9A
:104F50000F12151844F0300413E044F0100410E070
:104F600044F020040DE000BF0BE044F0380408E0FA
:104F700044F0280405E044F0180402E044F008047A
:104F800000BF00BF032744F480542146384600F098
:104F9000C1F9F0BD0C01002030B504460D4667484C
:104FA000808849F24131884205D06448808845F2C2
:104FB0001031884214D16149488900F095F92012D6
:104FC00000F086F9E0B200F083F95C49888900F0CE
:104FD0008BF9281200F07CF9E8B200F079F9ABE027
:104FE0005648808846F6040188421DD1534880798E
:104FF000012804D151480088401E001B84B24F494B
:10500000488900F071F9201200F062F9E0B200F076
:105010005FF94A49888900F067F9281200F058F9C9
:10502000E8B200F055F987E04448808841F6631102
:10503000884247D141488079A8B940480088401E3D
:10504000001B84B23D49488900F04EF9002000F071
:105050003FF9002000F03CF9201200F039F9E0B2ED
:1050600000F036F916E03549488900F03DF9201284
:1050700000F02EF9E0B200F02BF930490988491E02
:10508000C1F30F2000F024F92C490978491EC8B259
:1050900000F01EF92949888900F026F9281200F04D
:1050A00017F9E8B200F014F924494988491EC1F300
:1050B0000F2000F00DF921498978491EC8B200F08F
:1050C00007F939E01D48808845F21051884220D107
:1050D0001A49488900F008F9201200F0F9F8174938
:1050E0004989491C88B200F0FFF8E0B200F0F0F8FE
:1050F0001249888900F0F8F8281200F0E9F80F4901
:105100008989491C88B200F0EFF8E8B200F0E0F8B5
:1051100012E00A488079012804D108480088401E1E
:10512000001B84B205494889214600F0F3F8034981
:105130008889294600F0EEF830BD00000C010020FF
:105140002DE9F84F80460E4617461C46B3462046CA
:10515000E31704EB5373DB1021464FEAE47C04EBC6
:105160005C7C4FEAEC0CA4EBCC0CBCF1000F02D041
:105170004FF0010C01E04FF0000C6344224604EBB9
:10518000D27C4FEA6C0C03FB0CF3DBB20093A7F16B
:105190002000C7B2002556E00C2C07D107EB4700D2
:1051A0002B4901EB800010F8059013E0102C05D17D
:1051B000284800EB071010F805900BE0182C07D1D9
:1051C00007EBC700244901EB800010F8059001E0CF
:1051D000BDE8F88F4FF0000A2FE009F0800030B1F1
:1051E0001E48028831464046FBF766FF07E00A98F2
:1051F00028B91B48028831464046FBF75DFF4FEA5D
:1052000049604FEA1069701C86B216484088B04267
:1052100000DCDDE7A6EB0B00A0420AD15E4608F1F8
:1052200001001FFA80F80F480088404500DCCFE7F6
:1052300006E00AF1010000F0FF0ABAF1080FCCDB2A
:1052400000BF681CC5B200988542A5DB00BFBFE760
:10525000345F0008A8630008986900080A0000206D
:105260000C0000200C0100202DE9F84704460D46F3
:1052700090469946DDE9096704F0FF0A08EB04004F
:105280001FFA80F809EB05001FFA80F916E0444583
:1052900002DB5446A81985B24D4500DB14E000201E
:1052A00000903A78334629462046FFF749FF3046BA
:1052B00006EBD07104EB61018CB27F1C38787E283C
:1052C00002DC38782028E2DA00BFBDE8F887000069
:1052D00001B5BDF800000090BDF80000014908804C
:1052E00008BD00000008006C01B5BDF8000000908A
:1052F000BDF800000149088008BD0000FE07006CF1
:105300000248008902490880704700000C01002013
:10531000FE07006C024A1080921C1180704700004A
:10532000FE07006C1CB50C48006840F040000A49BC
:1053300008600120032100230246CDE900104FF44C
:1053400010710648FBF7ECFA012005490860054991
:10535000C1F8A4021CBD0000303802400018024011
:1053600098024342000043421CB54FF6FF70FBF722
:105370008DFD1F200949088009A01021CDE90010EA
:1053800008490988183988B21023C8220021FFF77C
:105390006BFF4FF47840014908801CBD0A000020D3
:1053A000525354000C0100202DE9F0410746884675
:1053B00014461D46284600F033F8C5F1040007FAEC
:1053C00000F60F20284100EA0800064306F00F0609
:1053D000E21704EBD2625211920002F1E022D2F8FD
:1053E00000212146E31704EBD3635B11A4EB431CBC
:1053F000012303FA0CF31A432046E31704EBD363AB
:105400005B119B0003F1E023C3F800210348005D1A
:1054100040EA061001490855BDE8F08100E400E0CB
:105420000146072323EA01021202054B18684FF6D2
:10543000FF031840034B18431043014B186070479B
:105440000CED00E00000FA054A0A52020243014B4B
:105450001A60704708ED00E0F0B504460D461646A8
:105460001F461448006840F00100124908600020FF
:105470001049083108600F4800680F4908400D497D
:1054800008600E48091D0860081F006820F480208D
:10549000091F0860002007490C3108603B4632466E
:1054A0002946204600F00CF800210846FFF7CCFF03
:1054B000F0BD000000380240FFFFF6FE103000246F
:1054C000F0B504460D46002100203D4E366846F4F6
:1054D00080363B4F3E6001E04E1CB1B2384E36681C
:1054E00006F400361EB941F6FF76B142F4DB41F610
:1054F000FF76B14201D1012060E0314E403636687E
:1055000046F080562E4F40373E602E4E366846F4A9
:1055100040462C4F3E602A4E0836366846F4144604
:10552000274F08373E60264E366826F08076244F97
:105530003E6045EA84160127C7EB520746EA074654
:1055400046EA036646F480061D4F3F1D3E603E1F3F
:10555000366846F080763F1F3E6000BF184E3668C2
:1055600006F00076002EF9D0174E366846F48076A5
:10557000154F3E603E46366846F400763E603E4635
:10558000366846F480663E603E46366846F005065C
:105590003E600B4E0836366826F00306084F083783
:1055A0003E603E46366846F002063E6000BF044E4E
:1055B0000836366806F00C06082EF8D1F0BD00005B
:1055C0000038024000700040003C024010B5114815
:1055D000808845F2105188421AD1FBF711FA10B9B0
:1055E0000D480E4948600D4890F8300040F08000AA
:1055F0000A4981F83000084690F830000549897959
:1056000001F001010843054981F83000002010BD78
:105610000120FCE70C010020850B00081000002091
:105620001C49098801F0200109B31A498988C8B2C8
:105630001949098801F40041C9B91749098801F4D9
:10564000804161B10A2803D00021134A118020E073
:105650001149098841F400410F4A118019E00D28D1
:1056600006D10D49098841F480410B4A118010E0B0
:1056700009490988C1F30D01084A505406490988AF
:10568000491C054A118011460988C72901DD0021FE
:1056900011807047001001400800002044000020E5
:1056A000014600BF7047000088B00024002584E058
:1056B0004248416800208847002469E03F4890F84C
:1056C00020000121A140084000285AD03B480C305E
:1056D00030F814003A490988884257DA37481630BA
:1056E00030F814003649498888424FDA03A830F868
:1056F00024004FF6FF7188420DD130480C3030F84D
:10570000140003A921F824002C48163030F81400A6
:1057100001EB840148802B4830F814000221274E09
:105720001636CDE9001036F814300A3E36F814204B
:1057300003AE06EB8406718803AE36F8240000F051
:1057400035F91E480C3030F8140003A921F8240064
:105750001A48163030F8140001EB840148801748CD
:105760000C3030F8141016480088183881420DDDCE
:105770001248163030F81400142807DAFFF7F4FD49
:1057800004E04FF6FF7003A921F82400601CC4B2A6
:10579000052C93DB052000F039F8681CC5B21420F5
:1057A00095FBF0F100FB115038B90748006808B9C3
:1057B000012000E000200449086079E71000002083
:1057C0000C0100202A5F0008980243424FF0E021BC
:1057D000096921F004014FF0E0221161C21700EBCA
:1057E0005272C2F3C702074B1A701946097801EBCF
:1057F0004102C2EBC1114FF6FF7202EAC101024A37
:1058000011807047000000200200002070B504469F
:105810004FF4077094FBF0F0C6B24FF4077094FB9E
:10582000F0F100FB114085B205E04FF4077000F085
:1058300027F8701EC6B2002EF7D115B1284600F029
:105840001FF870BD01460D4A12784A434FF0E0231D
:105850005A6100229A6101221A6100BF4FF0E022D2
:10586000106900F001021AB100F48032002AF5D06C
:1058700000224FF0E0231A619A6170470000002077
:1058800001460D4A12884A434FF0E0235A61002234
:105890009A6101221A6100BF4FF0E022106900F006
:1058A00001021AB100F48032002AF5D000224FF034
:1058B000E0231A619A6170470200002000BF054A88
:1058C000128802F04002002AF9D0C2B2014B9A803D
:1058D0007047000000100140F8B505460E4614461A
:1058E0001F4604B9F8BD2819401E82B2334631461E
:1058F00028460097FBF79EFC00BFF3E72DE9F05F19
:105900000746884616469A4640F2C32070434FF435
:105910007A71B0FBF1F000F1010906FB06F000EB33
:10592000560B344671040A0CB91B88B253464146E3
:10593000FFF7D2FF012535E005FB05F004FB04006D
:1059400058451AD94C4517D96B1E5B041A0C08EB45
:10595000040399B27B1B5B1C98B25346FFF7BCFF54
:105960006B1E5B041A0CA8EB040399B27B1B5B1C37
:1059700098B25346FFF7B0FF641E63041A0C08EB9D
:10598000050399B23B1B98B25346FFF7A5FF63048A
:105990001A0CA8EB050399B23B1B98B25346FFF7CC
:1059A0009BFF6D1C4D45C7D9BDE8F09F2DE9FF4F0A
:1059B00085B080468946129F002003900290B8452A
:1059C00007DB0798B84204DBB94502DB0898B84208
:1059D00002DA09B0BDE8F08F0798A0EB0804089838
:1059E000A0EB0905CDF80480CDF80090002C02DD75
:1059F0004FF0010A06E014B94FF0000A02E04FF040
:105A0000FF3A6442002D02DD4FF0010B06E015B9AC
:105A10004FF0000B02E04FF0FF3B6D42AC4201DD66
:105A2000264600E02E460020049023E0009A91B222
:105A3000019A90B23A46139BFFF760FF0398204407
:105A400003900298284402900398B04205DD039821
:105A5000801B03900198504401900298B04205DDEC
:105A60000298801B02900098584400900498401CB3
:105A700080B20490711C04988842D7DD00BFA8E76B
:105A80001CB50723022208214FF4A870FFF7E4FC9D
:105A9000A820FFF79BFE4FF4E131542000F082F87C
:105AA000FFF740FCFBF724FCFBF7C8F92649086820
:105AB00080474FF478402549088025A010210B46E7
:105AC000C822CDE9001032211E20FFF7CDFB25A012
:105AD00010210B46C822CDE9001046211E20FFF7F9
